:100000003BC100000C94852F0C94B62F0C94E72F65
:100010000C9418300C9449300C947A300C94AB301A
:100020000C94DC305AC1000058C1000056C10000D9
:1000300054C100000C94CA3850C100004EC10000E9
:100040004CC100004AC1000048C1000046C1000088
:1000500044C1000042C1000040C100000C940D31B9
:100060003CC100000C9409350C943F3536C10000AA
:1000700034C1000032C1000030C100002EC10000B8
:100080002CC100002AC1000028C1000026C10000C8
:100090000C94AB350C94E13520C100001EC100006A
:1000A0001CC100001AC1000018C1000016C10000E8
:1000B00014C1000012C1000010C100000EC10000F8
:1000C0000CC100000AC100000C942D390C944D366F
:1000D0000C94833602C100000C94EF360C94253743
:1000E000FCC000001520B121142216220C213D2154
:1000F000D61FF61FBA1FF321E221EF211622162286
:100100001622A51F4A324F3254325E326832E13233
:1001100072327A3282328C329632A032AF32B932B7
:10012000E132C332CD32D73203330633F532F932FE
:10013000FF323D330A330E33143318331C3322336A
:1001400026332A333D3330333433383300000A0B3F
:1001500002090C0D0E080703040100000000000056
:10016000000000000000000000000000000000008F
:10017000000000000000000012111000000000004C
:10018000000000000000000000000000000000006F
:10019000000001021020200808102040102040809C
:1001A000020102010804020101020408102040803B
:1001B00080402010080402018004020180402010C9
:1001C0000804020108040201010204081020408012
:1001D00001020408102040800505050507050808F0
:1001E0000808020202020A0A0808040404040101C1
:1001F00001010101010103030303030303030407D6
:1002000007070C0C0C0C0C0C0C0C0202020206066C
:100210000606060606060B0B0B0B0B0B0B0B000062
:1002200020002300260029002C002F0032000001AE
:10023000000003010601090100002200250028003A
:100240002B002E00310034000201000005010801DE
:100250000B0100002100240027002A002D0030009F
:10026000330001010000040107010A0102006835A2
:100270000A36AC364E37C83711241FBECFEFD1E255
:10028000DEBFCDBF00E00CBF19E0A0E0B2E0EEEEB3
:10029000FAE800E00BBF02C007900D92AE33B10741
:1002A000D9F72EE0AEE3B9E001C01D92A83EB20737
:1002B000E1F712E0C8E7D2E000E006C022970109AA
:1002C000FE010BBF0E941744CE36D10780E008071D
:1002D000A9F70E944E410C94754592CE2F923F9201
:1002E0004F925F926F927F928F929F92AF92BF9246
:1002F000CF92DF92EF92FF920F931F93CF93DF93F2
:1003000000D000D0CDB7DEB77E836D831A014801DF
:100310005901BC0180E090E00E94D64269837A8353
:100320008B839C83ED81FE812081318142815381C9
:100330000E943E4287FD85C0F401EE0FFF1FEE0FC5
:10034000FF1F8D819E81E80FF91F2081318142813D
:10035000538169817A818B819C810E943E4287FF13
:1003600062C0240135017694679457944794C12C58
:10037000D12C7601D501C4018C199D09AE09BF09A4
:100380000297A105B10528F1F201EE0FFF1FEE0F54
:10039000FF1F8D819E81E80FF91F208131814281ED
:1003A000538169817A818B819C810E943E4287FFC3
:1003B00003C05301420102C07301620126013701EB
:1003C000480C591C6A1C7B1C76946794579447947C
:1003D000D1CF8601000F111F000F111FED81FE818B
:1003E0000E0F1F1FF80180809180A280B380A501AD
:1003F000940169817A818B819C810E94D9412B0172
:100400003C01A5019401F801648175818681978181
:100410000E94D9419B01AC01C301B2010E9442423A
:100420004B015C0114C075016401F1E0CF1AD108E1
:10043000E108F108812C912C90E8A92E9FE3B92EB8
:1004400006C0C12CD12C7601812C912C5401D601EF
:100450001196AA0FBB1FAA0FBB1FA20DB31DFD0152
:1004600034974080518062807380A30192016D9126
:100470007D918D919C910E94D941A50194010E948A
:100480008C43A30192010E94DA4126960FB6F8949C
:10049000DEBF0FBECDBFDF91CF911F910F91FF90B7
:1004A000EF90DF90CF90BF90AF909F908F907F9014
:1004B0006F905F904F903F902F900895CF93DF9370
:1004C000EC0161E088810E943E3361E08C81DF9124
:1004D000CF910C943E334F925F926F927F928F92A6
:1004E0009F92AF92BF92CF92DF92EF92FF920F93C3
:1004F0001F93CF93DF9300D01F92CDB7DEB76983F0
:100500007A838B839C8349015A0127013801F601C4
:1005100020893189428953890E94884318162CF01A
:10052000F601448455846684778420E030E040E816
:1005300053E4C301B2010E943E4287FF0EC020E097
:1005400030E0A901C301B2010E94884387FD07C0C2
:10055000C301B2010E94AA4203C06FEF01C060E074
:10056000F60180810E947733F60124893589468916
:10057000578969817A818B819C810E9488431816F2
:100580002CF0F60180849184A284B38420E030E0D2
:1005900040E853E4C501B4010E943E4287FF0EC00B
:1005A00020E030E0A901C501B4010E94884387FD25
:1005B00007C0C501B4010E94AA4203C06FEF01C089
:1005C00060E070E0F60184810F900F900F900F9023
:1005D000DF91CF911F910F91FF90EF90DF90CF901F
:1005E000BF90AF909F908F907F906F905F904F9053
:1005F0000C9426329F92AF92BF92CF92DF92EF92ED
:10060000FF920F931F93CF93DF93982ECB01BA01E4
:100610005901E801992049F1F6012081213029F1A1
:10062000F70124853585468557850E94884318162D
:1006300034F4F701608171818281938104C0688103
:1006400079818A819B81F701208931894289538987
:100650000E94DA41F501608371838283938368830A
:1006600079838A839B8384E08C83F6019082DF9177
:10067000CF911F910F91FF90EF90DF90CF90BF909F
:10068000AF909F9008952F923F924F925F926F92FA
:100690007F928F929F92AF92BF92CF92DF92EF9212
:1006A000FF920F931F93CF93DF93CDB7DEB7C85C54
:1006B000D1090FB6F894DEBF0FBECDBF8091A50D56
:1006C000992787FD90950197029710F080E001C06F
:1006D00083E08093A50D809186070E94013209E096
:1006E00010E020E030E04EE254E066E574E0F6DD34
:1006F0009B01AC016093600E7093610E8093620E5B
:100700009093630E60912A0470912B0480912C04C5
:1007100090912D040E94D9416B017C016093640E7D
:100720007093650E8093660E9093670E20918204FD
:100730003091830440918404509185040E948C433D
:100740002091860430918704409188045091890457
:100750000E948C432091FC0C3091FD0C4091FE0CCA
:100760005091FF0C0E94DA414B015C016093680ECE
:100770007093690E80936A0E90936B0E20917E04A5
:1007800030917F044091800450918104C701B601EB
:100790000E948C43A50194010E94DA416B017C0107
:1007A0008090DE039090DF03A090E003B090E1031F
:1007B000A50194010E94884318169CF580926C0E46
:1007C00090926D0EA0926E0EB0926F0E2091080D59
:1007D0003091090D40910A0D50910B0D298F3A8FE0
:1007E0004B8F5C8F8091040D9091050DA091060DAB
:1007F000B091070D8D8F9E8FAF8FB8A32091000D04
:100800003091010D4091020D5091030D29A33AA39F
:100810004BA35CA306E914E074E5872E7EE0972ED7
:1008200019C08090CA039090CB03A090CC03B090E5
:10083000CD03A5019401C701B6010E943E4287FD88
:10084000BDCFC0926C0ED0926D0EE0926E0EF09203
:100850006F0EBCCF58010C5F1F4FD50158962D91DC
:100860003D914D915C915B97698D7A8D8B8D9C8DBF
:100870000E948C436B017C01F501248535854685FA
:1008800057856D8D7E8D8F8D98A10E948C432B0195
:100890003C01D5012D913D914D915C9169A17AA1C9
:1008A0008BA19CA10E948C439B01AC01C301B201AE
:1008B0000E94DA419B01AC01C701B6010E94DA41F6
:1008C000F40161937193819391934F01F4E0023AA3
:1008D0001F0709F0BFCF20918E0430918F04409103
:1008E00090045091910460916C0E70916D0E809106
:1008F0006E0E90916F0E0E948C4320919204309165
:10090000930440919404509195040E944242209196
:10091000580E3091590E40915A0E50915B0E0E9424
:10092000D9414B015C012091EE043091EF044091DC
:10093000F0045091F1040E948C432091F204309114
:10094000F3044091F4045091F5040E948C432091EB
:100950000C0D30910D0D40910E0D50910F0D0E9418
:10096000DA416B017C016093700E7093710E80937D
:10097000720E9093730E2091EA043091EB04409133
:10098000EC045091ED04C501B4010E948C43A70111
:1009900096010E94DA414B015C01E090E203F09085
:1009A000E3030091E4031091E5039701A8010E947D
:1009B0008843181684F0E090CE03F090CF030091A6
:1009C000D0031091D1039701A801B401C5010E9481
:1009D0003E4287FF02C047015801E090FA04F090C0
:1009E000FB040091FC041091FD04609126047091B9
:1009F000270480912804909129045EE0C52E58E0D8
:100A0000D52E9401A50167DD4090100D5090110D79
:100A10006090120D7090130D8090140D9090150D34
:100A2000A090160DB090170D2091180D3091190D52
:100A300040911A0D50911B0D298F3A8F4B8F5C8F6F
:100A400006E015E064E7262E6EE0362ED8016D91A3
:100A50007D918D919D918D01A30192010E948C4306
:100A600020E030E0A9010E94DA416B017C01F8012D
:100A70002085318542855385C501B4010E948C4390
:100A80009B01AC01C701B6010E94DA416B017C01F8
:100A9000D80154962D913D914D915C915797698D58
:100AA0007A8D8B8D9C8D0E948C439B01AC01C7017C
:100AB000B6010E94DA41F1016193719381939193A0
:100AC0001F01F5E002311F0709F62091FE04309165
:100AD000FF04409100055091010560916C0E7091EA
:100AE0006D0E80916E0E90916F0E0E948C4320913E
:100AF00002053091030540910405509105050E94BF
:100B000042422091780E3091790E40917A0E5091A8
:100B10007B0E0E94D9416B017C016093800E709323
:100B2000810E8093820E9093830E20915E0530910A
:100B30005F0540916005509161050E948C432091B2
:100B400062053091630540916405509165050E94EE
:100B50008C4320911C0D30911D0D40911E0D509124
:100B60001F0D0E94DA414B015C016093840E70936B
:100B7000850E8093860E9093870E20915A053091B2
:100B80005B0540915C0550915D05C701B6010E946F
:100B90008C43A50194010E94DA416B017C01809095
:100BA000E6039090E703A090E803B090E903A50165
:100BB00094010E948843181684F08090D20390908C
:100BC000D303A090D403B090D503A5019401C7012D
:100BD000B6010E943E4287FF09C08092880E909223
:100BE000890EA0928A0EB0928B0E08C0C092880E19
:100BF000D092890EE0928A0EF0928B0E20910E0414
:100C000030910F044091100450911104609126041A
:100C10007091270480912804909129040E948843B0
:100C200018164CF4C090FA04D090FB04E090FC0439
:100C3000F090FD0408C0C0900A04D0900B04E0902E
:100C40000C04F0900D0420E030E040E853E4C701CC
:100C5000B6010E943E4287FF0EC020E030E0A901AD
:100C6000C701B6010E94884387FD07C0C701B601CE
:100C70000E94AA4203C06FEF01C060E08091F203BE
:100C80000E94773320911204309113044091140490
:100C900050911504609126047091270480912804D6
:100CA000909129040E94884318164CF4C090880E35
:100CB000D090890EE0908A0EF0908B0E08C0C09004
:100CC0000604D0900704E0900804F090090420E0A6
:100CD00030E040E853E4C701B6010E943E4287FF7E
:100CE0000EC020E030E0A901C701B6010E94884390
:100CF00087FD07C0C701B6010E94AA4203C06FEF7B
:100D000001C060E070E08091F6030E9426322091DD
:100D1000280D3091290D40912A0D50912B0D298FCE
:100D20003A8F4B8F5C8F8091240D9091250DA0916F
:100D3000260DB091270D8D8F9E8FAF8FB8A3209178
:100D4000200D3091210D4091220D5091230D29A3AA
:100D50003AA34BA35CA302E715E044E5842E4EE0E2
:100D6000942E58010C5F1F4FD50158962D913D913F
:100D70004D915C915B97698D7A8D8B8D9C8D0E94D6
:100D80008C436B017C01F5012485358546855785AB
:100D90006D8D7E8D8F8D98A10E948C432B013C011F
:100DA000D5012D913D914D915C9169A17AA18BA1C5
:100DB0009CA10E948C439B01AC01C301B2010E9423
:100DC000DA419B01AC01C701B6010E94DA41F4018E
:100DD00061937193819391934F01F5E00E371F0753
:100DE00009F0BFCF20916A0530916B0540916C05E9
:100DF00050916D0560916C0E70916D0E80916E0E2C
:100E000090916F0E0E948C4320916E0530916F057A
:100E100040917005509171050E9442422091580EF8
:100E20003091590E40915A0E50915B0E0E94D9415B
:100E30004B015C012091CA053091CB054091CC0556
:100E40005091CD050E948C432091CE053091CF0565
:100E50004091D0055091D1050E948C4320912C0DDA
:100E600030912D0D40912E0D50912F0D0E94DA41A1
:100E70006B017C0160938C0E70938D0E80938E0EAF
:100E800090938F0E2091C6053091C7054091C805FB
:100E90005091C905C501B4010E948C43A701960178
:100EA0000E94DA414B015C01E090EA03F090EB0311
:100EB0000091EC031091ED039701A8010E94884373
:100EC000181684F0E090D603F090D7030091D80371
:100ED0001091D9039701A801B401C5010E943E42B7
:100EE00087FF02C047015801E090FA04F090FB042C
:100EF0000091FC041091FD04609126047091270478
:100F0000809128049091290426EFC22E27E0D22E4A
:100F10009401A501E0DA2091380D3091390D40910E
:100F20003A0D50913B0D298F3A8F4B8F5C8F8091FA
:100F3000340D9091350DA091360DB091370D8D8FF8
:100F40009E8FAF8FB8A32091300D3091310D40911D
:100F5000320D5091330D29A33AA34BA35CA30EEDA0
:100F600015E034E5832E3EE0932E58010C5F1F4FB1
:100F7000D50158962D913D914D915C915B97698D6E
:100F80007A8D8B8D9C8D0E948C436B017C01F501C9
:100F900024853585468557856D8D7E8D8F8D98A1ED
:100FA0000E948C432B013C01D5012D913D914D9127
:100FB0005C9169A17AA18BA19CA10E948C439B01A9
:100FC000AC01C301B2010E94DA419B01AC01C7012F
:100FD000B6010E94DA41F401619371938193919378
:100FE0004F01F5E00A3E1F0709F0BFCF2091D6055B
:100FF0003091D7054091D8055091D90560916C0E7C
:1010000070916D0E80916E0E90916F0E0E948C43C8
:101010002091DA053091DB054091DC055091DD052A
:101020000E9442422091580E3091590E40915A0E22
:1010300050915B0E0E94D9412B013C012091360654
:101040003091370640913806509139060E948C4302
:1010500020913A0630913B0640913C0650913D0666
:101060000E948C4320913C0D30913D0D40913E0DEE
:1010700050913F0D0E94DA414B015C016093900E4C
:101080007093910E8093920E9093930E209132065E
:10109000309133064091340650913506298F3A8FAE
:1010A0004B8F5C8F20911E0430911F0440912004CF
:1010B00050912104609126047091270480912804A6
:1010C000909129040E94884318164CF4C090FA04A9
:1010D000D090FB04E090FC04F090FD0408C0C090A8
:1010E0001A04D0901B04E0901C04F0901D0420E032
:1010F00030E040E853E4C701B6010E943E4287FF5A
:101100000EC020E030E0A901C701B6010E9488436B
:1011100087FD07C0C701B6010E94AA4203C06FEF56
:1011200001C060E08091FA030E947733209122048D
:1011300030912304409124045091250460912604A9
:101140007091270480912804909129040E9488437B
:1011500018167CF5298D3A8D4B8D5C8DC301B2013B
:101160000E948C43A50194010E94DA415B016C014D
:10117000E090EE03F090EF030091F0031091F10383
:101180009701A8010E9488431816DCF0E090DA036A
:10119000F090DB030091DC031091DD039701A801BF
:1011A000B501C6010E943E4287FD0BC07501860154
:1011B00008C0E0901604F0901704009118041091F4
:1011C000190420E030E040E853E4B701C8010E9470
:1011D0003E4287FF0EC020E030E0A901B701C80100
:1011E0000E94884387FD07C0B701C8010E94AA4238
:1011F00003C06FEF01C060E070E08091FE030E94C9
:10120000263280918A070E94AC3331E0CB55DF4F04
:101210003883C55AD04090919A07981728F0CB553B
:10122000DF4F1882C55AD040BB24B39480918E0DF5
:10123000CB55DF4F4881C55AD040841708F0B12CF8
:1012400080918E070E94AC3351E0CA55DF4F58831E
:10125000C65AD04090919B07981728F0CA55DF4F87
:101260001882C65AD0408824839480918F0DCA5525
:10127000DF4F9881C65AD040891708F0812C8091A1
:1012800092070E94AC33A1E0C955DF4FA883C75A2B
:10129000D04090919C07981728F0C955DF4F1882CD
:1012A000C75AD040AA24A3948091900DC955DF4F0E
:1012B000B881C75AD0408B1708F0A12C80919607AF
:1012C0000E94AC33E1E0C855DF4FE883C85AD040F4
:1012D00090919D07981728F0C855DF4F1882C85A7B
:1012E000D040992493948091910DC855DF4FF88197
:1012F000C85AD0408F1708F0912C40914206509167
:1013000043066091440670914506EBEFCE2EECE06B
:10131000DE2EF0EEEF2EF7E0FF2E01EA1DE020EECC
:101320003EE0882D67D94091420650914306609176
:10133000440670914506AAEFCA2EACE0DA2EBAEC4C
:10134000EB2EB7E0FB2E0CE91DE02CED3EE08A2DE4
:1013500051D94091420650914306609144067091E4
:10136000450619EFC12E1CE0D12E04EBE02E07E05C
:10137000F02E07E91DE028ED3EE0892D3BD9409194
:10138000420650914306609144067091450688EFED
:10139000C82E8CE0D82E9EE9E92E97E0F92E02E9BE
:1013A0001DE024ED3EE08B2D25D92091400D30919C
:1013B000410D4091420D5091430D298F3A8F4B8F33
:1013C0005C8F8091440D9091450DA091460DB09198
:1013D000470D8D8F9E8FAF8FB8A32091480D309110
:1013E000490D40914A0D50914B0D29A33AA34BA3AF
:1013F0005CA380914C0D90914D0DA0914E0DB0913C
:101400004F0DC358DF4F88839983AA83BB83CD5781
:10141000D040209156063091570640915806509181
:101420005906698D7A8D8B8D9C8D0E948C436B0142
:101430007C012091660630916706409168065091C4
:1014400069066D8D7E8D8F8D98A10E948C439B01C6
:10145000AC01C701B6010E94DA416B017C01209109
:10146000760630917706409178065091790669A109
:101470007AA18BA19CA10E948C439B01AC01C70166
:10148000B6010E94DA416B017C0120918606309101
:1014900087064091880650918906C358DF4F6881BE
:1014A00079818A819B81CD57D0400E948C439B01DA
:1014B000AC01C701B6010E94DA416DA37EA38FA3E0
:1014C00098A76093940E7093950E8093960E9093C8
:1014D000970E20915A0630915B0640915C06509120
:1014E0005D06698D7A8D8B8D9C8D0E948C436B017E
:1014F0007C0120916A0630916B0640916C065091F8
:101500006D066D8D7E8D8F8D98A10E948C439B0101
:10151000AC01C701B6010E94DA416B017C01209148
:101520007A0630917B0640917C0650917D0669A138
:101530007AA18BA19CA10E948C439B01AC01C701A5
:10154000B6010E94DA416B017C0120918A0630913C
:101550008B0640918C0650918D06C358DF4F6881F1
:1015600079818A819B81CD57D0400E948C439B0119
:10157000AC01C701B6010E94DA4169A77AA78BA71F
:101580009CA76093980E7093990E80939A0E9093F7
:101590009B0E20915E0630915F064091600650914F
:1015A0006106698D7A8D8B8D9C8D0E948C436B01B9
:1015B0007C0120916E0630916F064091700650912B
:1015C00071066D8D7E8D8F8D98A10E948C439B013D
:1015D000AC01C701B6010E94DA416B017C01209188
:1015E0007E0630917F06409180065091810669A168
:1015F0007AA18BA19CA10E948C439B01AC01C701E5
:10160000B6010E94DA416B017C0120918E06309177
:101610008F064091900650919106C358DF4F688124
:1016200079818A819B81CD57D0400E948C439B0158
:10163000AC01C701B6010E94DA416DA77EA78FA752
:1016400098AB60939C0E70939D0E80939E0E90932A
:101650009F0E20916206309163064091640650917E
:101660006506698D7A8D8B8D9C8D0E948C436B01F4
:101670007C0120917206309173064091740650915E
:1016800075066D8D7E8D8F8D98A10E948C439B0178
:10169000AC01C701B6010E94DA416B017C012091C7
:1016A000820630918306409184065091850669A197
:1016B0007AA18BA19CA10E948C439B01AC01C70124
:1016C000B6010E94DA416B017C01209192063091B3
:1016D00093064091940650919506C358DF4F688158
:1016E00079818A819B81CD57D0400E948C439B0198
:1016F000AC01C701B6010E94DA4169AB7AAB8BAB92
:101700009CAB6093A00E7093A10E8093A20E909359
:10171000A30E2091500D3091510D4091520D5091DA
:10172000530D6D962CAF3DAF4EAF5FAF6D9780916F
:10173000540D9091550DA091560DB091570DA19655
:101740008CAF9DAFAEAFBFAFA1972091580D309138
:10175000590D40915A0D50915B0DA5962CAF3DAFA0
:101760004EAF5FAFA59780915C0D90915D0DA091FC
:101770005E0DB0915F0DCF57DF4F88839983AA83A9
:10178000BB83C158D0402091A6063091A706409156
:10179000A8065091A9066D966CAD7DAD8EAD9FAD3E
:1017A0006D970E948C436B017C012091B6063091AD
:1017B000B7064091B8065091B906A1966CAD7DADC3
:1017C0008EAD9FADA1970E948C439B01AC01C701D8
:1017D000B6010E94DA416B017C012091C60630916E
:1017E000C7064091C8065091C906A5966CAD7DAD5F
:1017F0008EAD9FADA5970E948C439B01AC01C701A4
:10180000B6010E94DA416B017C012091D60630912D
:10181000D7064091D8065091D906CF57DF4F68813F
:1018200079818A819B81C158D0400E948C439B0161
:10183000AC01C701B6010E94DA4169AF7AAF8BAF44
:101840009CAF6093A40E7093A50E8093A60E909308
:10185000A70E2091AA063091AB064091AC0650919C
:10186000AD066D966CAD7DAD8EAD9FAD6D970E9452
:101870008C436B017C012091BA063091BB064091EC
:10188000BC065091BD06A1966CAD7DAD8EAD9FADF1
:10189000A1970E948C439B01AC01C701B6010E9435
:1018A000DA416B017C012091CA063091CB06409150
:1018B000CC065091CD06A5966CAD7DAD8EAD9FAD9D
:1018C000A5970E948C439B01AC01C701B6010E9401
:1018D000DA416B017C012091DA063091DB06409100
:1018E000DC065091DD06CF57DF4F688179818A8110
:1018F0009B81C158D0400E948C439B01AC01C70121
:10190000B6010E94DA4121966CAF7DAF8EAF9FAFDA
:1019100021976093A80E7093A90E8093AA0E9093BE
:10192000AB0E2091AE063091AF064091B0065091BB
:10193000B1066D966CAD7DAD8EAD9FAD6D970E947D
:101940008C436B017C012091BE063091BF06409113
:10195000C0065091C106A1966CAD7DAD8EAD9FAD18
:10196000A1970E948C439B01AC01C701B6010E9464
:10197000DA416B017C012091CE063091CF06409177
:10198000D0065091D106A5966CAD7DAD8EAD9FADC4
:10199000A5970E948C439B01AC01C701B6010E9430
:1019A000DA416B017C012091DE063091DF06409127
:1019B000E0065091E106CF57DF4F688179818A8137
:1019C0009B81C158D0400E948C439B01AC01C70150
:1019D000B6010E94DA4125966CAF7DAF8EAF9FAF06
:1019E00025976093AC0E7093AD0E8093AE0E9093DE
:1019F000AF0E2091B2063091B3064091B4065091DB
:101A0000B5066D966CAD7DAD8EAD9FAD6D970E94A8
:101A10008C436B017C012091C2063091C30640913A
:101A2000C4065091C506A1966CAD7DAD8EAD9FAD3F
:101A3000A1970E948C439B01AC01C701B6010E9493
:101A4000DA416B017C012091D2063091D30640919E
:101A5000D4065091D506A5966CAD7DAD8EAD9FADEB
:101A6000A5970E948C439B01AC01C701B6010E945F
:101A7000DA416B017C012091E2063091E30640914E
:101A8000E4065091E506CF57DF4F688179818A815E
:101A90009B81C158D0400E948C439B01AC01C7017F
:101AA000B6010E94DA4129966CAF7DAF8EAF9FAF31
:101AB00029976093B00E7093B10E8093B20E9093FD
:101AC000B30E2091600D3091610D4091620D5091E7
:101AD000630DA9962CAF3DAF4EAF5FAFA997809134
:101AE000640D9091650DA091660DB091670DAD9656
:101AF0008CAF9DAFAEAFBFAFAD972091680D309169
:101B0000690D40916A0D50916B0DE1962CAF3DAF80
:101B10004EAF5FAFE19780916C0D90916D0DA091EC
:101B20006E0DB0916F0DCB57DF4F88839983AA83D9
:101B3000BB83C558D0402091F6063091F7064091FE
:101B4000F8065091F906A9966CAD7DAD8EAD9FADAE
:101B5000A9970E948C436B017C012091060730916C
:101B600007074091080750910907AD966CAD7DAD10
:101B70008EAD9FADAD970E948C439B01AC01C70118
:101B8000B6010E94DA416B017C0120911607309169
:101B900017074091180750911907E1966CAD7DAD7C
:101BA0008EAD9FADE1970E948C439B01AC01C701B4
:101BB000B6010E94DA416B017C0120912607309129
:101BC00027074091280750912907CB57DF4F68819D
:101BD00079818A819B81C558D0400E948C439B01AA
:101BE000AC01C701B6010E94DA41C357DF4F6883D9
:101BF00079838A839B83CD58D0406093B40E7093D1
:101C0000B50E8093B60E9093B70E2091FA063091E0
:101C1000FB064091FC065091FD06A9966CAD7DAD8A
:101C20008EAD9FADA9970E948C436B017C012091E2
:101C30000A0730910B0740910C0750910D07AD96A4
:101C40006CAD7DAD8EAD9FADAD970E948C439B0179
:101C5000AC01C701B6010E94DA416B017C01209101
:101C60001A0730911B0740911C0750911D07E19600
:101C70006CAD7DAD8EAD9FADE1970E948C439B0115
:101C8000AC01C701B6010E94DA416B017C012091D1
:101C90002A0730912B0740912C0750912D07CB57E5
:101CA000DF4F688179818A819B81C558D0400E942D
:101CB0008C439B01AC01C701B6010E94DA41CF56AB
:101CC000DF4F688379838A839B83C159D0406093B7
:101CD000B80E7093B90E8093BA0E9093BB0E2091FC
:101CE000FE063091FF064091000750910107A9962A
:101CF0006CAD7DAD8EAD9FADA9970E948C436B01FD
:101D00007C0120910E0730910F07409110075091F0
:101D10001107AD966CAD7DAD8EAD9FADAD970E94B8
:101D20008C439B01AC01C701B6010E94DA416B01F3
:101D30007C0120911E0730911F0740912007509190
:101D40002107E1966CAD7DAD8EAD9FADE1970E9410
:101D50008C439B01AC01C701B6010E94DA416B01C3
:101D60007C0120912E0730912F0740913007509130
:101D70003107CB57DF4F688179818A819B81C558B4
:101D8000D0400E948C439B01AC01C701B6010E9468
:101D9000DA41CB56DF4F688379838A839B83C559A9
:101DA000D0406093BC0E7093BD0E8093BE0E909396
:101DB000BF0E209102073091030740910407509114
:101DC0000507A9966CAD7DAD8EAD9FADA9970E941C
:101DD0008C436B017C0120911207309113074091D5
:101DE000140750911507AD966CAD7DAD8EAD9FADCE
:101DF000AD970E948C439B01AC01C701B6010E94C4
:101E0000DA416B017C012091220730912307409138
:101E1000240750912507E1966CAD7DAD8EAD9FAD49
:101E2000E1970E948C439B01AC01C701B6010E945F
:101E3000DA416B017C0120913207309133074091E8
:101E4000340750913507CB57DF4F688179818A81FC
:101E50009B81C558D0400E948C439B01AC01C701B7
:101E6000B6010E94DA41C756DF4F688379838A83BF
:101E70009B83C959D0406093C00E7093C10E80936C
:101E8000C20E9093C30E2091700D3091710D409150
:101E9000720D5091730DE5962CAF3DAF4EAF5FAF15
:101EA000E5978091740D9091750DA091760DB0918C
:101EB000770DE9968CAF9DAFAEAFBFAFE99720919C
:101EC000780D3091790D40917A0D50917B0DED9602
:101ED0002CAF3DAF4EAF5FAFED9780917C0D9091F1
:101EE0007D0DA0917E0DB0917F0DC757DF4F888388
:101EF0009983AA83BB83C958D0402091460730916B
:101F000047074091480750914907E5966CAD7DAD74
:101F10008EAD9FADE5970E948C436B017C012091B3
:101F20005607309157074091580750915907E99645
:101F30006CAD7DAD8EAD9FADE9970E948C439B014A
:101F4000AC01C701B6010E94DA416B017C0120910E
:101F50006607309167074091680750916907ED96D1
:101F60006CAD7DAD8EAD9FADED970E948C439B0116
:101F7000AC01C701B6010E94DA416B017C012091DE
:101F80007607309177074091780750917907C757C6
:101F9000DF4F688179818A819B81C958D0400E9436
:101FA0008C439B01AC01C701B6010E94DA41CF54BA
:101FB000DF4F688379838A839B83C15BD0406093C2
:101FC000C40E7093C50E8093C60E9093C70E2091D9
:101FD0004A0730914B0740914C0750914D07E596C9
:101FE0006CAD7DAD8EAD9FADE5970E948C436B01CE
:101FF0007C0120915A0730915B0740915C0750911A
:102000005D07E9966CAD7DAD8EAD9FADE9970E9401
:102010008C439B01AC01C701B6010E94DA416B0100
:102020007C0120916A0730916B0740916C075091B9
:102030006D07ED966CAD7DAD8EAD9FADED970E94B9
:102040008C439B01AC01C701B6010E94DA416B01D0
:102050007C0120917A0730917B0740917C07509159
:102060007D07C757DF4F688179818A819B81C95875
:10207000D0400E948C439B01AC01C701B6010E9475
:10208000DA41CB54DF4F688379838A839B83C55BB6
:10209000D0406093C80E7093C90E8093CA0E90937F
:1020A000CB0E20914E0730914F0740915007509131
:1020B0005107E5966CAD7DAD8EAD9FADE5970E9465
:1020C0008C436B017C0120915E0730915F0740914A
:1020D000600750916107E9966CAD7DAD8EAD9FAD07
:1020E000E9970E948C439B01AC01C701B6010E9495
:1020F000DA416B017C0120916E0730916F074091AE
:10210000700750917107ED966CAD7DAD8EAD9FADB2
:10211000ED970E948C439B01AC01C701B6010E9460
:10212000DA416B017C0120917E0730917F0740915D
:10213000800750918107C757DF4F688179818A8175
:102140009B81C958D0400E948C439B01AC01C701C0
:10215000B6010E94DA41C754DF4F688379838A83CE
:102160009B83C95BD0406093CC0E7093CD0E80935F
:10217000CE0E9093CF0E209152073091530740918D
:10218000540750915507E5966CAD7DAD8EAD9FAD72
:10219000E5970E948C436B017C012091620730918E
:1021A00063074091640750916507E9966CAD7DAD7A
:1021B0008EAD9FADE9970E948C439B01AC01C70196
:1021C000B6010E94DA416B017C01209172073091C7
:1021D00073074091740750917507ED966CAD7DAD16
:1021E0008EAD9FADED970E948C439B01AC01C70162
:1021F000B6010E94DA416B017C0120918207309187
:1022000083074091840750918507C757DF4F688146
:1022100079818A819B81C958D0400E948C439B015F
:10222000AC01C701B6010E94DA41C354DF4F688395
:1022300079838A839B83CD5BD0406093D00E70936B
:10224000D10E8093D20E9093D30E8091680E909110
:10225000690EA0916A0EB0916B0E8093FC0C909366
:10226000FD0CA093FE0CB093FF0C2091080D309153
:10227000090D40910A0D50910B0DC755DF4F288372
:1022800039834A835B83C95AD0408091040D909171
:10229000050DA091060DB091070DC355DF4F888342
:1022A0009983AA83BB83CD5AD0402091000D3091F1
:1022B000010D4091020D5091030DCB53DF4F288348
:1022C00039834A835B83C55CD040AE01435F5F4F77
:1022D0001A018EEB93E02B969FAF8EAF2B97A2EB5C
:1022E000B3E02F96BFAFAEAF2F97E6EAF3E0639669
:1022F000FFAFEEAF639726E733E067963FAF2EAFB1
:10230000679742E853E0C356DF4F59834883CD595E
:10231000D0408EE893E09EAB8DABAAE9B3E0CF55F9
:10232000DF4FB983A883C15AD04000E010E0CF55F9
:10233000DF4FE881F981C15AD0406191719181915B
:102340009191CF55DF4FF983E883C15AD040ADA9B1
:10235000BEA98D909D90AD90BD90BEABADABC35668
:10236000DF4FE881F981CD59D04041905190619083
:102370007190C356DF4FF983E883CD59D0406796FB
:10238000AEADBFAD67972D913D914D915D91679633
:10239000BFAFAEAF6797CF53DF4F288339834A83F0
:1023A0005B83C15CD0402DA13EA14FA158A50E94E6
:1023B0008C436B017C01C755DF4F288139814A81ED
:1023C0005B81C95AD040C501B4010E948C434B01C6
:1023D0005C01C355DF4F288139814A815B81CD5A29
:1023E000D040C301B2010E948C432B013C01CB536E
:1023F000DF4F288139814A815B81C55CD040CF5352
:10240000DF4F688179818A819B81C15CD0400E94C5
:102410008C439B01AC01C301B2010E94DA419B01D4
:10242000AC01C501B4010E94DA419B01AC01C701B6
:10243000B6010E94DA416B017C016396EEADFFADFF
:10244000639761917191819191916396FFAFEEAF26
:10245000639729A53AA54BA55CA50E948C439B01D7
:10246000AC01C701B6010E94DA416B017C012F96D5
:10247000AEADBFAD2F976D917D918D919D912F96B2
:10248000BFAFAEAF2F972DA53EA54FA558A90E946F
:102490008C439B01AC01C701B6010E94DA416B017C
:1024A0007C012B96EEADFFAD2B97619171918191DF
:1024B00091912B96FFAFEEAF2B9729A93AA94BA983
:1024C0005CA90E948C439B01AC01C701B6010E942C
:1024D000DA41D1016D937D938D939D931D010F5F23
:1024E0001F4F0330110509F022CF8091700E90919B
:1024F000710EA091720EB091730E80930C0D90939B
:102500000D0DA0930E0DB0930F0D2091180D30916D
:10251000190D40911A0D50911B0DC356DF4F2883A2
:1025200039834A835B83CD59D0408091140D9091BB
:10253000150DA091160DB091170DCF55DF4F888363
:102540009983AA83BB83C15AD0402091100D30914A
:10255000110D4091120D5091130DC355DF4F28837B
:1025600039834A835B83CD5AD04040E05DE05EA36F
:102570004DA3CE0101961C01AEEBB3E0BAA7A9A70B
:10258000E2EBF3E0FEA7EDA726EA33E03AAB29AB96
:1025900046E753E05EAB4DAB82E893E02B969FAFEE
:1025A0008EAF2B97AEE8B3E02F96BFAFAEAF2F97AD
:1025B000EAE9F3E06396FFAFEEAF63979E01235F16
:1025C0003F4F67963FAF2EAF679700E010E06796EA
:1025D000EEADFFAD679781919191A191B191679611
:1025E000FFAFEEAF6797EDA1FEA181939193A19309
:1025F000B193FEA3EDA36396AEADBFAD63976D91AE
:102600007D918D919D916396BFAFAEAF63972F96ED
:10261000EEADFFAD2F9781909190A190B1902F9644
:10262000FFAFEEAF2F972B96AEADBFAD2B974D9072
:102630005D906D907D902B96BFAFAEAF2B97ADA9FF
:10264000BEA92D913D914D915D91BEABADABC755EE
:10265000DF4F288339834A835B83C95AD04029AD31
:102660003AAD4BAD5CAD0E948C436B017C01C3560F
:10267000DF4F288139814A815B81CD59D040C50126
:10268000B4010E948C434B015C01CF55DF4F288180
:1026900039814A815B81C15AD040C301B2010E9495
:1026A0008C432B013C01C355DF4F288139814A817E
:1026B0005B81CD5AD040C755DF4F688179818A81CF
:1026C0009B81C95AD0400E948C439B01AC01C3013D
:1026D000B2010E94DA419B01AC01C501B4010E9424
:1026E000DA419B01AC01C701B6010E94DA416B01DE
:1026F0007C01E9A9FAA96191719181919191FAAB5B
:10270000E9AB21962CAD3DAD4EAD5FAD21970E945A
:102710008C439B01AC01C701B6010E94DA416B01F9
:102720007C01ADA5BEA56D917D918D919D91BEA7BA
:10273000ADA725962CAD3DAD4EAD5FAD25970E9462
:102740008C439B01AC01C701B6010E94DA416B01C9
:102750007C01E9A5FAA56191719181919191FAA706
:10276000E9A729962CAD3DAD4EAD5FAD29970E94EE
:102770008C439B01AC01C701B6010E94DA41D10133
:102780006D937D938D939D931D010F5F1F4F0330BC
:10279000110509F01CCF8091840E9091850EA091B7
:1027A000860EB091870E80931C0D90931D0DA09303
:1027B0001E0DB0931F0D2091280D3091290D4091D1
:1027C0002A0D50912B0D2D962CAF3DAF4EAF5FAF24
:1027D0002D978091240D9091250DA091260DB091FB
:1027E000270D61968CAF9DAFAEAFBFAF61972091C3
:1027F000200D3091210D4091220D5091230D6996AD
:102800002CAF3DAF4EAF5FAF699740E15DE05EA397
:102810004DA3CE010D961C01AEEBB3E0BAA7A9A75C
:10282000E2EBF3E0FEA7EDA726EA33E03AAB29ABF3
:1028300046E753E05AAF49AF82E893E09EAF8DAFD1
:10284000AEE8B3E02396BFAFAEAF2397EAE9F3E07B
:102850002796FFAFEEAF27979E012F5F3F4F3EAB0E
:102860002DAB00E010E0EDA9FEA981919191A1911D
:10287000B191FEABEDABEDA1FEA181939193A1933C
:10288000B193FEA3EDA32796AEADBFAD27976D9193
:102890007D918D919D912796BFAFAEAF27972396DF
:1028A000EEADFFAD239781909190A190B1902396CA
:1028B000FFAFEEAF2397ADADBEAD4D905D906D9087
:1028C0007D90BEAFADAFA9ADBAAD2D913D914D910B
:1028D0005D91BAAFA9AF65962CAF3DAF4EAF5FAF7C
:1028E0006597C357DF4F288139814A815B81CD5875
:1028F000D0400E948C436B017C012D962CAD3DADE8
:102900004EAD5FAD2D97C501B4010E948C434B01C4
:102910005C0161962CAD3DAD4EAD5FAD6197C301DD
:10292000B2010E948C432B013C0169962CAD3DAD58
:102930004EAD5FAD699765966CAD7DAD8EAD9FADCB
:1029400065970E948C439B01AC01C301B2010E94B8
:10295000DA419B01AC01C501B4010E94DA419B013F
:10296000AC01C701B6010E94DA416B017C01E9A903
:10297000FAA96191719181919191FAABE9ABCF562E
:10298000DF4F288139814A815B81C159D0400E9443
:102990008C439B01AC01C701B6010E94DA416B0177
:1029A0007C01ADA5BEA56D917D918D919D91BEA738
:1029B000ADA7CB56DF4F288139814A815B81C5594C
:1029C000D0400E948C439B01AC01C701B6010E941C
:1029D000DA416B017C01E9A5FAA5619171918191C0
:1029E0009191FAA7E9A7C756DF4F288139814A811B
:1029F0005B81C959D0400E948C439B01AC01C70147
:102A0000B6010E94DA41D1016D937D938D939D9320
:102A10001D010F5F1F4F0330110509F024CF809176
:102A20008C0E90918D0EA0918E0EB0918F0E809392
:102A30002C0D90932D0DA0932E0DB0932F0D209162
:102A4000380D3091390D40913A0D50913B0DCF56D4
:102A5000DF4F288339834A835B83C159D0408091FB
:102A6000340D9091350DA091360DB091370DCB56A8
:102A7000DF4F88839983AA83BB83C559D0402091B7
:102A8000300D3091310D4091320D5091330D2DAB01
:102A90003EAB4FAB58AF40E25DE027965FAF4EAF25
:102AA0002797CE0101961C01AEEBB3E0BEA3ADA308
:102AB000E2EBF3E0FAA7E9A726EA33E03EA72DA769
:102AC00046E753E05AAB49AB82E893E09AAF89AF4F
:102AD000AEE8B3E0BEAFADAFEAE9F3E02396FFAFF7
:102AE000EEAF23979E01235F3F4FC357DF4F3983DC
:102AF0002883CD58D04000E010E0C357DF4FE88175
:102B0000F981CD58D04081919191A191B191C35754
:102B1000DF4FF983E883CD58D0402796EEADFFAD67
:102B2000279781939193A193B1932796FFAFEEAF2F
:102B300027972396AEADBFAD23976D917D918D9173
:102B40009D912396BFAFAEAF2397EDADFEAD8190C3
:102B50009190A190B190FEAFEDAFA9ADBAAD4D90FF
:102B60005D906D907D90BAAFA9AFA9A9BAA92D913A
:102B70003D914D915D91BAABA9ABC756DF4F28830C
:102B800039834A835B83C959D040CF54DF4F2881B2
:102B900039814A815B81C15BD0400E948C436B01CB
:102BA0007C01CF56DF4F288139814A815B81C15931
:102BB000D040C501B4010E948C434B015C01CB564F
:102BC000DF4F288139814A815B81C559D040C301DB
:102BD000B2010E948C432B013C012DA93EA94FA9B3
:102BE00058ADC756DF4F688179818A819B81C95969
:102BF000D0400E948C439B01AC01C301B2010E94F2
:102C0000DA419B01AC01C501B4010E94DA419B018C
:102C1000AC01C701B6010E94DA416B017C01EDA550
:102C2000FEA56191719181919191FEA7EDA7CB5481
:102C3000DF4F288139814A815B81C55BD0400E948A
:102C40008C439B01AC01C701B6010E94DA416B01C4
:102C50007C01A9A5BAA56D917D918D919D91BAA791
:102C6000A9A7C754DF4F288139814A815B81C95B9D
:102C7000D0400E948C439B01AC01C701B6010E9469
:102C8000DA416B017C01EDA1FEA16191719181910D
:102C90009191FEA3EDA3C354DF4F288139814A816E
:102CA0005B81CD5BD0400E948C439B01AC01C7018E
:102CB000B6010E94DA41D1016D937D938D939D936E
:102CC0001D010F5F1F4F0330110509F016CF8981D9
:102CD0009A81AB81BC818093300D9093310DA0938C
:102CE000320DB093330D8D819E81AF81B885809375
:102CF000340D9093350DA093360DB093370D898523
:102D00009A85AB85BC858093380D9093390DA0933F
:102D10003A0DB0933B0D8091900E9091910EA09141
:102D2000920EB091930E80933C0D90933D0DA09325
:102D30003E0DB0933F0DCB55DF4FB881C55AD04003
:102D4000B0938E0DCA55DF4FE881C65AD040E0934C
:102D50008F0DC955DF4FF881C75AD040F093900DC1
:102D6000C855DF4F2881C85AD0402093910DC0909C
:102D7000D40ED090D50EE090D60EF090D70E2091C4
:102D80004606309147064091480650914906698DA4
:102D90007A8D8B8D9C8D0E948C434B015C01209120
:102DA0004A0630914B0640914C0650914D066D8D70
:102DB0007E8D8F8D98A10E948C439B01AC01C50133
:102DC000B4010E94DA414B015C0120914E06309122
:102DD0004F06409150065091510669A17AA18BA1EE
:102DE0009CA10E948C439B01AC01C501B4010E94CF
:102DF000DA414B015C01209152063091530640911B
:102E0000540650915506C358DF4F688179818A81F5
:102E10009B81CD57D0400E948C439B01AC01C501E2
:102E2000B4010E94DA419B01AC01C701B6010E94C6
:102E3000DA4129A13AA14BA15CA120934C0D30931A
:102E40004D0D40934E0D50934F0D2D8D3E8D4F8D5A
:102E500058A12093480D3093490D40934A0D50934B
:102E60004B0D298D3A8D4B8D5C8D2093440D309305
:102E7000450D4093460D5093470D6093400D709360
:102E8000410D8093420D9093430DC090E00ED09081
:102E9000E10EE090E20EF090E30E20919606309164
:102EA000970640919806509199066D966CAD7DAD50
:102EB0008EAD9FAD6D970E948C434B015C012091BC
:102EC0009A0630919B0640919C0650919D06A196D2
:102ED0006CAD7DAD8EAD9FADA1970E948C439B01E3
:102EE000AC01C501B4010E94DA414B015C012091A3
:102EF0009E0630919F064091A0065091A106A5968E
:102F00006CAD7DAD8EAD9FADA5970E948C439B01AE
:102F1000AC01C501B4010E94DA414B015C01209172
:102F2000A2063091A3064091A4065091A506CF5762
:102F3000DF4F688179818A819B81C158D0400E948E
:102F40008C439B01AC01C501B4010E94DA419B0195
:102F5000AC01C701B6010E94DA41A5962CAD3DAD8A
:102F60004EAD5FADA59720935C0D30935D0D409302
:102F70005E0D50935F0DA1962CAD3DAD4EAD5FAD96
:102F8000A1972093580D3093590D40935A0D5093AB
:102F90005B0D6D962CAD3DAD4EAD5FAD6D97209345
:102FA000540D3093550D4093560D5093570D60932B
:102FB000500D7093510D8093520D9093530DC0900E
:102FC000D80ED090D90EE090DA0EF090DB0E209162
:102FD000E6063091E7064091E8065091E906A99689
:102FE0006CAD7DAD8EAD9FADA9970E948C434B011A
:102FF0005C012091EA063091EB064091EC0650917D
:10300000ED06AD966CAD7DAD8EAD9FADAD970E94DA
:103010008C439B01AC01C501B4010E94DA414B0114
:103020005C012091EE063091EF064091F006509140
:10303000F106E1966CAD7DAD8EAD9FADE1970E943E
:103040008C439B01AC01C501B4010E94DA414B01E4
:103050005C012091F2063091F3064091F406509104
:10306000F506CB57DF4F688179818A819B81C558EE
:10307000D0400E948C439B01AC01C501B4010E9469
:10308000DA419B01AC01C701B6010E94DA41E19629
:103090002CAD3DAD4EAD5FADE19720936C0D3093FF
:1030A0006D0D40936E0D50936F0DAD962CAD3DADF3
:1030B0004EAD5FADAD972093680D3093690D409391
:1030C0006A0D50936B0DA9962CAD3DAD4EAD5FAD25
:1030D000A9972093640D3093650D4093660D50932E
:1030E000670D6093600D7093610D8093620D9093F6
:1030F000630DC090DC0ED090DD0EE090DE0EF090FF
:10310000DF0E2091360730913707409138075091F4
:103110003907E5966CAD7DAD8EAD9FADE5970E940C
:103120008C434B015C0120913A0730913B07409161
:103130003C0750913D07E9966CAD7DAD8EAD9FADDE
:10314000E9970E948C439B01AC01C501B4010E9428
:10315000DA414B015C0120913E0730913F074091DD
:10316000400750914107ED966CAD7DAD8EAD9FADA2
:10317000ED970E948C439B01AC01C501B4010E94F4
:10318000DA414B015C0120914207309143074091A5
:10319000440750914507C757DF4F688179818A817D
:1031A0009B81C958D0400E948C439B01AC01C50152
:1031B000B4010E94DA419B01AC01C701B6010E9433
:1031C000DA41ED962CAD3DAD4EAD5FADED97209360
:1031D0007C0D30937D0D40937E0D50937F0DE996CD
:1031E0002CAD3DAD4EAD5FADE9972093780D30939A
:1031F000790D40937A0D50937B0DE5962CAD3DAD46
:103200004EAD5FADE5972093740D3093750D4093EF
:10321000760D5093770D6093700D7093710D8093C0
:10322000720D9093730D82E090E00E94EE2EE0917B
:103230004A0EF0914B0E408151816281738180E092
:1032400090E00E94EA2E60913F0E7091400E8091B6
:10325000410E9091420E0E94D6422AE037ED43E2A1
:103260005CE30E948C43AB01BC0181E090E00E94D2
:10327000EA2E8090430E9090440EA090450EB090A0
:10328000460E20E030E040E85FEBC501B4010E944B
:103290003E4200914A0E10914B0E882319F1D8013D
:1032A000CD90DD90ED90FC90A7019601C501B40191
:1032B0000E94D9414B015C0120E030E040E054E342
:1032C000C701B6010E948C439B01AC01C501B4014A
:1032D0000E948843181634F08CE298E09093A70D72
:1032E0008093A60D8091490E882331F08CE298E0FE
:1032F0009093A70D8093A60D6091370E7091380EB4
:103300008091390E90913A0E6F5F7F4F8F4F9F4F94
:103310006093370E7093380E8093390E90933A0E67
:103320000E94D64220913B0E30913C0E40913D0EC2
:1033300050913E0E0E948C43F8016083718382831A
:10334000938380913F0E9091400EA091410EB091D9
:10335000420E0196A11DB11D80933F0E9093400E29
:10336000A093410EB093420EC853DF4F0FB6F894AE
:10337000DEBF0FBECDBFDF91CF911F910F91FF90A8
:10338000EF90DF90CF90BF90AF909F908F907F9005
:103390006F905F904F903F902F900895CF92DF9263
:1033A000EF92FF920F931F93CF93DF93E6EAFDE036
:1033B0008EEADF011D928A95E9F787E49EE09093FB
:1033C000AD0D8093AC0DAAE4BEE0B093E70DA093E1
:1033D000E60DCBE3DEE0D093BB0DC093BA0DF093C6
:1033E000110EE093100EF093AB0DE093AA0D21E0C7
:1033F00030E0FC013183208380E498E09093B10DAC
:103400008093B00D2CE43EE02D933C9380E090E05F
:10341000A8ECB2E48093430E9093440EA093450E23
:10342000B093460E8AE097EDA3E2BCE388839983CC
:10343000AA83BB83E5E2FEE08BE199ECA7E4B8EB5D
:1034400080839183A283B3838CE793EFA7E1B1E5F7
:103450008093290E90932A0EA0932B0EB0932C0EDE
:103460008CE99FE7A4E6BDE280932D0E90932E0E8B
:10347000A0932F0EB093300E89E394EFA8EFB7E13D
:103480008093310E9093320EA093330EB093340E8E
:10349000CAE7D9E0D093A90DC093A80DA0E5B9E083
:1034A000B983A8838EEB98E08D939C9390935309F6
:1034B000809352099093550980935409909357092A
:1034C00080935609909359098093580990935B090A
:1034D00080935A0990935D0980935C0990935F09EA
:1034E00080935E09909361098093600990936309CA
:1034F00080936209909365098093640990936709AA
:1035000080936609909369098093680985EA9DE034
:1035100090936B0980936A0990936D0980936C096D
:1035200080EA9DE090936F0980936E0990937109F2
:10353000809370098BE99DE09093730980937209E1
:10354000909375098093740986E99DE090937709BB
:1035500080937609909379098093780945E35EE03A
:1035600050937F0940937E09F0937D09E0937C0995
:10357000309381092093800980E9E4E5FEE0DF01D2
:103580001D928A95E9F7CCEFDCE08AEAFE01119200
:103590008A95E9F7EEE3F9E082E1DF011D928A9571
:1035A000E9F7DA01ED93FC938EE090E0918380835C
:1035B0008EE393E0909341098093400982E293E087
:1035C00090934309809342098EE992E090934509D4
:1035D000809344098AE092E09093470980934609DA
:1035E000609186077091870780918807909189077D
:1035F0000E942A398EE098E00E945E0261E080918C
:10360000F2030E943E3361E08091F6030E943E3354
:1036100086EF97E00E945E0261E08091FA030E94CB
:103620003E3361E08091FE030E943E3360E0809172
:103630008A070E943E3360E080918E070E943E33ED
:1036400060E0809192070E943E3360E0809196078F
:103650000E943E338091E4079091E507A091E60730
:10366000B091E7078093E00E9093E10EA093E20EF5
:10367000B093E30E8091CE079091CF07A091D00731
:10368000B091D1078093DC0E9093DD0EA093DE0EF7
:10369000B093DF0E8091B8079091B907A091BA0757
:1036A000B091BB078093D80E9093D90EA093DA0EF9
:1036B000B093DB0E8091A2079091A307A091A4077D
:1036C000B091A5078093D40E9093D50EA093D60EFB
:1036D000B093D70E81E08093F80C8093F90C80931F
:1036E000FA0C8093FB0C80918A0490918B04A0913A
:1036F0008C04B0918D0488839983AA83BB838091C5
:10370000F6049091F704A091F804B091F904809325
:103710000C0D90930D0DA0930E0DB0930F0D809195
:10372000660590916705A0916805B0916905809341
:103730001C0D90931D0DA0931E0DB0931F0D809135
:10374000D2059091D305A091D405B091D505809371
:103750002C0D90932D0DA0932E0DB0932F0D8091D5
:103760006A0390916B03A0916C03B0916D038093F9
:10377000000D9093010DA093020DB093030D809363
:10378000100D9093110DA093120DB093130D809313
:10379000200D9093210DA093220DB093230D8093C3
:1037A000300D9093310DA093320DB093330D809175
:1037B0006E0390916F03A0917003B0917103809399
:1037C000040D9093050DA093060DB093070D809303
:1037D000140D9093150DA093160DB093170D8093B3
:1037E000240D9093250DA093260DB093270D809363
:1037F000340D9093350DA093360DB093370D809115
:10380000720390917303A0917403B0917503809338
:10381000080D9093090DA0930A0DB0930B0D8093A2
:10382000180D9093190DA0931A0DB0931B0D809352
:10383000280D9093290DA0932A0DB0932B0D809302
:10384000380D9093390DA0933A0DB0933B0D8091B4
:103850003E0690913F06A0914006B09141068093AC
:103860003C0D90933D0DA0933E0DB0933F0D809184
:10387000020480938E0D8091030480938F0D8091BC
:1038800004048093900D809105048093910D8091A4
:10389000E8079091E907A091EA07B091EB078093C0
:1038A000A10D9093A20DA093A30DB093A40D8091B0
:1038B000D2079091D307A091D407B091D5078093F8
:1038C0009C0D90939D0DA0939E0DB0939F0D8091A4
:1038D000BC079091BD07A091BE07B091BF07809330
:1038E000970D9093980DA093990DB0939A0D809198
:1038F000A6079091A707A091A807B091A907809368
:10390000920D9093930DA093940DB093950DC0904C
:103910005A03D0905B03E0905C03F0905D03C0928B
:10392000400DD092410DE092420DF092430D009176
:103930005E0310915F032091600330916103009357
:10394000440D1093450D2093460D3093470D409143
:103950006203509163036091640370916503409327
:10396000480D5093490D60934A0D70934B0D809113
:10397000660390916703A0916803B09169038093F7
:103980004C0D90934D0DA0934E0DB0934F0DC092E2
:10399000500DD092510DE092520DF092530D0093C4
:1039A000540D1093550D2093560D3093570D4093A1
:1039B000580D5093590D60935A0D70935B0D809381
:1039C0005C0D90935D0DA0935E0DB0935F0DC09262
:1039D000600DD092610DE092620DF092630D009344
:1039E000640D1093650D2093660D3093670D409321
:1039F000680D5093690D60936A0D70936B0D809301
:103A00006C0D90936D0DA0936E0DB0936F0DC092E1
:103A1000700DD092710DE092720DF092730D0093C3
:103A2000740D1093750D2093760D3093770D4093A0
:103A3000780D5093790D60937A0D70937B0D809380
:103A40007C0D90937D0DA0937E0DB0937F0DDF9143
:103A5000CF911F910F91FF90EF90DF90CF9008953D
:103A60000895CF93DF93CDB7DEB72A970FB6F894BA
:103A7000DEBF0FBECDBFAC01CB0160E070E049837B
:103A80005A836B837C83AA2797FDA095BA2F8D83D9
:103A90009E83AF83B8879E01275F3F4FAE014F5F84
:103AA0005F4F68E070E080918B0990918C090E94D3
:103AB0005940811108C081E029853A8528303105B7
:103AC00019F480E001C081E02A960FB6F894DEBFB9
:103AD0000FBECDBFDF91CF9108950F931F93CF936A
:103AE000DF931F921F92CDB7DEB78B019E012F5F30
:103AF0003F4FAC0180918B0990918C090E945940F5
:103B0000811108C081E029813A812017310719F419
:103B100080E001C081E00F900F90DF91CF911F9165
:103B20000F910895CF93DF93EC0110928F091092BB
:103B30008E09AC0160E070E0CB010E94FE28AE016E
:103B400061E070E080E090E00E94FE2880918B09A7
:103B500090918C09DF91CF910C94A840EF92FF9245
:103B60000F931F93CF93DF931F921F92CDB7DEB7B2
:103B70008C018091890990918A0980179107B4F589
:103B80008091870990918809009731F00E94CD4477
:103B900010928A0910928909C8010E9435449093B5
:103BA000880980938709892B19F4E12CF12C18C01E
:103BB00010938A090093890919C026E839E0AE01FB
:103BC0004F5F5F4F61E070E080918B0990918C09AD
:103BD0000E949A3F811107C089819A81E80EF91EDF
:103BE000E016F10654F380E090E01FC0E12CF12CC8
:103BF0002091870930918809E016F106ACF42E0D6A
:103C00003F1DAE014F5F5F4FB8016E197F09809174
:103C10008B0990918C090E949A3F8111E4CF898190
:103C20009A81E80EF91EE4CFC9010F900F90DF9141
:103C3000CF911F910F91FF90EF9008950F931F93D5
:103C4000CF93DF93EB018A010CDF81110AC00115CC
:103C5000110539F0BE01C801DF91CF911F910F917D
:103C60003CCFDF91CF911F910F910895CF92DF92BA
:103C7000EF92FF92CF93DF93CDB7DEB728970FB6C1
:103C8000F894DEBF0FBECDBF6B01E12CF12CC982D1
:103C9000DA82EB82FC822D833E834F835887AE010C
:103CA0004F5F5F4F68E070E0C9DF28960FB6F89469
:103CB000DEBF0FBECDBFDF91CF91FF90EF90DF90C1
:103CC000CF9008950F931F93CF93DF93EC018B0157
:103CD0000E94963F90938C0980938B09009741F046
:103CE000A801BE010E941B3FEC01009719F40CC013
:103CF000C1ECD8E080918B0990918C090E94993F8A
:103D000010928C0910928B09CE01DF91CF911F91F7
:103D10000F91089580918B0990918C090C94933F99
:103D20006F927F928F929F92AF92BF92CF92DF92CB
:103D3000EF92FF920F931F93CF93DF9300D000D0A9
:103D4000CDB7DEB76B017C014A0180918F098823D2
:103D500009F441C09401B701A601CE0101960E9469
:103D60008D2D89819A8118161906ACF5A12CB12CDC
:103D700000E010E089819A81081719075CF76B80D1
:103D80007C806A0C7B1CF30160817181828193814C
:103D9000A4DE81111EC0F301648175811616170619
:103DA0002CF48681978199DE811113C0C801880F98
:103DB000991FED81FE81E80FF91FB701A6018081EF
:103DC00091810E9430290F5F1F4FF8E0AF0EB11CA8
:103DD000D1CFC401A7DE26960FB6F894DEBF0FBE82
:103DE000CDBFDF91CF911F910F91FF90EF90DF90AA
:103DF000CF90BF90AF909F908F907F906F900895DD
:103E0000CF93DF93EC01AC0160E070E0CB0188DF81
:103E1000AE0161E070E080E090E0DF91CF9180CF73
:103E2000CF9380918B0990918C090E94F73EC82F07
:103E3000811109C060E070E0CB0166D561E070E0FF
:103E400080E090E061D58C2FCF9108950F931F9360
:103E500089019A01AB01BC0180918B0990918C0979
:103E60000E94A7401F910F9108954F925F926F9209
:103E70007F928F929F92AF92BF92CF92DF92EF92FA
:103E8000FF920F931F93CF93DF93CDB7DEB7669763
:103E90000FB6F894DEBF0FBECDBF4C015B018A01A7
:103EA00080918F09882369F080918F09882309F414
:103EB000BDC21A821982E12CF12C78E0C72ED12CD8
:103EC00014C06FE879E080918B0990918C090E9471
:103ED000F93E8111ABC2E8CFE20EF31EE114F1040A
:103EE000D9F088E0E816F104BCF429E030E02C0FAA
:103EF0003D1F2E0D3F1DAE014F5F5F4FB6016E1986
:103F00007F0980918B0990918C090E949A3F2981A9
:103F10003A81882309F388C2121613060CF086C270
:103F200080918E09811104C019861A861B861C8611
:103F300089859A85AB85BC858031910508F076C26C
:103F4000FC01EE58FF4F0C941144D4011696ED91EC
:103F5000FC91179780819181A281B38189839A8393
:103F6000AB83BC83AE014F5F5F4F64E070E085E1DF
:103F700090E06CC18D859E85F1DD009731F42FEFC7
:103F80003FEFA90161E070E00EC0FC01C080D1806C
:103F9000E280F380A501C701B6010E94B328A70102
:103FA000960160E070E08DE190E03CC28D859E85D9
:103FB000D5DD009721F42FEF3FEFA9010FC0DC0101
:103FC000CD90DD90ED90FD90AD0197018601B5019A
:103FD000C401B0D5A7019601882319F061E070E013
:103FE00002C060E070E08BE190E01CC28D859E8590
:103FF000B5DD009721F42FEF3FEFA9010EC0FC01C2
:10400000C190D190E190F190BF01A7019601C40148
:1040100086D7A7019601882319F061E070E002C0FD
:1040200060E070E08CE190E0FDC1D4011496ED9168
:10403000FC911597E080F180F70102811381A08047
:10404000B18060E1462E512C612C712C49825A823C
:104050006B827C8288E090E0A0E0B0E08D839E835C
:10406000AF83B8879E012F5E3F4FAE014F5F5F4F1A
:1040700068E070E080918B0990918C090E94594012
:10408000882319F0E12CF12CAEC089899A89089710
:10409000C9F7D701CD90DC90B8E0CB0ED11CCC0C89
:1040A000DD1CCC0CDD1CC6010E9435447C01009750
:1040B00049F349825A826B827C82C601AA2797FD06
:1040C000A095BA2F8D839E83AF83B8879E012F5E04
:1040D0003F4FAE014F5F5F4F68E070E080918B090A
:1040E00090918C090E94594081117DC089899A89DB
:1040F000089709F078C0D4011296ED91FC911397BE
:104100004081518162817381D7014D935D936D939D
:104110007C931397448155816681778114964D93E2
:104120005D936D937C931797408551856285738568
:1041300018964D935D936D937C931B97848595851D
:10414000A685B785F70184879587A687B787108AE4
:10415000118A128A138A84E090E0A0E0B0E0848B98
:10416000958BA68BB78B8091280890912908A0E0A9
:10417000B0E0808F918FA28FB38FC501AA2797FDE2
:10418000A095BA2F848F958FA68FB78FB801A701FE
:10419000405E5F4F20E030E02A153B057CF4DB01F8
:1041A0008D919D91BD01A0E0B0E0FA0181939193C2
:1041B000A193B193AF012F5F3F4FEECF9E012F5ED2
:1041C0003F4FA701B60180918B0990918C090E9405
:1041D0005940811108C089899A898C159D0519F467
:1041E00081E080938E09C70166960FB6F894DEBF12
:1041F0000FBECDBFDF91CF911F910F91FF90EF9038
:10420000DF90CF90BF90AF909F908F907F906F90F6
:104210005F904F900C94CD448D859E85AF85B88975
:104220000097A105B10529F199DC009789F481E097
:1042300090E0A0E0B0E089839A83AB83BC83AE01B9
:104240004F5F5F4F64E070E082E190E0F7DCEEC02A
:10425000BC01C401ACD219821A821B821C82AE013D
:104260004F5F5F4F64E070E082E190E0E7DC811136
:10427000DDC081E080938D09D9C0D4011496ED9101
:10428000FC9115970190F081E02D008511850115B5
:10429000110509F460C0D801ED90FC90C280D38074
:1042A00020E030E060E070E080E090E08E159F0557
:1042B0000CF5F801A281B381A20FB31F1296ED9104
:1042C000FC911397EE0FFF1FEC0DFD1D0190F08187
:1042D000E02D16960D90BC91A02DEA9FA001EB9FBA
:1042E000500DFA9F500D1124640F751F0196285F21
:1042F0003F4FDCCF83E190E0B4DB811197C0812C8C
:10430000912CA12CB12CAE14BF040CF08FC0D8019D
:104310001296ED91FC911397E80DF91DA281B381DE
:10432000AA0FBB1FAC0DBD1D2D913C9186819781BD
:10433000289FB001299F700D389F700D1124808136
:104340009181CBDBB8E08B0E911C81116FC0EFEF38
:10435000AE1ABE0AD8CF60E070E083E190E081DB66
:1043600065C040E050E060E070E081E190E066DC34
:1043700081115CC0C12CD12C7601C701B601C1D31B
:104380008091180A882321F0A501C701B601C8DC75
:10439000A501C701B601DCD2FFEFCF1ADF0AEF0A91
:1043A000FF0A82E0C816D104E104F10431F710924B
:1043B0008F0910928E0980918B0990918C090E942F
:1043C000043F34C081E090E090931A0A8093190A68
:1043D00040E050E060E070E086E190E037CF81E0BF
:1043E000D8018C9323C08D859E85B8DB009731F46E
:1043F0002FEF3FEFA90161E070E012C0FC012081C6
:10440000318142815381CA01B9012B8B3C8B4D8B89
:104410005E8BFFD62B893C894D895E8960E070E018
:104420008EE190E023DC02C0C5017CDB66960FB60E
:10443000F894DEBF0FBECDBFDF91CF911F910F91DA
:10444000FF90EF90DF90CF90BF90AF909F908F90B4
:104450007F906F905F904F900895CF92DF92EF9290
:10446000FF92CF93DF93EC01C12CD12C7601C701D1
:10447000B60147D3AE01C701B60152DCAE01C70198
:10448000B60166D28091870990918809009731F032
:104490000E94CD4410928809109287098FEFC81AA4
:1044A000D80AE80AF80A82E0C816D104E104F10447
:1044B000F1F680918E09882359F040E050E060E0E9
:1044C00070E084E190E0BADBC82F10928E0901C041
:1044D000C0E080918F09882341F010928F0921E07C
:1044E00030E0309329082093280880918B0990911F
:1044F0008C090E94073F80918B0990918C090E9442
:10450000993F8C2FDF91CF91FF90EF90DF90CF906C
:104510000895CF93DF93EC01AC0160E070E0CB0134
:104520000E94042DAE0161E070E080E090E0DF9138
:10453000CF910C94042D60E070E0CB010E94692DB6
:1045400061E070E080E090E00C94692DCF92DF9202
:10455000EF92FF920F931F93CF93DF93EC016A01C9
:104560007B0100E010E09801A4D601E010E020E01B
:1045700030E0B701A601CE019CD6DF91CF911F910B
:104580000F91FF90EF90DF90CF900895EF92FF9200
:104590000F931F93CF93DF93DC01EA01F901149687
:1045A0008D919C91159712960D911C911397080F60
:1045B000191F2881398118964D915C9119974217DE
:1045C000530728F04D915C911197452B59F17801D3
:1045D000E21AF30A18964D915C911997481B590BF2
:1045E0004E0D5F1D46175707B4F1A901460F571F1F
:1045F0004017510700F1F182E082338322836E1964
:104600007F0975836483161617061CF030E020E0DE
:1046100002C0382F292F36832783680F791F7983AB
:10462000688317C018968D919C911997821B930BE4
:104630008617970784F07183608333832283158202
:1046400014821782168288819981860F971F998319
:10465000888380E001C081E0DF91CF911F910F91AD
:10466000FF90EF900895CF93DF9324E4269FE0011D
:10467000279FD00D1124C057D64F8AA99BA9009718
:1046800021F00E94CD441BAA1AAA8EA99FA90097C7
:1046900011F00E94CD441B8A1A8A1E8A1F8A188E26
:1046A000198E1A8E1B8E1C8E1D8E1E8E1F8E18A2AA
:1046B00019A281E090E09BA38AA31DA21CA21EA2C6
:1046C0001FA218A619A61BA61AA61DA61CA61EA6E2
:1046D0001FA618AA19AA1BAA1AAA1DAA1CAA1FAAB1
:1046E0001EAA19AE18AE1AAE1BAE1CAE1DAEFE0150
:1046F000FE961082118212821382CE5BDF4F1982E6
:104700001882DF91CF910895CF93DF93FB01DC01F5
:10471000CD91DC91AE81BF818081918123E0880FB2
:10472000991F2A95E1F712960D90BC91A02DA80F24
:10473000B91F6D917C91119784859585880F991F7C
:104740000A80DB81C02DC80FD91F0990D881C02DE8
:1047500014968D919C911597892B19F082E090E029
:1047600002C081E090E08C9F90018D9F300D9C9F56
:10477000300D112480859185289FD001299FB00D8F
:10478000389FB00D11240480F581E02D2E9FC001CB
:104790002F9F900D3E9F900D1124860F971FFA01B9
:1047A00091838083B383A283DF91CF9108952F9269
:1047B0003F924F925F926F927F928F929F92AF92B1
:1047C000BF92CF92DF92EF92FF920F931F93CF93FE
:1047D000DF9300D000D0CDB7DEB7DC011496ED91A9
:1047E000FC9115970190F081E02D808591859A8349
:1047F0008983A281B381BC83AB83DB018D909D90C3
:10480000AD90BD90C12CD12C7601C814D904EA0416
:10481000FB040CF060C014964D905D906D907C9000
:10482000179718964D915D916D917C911B97FD01A5
:104830007096FE83ED838D919C91119763E0880FB4
:10484000991F6A95E1F7E981FA8122813381280F66
:10485000391FF901208031801C96ED91FC911D9744
:10486000EE0FFF1F8B819C81E80FF91F0190F081F3
:10487000E02DD90114968D919C911597892B19F0F3
:1048800082E090E002C081E090E08E9F90018F9FD7
:10489000300D9E9F300D1124249F8001259F100D07
:1048A000349F100D1124249DC001259D900D349D31
:1048B000900D1124A8016D817E81820D931D0E94AF
:1048C0005C45AD81BE81A00FB11FEFEFCE1ADE0AAD
:1048D000EE0AFE0A9ACF26960FB6F894DEBF0FBEF8
:1048E000CDBFDF91CF911F910F91FF90EF90DF909F
:1048F000CF90BF90AF909F908F907F906F905F9080
:104900004F903F902F900895CF93DF9324E4269FFC
:10491000F001279FF00D1124E057F64FDB01AA5D4F
:10492000B74F3C91332329F0EF0119922A95E9F70B
:104930001C921482158216821782118610861386A5
:104940001286118A108A17861686DF91CF918BCE38
:104950002F923F924F925F926F927F928F929F928F
:10496000AF92BF92CF92DF92EF92FF920F931F937D
:10497000CF93DF9300D01F92CDB7DEB76B017C01E0
:104980001A0184E48C9D90018D9D300D11242057D7
:10499000364F3C832B83F90184819581A681B781B1
:1049A000892B8A2B8B2B09F495C0A12CB12C412C7F
:1049B000512C3201AB81BC8114964D915D916D916A
:1049C0007C91179718968D919C91199744165506CE
:1049D000660677068CF5FC01EA0DFB1D328123810A
:1049E000032F122F812C912C82149304C4F4D8012C
:1049F000ED91FC91309769F0848195812A83398308
:104A00000E94CD44F801808191810E94CD4439817A
:104A10002A81FFEF8F1A9F0A0E5F1F4FE5CF832F6A
:104A2000922F0E94CD442FEF421A520A620A720A54
:104A300034E0A30EB11CBECF0E94CD44EB81FC81BB
:104A400082859385892BE1F0A12CB12C00E010E048
:104A5000AB81BC811A968D919C911B970215130511
:104A60006CF4FC01EA0DFB1D848195810E94CD440C
:104A70000F5F1F4FFEE0AF0EB11CEACF0E94CD4486
:104A8000EB81FC81808991890E94CD44AB81BC81FE
:104A90001E968D919C911F970E94CD44C701B6012F
:104AA000E2DDC701B6010F900F900F900F90DF91DC
:104AB000CF911F910F91FF90EF90DF90CF90BF901B
:104AC000AF909F908F907F906F905F904F903F90AE
:104AD0002F901ACF0F900F900F900F90DF91CF91E2
:104AE0001F910F91FF90EF90DF90CF90BF90AF900C
:104AF0009F908F907F906F905F904F903F902F90FE
:104B0000089524E4269FF001279FF00D1124E0571B
:104B1000F64F828993890497029758F485E090E0D4
:104B2000938B828B8FEF9FEFDC01828F938FA48F0B
:104B3000B58F08952F923F924F925F926F927F921E
:104B40008F929F92AF92BF92CF92DF92EF92FF929D
:104B50000F931F93CF93DF93CDB7DEB7AA970FB60E
:104B6000F894DEBF0FBECDBF9AA389A31B016A01D3
:104B70000B8B1C8B2D8B3E8B84E42B893C89829F75
:104B80008001839F100D11240057164F2B893C89FB
:104B90004D895E89D8012D933D934D935C93139776
:104BA000AB016B897C898D899E89D2DEF6014191AA
:104BB0005191619171917F01CA01D80114964D9371
:104BC0005D936D937C93179764E070E00E941B44A3
:104BD000F80191878087892B09F46DC118A21F8E77
:104BE0001B8E1C8E1D8E1E8EF80184819581A681E0
:104BF000B7812B8D3C8D4D8D5E8D281739074A0767
:104C00005B070CF0D1C0D80118960D90BC91A02D77
:104C10002F8D38A1A20FB31FBA8BA98BD7018D910D
:104C20009C91880F991FA9A1BAA1ED91FC91E80F61
:104C3000F91F80819181E989FA8991838083D70165
:104C400014962D913D914D915C9117972BA33CA308
:104C50004DA35EA3B8E0EB0EF11C62E070E0C10171
:104C60000E941B44E989FA8993838283892B09F482
:104C700022C11F8A188E198E1A8E2F89388D498D60
:104C80005A8D8BA19CA1ADA1BEA1281739074A0757
:104C90005B070CF018C1D701CD90DC90CC0CDD1C6B
:104CA000E989FA89A280B380AC0CBD1C68E070E091
:104CB00081E090E00E941B44D5018D939C93A989CB
:104CC000BA891296ED91FC911397EC0DFD1D808031
:104CD00091808114910409F4EEC0F701448155815B
:104CE00066817781CA01D4014D935D936D937C9366
:104CF0001397B8E0EB0EF11C64E070E00E941B44D7
:104D0000F40195838483892B09F4D5C0A12CB12C9F
:104D1000412C512C3201F40180819181A281B38117
:104D2000481659066A067B0694F5D4011496CD9070
:104D3000DC901597CA0CDB1CF701DE01119680E1AF
:104D400001900D928A95E1F7B0E1EB0EF11CA601FE
:104D5000BE016F5F7F4FE9A1FAA184819581D4DC08
:104D6000D40116968D919C911797F601228133817B
:104D7000820F931F17969C938E931697FFEF4F1AEF
:104D80005F0A6F0A7F0A24E0A20EB11CC4CF2F89EC
:104D9000388D498D5A8D2F5F3F4F4F4F5F4F2F8B6F
:104DA000388F498F5A8F69CF6EE070E0C1010E9441
:104DB0001B44D8011B969C938E931A97612C712CDF
:104DC000812C912CA12CB12C44244394512C82147D
:104DD00093040CF050C0F701419151916191719190
:104DE0007F01CA01D8011A96CD90DC901B97C60CA2
:104DF000D71C57FD60C0F60151824082009791F0A8
:104E00004FA358A769A77AA70E943544D6011596E3
:104E10009C938E9314974FA158A569A57AA5892BC9
:104E200021F449C0F60115821482D60113965C93D1
:104E30004E93129714968D919C91159717969C936B
:104E40008E93169719969C938E9318971B961C9287
:104E50001E921A9781E090E0452B462B472B11F4C8
:104E600080E090E0A80EB91EBFEF8B1A9B0AEEE01F
:104E70006E0E711CACCFD8011D961C921E921C9711
:104E8000C501F3E0880F991FFA95E1F70E943544B8
:104E9000F801918B808B892B71F0C501880F991FC8
:104EA0000E943544D8011F969C938E931E97892BA0
:104EB00011F080E01BC0A1016B897C898D899E89DE
:104EC00047DD81E013C02B8D3C8D4D8D5E8D2F5FB6
:104ED0003F4F4F4F5F4F2B8F3C8F4D8F5E8F2F8DEE
:104EE00038A12C5F3F4F38A32F8F7ECEAA960FB6E6
:104EF000F894DEBF0FBECDBFDF91CF911F910F9110
:104F0000FF90EF90DF90CF90BF90AF909F908F90E9
:104F10007F906F905F904F903F902F9008953F92B9
:104F20004F925F926F927F928F929F92AF92BF92B9
:104F3000CF92DF92EF92FF920F931F93CF93DF9365
:104F4000CDB7DEB764970FB6F894DEBF0FBECDBF06
:104F50004C01FB01298B3A8B4B8B5C8B84E4829F49
:104F60008001839F100D11240E55164F8081918171
:104F7000D80113969C938E93129744815581668134
:104F8000778114964D935D936D937C93179740852D
:104F900051856285738518964D935D936D937C93CF
:104FA0001B9744855585668577851C964D935D9343
:104FB0006D937C931F9740895189628973895C96B0
:104FC0004D935D936D937C935F977F01B4E1EB0EFE
:104FD000F11C141615060CF05DC0CA01880F991F4C
:104FE000880F991F0E943544F80191A380A3892B53
:104FF00009F499C0A12CB12C412C512C320130E183
:10500000332EB301A2012FEF421A520A620A720A2A
:10501000F801848D958DA68DB78D481759076A07BD
:105020007B0764F5D8019096CD90DC909197CA0CDF
:10503000DB1CF701DE011196832D01900D928A95FC
:10504000E1F7B0E1EB0EF11CA601BE016F5F7F4FEF
:10505000F4018481958158DBD80192968D919C91C1
:105060009397F60122813381820F931F93969C932D
:105070008E939297F4E0AF0EB11CC3CF82A193A19F
:105080000E943544D80195969C938E939497892BD2
:1050900009F449C0F70180819181A281B381AC01FB
:1050A000BD014D7F21E030E0452B462B472B11F011
:1050B00020E030E0F801318B208B0197A109B10984
:1050C00021E030E00297A105B10510F020E030E0CA
:1050D000D80153963C932E935297F7018481958182
:1050E000A681B781F801848B958BA68BB78B8485BD
:1050F0009585A685B785B7FF10C0B095A09590950A
:1051000081959F4FAF4FBF4F80A791A7A2A7B3A78D
:1051100014861586168617860DC0F80110A611A6EE
:1051200012A613A607C069897A898B899C899BDAA4
:1051300081E001C080E064960FB6F894DEBF0FBE38
:10514000CDBFDF91CF911F910F91FF90EF90DF9036
:10515000CF90BF90AF909F908F907F906F905F9017
:105160004F903F900895CF93DF9324E4269FF00162
:10517000279FF00D1124E057F64F1092180A15A63C
:1051800014A620E030E080E090E0C1E0D0E0841799
:10519000950714F5A285B385A20FB31F12966D91E2
:1051A0007C911397161617069CF414966D917C91BA
:1051B000159717967C936E93169719967C936E931A
:1051C00018971B961C921E921A971196DC93CE93F9
:1051D0000196225F3F4FDBCF13A612A611AE10AE91
:1051E000DF01DE961D921D921D921C92139782E0A4
:1051F00090E0938B828BDF91CF91089524E4269FDA
:10520000F001279FF00D1124E057F64F138A128A00
:105210009FCB24E4269FF001279FF00D1124E05737
:10522000F64F8289938981309105C8F085309105C8
:1052300018F0059769F008958FEF9FEFDC01828FDA
:10524000938FA48FB58F85E090E0938B828B089528
:105250008FEF9FEFDC01828F938FA48FB58F08951E
:1052600024E4249FF001259FF00D1124E057F64F10
:105270002EE0AC01249FC001259F900D11240284D3
:10528000F385E02DE80FF91F81E08093180A8285ED
:10529000938591878087408551852681378181E07C
:1052A00090E04217530711F080E090E091838083F3
:1052B00008952F923F924F925F926F927F928F92BA
:1052C0009F92AF92BF92CF92DF92EF92FF920F9395
:1052D0001F93CF93DF93CDB7DEB7C454D1090FB678
:1052E000F894DEBF0FBECDBF98AF8FAB4BA75CA7C6
:1052F0006DA77EA723960CAF1DAF2EAF3FAF2397B0
:1053000084E421962EAD3FAD2197829F1001839FAB
:10531000300C1124C1018057964F1C01DC011A96F4
:105320000D90BC91A02D2596BFAFAEAF2597FC0187
:1053300082899389029709F018C186A597A5A0A92B
:10534000B1A9892B8A2B8B2B29F484E090E0938BD5
:10535000828B0BC1D10184899589EFA9F8ADE8173B
:10536000F90709F002C1D6960D911C91D7971AAE94
:1053700019AE412C512C3201F10186A597A5A0A9A7
:10538000B1A9481659066A067B060CF0D0C0D101B7
:10539000D2960D90BC91A02DE9ADFAADAE0FBF1F16
:1053A000BAABA9AB12962D913C9113973CAF2BAFA2
:1053B00036952795369527953EAF2DAFD101D896D6
:1053C0008D919C91D997892B09F495C09696CD9093
:1053D000DD90ED90FC90999718AB0FA7E9A9FAA979
:1053E0000190F081E02DFCABEBAB1EAA1DAAEDA94C
:1053F000FEA92DAD3EADE217F3070CF07CC0D10144
:1054000092968D919C919397892B79F1EBA9FCA9A8
:1054100080809180A280B380A7019601C501B4016C
:105420000E94884387FD0CC0A7019601AFA5B8A9CB
:105430006D917D918D919C910E943E4287FD7CC033
:10544000A7019601C501B4010E94884318166CF4A7
:10545000A7019601EFA5F8A96081718182819381EE
:105460000E943E42882309F467C0D10194968D9131
:105470009C919597892B71F1EBA9FCA98080918073
:10548000A280B380A7019601C501B4010E943E42EB
:1054900087FF0CC0A7019601AFA5B8A96D917D91BA
:1054A0008D919C910E94884387FF46C0A701960179
:1054B000C501B4010E943E4281110CC0A7019601B2
:1054C000EFA5F8A960817181828193810E94884350
:1054D000181694F12DA93EA92F5F3F4F3EAB2DAB7F
:1054E0008FA598A9049698AB8FA7ABA9BCA91496D1
:1054F000BCABABAB7CCFA9A9BAA96D917C914BADEC
:105500005CADC8010E945C458DAD9EAD880F991FB2
:10551000880F991F080F191FBFEF4B1A5B0A6B0A00
:105520007B0AE9ADFAAD3496FAAFE9AF25CF81E059
:1055300090E091AF80AF19C0F101868D978DA0A149
:10554000B1A1892B8A2B8B2B09F03AC284E090E021
:10555000D10153969C938E935297DE968D919C9198
:10556000DF979B969C938E939A97D10152968D913B
:105570009C9153978230910589F4DA968D919D9193
:105580000D90BC91A02D181619061A061B060CF0DA
:1055900021C2E1E0F0E0F8ABEFA705C0049709F005
:1055A00019C218AA1FA68EE02FA938AD829F5001FC
:1055B000839FB00C112425968EAD9FAD2597A80E24
:1055C000B91ED50112964D915C9113974115510565
:1055D00009F400C216968D919C9117979AA789A7F6
:1055E000FE01319684E1DF011D928A95E9F7239649
:1055F0008CAD9DADAEADBFAD2397898B9A8BAB8B38
:10560000BC8BAFA5B8A9AB2B09F448C04101BEE3E0
:105610008B0E911CF401C080D180E280F380F101F7
:1056200082AD93ADA4ADB5ADC816D906EA06FB06AA
:10563000A9F5D50114966D917C91159718960D904A
:10564000BC91A02D14960D911D912D913C91179711
:10565000C8010D8B1E8B2F8B388F08969E8B8D8BE0
:10566000F50120853185280F391F318720878085F6
:105670009185460F571F841B950B97FD04C0680F3B
:10568000791F71876087F1E0CF1AD108E108F1082E
:10569000D401CD92DD92ED92FC9213979E012B5E88
:1056A0003F4FAE01475D5F4F64E170E0C5010E946E
:1056B000C622082F10E00115110509F06DC18CE01C
:1056C00090E0A0E0B0E08D839E83AF83B8879E0119
:1056D000235E3F4FAE01475D5F4F64E070E0C50160
:1056E0000E94C622082F10E00115110509F054C1CF
:1056F00080E190E0A0E0B0E08D839E83AF83B88727
:105700004D8D5E8DBE01655D7F4F8F8D98A10E948E
:105710005C458BA19CA1009761F06D8D7E8DEBE2C5
:10572000F0E0EC0FFD1F6E0F7F1F49A15AA10E94F0
:105730005C451DA21EA21FA218A62FA938AD220FDC
:10574000331F3EAB2DABCDA0DEA0EFA0F8A4F1013E
:1057500084819581A681B781C816D906EA06FB0621
:105760000CF0CBC0D1011896ED91FC911997C601B0
:10577000880F991F880F991FE80FF91FA081B18129
:105780008C91882309F4AFC0833009F4ACC0028047
:10579000F381E02D2DA93EA9E20FF31F80819181B5
:1057A0009CAB8BAB892B09F49EC089859A85AB8510
:1057B000BC850196A11DB11D89879A87AB87BC87DF
:1057C0009E01235E3F4FAE01475D5F4F64E070E096
:1057D000C5010E94C62290E0009709F0DCC08D81CF
:1057E0009E81AF81B8850496A11DB11D8D839E83D6
:1057F000AF83B8874D8D5E8DBE016B5D7F4F8F8D02
:1058000098A10E945C458BA19CA1009761F06D8DD1
:105810007E8DA5E2B0E0AC0FBD1F6A0F7B1F49A1D2
:105820005AA10E945C451AAA19AA412C512C320196
:10583000EBA9FCA980819181A281B3814816590608
:105840006A067B060CF04FC0EBA9FCA9848095800A
:1058500029A93AA9820E931ED40112966D917C91CA
:1058600013979E01235E3F4FAE01475D5F4FC50119
:105870000E94C62290E0009709F08DC0F401428199
:105880005381662757FD6095762F8D819E81AF816C
:10589000B885840F951FA61FB71F8D839E83AF8386
:1058A000B887608171814D8D5E8D8F8D98A10E942A
:1058B0005C458BA19CA1009759F0D4016D917C911E
:1058C0002D8D3E8D620F731F49A15AA10E945C4528
:1058D000BFEF4B1A5B0A6B0A7B0AE9A9FAA9349657
:1058E000FAABE9ABA5CFFFEFCF1ADF0AEF0AFF0A49
:1058F000CDA2DEA2EFA2F8A626CF89859A85AB8538
:10590000BC85892B8A2B8B2B09F446C08AE190E059
:10591000A0E0B0E089839A83AB83BC832FA938AD24
:10592000C901AA2797FDA095BA2F8D879E87AF87BB
:10593000B88B4D895E89BE016F5F7F4F8F89988DCF
:105940000E945C458B8D9C8D009761F06D897E89EE
:10595000A1E0B0E0AC0FBD1F6A0F7B1F498D5A8DCF
:105960000E945C4589A59AA5F501978386831182DB
:1059700010822FA538A9232B69F1F101FE968081B1
:105980009181A281B3810196A11DB11D8083918374
:10599000A283B3831FC08C018FA598A9892BD1F452
:1059A000012BC1F081E090E0D1019D969C938E93F4
:1059B0009C9785E090E053969C938E9352970AC0F3
:1059C00083E090E0F101938B828B81E090E093A7DC
:1059D00082A7CBCDCC5BDF4F0FB6F894DEBF0FBEF6
:1059E000CDBFDF91CF911F910F91FF90EF90DF908E
:1059F000CF90BF90AF909F908F907F906F905F906F
:105A00004F903F902F900895CF92DF92EF92FF92A8
:105A10000F931F93CF93DF9324E4269FE001279FEA
:105A2000D00D1124C057D64F2A893B892115310545
:105A300009F446C021303105A9F4CAA4DBA49601BB
:105A40002F5F3F4F3BA72AA7EE24D7FCE094FE2C04
:105A50000A8D1B8D2C8D3D8DC016D106E206F306F6
:105A600079F581DB8A899B89039751F54AA55BA566
:105A7000CA0101969BA78AA7662757FD6095762FD6
:105A80008E8D9F8DA8A1B9A1481759076A077B077A
:105A9000BCF08EAD9FAD9BA78AA784E090E09B8B66
:105AA0008A8B8AAD9BADACADBDAD181619061A0632
:105AB0001B0634F4CE5BDF4F81E090E0998388834E
:105AC000DF91CF911F910F91FF90EF90DF90CF90DA
:105AD000089524E4269FF001279FF00D1124E0573C
