:100000003BC100000C949B2E0C94CC2E0C94FD2E26
:100010000C942E2F0C945F2F0C94902F0C94C12FC6
:100020000C94F22F5AC1000058C1000056C10000C4
:1000300054C100000C94E03750C100004EC10000D4
:100040004CC100004AC1000048C1000046C1000088
:1000500044C1000042C1000040C100000C942330A4
:100060003CC100000C941F340C94553436C1000080
:1000700034C1000032C1000030C100002EC10000B8
:100080002CC100002AC1000028C1000026C10000C8
:100090000C94C1340C94F73420C100001EC1000040
:1000A0001CC100001AC1000018C1000016C10000E8
:1000B00014C1000012C1000010C100000EC10000F8
:1000C0000CC100000AC100000C9443380C94633545
:1000D0000C94993502C100000C9405360C943B3603
:1000E000FCC000002B1FC7202A212C2122205320D6
:1000F000EC1E0C1FD01E0921F82005212C212C21DB
:100100002C21BB1E603165316A3174317E31F7318B
:10011000883190319831A231AC31B631C531CF310F
:10012000F731D931E331ED3119321C320B320F3254
:1001300015325332203224322A322E3232323832C1
:100140003C324032533246324A324E3200000A0BC1
:1001500002090C0D0E080703040100000000000056
:10016000000000000000000000000000000000008F
:10017000000000000000000012111000000000004C
:10018000000000000000000000000000000000006F
:10019000000001021020200808102040102040809C
:1001A000020102010804020101020408102040803B
:1001B00080402010080402018004020180402010C9
:1001C0000804020108040201010204081020408012
:1001D00001020408102040800505050507050808F0
:1001E0000808020202020A0A0808040404040101C1
:1001F00001010101010103030303030303030407D6
:1002000007070C0C0C0C0C0C0C0C0202020206066C
:100210000606060606060B0B0B0B0B0B0B0B000062
:1002200020002300260029002C002F0032000001AE
:10023000000003010601090100002200250028003A
:100240002B002E00310034000201000005010801DE
:100250000B0100002100240027002A002D0030009F
:10026000330001010000040107010A0102007E348D
:100270002035C2356436DE3611241FBECFEFD1E201
:10028000DEBFCDBF00E00CBF19E0A0E0B2E0E8E3C4
:10029000F9E800E00BBF02C007900D92A830B1074B
:1002A000D9F72EE0A8E0B9E001C01D92A23BB20749
:1002B000E1F712E0C8E7D2E000E006C022970109AA
:1002C000FE010BBF0E943C43CE36D10780E00807F9
:1002D000A9F70E9464400C949A4492CECF93DF9386
:1002E000EC0161E088810E94543261E08C81DF91F1
:1002F000CF910C9454324F925F926F927F928F9273
:100300009F92AF92BF92CF92DF92EF92FF920F93A4
:100310001F93CF93DF9300D01F92CDB7DEB76983D1
:100320007A838B839C8349015A0127013801F601A6
:1003300020893189428953890E949E4218162CF0E7
:10034000F601448455846684778420E030E040E8F8
:1003500053E4C301B2010E94544187FF0EC020E064
:1003600030E0A901C301B2010E949E4287FD07C08F
:10037000C301B2010E94C04103C06FEF01C060E041
:10038000F60180810E948D32F601248935894689E3
:10039000578969817A818B819C810E949E421816BF
:1003A0002CF0F60180849184A284B38420E030E0B4
:1003B00040E853E4C501B4010E94544187FF0EC0D8
:1003C00020E030E0A901C501B4010E949E4287FDF2
:1003D00007C0C501B4010E94C04103C06FEF01C056
:1003E00060E070E0F60184810F900F900F900F9005
:1003F000DF91CF911F910F91FF90EF90DF90CF9001
:10040000BF90AF909F908F907F906F905F904F9034
:100410000C943C319F92AF92BF92CF92DF92EF92B9
:10042000FF920F931F93CF93DF93982ECB01BA01C6
:100430005901E801992049F1F6012081213029F183
:10044000F70124853585468557850E949E421816FA
:1004500034F4F701608171818281938104C06881E5
:1004600079818A819B81F701208931894289538969
:100470000E94F040F50160837183828393836883D7
:1004800079838A839B8384E08C83F6019082DF9159
:10049000CF911F910F91FF90EF90DF90CF90BF9081
:1004A000AF909F9008952F923F924F925F926F92DC
:1004B0007F928F929F92AF92BF92CF92DF92EF92F4
:1004C000FF920F931F93CF93DF93CDB7DEB7C85C36
:1004D000D1090FB6F894DEBF0FBECDBF80911D0EBF
:1004E000992787FD90950197029710F080E001C051
:1004F00083E080931D0E80914E070E941731A091DA
:100500006207B09163079C010E942D4360939A0E8D
:1005100070939B0E80939C0E90939D0E0E94EC41D5
:1005200020E030E040E056E30E94A2429B01AC0193
:100530006091420470914304809144049091450479
:100540000E94EF406B017C0160932A0E70932B0E8A
:1005500080932C0E90932D0E20914A0430914B04E1
:1005600040914C0450914D040E94A24220914E04AF
:1005700030914F0440915004509151040E94A24286
:100580002091740D3091750D4091760D5091770D3D
:100590000E94F0404B015C0160932E0E70932F0E71
:1005A0008093300E9093310E209146043091470491
:1005B0004091480450914904C701B6010E94A242EB
:1005C000A50194010E94F0406B017C018090F6032C
:1005D0009090F703A090F803B090F903A50194015F
:1005E0000E949E4218169CF58092320E9092330E15
:1005F000A092340EB092350E2091800D3091810D75
:100600004091820D5091830D298F3A8F4B8F5C8FD3
:1006100080917C0D90917D0DA0917E0DB0917F0D0C
:100620008D8F9E8FAF8FB8A32091780D3091790D6B
:1006300040917A0D50917B0D29A33AA34BA35CA363
:100640000EE514E07EE1872E7EE0972E19C08090A3
:10065000E2039090E303A090E403B090E503A501CA
:100660009401C701B6010E94544187FDBDCFC092DD
:10067000320ED092330EE092340EF092350EBCCF93
:1006800058010C5F1F4FD50158962D913D914D910A
:100690005C915B97698D7A8D8B8D9C8D0E94A242B7
:1006A0006B017C01F50124853585468557856D8D67
:1006B0007E8D8F8D98A10E94A2422B013C01D50115
:1006C0002D913D914D915C9169A17AA18BA19CA145
:1006D0000E94A2429B01AC01C301B2010E94F04002
:1006E0009B01AC01C701B6010E94F040F401619387
:1006F0007193819391934F01F4E00A361F0709F03B
:10070000BFCF209156043091570440915804509126
:1007100059046091320E7091330E8091340E909195
:10072000350E0E94A24220915A0430915B04409100
:100730005C0450915D040E9458412091220E30913A
:10074000230E4091240E5091250E0E94EF404B0144
:100750005C012091B6043091B7044091B8045091E7
:10076000B9040E94A2422091BA043091BB04409186
:10077000BC045091BD040E94A2422091840D30918E
:10078000850D4091860D5091870D0E94F0406B01C0
:100790007C016093360E7093370E8093380E9093E1
:1007A000390E2091B2043091B3044091B4045091B9
:1007B000B504C501B4010E94A242A70196010E949E
:1007C000F0404B015C01E090FA03F090FB030091D4
:1007D000FC031091FD039701A8010E949E42181688
:1007E00084F0E090E603F090E7030091E8031091B5
:1007F000E9039701A801B401C5010E94544187FF94
:1008000002C047015801E090C204F090C304009177
:10081000C4041091C50460913E0470913F0480911E
:1008200040049091410458EDC52E57E0D52E940117
:10083000A50161DD4090880D5090890D60908A0D72
:1008400070908B0D80908C0D90908D0DA0908E0DE2
:10085000B0908F0D2091900D3091910D4091920D9F
:100860005091930D298F3A8F4B8F5C8F0EEC14E0D3
:100870006AE3262E6EE0362ED8016D917D918D9122
:100880009D918D01A30192010E94A24220E030E0DF
:10089000A9010E94F0406B017C01F801208531859F
:1008A00042855385C501B4010E94A2429B01AC015F
:1008B000C701B6010E94F0406B017C01D80154963B
:1008C0002D913D914D915C915797698D7A8D8B8DCE
:1008D0009C8D0E94A2429B01AC01C701B6010E94FF
:1008E000F040F10161937193819391931F01F4E0C2
:1008F0000A3D1F0709F62091C6043091C7044091B4
:10090000C8045091C9046091320E7091330E8091E9
:10091000340E9091350E0E94A2422091CA0430916B
:10092000CB044091CC045091CD040E9458412091B9
:100930003E0E30913F0E4091400E5091410E0E946C
:10094000EF406B017C016093460E7093470E8093DD
:10095000480E9093490E209126053091270540912D
:100960002805509129050E94A24220912A05309124
:100970002B0540912C0550912D050E94A2422091FB
:10098000940D3091950D4091960D5091970D0E94C8
:10099000F0404B015C0160934A0E70934B0E8093C4
:1009A0004C0E90934D0E20912205309123054091DD
:1009B000240550912505C701B6010E94A242A50158
:1009C00094010E94F0406B017C018090FE039090A6
:1009D000FF03A0900004B0900104A50194010E94BF
:1009E0009E42181684F08090EA039090EB03A0904A
:1009F000EC03B090ED03A5019401C701B6010E947C
:100A0000544187FF09C080924E0E90924F0EA092E3
:100A1000500EB092510E08C0C0924E0ED0924F0EA2
:100A2000E092500EF092510E20912604309127044E
:100A3000409128045091290460913E0470913F0434
:100A400080914004909141040E949E4218164CF4FB
:100A5000C090C204D090C304E090C404F090C504D8
:100A600008C0C0902204D0902304E0902404F090A9
:100A7000250420E030E040E853E4C701B6010E94BD
:100A8000544187FF0EC020E030E0A901C701B60144
:100A90000E949E4287FD07C0C701B6010E94C04167
:100AA00003C06FEF01C060E080910A040E948D32A4
:100AB00020912A0430912B0440912C0450912D0454
:100AC00060913E0470913F048091400490914104F4
:100AD0000E949E4218164CF4C0904E0ED0904F0EBD
:100AE000E090500EF090510E08C0C0901E04D090BF
:100AF0001F04E0902004F090210420E030E040E862
:100B000053E4C701B6010E94544187FF0EC020E0A4
:100B100030E0A901C701B6010E949E4287FD07C0CF
:100B2000C701B6010E94C04103C06FEF01C060E081
:100B300070E080910E040E943C312091A00D309114
:100B4000A10D4091A20D5091A30D298F3A8F4B8F8B
:100B50005C8F80919C0D90919D0DA0919E0DB09108
:100B60009F0D8D8F9E8FAF8FB8A32091980D3091E0
:100B7000990D40919A0D50919B0D29A33AA34BA337
:100B80005CA30AE315E04EE1842E4EE0942E58015A
:100B90000C5F1F4FD50158962D913D914D915C9161
:100BA0005B97698D7A8D8B8D9C8D0E94A2426B0123
:100BB0007C01F50124853585468557856D8D7E8DB3
:100BC0008F8D98A10E94A2422B013C01D5012D914D
:100BD0003D914D915C9169A17AA18BA19CA10E944C
:100BE000A2429B01AC01C301B2010E94F0409B01F3
:100BF000AC01C701B6010E94F040F401619371930A
:100C0000819391934F01F5E006341F0709F0BFCFA0
:100C100020913205309133054091340550913505CE
:100C20006091320E7091330E8091340E9091350E9A
:100C30000E94A24220913605309137054091380537
:100C4000509139050E9458412091220E3091230E77
:100C50004091240E5091250E0E94EF404B015C0103
:100C600020919205309193054091940550919505FE
:100C70000E94A242209196053091970540919805D7
:100C8000509199050E94A2422091A40D3091A50D8A
:100C90004091A60D5091A70D0E94F0406B017C0180
:100CA0006093520E7093530E8093540E9093550E92
:100CB00020918E0530918F054091900550919105BE
:100CC000C501B4010E94A242A70196010E94F04012
:100CD0004B015C01E0900204F090030400910404D5
:100CE000109105049701A8010E949E42181684F0F5
:100CF000E090EE03F090EF030091F0031091F10308
:100D00009701A801B401C5010E94544187FF02C0A8
:100D100047015801E090C204F090C3040091C4045C
:100D20001091C50460913E0470913F04809140048D
:100D30009091410420ECC22E27E0D22E9401A5010F
:100D4000DADA2091B00D3091B10D4091B20D509191
:100D5000B30D298F3A8F4B8F5C8F8091AC0D9091A2
:100D6000AD0DA091AE0DB091AF0D8D8F9E8FAF8F59
:100D7000B8A32091A80D3091A90D4091AA0D5091D2
:100D8000AB0D29A33AA34BA35CA306EA15E03EE111
:100D9000832E3EE0932E58010C5F1F4FD5015896CD
:100DA0002D913D914D915C915B97698D7A8D8B8DE5
:100DB0009C8D0E94A2426B017C01F5012485358542
:100DC000468557856D8D7E8D8F8D98A10E94A2429C
:100DD0002B013C01D5012D913D914D915C9169A173
:100DE0007AA18BA19CA10E94A2429B01AC01C301EC
:100DF000B2010E94F0409B01AC01C701B6010E9404
:100E0000F040F40161937193819391934F01F5E068
:100E1000023B1F0709F0BFCF20919E0530919F052F
:100E20004091A0055091A1056091320E7091330E52
:100E30008091340E9091350E0E94A2422091A2051D
:100E40003091A3054091A4055091A5050E945841F9
:100E50002091220E3091230E4091240E5091250EA8
:100E60000E94EF402B013C012091FE053091FF05CF
:100E700040910006509101060E94A2422091020674
:100E80003091030640910406509105060E94A2424B
:100E90002091B40D3091B50D4091B60D5091B70D24
:100EA0000E94F0404B015C016093560E7093570E08
:100EB0008093580E9093590E2091FA053091FB05BE
:100EC0004091FC055091FD05298F3A8F4B8F5C8F27
:100ED0002091360430913704409138045091390400
:100EE00060913E0470913F048091400490914104D0
:100EF0000E949E4218164CF4C090C204D090C304C5
:100F0000E090C404F090C50408C0C0903204D090B2
:100F10003304E0903404F090350420E030E040E801
:100F200053E4C701B6010E94544187FF0EC020E080
:100F300030E0A901C701B6010E949E4287FD07C0AB
:100F4000C701B6010E94C04103C06FEF01C060E05D
:100F5000809112040E948D3220913A0430913B041A
:100F600040913C0450913D0460913E0470913F04D7
:100F700080914004909141040E949E4218167CF595
:100F8000298D3A8D4B8D5C8DC301B2010E94A24226
:100F9000A50194010E94F0405B016C01E090060401
:100FA000F090070400910804109109049701A8012A
:100FB0000E949E421816DCF0E090F203F090F303DA
:100FC0000091F4031091F5039701A801B501C60142
:100FD0000E94544187FD0BC07501860108C0E09056
:100FE0002E04F0902F04009130041091310420E081
:100FF00030E040E853E4B701C8010E94544187FF44
:101000000EC020E030E0A901B701C8010E949E4255
:1010100087FD07C0B701C8010E94C04103C06FEF40
:1010200001C060E070E0809116040E943C31809124
:1010300052070E94C23231E0CB55DF4F3883C55A88
:10104000D04090916407981728F0CB55DF4F188255
:10105000C55AD040BB24B3948091060ECB55DF4FC8
:101060004881C55AD040841708F0B12C80915607AA
:101070000E94C23251E0CA55DF4F5883C65AD04051
:1010800090916507981728F0CA55DF4F1882C65A05
:10109000D040882483948091070ECA55DF4F9881F1
:1010A000C65AD040891708F0812C80915A070E94B7
:1010B000C232A1E0C955DF4FA883C75AD0409091F2
:1010C0006607981728F0C955DF4F1882C75AD040D5
:1010D000AA24A3948091080EC955DF4FB881C75A3E
:1010E000D0408B1708F0A12C80915E070E94C2327D
:1010F000E1E0C855DF4FE883C85AD04090916707B8
:10110000981728F0C855DF4F1882C85AD040992444
:1011100093948091090EC855DF4FF881C85AD0408A
:101120008F1708F0912C40910A0650910B066091A0
:101130000C0670910D0683E7C82E8DE0D82E9AEA32
:10114000E92E97E0F92E09E11EE02AEA3EE0882D1B
:1011500061D940910A0650910B0660910C0670917E
:101160000D0622E7C22E2DE0D22E34E9E32E37E021
:10117000F32E04E11EE026EA3EE08A2D4BD9409191
:101180000A0650910B0660910C0670910D06E1E77E
:10119000CE2EEDE0DE2EFEE7EF2EF7E0FF2E0FE085
:1011A0001EE022EA3EE0892D35D940910A06509191
:1011B0000B0660910C0670910D06A0E7CA2EADE0FB
:1011C000DA2EB8E6EB2EB7E0FB2E0AE01EE02EE9A1
:1011D0003EE08B2D1FD92091B80D3091B90D409173
:1011E000BA0D5091BB0D298F3A8F4B8F5C8F809138
:1011F000BC0D9091BD0DA091BE0DB091BF0D8D8F16
:101200009E8FAF8FB8A32091C00D3091C10D40913A
:10121000C20D5091C30D29A33AA34BA35CA38091A7
:10122000C40D9091C50DA091C60DB091C70DC358C6
:10123000DF4F88839983AA83BB83CD57D040209109
:101240001E0630911F064091200650912106698D9F
:101250007A8D8B8D9C8D0E94A2426B017C01209126
:101260002E0630912F0640913006509131066D8D3B
:101270007E8D8F8D98A10E94A2429B01AC01C70177
:10128000B6010E94F0406B017C0120913E06309136
:101290003F06409140065091410669A17AA18BA179
:1012A0009CA10E94A2429B01AC01C701B6010E9411
:1012B000F0406B017C0120914E0630914F06409129
:1012C000500650915106C358DF4F688179818A8159
:1012D0009B81CD57D0400E94A2429B01AC01C70127
:1012E000B6010E94F0406DA37EA38FA398A76093E0
:1012F0005A0E70935B0E80935C0E90935D0E20915E
:101300002206309123064091240650912506698DCE
:101310007A8D8B8D9C8D0E94A2426B017C01209165
:1013200032063091330640913406509135066D8D6A
:101330007E8D8F8D98A10E94A2429B01AC01C701B6
:10134000B6010E94F0406B017C0120914206309171
:101350004306409144065091450669A17AA18BA1AC
:101360009CA10E94A2429B01AC01C701B6010E9450
:10137000F0406B017C012091520630915306409160
:10138000540650915506C358DF4F688179818A8190
:101390009B81CD57D0400E94A2429B01AC01C70166
:1013A000B6010E94F04069A77AA78BA79CA760931B
:1013B0005E0E70935F0E8093600E9093610E20918D
:1013C0002606309127064091280650912906698DFE
:1013D0007A8D8B8D9C8D0E94A2426B017C012091A5
:1013E00036063091370640913806509139066D8D9A
:1013F0007E8D8F8D98A10E94A2429B01AC01C701F6
:10140000B6010E94F0406B017C01209146063091AC
:101410004706409148065091490669A17AA18BA1DF
:101420009CA10E94A2429B01AC01C701B6010E948F
:10143000F0406B017C012091560630915706409197
:10144000580650915906C358DF4F688179818A81C7
:101450009B81CD57D0400E94A2429B01AC01C701A5
:10146000B6010E94F0406DA77EA78FA798AB60934E
:10147000620E7093630E8093640E9093650E2091BC
:101480002A0630912B0640912C0650912D06698D2D
:101490007A8D8B8D9C8D0E94A2426B017C012091E4
:1014A0003A0630913B0640913C0650913D066D8DC9
:1014B0007E8D8F8D98A10E94A2429B01AC01C70135
:1014C000B6010E94F0406B017C0120914A063091E8
:1014D0004B0640914C0650914D0669A17AA18BA113
:1014E0009CA10E94A2429B01AC01C701B6010E94CF
:1014F000F0406B017C0120915A0630915B064091CF
:101500005C0650915D06C358DF4F688179818A81FE
:101510009B81CD57D0400E94A2429B01AC01C701E4
:10152000B6010E94F04069AB7AAB8BAB9CAB609389
:10153000660E7093670E8093680E9093690E2091EB
:10154000C80D3091C90D4091CA0D5091CB0D6D96CB
:101550002CAF3DAF4EAF5FAF6D978091CC0D9091AA
:10156000CD0DA091CE0DB091CF0DA1968CAF9DAFBA
:10157000AEAFBFAFA1972091D00D3091D10D40916A
:10158000D20D5091D30DA5962CAF3DAF4EAF5FAFAE
:10159000A5978091D40D9091D50DA091D60DB091C5
:1015A000D70DCF57DF4F88839983AA83BB83C15858
:1015B000D04020916E0630916F0640917006509198
:1015C00071066D966CAD7DAD8EAD9FAD6D970E9431
:1015D000A2426B017C0120917E0630917F064091F2
:1015E000800650918106A1966CAD7DAD8EAD9FAD0C
:1015F000A1970E94A2429B01AC01C701B6010E94C3
:10160000F0406B017C0120918E0630918F06409155
:10161000900650919106A5966CAD7DAD8EAD9FADB7
:10162000A5970E94A2429B01AC01C701B6010E948E
:10163000F0406B017C0120919E0630919F06409105
:10164000A0065091A106CF57DF4F688179818A812A
:101650009B81C158D0400E94A2429B01AC01C701AE
:10166000B6010E94F04069AF7AAF8BAF9CAF609338
:101670006A0E70936B0E80936C0E90936D0E20919A
:1016800072063091730640917406509175066D96FE
:101690006CAD7DAD8EAD9FAD6D970E94A2426B018A
:1016A0007C012091820630918306409184065091FE
:1016B0008506A1966CAD7DAD8EAD9FADA1970E94C4
:1016C000A2429B01AC01C701B6010E94F0406B0130
:1016D0007C0120919206309193064091940650919E
:1016E0009506A5966CAD7DAD8EAD9FADA5970E947C
:1016F000A2429B01AC01C701B6010E94F0406B0100
:101700007C012091A2063091A3064091A40650913D
:10171000A506CF57DF4F688179818A819B81C158A7
:10172000D0400E94A2429B01AC01C701B6010E94B9
:10173000F04021966CAF7DAF8EAF9FAF2197609345
:101740006E0E70936F0E8093700E9093710E2091B9
:1017500076063091770640917806509179066D961D
:101760006CAD7DAD8EAD9FAD6D970E94A2426B01B9
:101770007C01209186063091870640918806509121
:101780008906A1966CAD7DAD8EAD9FADA1970E94EF
:10179000A2429B01AC01C701B6010E94F0406B015F
:1017A0007C012091960630919706409198065091C1
:1017B0009906A5966CAD7DAD8EAD9FADA5970E94A7
:1017C000A2429B01AC01C701B6010E94F0406B012F
:1017D0007C012091A6063091A7064091A806509161
:1017E000A906CF57DF4F688179818A819B81C158D3
:1017F000D0400E94A2429B01AC01C701B6010E94E9
:10180000F04025966CAF7DAF8EAF9FAF259760936C
:10181000720E7093730E8093740E9093750E2091D8
:101820007A0630917B0640917C0650917D066D963C
:101830006CAD7DAD8EAD9FAD6D970E94A2426B01E8
:101840007C0120918A0630918B0640918C06509144
:101850008D06A1966CAD7DAD8EAD9FADA1970E941A
:10186000A2429B01AC01C701B6010E94F0406B018E
:101870007C0120919A0630919B0640919C065091E4
:101880009D06A5966CAD7DAD8EAD9FADA5970E94D2
:10189000A2429B01AC01C701B6010E94F0406B015E
:1018A0007C012091AA063091AB064091AC06509184
:1018B000AD06CF57DF4F688179818A819B81C158FE
:1018C000D0400E94A2429B01AC01C701B6010E9418
:1018D000F04029966CAF7DAF8EAF9FAF2997609394
:1018E000760E7093770E8093780E9093790E2091F8
:1018F000D80D3091D90D4091DA0D5091DB0DA9969C
:101900002CAF3DAF4EAF5FAFA9978091DC0D9091AA
:10191000DD0DA091DE0DB091DF0DAD968CAF9DAFCA
:10192000AEAFBFAFAD972091E00D3091E10D40918A
:10193000E20D5091E30DE1962CAF3DAF4EAF5FAF9E
:10194000E1978091E40D9091E50DA091E60DB091A5
:10195000E70DCB57DF4F88839983AA83BB83C55894
:10196000D0402091BE063091BF064091C0065091F4
:10197000C106A9966CAD7DAD8EAD9FADA9970E94B5
:10198000A2426B017C012091CE063091CF0640919E
:10199000D0065091D106AD966CAD7DAD8EAD9FADAC
:1019A000AD970E94A2429B01AC01C701B6010E9403
:1019B000F0406B017C012091DE063091DF06409102
:1019C000E0065091E106E1966CAD7DAD8EAD9FAD28
:1019D000E1970E94A2429B01AC01C701B6010E949F
:1019E000F0406B017C012091EE063091EF064091B2
:1019F000F0065091F106CB57DF4F688179818A81DB
:101A00009B81C558D0400E94A2429B01AC01C701F6
:101A1000B6010E94F040C357DF4F688379838A8301
:101A20009B83CD58D04060937A0E70937B0E809349
:101A30007C0E90937D0E2091C2063091C30640919A
:101A4000C4065091C506A9966CAD7DAD8EAD9FAD17
:101A5000A9970E94A2426B017C012091D20630918D
:101A6000D3064091D4065091D506AD966CAD7DADB0
:101A70008EAD9FADAD970E94A2429B01AC01C70104
:101A8000B6010E94F0406B017C012091E20630918A
:101A9000E3064091E4065091E506E1966CAD7DAD1C
:101AA0008EAD9FADE1970E94A2429B01AC01C701A0
:101AB000B6010E94F0406B017C012091F20630914A
:101AC000F3064091F4065091F506CB57DF4F68813D
:101AD00079818A819B81C558D0400E94A2429B0196
:101AE000AC01C701B6010E94F040CF56DF4F6883BA
:101AF00079838A839B83C159D04060937E0E709313
:101B00007F0E8093800E9093810E2091C6063091B7
:101B1000C7064091C8065091C906A9966CAD7DAD27
:101B20008EAD9FADA9970E94A2426B017C012091CE
:101B3000D6063091D7064091D8065091D906AD9679
:101B40006CAD7DAD8EAD9FADAD970E94A2429B0165
:101B5000AC01C701B6010E94F0406B017C012091ED
:101B6000E6063091E7064091E8065091E906E196D5
:101B70006CAD7DAD8EAD9FADE1970E94A2429B0101
:101B8000AC01C701B6010E94F0406B017C012091BD
:101B9000F6063091F7064091F8065091F906CB57BA
:101BA000DF4F688179818A819B81C558D0400E942E
:101BB000A2429B01AC01C701B6010E94F040CB5686
:101BC000DF4F688379838A839B83C559D0406093B4
:101BD000820E7093830E8093840E9093850E2091D5
:101BE000CA063091CB064091CC065091CD06A996FD
:101BF0006CAD7DAD8EAD9FADA9970E94A2426B01E9
:101C00007C012091DA063091DB064091DC06509190
:101C1000DD06AD966CAD7DAD8EAD9FADAD970E94EE
:101C2000A2429B01AC01C701B6010E94F0406B01CA
:101C30007C012091EA063091EB064091EC06509130
:101C4000ED06E1966CAD7DAD8EAD9FADE1970E9446
:101C5000A2429B01AC01C701B6010E94F0406B019A
:101C60007C012091FA063091FB064091FC065091D0
:101C7000FD06CB57DF4F688179818A819B81C558EA
:101C8000D0400E94A2429B01AC01C701B6010E9454
:101C9000F040C756DF4F688379838A839B83C95995
:101CA000D0406093860E7093870E8093880E909339
:101CB000890E2091E80D3091E90D4091EA0D509187
:101CC000EB0DE5962CAF3DAF4EAF5FAFE597809142
:101CD000EC0D9091ED0DA091EE0DB091EF0DE99608
:101CE0008CAF9DAFAEAFBFAFE9972091F00D3091B3
:101CF000F10D4091F20D5091F30DED962CAF3DAFEB
:101D00004EAF5FAFED978091F40D9091F50DA091DE
:101D1000F60DB091F70DC757DF4F88839983AA83DB
:101D2000BB83C958D04020910E0730910F074091D6
:101D3000100750911107E5966CAD7DAD8EAD9FAD4E
:101D4000E5970E94A2426B017C0120911E07309111
:101D50001F074091200750912107E9966CAD7DAD9A
:101D60008EAD9FADE9970E94A2429B01AC01C701D5
:101D7000B6010E94F0406B017C0120912E0730914A
:101D80002F074091300750913107ED966CAD7DAD36
:101D90008EAD9FADED970E94A2429B01AC01C701A1
:101DA000B6010E94F0406B017C0120913E0730910A
:101DB0003F074091400750914107C757DF4F688167
:101DC00079818A819B81C958D0400E94A2429B019F
:101DD000AC01C701B6010E94F040CF54DF4F6883C9
:101DE00079838A839B83C15BD04060938A0E709312
:101DF0008B0E80938C0E90938D0E20911207309154
:101E000013074091140750911507E5966CAD7DAD11
:101E10008EAD9FADE5970E94A2426B017C0120919F
:101E20002207309123074091240750912507E99616
:101E30006CAD7DAD8EAD9FADE9970E94A2429B0136
:101E4000AC01C701B6010E94F0406B017C012091FA
:101E50003207309133074091340750913507ED96A2
:101E60006CAD7DAD8EAD9FADED970E94A2429B0102
:101E7000AC01C701B6010E94F0406B017C012091CA
:101E80004207309143074091440750914507C75797
:101E9000DF4F688179818A819B81C958D0400E9437
:101EA000A2429B01AC01C701B6010E94F040CB5495
:101EB000DF4F688379838A839B83C55BD0406093BF
:101EC0008E0E70938F0E8093900E9093910E2091B2
:101ED0001607309117074091180750911907E5969A
:101EE0006CAD7DAD8EAD9FADE5970E94A2426B01BA
:101EF0007C012091260730912707409128075091B7
:101F00002907E9966CAD7DAD8EAD9FADE9970E9436
:101F1000A2429B01AC01C701B6010E94F0406B01D7
:101F20007C01209136073091370740913807509156
:101F30003907ED966CAD7DAD8EAD9FADED970E94EE
:101F4000A2429B01AC01C701B6010E94F0406B01A7
:101F50007C012091460730914707409148075091F6
:101F60004907C757DF4F688179818A819B81C958AA
:101F7000D0400E94A2429B01AC01C701B6010E9461
:101F8000F040C754DF4F688379838A839B83C95BA2
:101F9000D0406093920E7093930E8093940E909322
:101FA000950E20911A0730911B0740911C07509104
:101FB0001D07E5966CAD7DAD8EAD9FADE5970E949A
:101FC000A2426B017C0120912A0730912B0740919E
:101FD0002C0750912D07E9966CAD7DAD8EAD9FAD70
:101FE000E9970E94A2429B01AC01C701B6010E9481
:101FF000F0406B017C0120913A0730913B07409102
:102000003C0750913D07ED966CAD7DAD8EAD9FAD1B
:10201000ED970E94A2429B01AC01C701B6010E944C
:10202000F0406B017C0120914A0730914B074091B1
:102030004C0750914D07C757DF4F688179818A81DE
:102040009B81C958D0400E94A2429B01AC01C701AC
:10205000B6010E94F040C354DF4F688379838A83BE
:102060009B83CD5BD0406093960E7093970E8093C8
:10207000980E9093990E80912E0E90912F0EA09114
:10208000300EB091310E8093740D9093750DA09326
:10209000760DB093770D2091800D3091810D409198
:1020A000820D5091830DC755DF4F288339834A83B2
:1020B0005B83C95AD04080917C0D90917D0DA09199
:1020C0007E0DB0917F0DC355DF4F88839983AA831E
:1020D000BB83CD5AD0402091780D3091790D40913D
:1020E0007A0D50917B0DCB53DF4F288339834A8380
:1020F0005B83C55CD040AE01435F5F4F1A0186ED44
:1021000093E02B969FAF8EAF2B97AAECB3E02F9660
:10211000BFAFAEAF2F97EEEBF3E06396FFAFEEAF3E
:1021200063972EE833E067963FAF2EAF67974AE993
:1021300053E0C356DF4F59834883CD59D04086EAD8
:1021400093E09EAB8DABA2EBB3E0CF55DF4FB983ED
:10215000A883C15AD04000E010E0CF55DF4FE8819E
:10216000F981C15AD0406191719181919191CF557E
:10217000DF4FF983E883C15AD040ADA9BEA98D9045
:102180009D90AD90BD90BEABADABC356DF4FE88127
:10219000F981CD59D0404190519061907190C356D2
:1021A000DF4FF983E883CD59D0406796AEADBFAD20
:1021B00067972D913D914D915D916796BFAFAEAF01
:1021C0006797CF53DF4F288339834A835B83C15C92
:1021D000D0402DA13EA14FA158A50E94A2426B0163
:1021E0007C01C755DF4F288139814A815B81C95AFB
:1021F000D040C501B4010E94A2424B015C01C3550D
:10220000DF4F288139814A815B81CD5AD040C3019B
:10221000B2010E94A2422B013C01CB53DF4F288127
:1022200039814A815B81C55CD040CF53DF4F6881E3
:1022300079818A819B81C15CD0400E94A2429B012E
:10224000AC01C301B2010E94F0409B01AC01C50189
:10225000B4010E94F0409B01AC01C701B6010E948D
:10226000F0406B017C016396EEADFFAD6397619129
:102270007191819191916396FFAFEEAF639729A51C
:102280003AA54BA55CA50E94A2429B01AC01C701E7
:10229000B6010E94F0406B017C012F96AEADBFAD40
:1022A0002F976D917D918D919D912F96BFAFAEAF80
:1022B0002F972DA53EA54FA558A90E94A2429B018C
:1022C000AC01C701B6010E94F0406B017C012B9666
:1022D000EEADFFAD2B9761917191819191912B960C
:1022E000FFAFEEAF2B9729A93AA94BA95CA90E9491
:1022F000A2429B01AC01C701B6010E94F040D1018E
:102300006D937D938D939D931D010F5F1F4F033040
:10231000110509F022CF8091360E9091370EA091D1
:10232000380EB091390E8093840D9093850DA09353
:10233000860DB093870D2091900D3091910D4091B5
:10234000920D5091930DC356DF4F288339834A83F2
:102350005B83CD59D04080918C0D90918D0DA091D3
:102360008E0DB0918F0DCF55DF4F88839983AA834F
:10237000BB83C15AD0402091880D3091890D409186
:102380008A0D50918B0DC355DF4F288339834A83C3
:102390005B83CD5AD04048E75DE05EA34DA3CE01FC
:1023A00001961C01A6EDB3E0BAA7A9A7EAECF3E0F9
:1023B000FEA7EDA72EEB33E03AAB29AB4EE853E096
:1023C0005EAB4DAB8AE993E02B969FAF8EAF2B9718
:1023D000A6EAB3E02F96BFAFAEAF2F97E2EBF3E0E4
:1023E0006396FFAFEEAF63979E01235F3F4F679603
:1023F0003FAF2EAF679700E010E06796EEADFFAD00
:10240000679781919191A191B1916796FFAFEEAFDE
:102410006797EDA1FEA181939193A193B193FEA340
:10242000EDA36396AEADBFAD63976D917D918D9138
:102430009D916396BFAFAEAF63972F96EEADFFADA4
:102440002F9781909190A190B1902F96FFAFEEAF12
:102450002F972B96AEADBFAD2B974D905D906D90A5
:102460007D902B96BFAFAEAF2B97ADA9BEA92D9196
:102470003D914D915D91BEABADABC755DF4F28830C
:1024800039834A835B83C95AD04029AD3AAD4BADFD
:102490005CAD0E94A2426B017C01C356DF4F2881D4
:1024A00039814A815B81CD59D040C501B4010E9478
:1024B000A2424B015C01CF55DF4F288139814A810F
:1024C0005B81C15AD040C301B2010E94A2422B01DC
:1024D0003C01C355DF4F288139814A815B81CD5A48
:1024E000D040C755DF4F688179818A819B81C95A65
:1024F000D0400E94A2429B01AC01C301B2010E94E4
:10250000F0409B01AC01C501B4010E94F0409B0169
:10251000AC01C701B6010E94F0406B017C01E9A942
:10252000FAA96191719181919191FAABE9AB2196F0
:102530002CAD3DAD4EAD5FAD21970E94A2429B01F7
:10254000AC01C701B6010E94F0406B017C01ADA552
:10255000BEA56D917D918D919D91BEA7ADA725964C
:102560002CAD3DAD4EAD5FAD25970E94A2429B01C3
:10257000AC01C701B6010E94F0406B017C01E9A5E6
:10258000FAA56191719181919191FAA7E9A7299694
:102590002CAD3DAD4EAD5FAD29970E94A2429B018F
:1025A000AC01C701B6010E94F040D1016D937D934B
:1025B0008D939D931D010F5F1F4F0330110509F08F
:1025C0001CCF80914A0E90914B0EA0914C0EB09171
:1025D0004D0E8093940D9093950DA093960DB0930E
:1025E000970D2091A00D3091A10D4091A20D509119
:1025F000A30D2D962CAF3DAF4EAF5FAF2D978091C1
:102600009C0D90919D0DA0919E0DB0919F0D619696
:102610008CAF9DAFAEAFBFAF61972091980D309159
:10262000990D40919A0D50919B0D69962CAF3DAF3D
:102630004EAF5FAF699748E85DE05EA34DA3CE0162
:102640000D961C01A6EDB3E0BAA7A9A7EAECF3E04A
:10265000FEA7EDA72EEB33E03AAB29AB4EE853E0F3
:102660005AAF49AF8AE993E09EAF8DAFA6EAB3E0D7
:102670002396BFAFAEAF2397E2EBF3E02796FFAF11
:10268000EEAF27979E012F5F3F4F3EAB2DAB00E093
:1026900010E0EDA9FEA981919191A191B191FEABBC
:1026A000EDABEDA1FEA181939193A193B193FEA314
:1026B000EDA32796AEADBFAD27976D917D918D911E
:1026C0009D912796BFAFAEAF27972396EEADFFAD96
:1026D000239781909190A190B1902396FFAFEEAF98
:1026E0002397ADADBEAD4D905D906D907D90BEAF2A
:1026F000ADAFA9ADBAAD2D913D914D915D91BAAF00
:10270000A9AF65962CAF3DAF4EAF5FAF6597C3578E
:10271000DF4F288139814A815B81CD58D0400E94AA
:10272000A2426B017C012D962CAD3DAD4EAD5FAD4F
:102730002D97C501B4010E94A2424B015C01619634
:102740002CAD3DAD4EAD5FAD6197C301B2010E94AE
:10275000A2422B013C0169962CAD3DAD4EAD5FAD63
:10276000699765966CAD7DAD8EAD9FAD65970E9406
:10277000A2429B01AC01C301B2010E94F0409B0147
:10278000AC01C501B4010E94F0409B01AC01C7013E
:10279000B6010E94F0406B017C01E9A9FAA96191A0
:1027A000719181919191FAABE9ABCF56DF4F2881BE
:1027B00039814A815B81C159D0400E94A2429B016C
:1027C000AC01C701B6010E94F0406B017C01ADA5D0
:1027D000BEA56D917D918D919D91BEA7ADA7CB5664
:1027E000DF4F288139814A815B81C559D0400E94E1
:1027F000A2429B01AC01C701B6010E94F0406B01EF
:102800007C01E9A5FAA56191719181919191FAA755
:10281000E9A7C756DF4F288139814A815B81C959B1
:10282000D0400E94A2429B01AC01C701B6010E94A8
:10283000F040D1016D937D938D939D931D010F5FAA
:102840001F4F0330110509F024CF8091520E909153
:10285000530EA091540EB091550E8093A40D9093F9
:10286000A50DA093A60DB093A70D2091B00D3091AA
:10287000B10D4091B20D5091B30DCF56DF4F28836B
:1028800039834A835B83C159D0408091AC0D9091CC
:10289000AD0DA091AE0DB091AF0DCB56DF4F88833B
:1028A0009983AA83BB83C559D0402091A80D30914C
:1028B000A90D4091AA0D5091AB0D2DAB3EAB4FAB86
:1028C00058AF48E95DE027965FAF4EAF2797CE013E
:1028D00001961C01A6EDB3E0BEA3ADA3EAECF3E0C4
:1028E000FAA7E9A72EEB33E03EA72DA74EE853E069
:1028F0005AAB49AB8AE993E09AAF89AFA6EAB3E055
:10290000BEAFADAFE2EBF3E02396FFAFEEAF2397A0
:102910009E01235F3F4FC357DF4F39832883CD5834
:10292000D04000E010E0C357DF4FE881F981CD5877
:10293000D04081919191A191B191C357DF4FF9831B
:10294000E883CD58D0402796EEADFFAD2797819311
:102950009193A193B1932796FFAFEEAF279723965C
:10296000AEADBFAD23976D917D918D919D912396D5
:10297000BFAFAEAF2397EDADFEAD81909190A1902A
:10298000B190FEAFEDAFA9ADBAAD4D905D906D9039
:102990007D90BAAFA9AFA9A9BAA92D913D914D914A
:1029A0005D91BAABA9ABC756DF4F288339834A8301
:1029B0005B83C959D040CF54DF4F288139814A8188
:1029C0005B81C15BD0400E94A2426B017C01CF566B
:1029D000DF4F288139814A815B81C159D040C501CF
:1029E000B4010E94A2424B015C01CB56DF4F28810B
:1029F00039814A815B81C559D040C301B2010E942F
:102A0000A2422B013C012DA93EA94FA958ADC756A2
:102A1000DF4F688179818A819B81C959D0400E94AA
:102A2000A2429B01AC01C301B2010E94F0409B0194
:102A3000AC01C501B4010E94F0409B01AC01C7018B
:102A4000B6010E94F0406B017C01EDA5FEA56191ED
:102A5000719181919191FEA7EDA7CB54DF4F288111
:102A600039814A815B81C55BD0400E94A2429B01B3
:102A7000AC01C701B6010E94F0406B017C01A9A521
:102A8000BAA56D917D918D919D91BAA7A9A7C754C3
:102A9000DF4F288139814A815B81C95BD0400E9428
:102AA000A2429B01AC01C701B6010E94F0406B013C
:102AB0007C01EDA1FEA16191719181919191FEA3A3
:102AC000EDA3C354DF4F288139814A815B81CD5BFF
:102AD000D0400E94A2429B01AC01C701B6010E94F6
:102AE000F040D1016D937D938D939D931D010F5FF8
:102AF0001F4F0330110509F016CF89819A81AB81F0
:102B0000BC818093A80D9093A90DA093AA0DB093BA
:102B1000AB0D8D819E81AF81B8858093AC0D909374
:102B2000AD0DA093AE0DB093AF0D89859A85AB85A1
:102B3000BC858093B00D9093B10DA093B20DB0936E
:102B4000B30D8091560E9091570EA091580EB091F2
:102B5000590E8093B40D9093B50DA093B60DB0931C
:102B6000B70DCB55DF4FB881C55AD040B093060E94
:102B7000CA55DF4FE881C65AD040E093070EC955C9
:102B8000DF4FF881C75AD040F093080EC855DF4F89
:102B90002881C85AD0402093090EC0909E0ED09034
:102BA0009F0EE090A00EF090A10E20910E063091A5
:102BB0000F064091100650911106698D7A8D8B8D0C
:102BC0009C8D0E94A2424B015C0120911206309123
:102BD000130640911406509115066D8D7E8D8F8DD4
:102BE00098A10E94A2429B01AC01C501B4010E94C0
:102BF000F0404B015C012091160630911706409180
:102C000018065091190669A17AA18BA19CA10E9476
:102C1000A2429B01AC01C501B4010E94F0404B01EE
:102C20005C0120911A0630911B0640911C065091C0
:102C30001D06C358DF4F688179818A819B81CD57FA
:102C4000D0400E94A2429B01AC01C501B4010E9488
:102C5000F0409B01AC01C701B6010E94F04029A1E0
:102C60003AA14BA15CA12093C40D3093C50D4093B4
:102C7000C60D5093C70D2D8D3E8D4F8D58A12093BD
:102C8000C00D3093C10D4093C20D5093C30D298DDB
:102C90003A8D4B8D5C8D2093BC0D3093BD0D4093D0
:102CA000BE0D5093BF0D6093B80D7093B90D809316
:102CB000BA0D9093BB0DC090AA0ED090AB0EE090D1
:102CC000AC0EF090AD0E20915E0630915F06409103
:102CD0006006509161066D966CAD7DAD8EAD9FAD79
:102CE0006D970E94A2424B015C01209162063091D7
:102CF00063064091640650916506A1966CAD7DAD6A
:102D00008EAD9FADA1970E94A2429B01AC01C5016F
:102D1000B4010E94F0404B015C01209166063091A5
:102D200067064091680650916906A5966CAD7DAD29
:102D30008EAD9FADA5970E94A2429B01AC01C5013B
:102D4000B4010E94F0404B015C0120916A06309171
:102D50006B0640916C0650916D06CF57DF4F68812E
:102D600079818A819B81C158D0400E94A2429B01F7
:102D7000AC01C501B4010E94F0409B01AC01C70148
:102D8000B6010E94F040A5962CAD3DAD4EAD5FADB5
:102D9000A5972093D40D3093D50D4093D60D509325
:102DA000D70DA1962CAD3DAD4EAD5FADA197209353
:102DB000D00D3093D10D4093D20D5093D30D6D961D
:102DC0002CAD3DAD4EAD5FAD6D972093CC0D3093E6
:102DD000CD0D4093CE0D5093CF0D6093C80D7093E1
:102DE000C90D8093CA0D9093CB0DC090A20ED090C8
:102DF000A30EE090A40EF090A50E2091AE063091A7
:102E0000AF064091B0065091B106A9966CAD7DAD6C
:102E10008EAD9FADA9970E94A2424B015C0120910B
:102E2000B2063091B3064091B4065091B506AD9606
:102E30006CAD7DAD8EAD9FADAD970E94A2429B0162
:102E4000AC01C501B4010E94F0404B015C0120912E
:102E5000B6063091B7064091B8065091B906E19692
:102E60006CAD7DAD8EAD9FADE1970E94A2429B01FE
:102E7000AC01C501B4010E94F0404B015C012091FE
:102E8000BA063091BB064091BC065091BD06CB57A7
:102E9000DF4F688179818A819B81C558D0400E942B
:102EA000A2429B01AC01C501B4010E94F0409B010C
:102EB000AC01C701B6010E94F040E1962CAD3DADDA
:102EC0004EAD5FADE1972093E40D3093E50D409357
:102ED000E60D5093E70DAD962CAD3DAD4EAD5FAD1B
:102EE000AD972093E00D3093E10D4093E20D5093A8
:102EF000E30DA9962CAD3DAD4EAD5FADA9972093E6
:102F0000DC0D3093DD0D4093DE0D5093DF0D6093AB
:102F1000D80D7093D90D8093DA0D9093DB0DC0908E
:102F2000A60ED090A70EE090A80EF090A90E2091CA
:102F3000FE063091FF064091000750910107E5968B
:102F40006CAD7DAD8EAD9FADE5970E94A2424B0169
:102F50005C012091020730910307409104075091D2
:102F60000507E9966CAD7DAD8EAD9FADE9970E94EA
:102F7000A2429B01AC01C501B4010E94F0404B018B
:102F80005C01209106073091070740910807509196
:102F90000907ED966CAD7DAD8EAD9FADED970E94AE
:102FA000A2429B01AC01C501B4010E94F0404B015B
:102FB0005C0120910A0730910B0740910C0750915A
:102FC0000D07C757DF4F688179818A819B81C95876
:102FD000D0400E94A2429B01AC01C501B4010E94F5
:102FE000F0409B01AC01C701B6010E94F040ED9694
:102FF0002CAD3DAD4EAD5FADED972093F40D30930C
:10300000F50D4093F60D5093F70DE9962CAD3DADBF
:103010004EAD5FADE9972093F00D3093F10D4093E5
:10302000F20D5093F30DE5962CAD3DAD4EAD5FAD79
:10303000E5972093EC0D3093ED0D4093EE0D5093FA
:10304000EF0D6093E80D7093E90D8093EA0D909376
:10305000EB0D82E090E00E94042EE091660DF0916D
:10306000670D408151816281738180E090E00E9410
:10307000002E60915B0D70915C0D80915D0D9091C3
:103080005E0D0E94EC412AE037ED43E25CE30E94D2
:10309000A242AB01BC0181E090E00E94002E809032
:1030A0005F0D9090600DA090610DB090620D20E0DA
:1030B00030E040E85FEBC501B4010E94544100914B
:1030C000660D1091670D882319F1D801CD90DD9020
:1030D000ED90FC90A7019601C501B4010E94EF405C
:1030E0004B015C0120E030E040E054E3C701B60151
:1030F0000E94A2429B01AC01C501B4010E949E4204
:10310000181634F086EF97E09093C30C8093C20CAE
:103110008091650D882331F086EF97E09093C30C82
:103120008093C20C6091530D7091540D8091550D98
:103130009091560D6F5F7F4F8F4F9F4F6093530D50
:103140007093540D8093550D9093560D0E94EC4151
:103150002091570D3091580D4091590D50915A0DB5
:103160000E94A242F80160837183828393838091DD
:103170005B0D90915C0DA0915D0DB0915E0D01967F
:10318000A11DB11D80935B0D90935C0DA0935D0D0F
:10319000B0935E0DC853DF4F0FB6F894DEBF0FBE7D
:1031A000CDBFDF91CF911F910F91FF90EF90DF90F6
:1031B000CF90BF90AF909F908F907F906F905F90D7
:1031C0004F903F902F900895CF92DF92EF92FF9211
:1031D0000F931F93CF93DF93E2ECFCE08EEADF01C5
:1031E0001D928A95E9F783E69DE09093C90C809340
:1031F000C80CA6E6BDE0B093030DA093020DC7E591
:10320000DDE0D093D70CC093D60CF0932D0DE09356
:103210002C0DF093C70CE093C60C21E030E0FC01CC
:10322000318320838AE098E09093CD0C8093CC0C7E
:1032300028E63DE02D933C9380E090E0A8ECB2E4DA
:1032400080935F0D9093600DA093610DB093620D1C
:103250008AE097EDA3E2BCE388839983AA83BB83CA
:10326000E1E4FDE082EC98E6ADEDB1E88083918386
:10327000A283B38386E19CE8AFEBBAE08093450D6F
:103280009093460DA093470DB093480D85E893EDBC
:10329000A6E8BFE68093490D90934A0DA0934B0D8D
:1032A000B0934C0D8BED97E2ADE8B4EA80934D0DF1
:1032B00090934E0DA0934F0DB093500DC4E4D9E000
:1032C000D093C50CC093C40CAAE1B9E0B983A8831C
:1032D00088E898E08D939C9390931D0980931C0936
:1032E00090931F0980931E099093210980932009D0
:1032F00090932309809322099093250980932409B0
:10330000909327098093260990932909809328098F
:1033100090932B0980932A0990932D0980932C096F
:1033200090932F0980932E0990933109809330094F
:1033300090933309809332098DE19EE09093350993
:1033400080933409909337098093360988E19EE091
:10335000909339098093380990933B0980933A09F7
:1033600083E19EE090933D0980933C0990933F094F
:1033700080933E098EE09EE090934109809340093E
:10338000909343098093420941E55DE050934909D8
:1033900040934809F0934709E093460930934B095D
:1033A00020934A0980E9EEE1FEE0DF011D928A9553
:1033B000E9F7C4E7DDE08AEAFE0111928A95E9F7B0
:1033C000E8E0F9E082E1DF011D928A95E9F7DA0190
:1033D000ED93FC9380E190E09183808382E593E01C
:1033E00090930B0980930A0982E393E090930D096F
:1033F00080930C0986EA92E090930F0980930E095E
:103400008AE092E0909311098093100960914E0731
:1034100070914F0780915007909151070E9440385A
:1034200088ED97E00E946E0161E080910A040E949D
:10343000543261E080910E040E94543280EC97E097
:103440000E946E0161E0809112040E94543261E09A
:10345000809116040E94543260E0809152070E94CD
:10346000543260E0809156070E94543260E08091AF
:103470005A070E94543260E080915E070E945432E5
:103480008091AE079091AF07A091B007B091B107BE
:103490008093AA0E9093AB0EA093AC0EB093AD0E9A
:1034A0008091980790919907A0919A07B0919B07F6
:1034B0008093A60E9093A70EA093A80EB093A90E8A
:1034C0008091820790918307A0918407B09185072E
:1034D0008093A20E9093A30EA093A40EB093A50E7A
:1034E00080916C0790916D07A0916E07B0916F0766
:1034F00080939E0E90939F0EA093A00EB093A10E6A
:1035000081E08093700D8093710D8093720D809394
:10351000730D8091520490915304A0915404B09182
:10352000550488839983AA83BB838091BE049091BC
:10353000BF04A091C004B091C1048093840D909306
:10354000850DA093860DB093870D80912E059091E7
:103550002F05A0913005B09131058093940D909383
:10356000950DA093960DB093970D80919A0590912B
:103570009B05A0919C05B0919D058093A40D90930F
:10358000A50DA093A60DB093A70D809182039091F5
:103590008303A0918403B09185038093780D909369
:1035A000790DA0937A0DB0937B0D8093880D909345
:1035B000890DA0938A0DB0938B0D8093980D9093F5
:1035C000990DA0939A0DB0939B0D8093A80D9093A5
:1035D000A90DA093AA0DB093AB0D80918603909195
:1035E0008703A0918803B091890380937C0D909309
:1035F0007D0DA0937E0DB0937F0D80938C0D9093E5
:103600008D0DA0938E0DB0938F0D80939C0D909394
:103610009D0DA0939E0DB0939F0D8093AC0D909344
:10362000AD0DA093AE0DB093AF0D80918A03909134
:103630008B03A0918C03B0918D038093800D9093A8
:10364000810DA093820DB093830D8093900D909384
:10365000910DA093920DB093930D8093A00D909334
:10366000A10DA093A20DB093A30D8093B00D9093E4
:10367000B10DA093B20DB093B30D80910606909159
:103680000706A0910806B09109068093B40D9093A7
:10369000B50DA093B60DB093B70D80911A04809329
:1036A000060E80911B048093070E80911C0480936A
:1036B000080E80911D048093090E8091B2079091AD
:1036C000B307A091B407B091B5078093190E9093FA
:1036D0001A0EA0931B0EB0931C0E80919C07909124
:1036E0009D07A0919E07B0919F078093140E909321
:1036F000150EA093160EB093170E80918607909129
:103700008707A0918807B091890780930F0E909347
:10371000100EA093110EB093120E8091700790912D
:103720007107A0917207B091730780930A0E90936E
:103730000B0EA0930C0EB0930D0EC0907203D090A0
:103740007303E0907403F0907503C092B80DD092AB
:10375000B90DE092BA0DF092BB0D00917603109175
:10376000770320917803309179030093BC0D109377
:10377000BD0D2093BE0D3093BF0D40917A03509143
:103780007B0360917C0370917D034093C00D509347
:10379000C10D6093C20D7093C30D80917E03909113
:1037A0007F03A0918003B09181038093C40D909317
:1037B000C50DA093C60DB093C70DC092C80DD09291
:1037C000C90DE092CA0DF092CB0D0093CC0D109371
:1037D000CD0D2093CE0D3093CF0D4093D00D50934F
:1037E000D10D6093D20D7093D30D8093D40D90932F
:1037F000D50DA093D60DB093D70DC092D80DD09211
:10380000D90DE092DA0DF092DB0D0093DC0D1093F0
:10381000DD0D2093DE0D3093DF0D4093E00D5093CE
:10382000E10D6093E20D7093E30D8093E40D9093AE
:10383000E50DA093E60DB093E70DC092E80DD09290
:10384000E90DE092EA0DF092EB0D0093EC0D109370
:10385000ED0D2093EE0D3093EF0D4093F00D50934E
:10386000F10D6093F20D7093F30D8093F40D90932E
:10387000F50DA093F60DB093F70DDF91CF911F9149
:103880000F91FF90EF90DF90CF9008950895CF9320
:10389000DF93CDB7DEB72A970FB6F894DEBF0FBE21
:1038A000CDBFAC01CB0160E070E049835A836B83EC
:1038B0007C83AA2797FDA095BA2F8D839E83AF8323
:1038C000B8879E01275F3F4FAE014F5F5F4F68E0B3
:1038D00070E080915509909156090E946F3F8111C7
:1038E00008C081E029853A852830310519F480E047
:1038F00001C081E02A960FB6F894DEBF0FBECDBF9F
:10390000DF91CF9108950F931F93CF93DF931F9271
:103910001F92CDB7DEB78B019E012F5F3F4FAC01E9
:1039200080915509909156090E946F3F811108C0FE
:1039300081E029813A812017310719F480E001C024
:1039400081E00F900F90DF91CF911F910F9108951B
:10395000CF93DF93EC011092590910925809AC01F2
:1039600060E070E0CB010E941428AE0161E070E0DD
:1039700080E090E00E9414288091550990915609AA
:10398000DF91CF910C94BE3FEF92FF920F931F9364
:10399000CF93DF931F921F92CDB7DEB78C0180913A
:1039A00053099091540980179107B4F580915109FA
:1039B00090915209009731F00E94F24310925409FD
:1039C00010925309C8010E945A4390935209809360
:1039D0005109892B19F4E12CF12C18C010935409CA
:1039E0000093530919C020E539E0AE014F5F5F4FE6
:1039F00061E070E080915509909156090E94B03EB7
:103A0000811107C089819A81E80EF91EE016F1063E
:103A100054F380E090E01FC0E12CF12C209151097B
:103A200030915209E016F106ACF42E0D3F1DAE01A7
:103A30004F5F5F4FB8016E197F09809155099091D2
:103A400056090E94B03E8111E4CF89819A81E80E27
:103A5000F91EE4CFC9010F900F90DF91CF911F9114
:103A60000F91FF90EF9008950F931F93CF93DF93E3
:103A7000EB018A010CDF81110AC00115110539F033
:103A8000BE01C801DF91CF911F910F913CCFDF9113
:103A9000CF911F910F910895CF92DF92EF92FF92F5
:103AA000CF93DF93CDB7DEB728970FB6F894DEBF7C
:103AB0000FBECDBF6B01E12CF12CC982DA82EB8203
:103AC000FC822D833E834F835887AE014F5F5F4F4B
:103AD00068E070E0C9DF28960FB6F894DEBF0FBE2D
:103AE000CDBFDF91CF91FF90EF90DF90CF90089501
:103AF0000F931F93CF93DF93EC018B010E94AC3E99
:103B00009093560980935509009741F0A801BE0192
:103B10000E94313EEC01009719F40CC0CBE8D8E0CC
:103B200080915509909156090E94AF3E1092560916
:103B300010925509CE01DF91CF911F910F910895F9
:103B400080915509909156090C94A93E6F927F92ED
:103B50008F929F92AF92BF92CF92DF92EF92FF929D
:103B60000F931F93CF93DF9300D000D0CDB7DEB774
:103B70006B017C014A0180915909882309F441C0F5
:103B80009401B701A601CE0101960E94A32C898160
:103B90009A8118161906ACF5A12CB12C00E010E0A2
:103BA00089819A81081719075CF76B807C806A0C01
:103BB0007B1CF3016081718182819381A4DE81117C
:103BC0001EC0F30164817581161617062CF48681D8
:103BD000978199DE811113C0C801880F991FED816B
:103BE000FE81E80FF91FB701A601808191810E9433
:103BF00046280F5F1F4FF8E0AF0EB11CD1CFC401B4
:103C0000A7DE26960FB6F894DEBF0FBECDBFDF91BC
:103C1000CF911F910F91FF90EF90DF90CF90BF90C9
:103C2000AF909F908F907F906F900895CF93DF9388
:103C3000EC01AC0160E070E0CB0188DFAE0161E037
:103C400070E080E090E0DF91CF9180CFCF938091C2
:103C50005509909156090E940D3EC82F811109C047
:103C600060E070E0CB0166D561E070E080E090E05C
:103C700061D58C2FCF9108950F931F9389019A01DD
:103C8000AB01BC0180915509909156090E94BD3F3E
:103C90001F910F9108954F925F926F927F928F9232
:103CA0009F92AF92BF92CF92DF92EF92FF920F93CB
:103CB0001F93CF93DF93CDB7DEB766970FB6F89417
:103CC000DEBF0FBECDBF4C015B018A018091590957
:103CD000882369F080915909882309F4BDC21A82AA
:103CE0001982E12CF12C78E0C72ED12C14C069E5A3
:103CF00079E080915509909156090E940F3E8111FB
:103D0000ABC2E8CFE20EF31EE114F104D9F088E073
:103D1000E816F104BCF429E030E02C0F3D1F2E0D15
:103D20003F1DAE014F5F5F4FB6016E197F09809155
:103D30005509909156090E94B03E29813A81882305
:103D400009F388C2121613060CF086C28091580936
:103D5000811104C019861A861B861C8689859A855E
:103D6000AB85BC858031910508F076C2FC01EE5828
:103D7000FF4F0C942743D4011696ED91FC911797B1
:103D800080819181A281B38189839A83AB83BC8333
:103D9000AE014F5F5F4F64E070E085E190E06CC181
:103DA0008D859E85F1DD009731F42FEF3FEFA9015E
:103DB00061E070E00EC0FC01C080D180E280F38041
:103DC000A501C701B6010E94C927A701960160E0BD
:103DD00070E08DE190E03CC28D859E85D5DD009739
:103DE00021F42FEF3FEFA9010FC0DC01CD90DD9052
:103DF000ED90FD90AD0197018601B501C401B0D5EC
:103E0000A7019601882319F061E070E002C060E02C
:103E100070E08BE190E01CC28D859E85B5DD00973A
:103E200021F42FEF3FEFA9010EC0FC01C190D1900A
:103E3000E190F190BF01A7019601C40186D7A701C7
:103E40009601882319F061E070E002C060E070E044
:103E50008CE190E0FDC1D4011496ED91FC91159791
:103E6000E080F180F70102811381A080B18060E1E0
:103E7000462E512C612C712C49825A826B827C8295
:103E800088E090E0A0E0B0E08D839E83AF83B887A8
:103E90009E012F5E3F4FAE014F5F5F4F68E070E0C5
:103EA00080915509909156090E946F3F882319F01F
:103EB000E12CF12CAEC089899A890897C9F7D701FE
:103EC000CD90DC90B8E0CB0ED11CCC0CDD1CCC0C22
:103ED000DD1CC6010E945A437C01009749F34982C8
:103EE0005A826B827C82C601AA2797FDA095BA2FC1
:103EF0008D839E83AF83B8879E012F5E3F4FAE01B7
:103F00004F5F5F4F68E070E08091550990915609CE
:103F10000E946F3F81117DC089899A89089709F0B5
:103F200078C0D4011296ED91FC9113974081518194
:103F300062817381D7014D935D936D937C93139749
:103F4000448155816681778114964D935D936D937D
:103F50007C931797408551856285738518964D939C
:103F60005D936D937C931B9784859585A685B78516
:103F7000F70184879587A687B787108A118A128AE6
:103F8000138A84E090E0A0E0B0E0848B958BA68B50
:103F9000B78B8091F2079091F307A0E0B0E0808F9B
:103FA000918FA28FB38FC501AA2797FDA095BA2F35
:103FB000848F958FA68FB78FB801A701405E5F4FA2
:103FC00020E030E02A153B057CF4DB018D919D91CA
:103FD000BD01A0E0B0E0FA0181939193A193B19368
:103FE000AF012F5F3F4FEECF9E012F5E3F4FA701E6
:103FF000B60180915509909156090E946F3F811139
:1040000008C089899A898C159D0519F481E08093EF
:104010005809C70166960FB6F894DEBF0FBECDBF34
:10402000DF91CF911F910F91FF90EF90DF90CF9094
:10403000BF90AF909F908F907F906F905F904F90C8
:104040000C94F2438D859E85AF85B8890097A105B4
:10405000B10529F199DC009789F481E090E0A0E0B6
:10406000B0E089839A83AB83BC83AE014F5F5F4F1F
:1040700064E070E082E190E0F7DCEEC0BC01C401D6
:10408000ACD219821A821B821C82AE014F5F5F4F35
:1040900064E070E082E190E0E7DC8111DDC081E066
:1040A00080935709D9C0D4011496ED91FC911597CE
:1040B0000190F081E02D008511850115110509F4AD
:1040C00060C0D801ED90FC90C280D38020E030E049
:1040D00060E070E080E090E08E159F050CF5F8013F
:1040E000A281B381A20FB31F1296ED91FC91139799
:1040F000EE0FFF1FEC0DFD1D0190F081E02D1696D7
:104100000D90BC91A02DEA9FA001EB9F500DFA9F4E
:10411000500D1124640F751F0196285F3F4FDCCFAF
:1041200083E190E0B4DB811197C0812C912CA12C0C
:10413000B12CAE14BF040CF08FC0D8011296ED91D3
:10414000FC911397E80DF91DA281B381AA0FBB1F43
:10415000AC0DBD1D2D913C9186819781289FB001AA
:10416000299F700D389F700D112480819181CBDBC8
:10417000B8E08B0E911C81116FC0EFEFAE1ABE0A32
:10418000D8CF60E070E083E190E081DB65C040E083
:1041900050E060E070E081E190E066DC81115CC09D
:1041A000C12CD12C7601C701B601C1D38091E2099F
:1041B000882321F0A501C701B601C8DCA501C7010C
:1041C000B601DCD2FFEFCF1ADF0AEF0AFF0A82E066
:1041D000C816D104E104F10431F710925909109284
:1041E000580980915509909156090E941A3E34C091
:1041F00081E090E09093E4098093E30940E050E08F
:1042000060E070E086E190E037CF81E0D8018C93E8
:1042100023C08D859E85B8DB009731F42FEF3FEFEB
:10422000A90161E070E012C0FC012081318142816E
:104230005381CA01B9012B8B3C8B4D8B5E8BFFD612
:104240002B893C894D895E8960E070E08EE190E0C9
:1042500023DC02C0C5017CDB66960FB6F894DEBF96
:104260000FBECDBFDF91CF911F910F91FF90EF90C7
:10427000DF90CF90BF90AF909F908F907F906F9086
:104280005F904F900895CF92DF92EF92FF92CF937D
:10429000DF93EC01C12CD12C7601C701B60147D3C5
:1042A000AE01C701B60152DCAE01C701B60166D24C
:1042B0008091510990915209009731F00E94F24388
:1042C00010925209109251098FEFC81AD80AE80AC1
:1042D000F80A82E0C816D104E104F104F1F68091F5
:1042E0005809882359F040E050E060E070E084E134
:1042F00090E0BADBC82F1092580901C0C0E080914D
:104300005909882341F01092590921E030E0309397
:10431000F3072093F20780915509909156090E9466
:104320001D3E80915509909156090E94AF3E8C2FF9
:10433000DF91CF91FF90EF90DF90CF900895CF93D2
:10434000DF93EC01AC0160E070E0CB010E941A2C1D
:10435000AE0161E070E080E090E0DF91CF910C94DD
:104360001A2C60E070E0CB010E947F2C61E070E0CD
:1043700080E090E00C947F2CCF92DF92EF92FF923E
:104380000F931F93CF93DF93EC016A017B0100E051
:1043900010E09801A4D601E010E020E030E0B70181
:1043A000A601CE019CD6DF91CF911F910F91FF9076
:1043B000EF90DF90CF900895EF92FF920F931F93AD
:1043C000CF93DF93DC01EA01F90114968D919C9162
:1043D000159712960D911C911397080F191F28819C
:1043E000398118964D915C9119974217530728F01F
:1043F0004D915C911197452B59F17801E21AF30A1E
:1044000018964D915C911997481B590B4E0D5F1DE5
:1044100046175707B4F1A901460F571F4017510718
:1044200000F1F182E082338322836E197F09758364
:104430006483161617061CF030E020E002C0382F07
:10444000292F36832783680F791F7983688317C0E4
:1044500018968D919C911997821B930B861797073D
:1044600084F07183608333832283158214821782E0
:10447000168288819981860F971F9983888380E0AF
:1044800001C081E0DF91CF911F910F91FF90EF90DC
:104490000895CF93DF9324E4269FE001279FD00D5A
:1044A0001124C65AD64F8AA99BA9009721F00E94D1
:1044B000F2431BAA1AAA8EA99FA9009711F00E9485
:1044C000F2431B8A1A8A1E8A1F8A188E198E1A8E28
:1044D0001B8E1C8E1D8E1E8E1F8E18A219A281E0AF
:1044E00090E09BA38AA31DA21CA21EA21FA218A635
:1044F00019A61BA61AA61DA61CA61EA61FA618AAAC
:1045000019AA1BAA1AAA1DAA1CAA1FAA1EAA19AE7A
:1045100018AE1AAE1BAE1CAE1DAEFE01FE9610828A
:10452000118212821382CE5BDF4F19821882DF91D3
:10453000CF910895CF93DF93FB01DC01CD91DC9106
:10454000AE81BF818081918123E0880F991F2A95D8
:10455000E1F712960D90BC91A02DA80FB91F6D9197
:104560007C91119784859585880F991F0A80DB813E
:10457000C02DC80FD91F0990D881C02D14968D91D8
:104580009C911597892B19F082E090E002C081E0A0
:1045900090E08C9F90018D9F300D9C9F300D1124D9
:1045A00080859185289FD001299FB00D389FB00D3F
:1045B00011240480F581E02D2E9FC0012F9F900DC6
:1045C0003E9F900D1124860F971FFA0191838083DF
:1045D000B383A283DF91CF9108952F923F924F92A0
:1045E0005F926F927F928F929F92AF92BF92CF9283
:1045F000DF92EF92FF920F931F93CF93DF9300D040
:1046000000D0CDB7DEB7DC011496ED91FC91159783
:104610000190F081E02D808591859A838983A28124
:10462000B381BC83AB83DB018D909D90AD90BD9039
:10463000C12CD12C7601C814D904EA04FB040CF077
:1046400060C014964D905D906D907C901797189671
:104650004D915D916D917C911B97FD017096FE834C
:10466000ED838D919C91119763E0880F991F6A9556
:10467000E1F7E981FA8122813381280F391FF9019D
:10468000208031801C96ED91FC911D97EE0FFF1F4D
:104690008B819C81E80FF91F0190F081E02DD901F9
:1046A00014968D919C911597892B19F082E090E0DA
:1046B00002C081E090E08E9F90018F9F300D9E9F01
:1046C000300D1124249F8001259F100D349F100D63
:1046D0001124249DC001259D900D349D900D112421
:1046E000A8016D817E81820D931D0E948144AD8160
:1046F000BE81A00FB11FEFEFCE1ADE0AEE0AFE0A4E
:104700009ACF26960FB6F894DEBF0FBECDBFDF91CD
:10471000CF911F910F91FF90EF90DF90CF90BF90BE
:10472000AF909F908F907F906F905F904F903F9051
:104730002F900895CF93DF9324E4269FF001279FC5
:10474000F00D1124E65AF64FDB01A051B84F3C9111
:10475000332329F0EF0119922A95E9F71C9214826C
:104760001582168217821186108613861286118A88
:10477000108A17861686DF91CF918BCE2F923F92AB
:104780004F925F926F927F928F929F92AF92BF9261
:10479000CF92DF92EF92FF920F931F93CF93DF930D
:1047A00000D01F92CDB7DEB76B017C011A0184E403
:1047B0008C9D90018D9D300D1124265A364F3C83DF
:1047C0002B83F90184819581A681B781892B8A2B5E
:1047D0008B2B09F495C0A12CB12C412C512C32010A
:1047E000AB81BC8114964D915D916D917C91179731
:1047F00018968D919C911997441655066606770672
:104800008CF5FC01EA0DFB1D32812381032F122F51
:10481000812C912C82149304C4F4D801ED91FC9165
:10482000309769F0848195812A8339830E94F2430D
:10483000F801808191810E94F24339812A81FFEF42
:104840008F1A9F0A0E5F1F4FE5CF832F922F0E9472
:10485000F2432FEF421A520A620A720A34E0A30EA0
:10486000B11CBECF0E94F243EB81FC81828593850F
:10487000892BE1F0A12CB12C00E010E0AB81BC81D0
:104880001A968D919C911B97021513056CF4FC01EF
:10489000EA0DFB1D848195810E94F2430F5F1F4F3B
:1048A000FEE0AF0EB11CEACF0E94F243EB81FC8127
:1048B000808991890E94F243AB81BC811E968D91C3
:1048C0009C911F970E94F243C701B601E2DDC70128
:1048D000B6010F900F900F900F90DF91CF911F9125
:1048E0000F91FF90EF90DF90CF90BF90AF909F908F
:1048F0008F907F906F905F904F903F902F901ACF46
:104900000F900F900F900F90DF91CF911F910F910B
:10491000FF90EF90DF90CF90BF90AF909F908F90DF
:104920007F906F905F904F903F902F90089524E478
:10493000269FF001279FF00D1124E65AF64F828939
:1049400093890497029758F485E090E0938B828BCB
:104950008FEF9FEFDC01828F938FA48FB58F089527
:104960002F923F924F925F926F927F928F929F927F
:10497000AF92BF92CF92DF92EF92FF920F931F936D
:10498000CF93DF93CDB7DEB7AA970FB6F894DEBF0B
:104990000FBECDBF9AA389A31B016A010B8B1C8B91
:1049A0002D8B3E8B84E42B893C89829F8001839FE1
:1049B000100D1124065A164F2B893C894D895E89AA
:1049C000D8012D933D934D935C931397AB016B8965
:1049D0007C898D899E89D2DEF60141915191619148
:1049E00071917F01CA01D80114964D935D936D9327
:1049F0007C93179764E070E00E944043F801918730
:104A00008087892B09F46DC118A21F8E1B8E1C8E06
:104A10001D8E1E8EF80184819581A681B7812B8D14
:104A20003C8D4D8D5E8D281739074A075B070CF0CA
:104A3000D1C0D80118960D90BC91A02D2F8D38A112
:104A4000A20FB31FBA8BA98BD7018D919C91880FB0
:104A5000991FA9A1BAA1ED91FC91E80FF91F8081DE
:104A60009181E989FA8991838083D70114962D91E8
:104A70003D914D915C9117972BA33CA34DA35EA351
:104A8000B8E0EB0EF11C62E070E0C1010E9440430F
:104A9000E989FA8993838283892B09F422C11F8AC9
:104AA000188E198E1A8E2F89388D498D5A8D8BA1AB
:104AB0009CA1ADA1BEA1281739074A075B070CF0DE
:104AC00018C1D701CD90DC90CC0CDD1CE989FA89A6
:104AD000A280B380AC0CBD1C68E070E081E090E087
:104AE0000E944043D5018D939C93A989BA8912965F
:104AF000ED91FC911397EC0DFD1D80809180811448
:104B0000910409F4EEC0F7014481558166817781F3
:104B1000CA01D4014D935D936D937C931397B8E0D4
:104B2000EB0EF11C64E070E00E944043F4019583B9
:104B30008483892B09F4D5C0A12CB12C412C512C94
:104B40003201F40180819181A281B3814816590616
:104B50006A067B0694F5D4011496CD90DC901597E7
:104B6000CA0CDB1CF701DE01119680E101900D9269
:104B70008A95E1F7B0E1EB0EF11CA601BE016F5F73
:104B80007F4FE9A1FAA184819581D4DCD4011696E6
:104B90008D919C911797F60122813381820F931F8B
:104BA00017969C938E931697FFEF4F1A5F0A6F0A22
:104BB0007F0A24E0A20EB11CC4CF2F89388D498D05
:104BC0005A8D2F5F3F4F4F4F5F4F2F8B388F498F3D
:104BD0005A8F69CF6EE070E0C1010E944043D80156
:104BE0001B969C938E931A97612C712C812C912C7F
:104BF000A12CB12C44244394512C821493040CF026
:104C000050C0F70141915191619171917F01CA01A9
:104C1000D8011A96CD90DC901B97C60CD71C57FD77
:104C200060C0F60151824082009791F04FA358A7CF
:104C300069A77AA70E945A43D60115969C938E9332
:104C400014974FA158A569A57AA5892B21F449C0CD
:104C5000F60115821482D60113965C934E93129737
:104C600014968D919C91159717969C938E931697F9
:104C700019969C938E9318971B961C921E921A97C6
:104C800081E090E0452B462B472B11F480E090E02B
:104C9000A80EB91EBFEF8B1A9B0AEEE06E0E711CB8
:104CA000ACCFD8011D961C921E921C97C501F3E053
:104CB000880F991FFA95E1F70E945A43F801918BEA
:104CC000808B892B71F0C501880F991F0E945A4370
:104CD000D8011F969C938E931E97892B11F080E02C
:104CE0001BC0A1016B897C898D899E8947DD81E08C
:104CF00013C02B8D3C8D4D8D5E8D2F5F3F4F4F4FE1
:104D00005F4F2B8F3C8F4D8F5E8F2F8D38A12C5F87
:104D10003F4F38A32F8F7ECEAA960FB6F894DEBFF2
:104D20000FBECDBFDF91CF911F910F91FF90EF90FC
:104D3000DF90CF90BF90AF909F908F907F906F90BB
:104D40005F904F903F902F9008953F924F925F92C7
:104D50006F927F928F929F92AF92BF92CF92DF928B
:104D6000EF92FF920F931F93CF93DF93CDB7DEB7F0
:104D700064970FB6F894DEBF0FBECDBF4C01FB01A8
:104D8000298B3A8B4B8B5C8B84E4829F8001839FC1
:104D9000100D11240459164F80819181D80113966A
:104DA0009C938E93129744815581668177811496E6
:104DB0004D935D936D937C931797408551856285E4
:104DC000738518964D935D936D937C931B974485E3
:104DD0005585668577851C964D935D936D937C9381
:104DE0001F9740895189628973895C964D935D93C1
:104DF0006D937C935F977F01B4E1EB0EF11C141669
:104E000015060CF05DC0CA01880F991F880F991F05
:104E10000E945A43F80191A380A3892B09F499C0F9
:104E2000A12CB12C412C512C320130E1332EB30195
:104E3000A2012FEF421A520A620A720AF801848D07
:104E4000958DA68DB78D481759076A077B0764F5BE
:104E5000D8019096CD90DC909197CA0CDB1CF7019D
:104E6000DE011196832D01900D928A95E1F7B0E154
:104E7000EB0EF11CA601BE016F5F7F4FF401848130
:104E8000958158DBD80192968D919C919397F6016C
:104E900022813381820F931F93969C938E939297D6
:104EA000F4E0AF0EB11CC3CF82A193A10E945A437C
:104EB000D80195969C938E939497892B09F449C0B9
:104EC000F70180819181A281B381AC01BD014D7F49
:104ED00021E030E0452B462B472B11F020E030E05D
:104EE000F801318B208B0197A109B10921E030E055
:104EF0000297A105B10510F020E030E0D8015396EB
:104F00003C932E935297F70184819581A681B781B6
:104F1000F801848B958BA68BB78B84859585A685A8
:104F2000B785B7FF10C0B095A095909581959F4F1C
:104F3000AF4FBF4F80A791A7A2A7B3A7148615862E
:104F4000168617860DC0F80110A611A612A613A684
:104F500007C069897A898B899C899BDA81E001C0C5
:104F600080E064960FB6F894DEBF0FBECDBFDF9130
:104F7000CF911F910F91FF90EF90DF90CF90BF9056
:104F8000AF909F908F907F906F905F904F903F90E9
:104F90000895CF93DF9324E4269FF001279FF00D1F
:104FA0001124E65AF64F1092E20915A614A620E045
:104FB00030E080E090E0C1E0D0E08417950714F580
:104FC000A285B385A20FB31F12966D917C911397A2
:104FD000161617069CF414966D917C9115971796EA
:104FE0007C936E93169719967C936E9318971B96E5
:104FF0001C921E921A971196DC93CE930196225F13
:105000003F4FDBCF13A612A611AE10AEDF01DE9626
:105010001D921D921D921C92139782E090E0938B3B
:10502000828BDF91CF91089524E4269FF001279F82
:10503000F00D1124E65AF64F138A128A9FCB24E40E
:10504000269FF001279FF00D1124E65AF64F828922
:10505000938981309105C8F08530910518F0059746
:1050600069F008958FEF9FEFDC01828F938FA48FFB
:10507000B58F85E090E0938B828B08958FEF9FEF43
:10508000DC01828F938FA48FB58F089524E4249F31
:10509000F001259FF00D1124E65AF64F2EE0AC01E9
:1050A000249FC001259F900D11240284F385E02DDB
:1050B000E80FF91F81E08093E2098285938591874B
:1050C0008087408551852681378181E090E04217B5
:1050D000530711F080E090E09183808308952F9230
:1050E0003F924F925F926F927F928F929F92AF9278
:1050F000BF92CF92DF92EF92FF920F931F93CF93C5
:10510000DF93CDB7DEB7C454D1090FB6F894DEBF34
:105110000FBECDBF98AF8FAB4BA75CA76DA77EA787
:1051200023960CAF1DAF2EAF3FAF239784E421969B
:105130002EAD3FAD2197829F1001839F300C11242B
:10514000C101865A964F1C01DC011A960D90BC9144
:10515000A02D2596BFAFAEAF2597FC01828993891C
:10516000029709F018C186A597A5A0A9B1A9892B16
:105170008A2B8B2B29F484E090E0938B828B0BC1DC
:10518000D10184899589EFA9F8ADE817F90709F0ED
:1051900002C1D6960D911C91D7971AAE19AE412C2B
:1051A000512C3201F10186A597A5A0A9B1A94816F5
:1051B00059066A067B060CF0D0C0D101D2960D903C
:1051C000BC91A02DE9ADFAADAE0FBF1FBAABA9AB34
:1051D00012962D913C9113973CAF2BAF36952795A6
:1051E000369527953EAF2DAFD101D8968D919C91E4
:1051F000D997892B09F495C09696CD90DD90ED90C6
:10520000FC90999718AB0FA7E9A9FAA90190F08132
:10521000E02DFCABEBAB1EAA1DAAEDA9FEA92DAD9E
:105220003EADE217F3070CF07CC0D10192968D9150
:105230009C919397892B79F1EBA9FCA980809180AF
:10524000A280B380A7019601C501B4010E949E42CD
:1052500087FD0CC0A7019601AFA5B8A96D917D91FE
:105260008D919C910E94544187FD7CC0A7019601BD
:10527000C501B4010E949E4218166CF4A701960164
:10528000EFA5F8A960817181828193810E945441C8
:10529000882309F467C0D10194968D919C919597CC
:1052A000892B71F1EBA9FCA980809180A280B38049
:1052B000A7019601C501B4010E94544187FF0CC0AB
:1052C000A7019601AFA5B8A96D917D918D919C9193
:1052D0000E949E4287FF46C0A7019601C501B40106
:1052E0000E94544181110CC0A7019601EFA5F8A9B5
:1052F00060817181828193810E949E42181694F18F
:105300002DA93EA92F5F3F4F3EAB2DAB8FA598A98E
:10531000049698AB8FA7ABA9BCA91496BCABABAB5A
:105320007CCFA9A9BAA96D917C914BAD5CADC801A8
:105330000E9481448DAD9EAD880F991F880F991FE3
:10534000080F191FBFEF4B1A5B0A6B0A7B0AE9AD06
:10535000FAAD3496FAAFE9AF25CF81E090E091AF96
:1053600080AF19C0F101868D978DA0A1B1A1892BC5
:105370008A2B8B2B09F03AC284E090E0D10153963E
:105380009C938E935297DE968D919C91DF979B967E
:105390009C938E939A97D10152968D919C9153979D
:1053A0008230910589F4DA968D919D910D90BC9192
:1053B000A02D181619061A061B060CF021C2E1E0F2
:1053C000F0E0F8ABEFA705C0049709F019C218AADE
:1053D0001FA68EE02FA938AD829F5001839FB00C8D
:1053E000112425968EAD9FAD2597A80EB91ED50127
:1053F00012964D915C9113974115510509F400C225
:1054000016968D919C9117979AA789A7FE013196C0
:1054100084E1DF011D928A95E9F723968CAD9DAD5D
:10542000AEADBFAD2397898B9A8BAB8BBC8BAFA5F1
:10543000B8A9AB2B09F448C04101BEE38B0E911C07
:10544000F401C080D180E280F380F10182AD93ADA0
:10545000A4ADB5ADC816D906EA06FB06A9F5D50177
:1054600014966D917C91159718960D90BC91A02D76
:1054700014960D911D912D913C911797C8010D8B9C
:105480001E8B2F8B388F08969E8B8D8BF501208578
:105490003185280F391F3187208780859185460FF8
:1054A000571F841B950B97FD04C0680F791F7187E8
:1054B0006087F1E0CF1AD108E108F108D401CD925C
:1054C000DD92ED92FC9213979E012B5E3F4FAE0151
:1054D000475D5F4F64E170E0C5010E94DC21082F49
:1054E00010E00115110509F06DC18CE090E0A0E01D
:1054F000B0E08D839E83AF83B8879E01235E3F4FCC
:10550000AE01475D5F4F64E070E0C5010E94DC21A1
:10551000082F10E00115110509F054C180E190E059
:10552000A0E0B0E08D839E83AF83B8874D8D5E8D04
:10553000BE01655D7F4F8F8D98A10E9481448BA134
:105540009CA1009761F06D8D7E8DEBE2F0E0EC0F99
:10555000FD1F6E0F7F1F49A15AA10E9481441DA209
:105560001EA21FA218A62FA938AD220F331F3EABD3
:105570002DABCDA0DEA0EFA0F8A4F1018481958130
:10558000A681B781C816D906EA06FB060CF0CBC087
:10559000D1011896ED91FC911997C601880F991FBA
:1055A000880F991FE80FF91FA081B1818C91882382
:1055B00009F4AFC0833009F4ACC00280F381E02D60
:1055C0002DA93EA9E20FF31F808191819CAB8BAB8B
:1055D000892B09F49EC089859A85AB85BC85019687
:1055E000A11DB11D89879A87AB87BC879E01235E69
:1055F0003F4FAE01475D5F4F64E070E0C5010E9420
:10560000DC2190E0009709F0DCC08D819E81AF81A4
:10561000B8850496A11DB11D8D839E83AF83B88785
:105620004D8D5E8DBE016B5D7F4F8F8D98A10E9469
:1056300081448BA19CA1009761F06D8D7E8DA5E2C8
:10564000B0E0AC0FBD1F6A0F7B1F49A15AA10E9499
:1056500081441AAA19AA412C512C3201EBA9FCA9A8
:1056600080819181A281B381481659066A067B0622
:105670000CF04FC0EBA9FCA98480958029A93AA918
:10568000820E931ED40112966D917C9113979E0108
:10569000235E3F4FAE01475D5F4FC5010E94DC2195
:1056A00090E0009709F08DC0F40142815381662794
:1056B00057FD6095762F8D819E81AF81B885840FCF
:1056C000951FA61FB71F8D839E83AF83B887608108
:1056D00071814D8D5E8D8F8D98A10E9481448BA12B
:1056E0009CA1009759F0D4016D917C912D8D3E8D38
:1056F000620F731F49A15AA10E948144BFEF4B1A48
:105700005B0A6B0A7B0AE9A9FAA93496FAABE9AB02
:10571000A5CFFFEFCF1ADF0AEF0AFF0ACDA2DEA264
:10572000EFA2F8A626CF89859A85AB85BC85892B03
:105730008A2B8B2B09F446C08AE190E0A0E0B0E010
:1057400089839A83AB83BC832FA938ADC901AA276B
:1057500097FDA095BA2F8D879E87AF87B88B4D890F
:105760005E89BE016F5F7F4F8F89988D0E94814453
:105770008B8D9C8D009761F06D897E89A1E0B0E0F2
:10578000AC0FBD1F6A0F7B1F498D5A8D0E9481444B
:1057900089A59AA5F50197838683118210822FA58A
:1057A00038A9232B69F1F101FE9680819181A281B4
:1057B000B3810196A11DB11D80839183A283B38320
:1057C0001FC08C018FA598A9892BD1F4012BC1F0A2
:1057D00081E090E0D1019D969C938E939C9785E00B
:1057E00090E053969C938E9352970AC083E090E08A
:1057F000F101938B828B81E090E093A782A7CBCDC0
:10580000CC5BDF4F0FB6F894DEBF0FBECDBFDF918C
:10581000CF911F910F91FF90EF90DF90CF90BF90AD
:10582000AF909F908F907F906F905F904F903F9040
:105830002F900895CF92DF92EF92FF920F931F93D4
:10584000CF93DF9324E4269FE001279FD00D1124FE
:10585000C65AD64F2A893B892115310509F446C01D
:1058600021303105A9F4CAA4DBA496012F5F3F4F74
:105870003BA72AA7EE24D7FCE094FE2C0A8D1B8DB3
:105880002C8D3D8DC016D106E206F30679F581DB3D
:105890008A899B89039751F54AA55BA5CA010196A0
:1058A0009BA78AA7662757FD6095762F8E8D9F8DC3
:1058B000A8A1B9A1481759076A077B07BCF08EADAC
:1058C0009FAD9BA78AA784E090E09B8B8A8B8AADD3
:1058D0009BADACADBDAD181619061A061B0634F407
:1058E000CE5BDF4F81E090E099838883DF91CF9199
:1058F0001F910F91FF90EF90DF90CF90089524E4D7
:10590000269FF001279FF00D1124E65AF64F828959
:1059100093890497B9F442A553A54F5F5F4F53A7EE
:1059200042A7662757FD6095762F86899789A08DB7
:10593000B18D481759076A077B0721F485E090E08D
:10594000938B828B08952F923F924F925F926F922A
:105950007F928F929F92AF92BF92CF92DF92EF92FF
:10596000FF920F931F93CF93DF9300D01F92CDB779
:10597000DEB749835A836B837C83490124E4249FE7
:105980008001259F100D1124065A164FD8015296FA
:105990006D907C905397930124503109223031054A
:1059A00008F0BCC01D961C921E921C97FC0111822F
:1059B000108213821282A12CB12C20E030E0281535
:1059C00039050CF067C0D8011A962D903C901B97B2
:1059D0002A0C3B1CF10140815181452B09F054C038
:1059E0006085718542805380468157811C96ED9079
:1059F000FC901D976701F3E0CC0CDD1CFA95E1F7F4
:105A00005096ED91FC915197EC0DFD1D6701CC0C6A
:105A1000DD1C1E96ED90FC901F97EC0CFD1CD70131
:105A20002D933C93D8011C96ED90FC901D97BFEFF1
:105A3000EB1AFB0AD8011D96FC92EE921C97738319
:105A40006283D1011B965C934E931A976417750776
:105A500048F4461B570B51834083158214821782EA
:105A6000168212C0D1011496CD90DC901597760164
:105A7000E40CF51CE61AF70AF182E0824C195D0984
:105A800055834483D782C6822F5F3F4FBEE0AB0E63
:105A9000B11C95CFF80124853585DC0111963C9326
:105AA0002E934089518913965C934E9312974685A5
:105AB000578515965C934E931497232BD1F5B5E03B
:105AC0006B167104B1F51092E209828D938DA48D4D
:105AD000B58DAE014F5F5F4F64E070E08F3F9F4F29
