:100000003BC100000C94652F0C94962F0C94C72FC5
:100010000C94F82F0C9429300C945A300C948B309B
:100020000C94BC305AC1000058C1000056C10000F9
:1000300054C100000C94853850C100004EC100002E
:100040004CC100004AC1000048C1000046C1000088
:1000500044C1000042C1000040C100000C94ED30DA
:100060003CC100000C94C4340C94FA3436C1000036
:1000700034C1000032C1000030C100002EC10000B8
:100080002CC100002AC1000028C1000026C10000C8
:100090000C9466350C949C3520C100001EC10000F4
:1000A0001CC100001AC1000018C1000016C10000E8
:1000B00014C1000012C1000010C100000EC10000F8
:1000C0000CC100000AC100000C94E5380C940836FD
:1000D0000C943E3602C100000C94AA360C94E03613
:1000E000FCC00000F51F9121F421F621EC201D2118
:1000F000B61FD61F9A1FD321C221CF21F621F62188
:10010000F621851F05320A320F32193223329C3212
:100110002D3235323D32473251325B326A327432DF
:100120009C327E3288329232BE32C132B032B43228
:10013000BA32F832C532C932CF32D332D732DD3299
:10014000E132E532F832EB32EF32F33200000A0BE3
:1001500002090C0D0E080703040100000000000056
:10016000000000000000000000000000000000008F
:10017000000000000000000012111000000000004C
:10018000000000000000000000000000000000006F
:10019000000001021020200808102040102040809C
:1001A000020102010804020101020408102040803B
:1001B00080402010080402018004020180402010C9
:1001C0000804020108040201010204081020408012
:1001D00001020408102040800505050507050808F0
:1001E0000808020202020A0A0808040404040101C1
:1001F00001010101010103030303030303030407D6
:1002000007070C0C0C0C0C0C0C0C0202020206066C
:100210000606060606060B0B0B0B0B0B0B0B000062
:1002200020002300260029002C002F0032000001AE
:10023000000003010601090100002200250028003A
:100240002B002E00310034000201000005010801DE
:100250000B0100002100240027002A002D0030009F
:10026000330001010000040107010A0102002335E7
:10027000C53567360937833711241FBECFEFD1E26A
:10028000DEBFCDBF00E00CBF19E0A0E0B2E0EEE5BC
:10029000FAE800E00BBF02C007900D92A436B10748
:1002A000D9F72FE0A4E6B9E001C01D92A832B20749
:1002B000E1F712E0C8E7D2E000E006C022970109AA
:1002C000FE010BBF0E94CF43CE36D10780E0080766
:1002D000A9F70E9406410C942D4592CECF93DF934F
:1002E000EC0161E088810E94F93261E08C81DF914C
:1002F000CF910C94F9324F925F926F927F92AF92AE
:10030000BF92CF92DF92EF92FF920F931F93CF9302
:10031000DF93CDB7DEB728970FB6F894DEBF0FBED8
:10032000CDBF6D837E838F83988729833A834B83E8
:100330005C8327013801F50124853585468557857D
:100340000E94404318162CF0F501408451846284C9
:10035000738420E030E040E853E4C301B2010E941E
:10036000F64187FF0EC020E030E0A901C301B201D1
:100370000E94404387FD07C0C301B2010E94624250
:1003800003C06FEF01C060E0F50180810E9432334D
:10039000F50124893589468957896D817E818F8150
:1003A00098850E9440431816FCF420E030E040E8B5
:1003B00053E469817A818B819C810E94F64187FF99
:1003C00022C020E030E0A90169817A818B819C8183
:1003D0000E94404387FD05C069817A818B819C81A1
:1003E00021C0F601108222C0F50140885188628840
:1003F000738820E030E040E853E4C301B2010E947A
:10040000F64187FD04C08FEFF60180830FC020E026
:1004100030E0A901C301B2010E94404387FDE1CF52
:10042000C301B2010E946242F6016083F60160815D
:1004300070E0F501848128960FB6F894DEBF0FBEF8
:10044000CDBFDF91CF911F910F91FF90EF90DF9083
:10045000CF90BF90AF907F906F905F904F900C9433
:10046000E1319F92AF92BF92CF92DF92EF92FF92D3
:100470000F931F93CF93DF93982ECB01BA015901AD
:10048000E801992049F1F6012081213029F1F70195
:1004900024853585468557850E944043181634F4D7
:1004A000F701608171818281938104C068817981C3
:1004B0008A819B81F70120893189428953890E9471
:1004C0009241F5016083718382839383688379838A
:1004D0008A839B8384E08C83F6019082DF91CF91A5
:1004E0001F910F91FF90EF90DF90CF90BF90AF9052
:1004F0009F9008952F923F924F925F926F927F92BA
:100500008F929F92AF92BF92CF92DF92EF92FF9223
:100510000F931F93CF93DF93CDB7DEB7C85CD1099C
:100520000FB6F894DEBF0FBECDBF80911F0F992785
:1005300087FD90950197029710F080E001C083E05D
:1005400080931F0F2091FA0E3091FB0E3A8F298F66
:10055000E090F80EF090F90E0091060F1091070F41
:10056000E0916E0EF0916F0E40805180628073803A
:10057000D70194968D909D90AD90BC909797A501D2
:100580009401C301B2010E94404318169CF51092D9
:10059000160D1092170D1092180D1092190D109241
:1005A0001A0D10921B0D10921C0D10921D0D4090F3
:1005B000780E5090790E60907A0E70907B0E80903D
:1005C0007C0E90907D0EA0907E0EB0907F0E2091BC
:1005D000800E3091810E4091820E5091830E298FB2
:1005E0003A8F4B8F5C8F02EC14E09EE1292E9DE048
:1005F000392E0CC1D7012D913D914D915C91C301D4
:10060000B2010E94F64118160CF042C0A5019401F7
:10061000C301B2010E94404387FF3DC06801CC0C7A
:10062000DD1CCC0CDD1CCE0CDF1CF60120813181E1
:1006300042815381C301B2010E94F641A12CB12C29
:1006400087FF13C0F4E0AF1AB108F601EA0DFB1DF5
:100650002481358146815781C301B2010E94F64150
:1006600087FF1BC001501109EDCF24E0A20EB11C81
:10067000F601EA0DFB1D2081318142815381C301C6
:10068000B2010E94404387FD08C00F5F1F4FEDCFAE
:1006900000E010E002C008E010E01093070F0093A4
:1006A000060F1801220C331C220C331CF701E20D3B
:1006B000F31D80809180A280B380A1014C5F5F4FC9
:1006C0005EA74DA7FA01EE0DFF1DC080D180E2802C
:1006D000F380A7019601C501B4010E94F641811182
:1006E0002AC0A5019401C301B2010E94F641E98D1F
:1006F000FA8D87FD05C08DA59EA5E80FF91F02C0E4
:10070000E20DF31D80819181A281B3818093160D4A
:100710009093170DA093180DB093190D80A591A576
:10072000A2A5B3A580931A0D90931B0DA0931C0D49
:10073000B0931D0D3CCFA3019201C701B6010E94E9
:1007400091412B013C01A5019401C701B6010E9412
:1007500091419B01AC01C301B2010E94FA416B01BE
:100760007C019B01AC0160E070E080E89FE30E94A7
:1007700091416DAB7EAB8FAB98AF098D1A8D020D99
:10078000131DA6E1BDE0BA8FA98FF80160807180CA
:1007900042805380E219F3092DA53EA5E20FF31F15
:1007A00080809180A280B380A5019401B301C20131
:1007B0000E94F6418823B9F09301A201C701B60156
:1007C0000E9444432B013C01A50194016DA97EA91F
:1007D0008FA998AD0E9444439B01AC01C301B201B3
:1007E0000E94924104C0C301D201BC01CD01A98D78
:1007F000BA8D6D937D938D939D93BA8FA98F085D6C
:100800001F4FAE51BD4009F0C0CFD1CED8016D9180
:100810007D918D919D918D01A30192010E94444390
:1008200020E030E0A9010E9492416B017C01F801B7
:100830002085318542855385C501B4010E9444431A
:100840009B01AC01C701B6010E9492416B017C0182
:10085000D80154962D913D914D915C915797698D9A
:100860007A8D8B8D9C8D0E9444439B01AC01C70106
:10087000B6010E949241F10161937193819391932A
:100880001F01F4E00E3C1F0709F62091BA043091D5
:10089000BB044091BC045091BD046091160D709151
:1008A000170D8091180D9091190D0E9444432091CD
:1008B000BE043091BF044091C0045091C1040E9415
:1008C000FA412091220D3091230D4091240D509139
:1008D000250D0E9491414B015C0120911A05309138
:1008E0001B0540911C0550911D050E9444436093D7
:1008F0002A0D70932B0D80932C0D90932D0D20912C
:100900001E0530911F0540912005509121050E9440
:1009100044432091840E3091850E4091860E509173
:10092000870E0E9492416B017C0160932E0D7093A3
:100930002F0D8093300D9093310D2091160530913D
:1009400017054091180550911905C501B4010E9481
:100950004443A70196010E9492413B014C01E09063
:100960007204F0907304009174041091750497015F
:10097000A8010E944043181684F0E0906204F090B1
:10098000630400916404109165049701A801B30108
:10099000C4010E94F64187FF02C037014801E09080
:1009A0002605F090270500912805109129056091F2
:1009B000B6047091B7048091B8049091B904E6E34D
:1009C000AE2EE8E0BE2EF9ECCF2EFDE0DF2E930137
:1009D000A40191DC4090880E5090890E60908A0EA0
:1009E00070908B0E80908C0E90908D0EA0908E0E3D
:1009F000B0908F0E2091900E3091910E4091920EFA
:100A00005091930E298F3A8F4B8F5C8F02E315E044
:100A1000A2E32A2EADE03A2ED8016D917D918D9101
:100A20009D918D01A30192010E94444320E030E09A
:100A3000A9010E9492416B017C01F801208531855A
:100A400042855385C501B4010E9444439B01AC011A
:100A5000C701B6010E9492416B017C01D8015496F6
:100A60002D913D914D915C915797698D7A8D8B8D2C
:100A70009C8D0E9444439B01AC01C701B6010E94BA
:100A80009241F10161937193819391931F01F5E07C
:100A90000E331F0709F620912A0530912B0540914E
:100AA0002C0550912D056091160D7091170D8091B8
:100AB000180D9091190D0E94444320912E053091FC
:100AC0002F0540913005509131050E94FA41209147
:100AD000360D3091370D4091380D5091390D0E94EF
:100AE00091416B017C0160933E0D70933F0D8093AB
:100AF000400D9093410D20918A0530918B054091D6
:100B00008C0550918D050E9444436093420D709373
:100B1000430D8093440D9093450D20918E053091A7
:100B20008F0540919005509191050E94444320917A
:100B3000940E3091950E4091960E5091970E0E9412
:100B400092414B015C016093460D7093470D809379
:100B5000480D9093490D209186053091870540916D
:100B6000880550918905C701B6010E944443A5013B
:100B700094010E9492416B017C01809076049090D8
:100B80007704A0907804B0907904A50194010E94A4
:100B90004043181684F08090660490906704A090FB
:100BA0006804B0906904A5019401C701B6010E94D0
:100BB000F64187FF09C080924A0D90924B0DA0929A
:100BC0004C0DB0924D0D08C0C0924A0DD0924B0D05
:100BD000E0924C0DF0924D0D20919A0430919B04BF
:100BE00040919C0450919D046091B6047091B704AB
:100BF0008091B8049091B9040E94404318164CF4B7
:100C0000C0902605D0902705E0902805F090290592
:100C100008C0C0909604D0909704E0909804F0909B
:100C2000990420E030E040E853E4C701B6010E9497
:100C3000F64187FF0EC020E030E0A901C701B601F0
:100C40000E94404387FD07C0C701B6010E9462426F
:100C500003C06FEF01C060E0809182040E943233D4
:100C60002091A2043091A3044091A4045091A504C2
:100C70006091B6047091B7048091B8049091B90462
:100C80000E94404318164CF4C0904A0DD0904B0D72
:100C9000E0904C0DF0904D0D08C0C0909E04D09097
:100CA0009F04E090A004F090A10420E030E040E830
:100CB00053E4C701B6010E94F64187FD04C08FEFDF
:100CC0008093B70D12C020E030E0A901C701B60142
:100CD0000E94404387FF03C01092B70D06C0C701B2
:100CE000B6010E9462426093B70D6091B70D70E04B
:100CF000809186040E94E1314090980E5090990EA8
:100D000060909A0E70909B0E80909C0E90909D0E1D
:100D1000A0909E0EB0909F0E2091A00E3091A10E3B
:100D20004091A20E5091A30E298F3A8F4B8F5C8F6A
:100D30000EE915E05EE4252E5DE0352ED8016D91BB
:100D40007D918D919D918D01A30192010E9444435B
:100D500020E030E0A9010E9492416B017C01F80182
:100D60002085318542855385C501B4010E944443E5
:100D70009B01AC01C701B6010E9492416B017C014D
:100D8000D80154962D913D914D915C915797698D65
:100D90007A8D8B8D9C8D0E9444439B01AC01C701D1
:100DA000B6010E949241F1016193719381939193F5
:100DB0001F01F5E00A3A1F0709F6209196053091C8
:100DC000970540919805509199056091160D709185
:100DD000170D8091180D9091190D0E944443209198
:100DE0009A0530919B0540919C0550919D050E946C
:100DF000FA412091520D3091530D4091540D509174
:100E0000550D0E9491414B015C012091F6053091F6
:100E1000F7054091F8055091F9050E94444360930D
:100E20005A0D70935B0D80935C0D90935D0D209136
:100E3000FA053091FB054091FC055091FD050E949B
:100E400044432091A40E3091A50E4091A60E5091DE
:100E5000A70E0E9492416B017C0160935E0D70931E
:100E60005F0D8093600D9093610D2091F20530919C
:100E7000F3054091F4055091F505C501B4010E94B8
:100E80004443A70196010E9492413B014C01E0902E
:100E90007A04F0907B0400917C0410917D0497010A
:100EA000A8010E944043181684F0E0906A04F09074
:100EB0006B0400916C0410916D049701A801B301BB
:100EC000C4010E94F64187FF02C037014801E0904B
:100ED0002605F090270500912805109129056091BD
:100EE000B6047091B7048091B8049091B9042EE1D2
:100EF000A22E28E0B22E38ECC32E3DE0D32E930173
:100F0000A401F9D94090A80E5090A90E6090AA0EA5
:100F10007090AB0E8090AC0E9090AD0EA090AE0E87
:100F2000B090AF0E2091B00E3091B10E4091B20E44
:100F30005091B30E298F3A8F4B8F5C8F0AE016E0E9
:100F400042E6242E4DE0342ED8016D917D918D9195
:100F50009D918D01A30192010E94444320E030E065
:100F6000A9010E9492416B017C01F8012085318525
:100F700042855385C501B4010E9444439B01AC01E5
:100F8000C701B6010E9492416B017C01D8015496C1
:100F90002D913D914D915C915797698D7A8D8B8DF7
:100FA0009C8D0E9444439B01AC01C701B6010E9485
:100FB0009241F10161937193819391931F01F6E046
:100FC00006311F0709F62091020630910306409171
:100FD0000406509105066091160D7091170D8091D1
:100FE000180D9091190D0E944443209106063091EE
:100FF000070640910806509109060E94FA41209187
:10100000660D3091670D4091680D5091690D0E94F9
:1010100091414B015C012091620630916306409141
:101020006406509165060E94444360936E0D709370
:101030006F0D8093700D9093710D20916606309125
:10104000670640916806509169060E9444432091CA
:10105000B40E3091B50E4091B60E5091B70E0E946D
:1010600092416093720D7093730D8093740D909301
:10107000750D2091AA043091AB044091AC045091BD
:10108000AD046091B6047091B7048091B80490915A
:10109000B9040E94404318164CF4C0902605D09025
:1010A0002705E0902805F090290508C0C090A60407
:1010B000D090A704E090A804F090A90420E030E0CC
:1010C00040E853E4C701B6010E94F64187FF0EC015
:1010D00020E030E0A901C701B6010E94404387FD2E
:1010E00007C0C701B6010E94624203C06FEF01C092
:1010F00060E080918A040E9432332091B2043091E2
:10110000B3044091B4045091B5046091B604709159
:10111000B7048091B8049091B9040E944043181616
:101120000CF051C020915E0630915F064091600640
:1011300050916106C501B4010E9444432091720D93
:101140003091730D4091740D5091750D0E94924134
:101150005B016C01E0907E04F0907F0400918004BC
:10116000109181049701A8010E944043181694F041
:10117000E0906E04F0906F0400917004109171047F
:101180009701A801B501C6010E94F64187FD02C082
:101190007501860120E030E040E853E4B701C80162
:1011A0000E94F64187FF21C020E030E0A901B7018D
:1011B000C8010E94404387FD03C0B701C80124C095
:1011C0001092B60D25C0C090AE04D090AF04E09050
:1011D000B004F090B10420E030E040E853E4C701EF
:1011E000B6010E94F64187FD04C08FEF8093B60DD3
:1011F0000FC020E030E0A901C701B6010E944043C2
:1012000087FDDECFC701B6010E9462426093B60D32
:101210006091B60D70E080918E040E94E131809162
:10122000B2070E94673321E0CB55DF4F2883C55AB0
:10123000D0409091C207981728F0CB55DF4F188205
:10124000C55AD040BB24B3948091080FCB55DF4FD3
:101250003881C55AD040831708F0B12C8091B60769
:101260000E94673341E0CA55DF4F4883C65AD040D9
:101270009091C307981728F0CA55DF4F1882C65AB5
:10128000D040882483948091090FCA55DF4F58813C
:10129000C65AD040851708F0812C8091BA070E9469
:1012A000673391E0C955DF4F9883C75AD04090917A
:1012B000C407981728F0C955DF4F1882C75AD04085
:1012C000AA24A39480910A0FC955DF4FA881C75A59
:1012D000D0408A1708F0A12C8091BE070E94673386
:1012E000B1E0C855DF4FB883C85AD0409091C507C8
:1012F000981728F0C855DF4F1882C85AD040992453
:10130000939480910B0FC855DF4FE881C85AD040A5
:101310008E1708F0912C40916E0650916F066091E7
:1013200070067091710683E2C82E8FE0D82E98E087
:10133000E92E98E0F92E0BE11FE024EC3DE0882D2A
:1013400090D840916E0650916F0660917006709132
:10135000710622E2C22E2FE0D22E32EFE32E37E0CA
:10136000F32E06E11FE020EC3DE08A2D7AD8409173
:101370006E0650916F066091700670917106E1E201
:10138000CE2EEFE0DE2EFCEDEF2EF7E0FF2E01E19A
:101390001FE02CEB3DE0892D64D840916E06509102
:1013A0006F066091700670917106A0E2CA2EAFE0E0
:1013B000DA2EB6ECEB2EB7E0FB2E0CE01FE028EBAC
:1013C0003DE08B2D4ED82091B80E3091B90E409152
:1013D000BA0E5091BB0E298F3A8F4B8F5C8F809144
:1013E000BC0E9091BD0EA091BE0EB091BF0E8DA708
:1013F0009EA7AFA7B8AB2091C00E3091C10E40910F
:10140000C20E5091C30E2DAB3EAB4FAB58AF809187
:10141000C40E9091C50EA091C60EB091C70EC358D0
:10142000DF4F88839983AA83BB83CD57D040209117
:101430008206309183064091840650918506698D1D
:101440007A8D8B8D9C8D0E9444436B017C01209191
:1014500092063091930640919406509195066DA5A1
:101460007EA58FA598A90E9444439B01AC01C701AA
:10147000B6010E9492416B017C012091A20630913D
:10148000A3064091A4065091A5066DA97EA98FA937
:1014900098AD0E9444439B01AC01C701B6010E9474
:1014A00092416B017C012091B2063091B3064091CC
:1014B000B4065091B506C358DF4F688179818A819F
:1014C0009B81CD57D0400E9444439B01AC01C70192
:1014D000B6010E9492416D8F7E8F8F8F98A360938B
:1014E000760D7093770D8093780D9093790D209100
:1014F0008606309187064091880650918906698D4D
:101500007A8D8B8D9C8D0E9444436B017C012091D0
:1015100096063091970640919806509199066DA5D0
:101520007EA58FA598A90E9444439B01AC01C701E9
:10153000B6010E9492416B017C012091A606309178
:10154000A7064091A8065091A9066DA97EA98FA96A
:1015500098AD0E9444439B01AC01C701B6010E94B3
:1015600092416B017C012091B6063091B706409103
:10157000B8065091B906C358DF4F688179818A81D6
:101580009B81CD57D0400E9444439B01AC01C701D1
:10159000B6010E94924169A37AA38BA39CA3609396
:1015A0007A0D70937B0D80937C0D90937D0D20912F
:1015B0008A0630918B0640918C0650918D06698D7C
:1015C0007A8D8B8D9C8D0E9444436B017C01209110
:1015D0009A0630919B0640919C0650919D066DA500
:1015E0007EA58FA598A90E9444439B01AC01C70129
:1015F000B6010E9492416B017C012091AA063091B4
:10160000AB064091AC065091AD066DA97EA98FA99D
:1016100098AD0E9444439B01AC01C701B6010E94F2
:1016200092416B017C012091BA063091BB0640913A
:10163000BC065091BD06C358DF4F688179818A810D
:101640009B81CD57D0400E9444439B01AC01C70110
:10165000B6010E9492416DA37EA38FA398A76093C9
:101660007E0D70937F0D8093800D9093810D20915E
:101670008E0630918F064091900650919106698DAB
:101680007A8D8B8D9C8D0E9444436B017C0120914F
:101690009E0630919F064091A0065091A1066DA52F
:1016A0007EA58FA598A90E9444439B01AC01C70168
:1016B000B6010E9492416B017C012091AE063091EF
:1016C000AF064091B0065091B1066DA97EA98FA9D1
:1016D00098AD0E9444439B01AC01C701B6010E9432
:1016E00092416B017C012091BE063091BF06409172
:1016F000C0065091C106C358DF4F688179818A8145
:101700009B81CD57D0400E9444439B01AC01C7014F
:10171000B6010E94924169A77AA78BA79CA7609304
:10172000820D7093830D8093840D9093850D20918D
:10173000C80E3091C90E4091CA0E5091CB0E6D96D5
:101740002CAF3DAF4EAF5FAF6D978091CC0E9091B7
:10175000CD0EA091CE0EB091CF0EA1968CAF9DAFC5
:10176000AEAFBFAFA1972091D00E3091D10E409176
:10177000D20E5091D30EA5962CAF3DAF4EAF5FAFBA
:10178000A5978091D40E9091D50EA091D60EB091D0
:10179000D70ECF57DF4F88839983AA83BB83C15865
:1017A000D0402091D2063091D3064091D40650917A
:1017B000D5066D966CAD7DAD8EAD9FAD6D970E94DB
:1017C00044436B017C012091E2063091E306409195
:1017D000E4065091E506A1966CAD7DAD8EAD9FAD52
:1017E000A1970E9444439B01AC01C701B6010E942E
:1017F00092416B017C012091F2063091F3064091F9
:10180000F4065091F506A5966CAD7DAD8EAD9FADFD
:10181000A5970E9444439B01AC01C701B6010E94F9
:1018200092416B017C0120910207309103074091A6
:10183000040750910507CF57DF4F688179818A816E
:101840009B81C158D0400E9444439B01AC01C70119
:10185000B6010E94924169AF7AAF8BAF9CAF6093A3
:10186000860D7093870D8093880D9093890D20913C
:10187000D6063091D7064091D8065091D9066D967C
:101880006CAD7DAD8EAD9FAD6D970E9444436B01F5
:101890007C012091E6063091E7064091E8065091E0
:1018A000E906A1966CAD7DAD8EAD9FADA1970E946E
:1018B00044439B01AC01C701B6010E9492416B01F8
:1018C0007C012091F6063091F7064091F806509180
:1018D000F906A5966CAD7DAD8EAD9FADA5970E9426
:1018E00044439B01AC01C701B6010E9492416B01C8
:1018F0007C0120910607309107074091080750911D
:101900000907CF57DF4F688179818A819B81C15850
:10191000D0400E9444439B01AC01C701B6010E9424
:10192000924121966CAF7DAF8EAF9FAF21976093B0
:101930008A0D70938B0D80938C0D90938D0D20915B
:10194000DA063091DB064091DC065091DD066D969B
:101950006CAD7DAD8EAD9FAD6D970E9444436B0124
:101960007C012091EA063091EB064091EC06509103
:10197000ED06A1966CAD7DAD8EAD9FADA1970E9499
:1019800044439B01AC01C701B6010E9492416B0127
:101990007C012091FA063091FB064091FC065091A3
:1019A000FD06A5966CAD7DAD8EAD9FADA5970E9451
:1019B00044439B01AC01C701B6010E9492416B01F7
:1019C0007C0120910A0730910B0740910C07509140
:1019D0000D07CF57DF4F688179818A819B81C1587C
:1019E000D0400E9444439B01AC01C701B6010E9454
:1019F000924125966CAF7DAF8EAF9FAF25976093D8
:101A00008E0D70938F0D8093900D9093910D20917A
:101A1000DE063091DF064091E0065091E1066D96BA
:101A20006CAD7DAD8EAD9FAD6D970E9444436B0153
:101A30007C012091EE063091EF064091F006509126
:101A4000F106A1966CAD7DAD8EAD9FADA1970E94C4
:101A500044439B01AC01C701B6010E9492416B0156
:101A60007C012091FE063091FF06409100075091C5
:101A70000107A5966CAD7DAD8EAD9FADA5970E947B
:101A800044439B01AC01C701B6010E9492416B0126
:101A90007C0120910E0730910F0740911007509163
:101AA0001107CF57DF4F688179818A819B81C158A7
:101AB000D0400E9444439B01AC01C701B6010E9483
:101AC000924129966CAF7DAF8EAF9FAF29976093FF
:101AD000920D7093930D8093940D9093950D20919A
:101AE000D80E3091D90E4091DA0E5091DB0EA996A6
:101AF0002CAF3DAF4EAF5FAFA9978091DC0E9091B8
:101B0000DD0EA091DE0EB091DF0EAD968CAF9DAFD5
:101B1000AEAFBFAFAD972091E00E3091E10E409196
:101B2000E20E5091E30EE1962CAF3DAF4EAF5FAFAA
:101B3000E1978091E40E9091E50EA091E60EB091B0
:101B4000E70ECB57DF4F88839983AA83BB83C558A1
:101B5000D0402091220730912307409124075091D3
:101B60002507A9966CAD7DAD8EAD9FADA9970E945E
:101B700044436B017C01209132073091330740913F
:101B8000340750913507AD966CAD7DAD8EAD9FADF0
:101B9000AD970E9444439B01AC01C701B6010E946E
:101BA00092416B017C0120914207309143074091A3
:101BB000440750914507E1966CAD7DAD8EAD9FAD6C
:101BC000E1970E9444439B01AC01C701B6010E940A
:101BD00092416B017C012091520730915307409153
:101BE000540750915507CB57DF4F688179818A811F
:101BF0009B81C558D0400E9444439B01AC01C70162
:101C0000B6010E949241C357DF4F688379838A836C
:101C10009B83CD58D0406093960D7093970D809321
:101C2000980D9093990D20912607309127074091A8
:101C3000280750912907A9966CAD7DAD8EAD9FAD5B
:101C4000A9970E9444436B017C0120913607309193
:101C500037074091380750913907AD966CAD7DAD8F
:101C60008EAD9FADAD970E9444439B01AC01C7016F
:101C7000B6010E9492416B017C0120914607309190
:101C800047074091480750914907E1966CAD7DADFB
:101C90008EAD9FADE1970E9444439B01AC01C7010B
:101CA000B6010E9492416B017C0120915607309150
:101CB00057074091580750915907CB57DF4F68811C
:101CC00079818A819B81C558D0400E9444439B0101
:101CD000AC01C701B6010E949241CF56DF4F688325
:101CE00079838A839B83C159D04060939A0D709306
:101CF0009B0D80939C0D90939D0D20912A07309110
:101D00002B0740912C0750912D07A9966CAD7DAD06
:101D10008EAD9FADA9970E9444436B017C01209139
:101D20003A0730913B0740913C0750913D07AD96F3
:101D30006CAD7DAD8EAD9FADAD970E9444439B01D0
:101D4000AC01C701B6010E9492416B017C01209158
:101D50004A0730914B0740914C0750914D07E1964F
:101D60006CAD7DAD8EAD9FADE1970E9444439B016C
:101D7000AC01C701B6010E9492416B017C01209128
:101D80005A0730915B0740915C0750915D07CB5734
:101D9000DF4F688179818A819B81C558D0400E943C
:101DA00044439B01AC01C701B6010E949241CB564E
:101DB000DF4F688379838A839B83C559D0406093C2
:101DC0009E0D70939F0D8093A00D9093A10D209177
:101DD0002E0730912F074091300750913107A99677
:101DE0006CAD7DAD8EAD9FADA9970E9444436B0154
:101DF0007C0120913E0730913F0740914007509170
:101E00004107AD966CAD7DAD8EAD9FADAD970E9497
:101E100044439B01AC01C701B6010E9492416B0192
:101E20007C0120914E0730914F074091500750910F
:101E30005107E1966CAD7DAD8EAD9FADE1970E94EF
:101E400044439B01AC01C701B6010E9492416B0162
:101E50007C0120915E0730915F07409160075091AF
:101E60006107CB57DF4F688179818A819B81C55893
:101E7000D0400E9444439B01AC01C701B6010E94BF
:101E80009241C756DF4F688379838A839B83C95900
:101E9000D0406093A20D7093A30D8093A40D9093F6
:101EA000A50D2091E80E3091E90E4091EA0E509177
:101EB000EB0EE5962CAF3DAF4EAF5FAFE59780914F
:101EC000EC0E9091ED0EA091EE0EB091EF0EE99612
:101ED0008CAF9DAFAEAFBFAFE9972091F00E3091C0
:101EE000F10E4091F20E5091F30EED962CAF3DAFF6
:101EF0004EAF5FAFED978091F40E9091F50EA091EB
:101F0000F60EB091F70EC757DF4F88839983AA83E7
:101F1000BB83C958D040209172073091730740911C
:101F2000740750917507E5966CAD7DAD8EAD9FAD94
:101F3000E5970E9444436B017C0120918207309118
:101F400083074091840750918507E9966CAD7DAD7C
:101F50008EAD9FADE9970E9444439B01AC01C70140
:101F6000B6010E9492416B017C0120919207309151
:101F700093074091940750919507ED966CAD7DAD18
:101F80008EAD9FADED970E9444439B01AC01C7010C
:101F9000B6010E9492416B017C012091A207309111
:101FA000A3074091A4075091A507C757DF4F688149
:101FB00079818A819B81C958D0400E9444439B010A
:101FC000AC01C701B6010E949241CF54DF4F688334
:101FD00079838A839B83C15BD0406093A60D709305
:101FE000A70D8093A80D9093A90D209176073091AD
:101FF00077074091780750917907E5966CAD7DADF4
:102000008EAD9FADE5970E9444436B017C0120910A
:102010008607309187074091880750918907E99694
:102020006CAD7DAD8EAD9FADE9970E9444439B01A1
:10203000AC01C701B6010E9492416B017C01209165
:102040009607309197074091980750919907ED9620
:102050006CAD7DAD8EAD9FADED970E9444439B016D
:10206000AC01C701B6010E9492416B017C01209135
:10207000A6073091A7074091A8075091A907C75715
:10208000DF4F688179818A819B81C958D0400E9445
:1020900044439B01AC01C701B6010E949241CB545D
:1020A000DF4F688379838A839B83C55BD0406093CD
:1020B000AA0D7093AB0D8093AC0D9093AD0D209154
:1020C0007A0730917B0740917C0750917D07E59618
:1020D0006CAD7DAD8EAD9FADE5970E9444436B0125
:1020E0007C0120918A0730918B0740918C07509199
:1020F0008D07E9966CAD7DAD8EAD9FADE9970E94E1
:1021000044439B01AC01C701B6010E9492416B019F
:102110007C0120919A0730919B0740919C07509138
:102120009D07ED966CAD7DAD8EAD9FADED970E9498
:1021300044439B01AC01C701B6010E9492416B016F
:102140007C012091AA073091AB074091AC075091D8
:10215000AD07C757DF4F688179818A819B81C95854
:10216000D0400E9444439B01AC01C701B6010E94CC
:102170009241C754DF4F688379838A839B83C95B0D
:10218000D0406093AE0D7093AF0D8093B00D9093DF
:10219000B10D20917E0730917F07409180075091CB
:1021A0008107E5966CAD7DAD8EAD9FADE5970E9444
:1021B00044436B017C0120918E0730918F07409141
:1021C000900750919107E9966CAD7DAD8EAD9FADB6
:1021D000E9970E9444439B01AC01C701B6010E94EC
:1021E00092416B017C0120919E0730919F074091A5
:1021F000A0075091A107ED966CAD7DAD8EAD9FAD62
:10220000ED970E9444439B01AC01C701B6010E94B7
:1022100092416B017C012091AE073091AF07409154
:10222000B0075091B107C757DF4F688179818A8124
:102230009B81C958D0400E9444439B01AC01C70117
:10224000B6010E949241C354DF4F688379838A8329
:102250009B83CD5BD0406093B20D7093B30D8093A0
:10226000B40D9093B50D2091800E3091810E409168
:10227000820E5091830EC755DF4F288339834A83DE
:102280005B83C95AD04080917C0E90917D0EA091C5
:102290007E0EB0917F0EC355DF4F88839983AA834A
:1022A000BB83CD5AD0402091780E3091790E409169
:1022B0007A0E50917B0ECB53DF4F288339834A83AC
:1022C0005B83C55CD040AE01435F5F4F1A0186E57A
:1022D00094E02B969FAF8EAF2B97AAE4B4E02F9695
:1022E000BFAFAEAF2F97EEE3F4E06396FFAFEEAF74
:1022F00063972EE034E067963FAF2EAF67974AE1D1
:1023000054E0C356DF4F59834883CD59D04086E20D
:1023100094E09AAB89ABA2E3B4E0CF55DF4FB98329
:10232000A883C15AD04000E010E0CF55DF4FE881CC
:10233000F981C15AD0406191719181919191CF55AC
:10234000DF4FF983E883C15AD040A9A9BAA98D907B
:102350009D90AD90BD90BAABA9ABC356DF4FE8815D
:10236000F981CD59D0404190519061907190C35600
:10237000DF4FF983E883CD59D0406796AEADBFAD4E
:1023800067972D913D914D915D916796BFAFAEAF2F
:102390006797CF53DF4F288339834A835B83C15CC0
:1023A000D0402D8D3E8D4F8D58A10E9444436B012E
:1023B0007C01C755DF4F288139814A815B81C95A29
:1023C000D040C501B4010E9444434B015C01C35598
:1023D000DF4F288139814A815B81CD5AD040C301CA
:1023E000B2010E9444432B013C01CB53DF4F2881B3
:1023F00039814A815B81C55CD040CF53DF4F688112
:1024000079818A819B81C15CD0400E9444439B01B9
:10241000AC01C301B2010E9492419B01AC01C50114
:10242000B4010E9492419B01AC01C701B6010E9418
:1024300092416B017C016396EEADFFAD63976191B4
:102440007191819191916396FFAFEEAF639729A14E
:102450003AA14BA15CA10E9444439B01AC01C7017E
:10246000B6010E9492416B017C012F96AEADBFADCB
:102470002F976D917D918D919D912F96BFAFAEAFAE
:102480002F972DA13EA14FA158A50E9444439B0127
:10249000AC01C701B6010E9492416B017C012B96F1
:1024A000EEADFFAD2B9761917191819191912B963A
:1024B000FFAFEEAF2B9729A53AA54BA55CA50E94CF
:1024C00044439B01AC01C701B6010E949241D10176
:1024D0006D937D938D939D931D010F5F1F4F03306F
:1024E000110509F022CF80912E0D90912F0DA09112
:1024F000300DB091310D8093840E9093850EA09392
:10250000860EB093870E2091900E3091910E4091DF
:10251000920E5091930EC356DF4F288339834A831E
:102520005B83CD59D04080918C0E90918D0EA091FF
:102530008E0EB0918F0ECF55DF4F88839983AA837B
:10254000BB83C15AD0402091880E3091890E4091B2
:102550008A0E50918B0EC355DF4F288339834A83EF
:102560005B83CD5AD04048E75EE05E8F4D8FCE0151
:1025700001961C01A6E5B4E0BAA3A9A3EAE4F4E03D
:10258000FEA3EDA32EE334E03AA729A74EE054E0E2
:102590005AAB49AB8AE194E02B969FAF8EAF2B9755
:1025A000A6E2B4E02F96BFAFAEAF2F97E2E3F4E020
:1025B0006396FFAFEEAF63979E01235F3F4F679631
:1025C0003FAF2EAF679700E010E06796EEADFFAD2E
:1025D000679781919191A191B1916796FFAFEEAF0D
:1025E0006797ED8DFE8D81939193A193B193FE8FAB
:1025F000ED8F6396AEADBFAD63976D917D918D917B
:102600009D916396BFAFAEAF63972F96EEADFFADD2
:102610002F9781909190A190B1902F96FFAFEEAF40
:102620002F972B96AEADBFAD2B974D905D906D90D3
:102630007D902B96BFAFAEAF2B97A9A9BAA92D91CC
:102640003D914D915D91BAABA9ABC755DF4F288342
:1026500039834A835B83C95AD04029AD3AAD4BAD2B
:102660005CAD0E9444436B017C01C356DF4F28815F
:1026700039814A815B81CD59D040C501B4010E94A6
:1026800044434B015C01CF55DF4F288139814A819A
:102690005B81C15AD040C301B2010E9444432B0167
:1026A0003C01C355DF4F288139814A815B81CD5A76
:1026B000D040C755DF4F688179818A819B81C95A93
:1026C000D0400E9444439B01AC01C301B2010E946F
:1026D00092419B01AC01C501B4010E9492419B0152
:1026E000AC01C701B6010E9492416B017C01E9A5D2
:1026F000FAA56191719181919191FAA7E9A721962B
:102700002CAD3DAD4EAD5FAD21970E9444439B0182
:10271000AC01C701B6010E9492416B017C01ADA1E1
:10272000BEA16D917D918D919D91BEA3ADA3259686
:102730002CAD3DAD4EAD5FAD25970E9444439B014E
:10274000AC01C701B6010E9492416B017C01E9A175
:10275000FAA16191719181919191FAA3E9A32996CE
:102760002CAD3DAD4EAD5FAD29970E9444439B011A
:10277000AC01C701B6010E949241D1016D937D93D6
:102780008D939D931D010F5F1F4F0330110509F0BD
:102790001CCF8091460D9091470DA091480DB091AE
:1027A000490D8093940E9093950EA093960EB0933E
:1027B000970E2091A00E3091A10E4091A20E509143
:1027C000A30E2D962CAF3DAF4EAF5FAF2D978091EE
:1027D0009C0E90919D0EA0919E0EB0919F0E6196C1
:1027E0008CAF9DAFAEAFBFAF61972091980E309187
:1027F000990E40919A0E50919B0E69962CAF3DAF69
:102800004EAF5FAF699748E85EE05E8F4D8FCE01B7
:102810000D961C01A6E5B4E0BAA3A9A3EAE4F4E08E
:10282000FEA3EDA32EE334E03AA729A74EE054E03F
:102830005AAF49AF8AE194E09EAF8DAFA6E2B4E013
:102840002396BFAFAEAF2397E2E3F4E02796FFAF46
:10285000EEAF27979E012F5F3F4F3AAB29AB00E0C9
:1028600010E0E9A9FAA981919191A191B191FAABF6
:10287000E9ABED8DFE8D81939193A193B193FE8F82
:10288000ED8F2796AEADBFAD27976D917D918D9160
:102890009D912796BFAFAEAF27972396EEADFFADC4
:1028A000239781909190A190B1902396FFAFEEAFC6
:1028B0002397ADADBEAD4D905D906D907D90BEAF58
:1028C000ADAFA9ADBAAD2D913D914D915D91BAAF2E
:1028D000A9AF65962CAF3DAF4EAF5FAF6597C357BD
:1028E000DF4F288139814A815B81CD58D0400E94D9
:1028F00044436B017C012D962CAD3DAD4EAD5FADDB
:102900002D97C501B4010E9444434B015C016196BF
:102910002CAD3DAD4EAD5FAD6197C301B2010E94DC
:1029200044432B013C0169962CAD3DAD4EAD5FADEE
:10293000699765966CAD7DAD8EAD9FAD65970E9434
:1029400044439B01AC01C301B2010E9492419B012F
:10295000AC01C501B4010E9492419B01AC01C701C9
:10296000B6010E9492416B017C01E9A5FAA5619133
:10297000719181919191FAA7E9A7CF56DF4F2881F4
:1029800039814A815B81C159D0400E9444439B01F7
:10299000AC01C701B6010E9492416B017C01ADA15F
:1029A000BEA16D917D918D919D91BEA3ADA3CB569E
:1029B000DF4F288139814A815B81C559D0400E940F
:1029C00044439B01AC01C701B6010E9492416B01D7
:1029D0007C01E9A1FAA16191719181919191FAA390
:1029E000E9A3C756DF4F288139814A815B81C959E4
:1029F000D0400E9444439B01AC01C701B6010E9434
:102A00009241D1016D937D938D939D931D010F5F35
:102A10001F4F0330110509F024CF80915E0D909176
:102A20005F0DA091600DB091610D8093A40E909305
:102A3000A50EA093A60EB093A70E2091B00E3091D4
:102A4000B10E4091B20E5091B30ECF56DF4F288396
:102A500039834A835B83C159D0408091AC0E9091F9
:102A6000AD0EA091AE0EB091AF0ECB56DF4F888366
:102A70009983AA83BB83C559D0402091A80E309179
:102A8000A90E4091AA0E5091AB0E29AB3AAB4BABBD
:102A90005CAB48E95EE027965FAF4EAF2797CE016B
:102AA00001961C01A6E5B4E0BE8FAD8FEAE4F4E028
:102AB000FAA3E9A32EE334E03EA32DA34EE054E0B5
:102AC0005AA749A78AE194E09AAF89AFA6E2B4E099
:102AD000BEAFADAFE2E3F4E02396FFAFEEAF2397D6
:102AE0009E01235F3F4FC357DF4F39832883CD5863
:102AF000D04000E010E0C357DF4FE881F981CD58A6
:102B0000D04081919191A191B191C357DF4FF98349
:102B1000E883CD58D0402796EEADFFAD279781933F
:102B20009193A193B1932796FFAFEEAF279723968A
:102B3000AEADBFAD23976D917D918D919D91239603
:102B4000BFAFAEAF2397EDADFEAD81909190A19058
:102B5000B190FEAFEDAFA9ADBAAD4D905D906D9067
:102B60007D90BAAFA9AFA9A5BAA52D913D914D9180
:102B70005D91BAA7A9A7C756DF4F288339834A8337
:102B80005B83C959D040CF54DF4F288139814A81B6
:102B90005B81C15BD0400E9444436B017C01CF56F6
:102BA000DF4F288139814A815B81C159D040C501FD
:102BB000B4010E9444434B015C01CB56DF4F288196
:102BC00039814A815B81C559D040C301B2010E945D
:102BD00044432B013C0129A93AA94BA95CA9C7563A
:102BE000DF4F688179818A819B81C959D0400E94D9
:102BF00044439B01AC01C301B2010E9492419B017D
:102C0000AC01C501B4010E9492419B01AC01C70116
:102C1000B6010E9492416B017C01EDA1FEA1619180
:102C2000719181919191FEA3EDA3CB54DF4F288147
:102C300039814A815B81C55BD0400E9444439B013E
:102C4000AC01C701B6010E9492416B017C01A9A1B0
:102C5000BAA16D917D918D919D91BAA3A9A3C754FD
:102C6000DF4F288139814A815B81C95BD0400E9456
:102C700044439B01AC01C701B6010E9492416B0124
:102C80007C01ED8DFE8D6191719181919191FE8F0D
:102C9000ED8FC354DF4F288139814A815B81CD5B41
:102CA000D0400E9444439B01AC01C701B6010E9481
:102CB0009241D1016D937D938D939D931D010F5F83
:102CC0001F4F0330110509F016CF89819A81AB811E
:102CD000BC818093A80E9093A90EA093AA0EB093E6
:102CE000AB0E8D819E81AF81B8858093AC0E9093A1
:102CF000AD0EA093AE0EB093AF0E89859A85AB85CD
:102D0000BC858093B00E9093B10EA093B20EB09399
:102D1000B30E8091720D9091730DA091740DB091CE
:102D2000750D8093B40E9093B50EA093B60EB0932C
:102D3000B70ECB55DF4FB881C55AD040B093080FBE
:102D4000CA55DF4FE881C65AD040E093090FC955F4
:102D5000DF4FF881C75AD040F0930A0FC855DF4FB4
:102D60002881C85AD04020930B0FC090B80DD09046
:102D7000B90DE090BA0DF090BB0D20917206309124
:102D800073064091740650917506698D7A8D8B8D0E
:102D90009C8D0E9444434B015C012091760630914A
:102DA000770640917806509179066DA57EA58FA58E
:102DB00098A90E9444439B01AC01C501B4010E9443
:102DC00092414B015C0120917A0630917B06409143
:102DD0007C0650917D066DA97EA98FA998AD0E94B1
:102DE00044439B01AC01C501B4010E9492414B01D7
:102DF0005C0120917E0630917F06409180065091C3
:102E00008106C358DF4F688179818A819B81CD57C4
:102E1000D0400E9444439B01AC01C501B4010E9413
:102E200092419B01AC01C701B6010E9492412DA9BC
:102E30003EA94FA958AD2093C40E3093C50E4093C0
:102E4000C60E5093C70E2DA53EA54FA558A9209399
:102E5000C00E3093C10E4093C20E5093C30E298D05
:102E60003A8D4B8D5C8D2093BC0E3093BD0E4093FC
:102E7000BE0E5093BF0E6093B80E7093B90E809340
:102E8000BA0E9093BB0EC090C40DD090C50DE090CB
:102E9000C60DF090C70D2091C2063091C306409137
:102EA000C4065091C5066D966CAD7DAD8EAD9FADDF
:102EB0006D970E9444434B015C012091C6063091FE
:102EC000C7064091C8065091C906A1966CAD7DAD6C
:102ED0008EAD9FADA1970E9444439B01AC01C501FB
:102EE000B4010E9492414B015C012091CA063091CD
:102EF000CB064091CC065091CD06A5966CAD7DAD2C
:102F00008EAD9FADA5970E9444439B01AC01C501C6
:102F1000B4010E9492414B015C012091CE06309198
:102F2000CF064091D0065091D106CF57DF4F688130
:102F300079818A819B81C158D0400E9444439B0182
:102F4000AC01C501B4010E9492419B01AC01C701D3
:102F5000B6010E949241A5962CAD3DAD4EAD5FAD40
:102F6000A5972093D40E3093D50E4093D60E509350
:102F7000D70EA1962CAD3DAD4EAD5FADA197209380
:102F8000D00E3093D10E4093D20E5093D30E6D9647
:102F90002CAD3DAD4EAD5FAD6D972093CC0E309313
:102FA000CD0E4093CE0E5093CF0E6093C80E70930B
:102FB000C90E8093CA0E9093CB0EC090BC0DD090DA
:102FC000BD0DE090BE0DF090BF0D20911207309125
:102FD00013074091140750911507A9966CAD7DAD6C
:102FE0008EAD9FADA9970E9444434B015C01209197
:102FF0001607309117074091180750911907AD96A1
:103000006CAD7DAD8EAD9FADAD970E9444439B01ED
:10301000AC01C501B4010E9492414B015C012091B9
:103020001A0730911B0740911C0750911D07E1962C
:103030006CAD7DAD8EAD9FADE1970E9444439B0189
:10304000AC01C501B4010E9492414B015C01209189
:103050001E0730911F074091200750912107CB5741
:10306000DF4F688179818A819B81C558D0400E9459
:1030700044439B01AC01C501B4010E9492419B01F4
:10308000AC01C701B6010E949241E1962CAD3DAD65
:103090004EAD5FADE1972093E40E3093E50E409383
:1030A000E60E5093E70EAD962CAD3DAD4EAD5FAD47
:1030B000AD972093E00E3093E10E4093E20E5093D3
:1030C000E30EA9962CAD3DAD4EAD5FADA997209313
:1030D000DC0E3093DD0E4093DE0E5093DF0E6093D6
:1030E000D80E7093D90E8093DA0E9093DB0EC090B9
:1030F000C00DD090C10DE090C20DF090C30D209195
:103100006207309163074091640750916507E59627
:103110006CAD7DAD8EAD9FADE5970E9444434B01F4
:103120005C012091660730916707409168075091D4
:103130006907E9966CAD7DAD8EAD9FADE9970E94B4
:1031400044439B01AC01C501B4010E9492414B0173
:103150005C0120916A0730916B0740916C07509198
:103160006D07ED966CAD7DAD8EAD9FADED970E9478
:1031700044439B01AC01C501B4010E9492414B0143
:103180005C0120916E0730916F074091700750915C
:103190007107C757DF4F688179818A819B81C95840
:1031A000D0400E9444439B01AC01C501B4010E9480
:1031B00092419B01AC01C701B6010E949241ED967C
:1031C0002CAD3DAD4EAD5FADED972093F40E309339
:1031D000F50E4093F60E5093F70EE9962CAD3DADEB
:1031E0004EAD5FADE9972093F00E3093F10E409312
:1031F000F20E5093F30EE5962CAD3DAD4EAD5FADA6
:10320000E5972093EC0E3093ED0E4093EE0E509325
:10321000EF0E6093E80E7093E90E8093EA0E9093A0
:10322000EB0E82E090E00E94CE2EE0916E0EF091C7
:103230006F0E408151816281738180E090E00E9435
:10324000CA2E6091630E7091640E8091650E90910C
:10325000660E0E948E422AE037ED43E25CE30E9454
:103260004443AB01BC0181E090E00E94CA2E8090F3
:10327000670E9090680EA090690EB0906A0E20E0E4
:1032800030E040E85FEBC501B4010E94F6410091D7
:103290006E0E10916F0E882319F1D801CD90DD903C
:1032A000ED90FC90A7019601C501B4010E949141E7
:1032B0004B015C0120E030E040E054E3C701B6017F
:1032C0000E9444439B01AC01C501B4010E944043EC
:1032D000181634F083E598E09093CB0D8093CA0DD7
:1032E00080916D0E882331F083E598E09093CB0DAB
:1032F0008093CA0D60915B0E70915C0E80915D0EA3
:1033000090915E0E6F5F7F4F8F4F9F4F60935B0E6C
:1033100070935C0E80935D0E90935E0E0E948E42C1
:1033200020915F0E3091600E4091610E5091620EBF
:103330000E944443F8016083718382839383809168
:10334000630E9091640EA091650EB091660E019689
:10335000A11DB11D8093630E9093640EA093650E22
:10336000B093660EC853DF4F0FB6F894DEBF0FBEA2
:10337000CDBFDF91CF911F910F91FF90EF90DF9024
:10338000CF90BF90AF909F908F907F906F905F9005
:103390004F903F902F900895CF92DF92EF92FF923F
:1033A0000F931F93CF93DF93EAECFDE08EEADF01EA
:1033B0001D928A95E9F78BE69EE09093D10D80935C
:1033C000D00DAEE6BEE0B0930B0EA0930A0ECFE593
:1033D000DEE0D093DF0DC093DE0DF093350EE09369
:1033E000340EF093CF0DE093CE0D21E030E0FC01E0
:1033F0003183208387E698E09093D50D8093D40D98
:1034000020E73EE02D933C9380E090E0A0E1B1E422
:103410008093670E9093680EA093690EB0936A0E26
:103420008AE097EDA3E2BCE388839983AA83BB83F8
:10343000E9E4FEE088E491ECA5EEBFE680839183A9
:10344000A283B38381EC91EBAFE1B4E380934D0EA3
:1034500090934E0EA0934F0EB093500E89ED97E0CF
:10346000A5E7BCE88093510E9093520EA093530EA3
:10347000B093540E83E097E7ABE2BAEF8093550E1A
:103480009093560EA093570EB093580EC8E9D9E00A
:10349000D093CD0DC093CC0DA6E7B9E0B983A88336
:1034A00085EE98E08D939C939093790980937809A9
:1034B00090937B0980937A0990937D0980937C098E
:1034C00090937F0980937E0990938109809380096E
:1034D000909383098093820990938509809384094E
:1034E00090938709809386098FE19FE090938909E3
:1034F0008093880990938B0980938A098AE19FE0E1
:1035000090938D0980938C0990938F0980938E09F5
:1035100085E19FE09093910980939009909393099E
:103520008093920980E19FE090939509809394099C
:10353000909397098093960949E55EE050939D0921
:1035400040939C09F0939B09E0939A0930939F095B
:1035500020939E0984EBE6E1FDE0DF011D928A9550
:10356000E9F7C8E7DEE088EAFE0111928A95E9F7FB
:10357000E4E6F9E082E1DF011D928A95E9F7DA01DC
:10358000ED93FC938EE090E09183808386ED93E051
:1035900090936709809366098AEB93E09093690999
:1035A0008093680986E193E090936B0980936A09A0
:1035B00082E892E090936D0980936C098AE592E02D
:1035C0009093F90E8093F80E8AE092E09093FB0EB0
:1035D0008093FA0E86E398E00E946E0161E080918C
:1035E00082040E94F93261E0809186040E94F932DF
:1035F0008EE198E00E946E0161E080918A040E9451
:10360000F93261E080918E040E94F93260E080918D
:10361000B2070E94F93260E08091B6070E94F93249
:1036200060E08091BA070E94F93260E08091BE07A5
:103630000E94F93280910C0890910D08A0910E081B
:10364000B0910F088093C40D9093C50DA093C60D43
:10365000B093C70D8091F6079091F707A091F807F6
:10366000B091F9078093C00D9093C10DA093C20D46
:10367000B093C30D8091E0079091E107A091E2071C
:10368000B091E3078093BC0D9093BD0DA093BE0D48
:10369000B093BF0D8091CA079091CB07A091CC0742
:1036A000B091CD078093B80D9093B90DA093BA0D4A
:1036B000B093BB0D81E08093200F8093210F809306
:1036C000220F8093230F8091220590912305A091D2
:1036D0002405B09125058093840E9093850EA093C8
:1036E000860EB093870E8091920590919305A091DC
:1036F0009405B09195058093940E9093950EA093A8
:10370000960EB093970E8091FE059091FF05A091C3
:103710000006B09101068093A40E9093A50EA0938D
:10372000A60EB093A70E8091020490910304A0917D
:103730000404B091050488839983AA83BB83809392
:10374000880E9093890EA0938A0EB0938B0E80936F
:10375000980E9093990EA0939A0EB0939B0E80931F
:10376000A80E9093A90EA093AA0EB093AB0E8091D1
:10377000060490910704A0910804B0910904809375
:103780007C0E90937D0EA0937E0EB0937F0E80935F
:103790008C0E90938D0EA0938E0EB0938F0E80930F
:1037A0009C0E90939D0EA0939E0EB0939F0E8093BF
:1037B000AC0E9093AD0EA093AE0EB093AF0E809171
:1037C0000A0490910B04A0910C04B0910D04809315
:1037D000800E9093810EA093820EB093830E8093FF
:1037E000900E9093910EA093920EB093930E8093AF
:1037F000A00E9093A10EA093A20EB093A30E80935F
:10380000B00E9093B10EA093B20EB093B30E809110
:103810006A0690916B06A0916C06B0916D0680933C
:10382000B40E9093B50EA093B60EB093B70E8091E0
:1038300092048093080F809193048093090F8091E4
:10384000940480930A0F8091950480930B0F8091CC
:10385000100890911108A0911208B091130880935C
:103860001B0F90931C0FA0931D0FB0931E0F809100
:10387000FA079091FB07A091FC07B091FD07809398
:10388000160F9093170FA093180FB093190F8091F4
:10389000E4079091E507A091E607B091E7078093D0
:1038A000110F9093120FA093130FB093140F8091E8
:1038B000CE079091CF07A091D007B091D107809308
:1038C0000C0F90930D0FA0930E0FB0930F0FC0909D
:1038D000F203D090F303E090F403F090F503C0926C
:1038E000B80ED092B90EE092BA0EF092BB0E0091D3
:1038F000F6031091F7032091F8033091F903009338
:10390000BC0E1093BD0E2093BE0E3093BF0E40919F
:10391000FA035091FB036091FC037091FD03409307
:10392000C00E5093C10E6093C20E7093C30E80916F
:10393000FE039091FF03A0910004B09101048093D5
:10394000C40E9093C50EA093C60EB093C70EC0923E
:10395000C80ED092C90EE092CA0EF092CB0E009320
:10396000CC0E1093CD0E2093CE0E3093CF0E4093FD
:10397000D00E5093D10E6093D20E7093D30E8093DD
:10398000D40E9093D50EA093D60EB093D70EC092BE
:10399000D80ED092D90EE092DA0EF092DB0E0093A0
:1039A000DC0E1093DD0E2093DE0E3093DF0E40937D
:1039B000E00E5093E10E6093E20E7093E30E80935D
:1039C000E40E9093E50EA093E60EB093E70EC0923E
:1039D000E80ED092E90EE092EA0EF092EB0E009320
:1039E000EC0E1093ED0E2093EE0E3093EF0E4093FD
:1039F000F00E5093F10E6093F20E7093F30E8093DD
:103A0000F40E9093F50EA093F60EB093F70EDF919F
:103A1000CF911F910F91FF90EF90DF90CF9008957D
:103A20000895CF93DF93CDB7DEB72A970FB6F894FA
:103A3000DEBF0FBECDBFAC01CB0160E070E04983BB
:103A40005A836B837C83AA2797FDA095BA2F8D8319
:103A50009E83AF83B8879E01275F3F4FAE014F5FC4
:103A60005F4F68E070E08091A9099091AA090E94D7
:103A70001140811108C081E029853A85283031053F
:103A800019F480E001C081E02A960FB6F894DEBFF9
:103A90000FBECDBFDF91CF9108950F931F93CF93AA
:103AA000DF931F921F92CDB7DEB78B019E012F5F70
:103AB0003F4FAC018091A9099091AA090E94114041
:103AC000811108C081E029813A812017310719F45A
:103AD00080E001C081E00F900F90DF91CF911F91A6
:103AE0000F910895CF93DF93EC011092AD091092DE
:103AF000AC09AC0160E070E0CB010E94DE28AE01B1
:103B000061E070E080E090E00E94DE288091A909E9
:103B10009091AA09DF91CF910C946040EF92FF92AF
:103B20000F931F93CF93DF931F921F92CDB7DEB7F2
:103B30008C018091A7099091A80980179107B4F58D
:103B40008091A5099091A609009731F00E948544C3
:103B50001092A8091092A709C8010E94ED43909302
:103B6000A6098093A509892B19F4E12CF12C18C022
:103B70001093A8090093A70919C024EA39E0AE01FF
:103B80004F5F5F4F61E070E08091A9099091AA09B1
:103B90000E94523F811107C089819A81E80EF91E67
:103BA000E016F10654F380E090E01FC0E12CF12C08
:103BB0002091A5093091A609E016F106ACF42E0D6E
:103BC0003F1DAE014F5F5F4FB8016E197F098091B5
:103BD000A9099091AA090E94523F8111E4CF8981DD
:103BE0009A81E80EF91EE4CFC9010F900F90DF9182
:103BF000CF911F910F91FF90EF9008950F931F9316
:103C0000CF93DF93EB018A010CDF81110AC001150C
:103C1000110539F0BE01C801DF91CF911F910F91BD
:103C20003CCFDF91CF911F910F910895CF92DF92FA
:103C3000EF92FF92CF93DF93CDB7DEB728970FB601
:103C4000F894DEBF0FBECDBF6B01E12CF12CC98211
:103C5000DA82EB82FC822D833E834F835887AE014C
:103C60004F5F5F4F68E070E0C9DF28960FB6F894A9
:103C7000DEBF0FBECDBFDF91CF91FF90EF90DF9001
:103C8000CF9008950F931F93CF93DF93EC018B0197
:103C90000E944E3F9093AA098093A909009741F092
:103CA000A801BE010E94D33EEC01009719F40CC09C
:103CB000C8EED8E08091A9099091AA090E94513FCD
:103CC0001092AA091092A909CE01DF91CF911F91FC
:103CD0000F9108958091A9099091AA090C944B3FE6
:103CE0006F927F928F929F92AF92BF92CF92DF920C
:103CF000EF92FF920F931F93CF93DF9300D000D0EA
:103D0000CDB7DEB76B017C014A018091AD098823F4
:103D100009F441C09401B701A601CE0101960E94A9
:103D20006D2D89819A8118161906ACF5A12CB12C3C
:103D300000E010E089819A81081719075CF76B8011
:103D40007C806A0C7B1CF30160817181828193818C
:103D5000A4DE81111EC0F301648175811616170659
:103D60002CF48681978199DE811113C0C801880FD8
:103D7000991FED81FE81E80FF91FB701A60180812F
:103D800091810E9410290F5F1F4FF8E0AF0EB11C08
:103D9000D1CFC401A7DE26960FB6F894DEBF0FBEC2
:103DA000CDBFDF91CF911F910F91FF90EF90DF90EA
:103DB000CF90BF90AF909F908F907F906F9008951D
:103DC000CF93DF93EC01AC0160E070E0CB0188DFC2
:103DD000AE0161E070E080E090E0DF91CF9180CFB4
:103DE000CF938091A9099091AA090E94AF3EC82F54
:103DF000811109C060E070E0CB0166D561E070E040
:103E000080E090E061D58C2FCF9108950F931F93A0
:103E100089019A01AB01BC018091A9099091AA097D
:103E20000E945F401F910F9108954F925F926F9291
:103E30007F928F929F92AF92BF92CF92DF92EF923A
:103E4000FF920F931F93CF93DF93CDB7DEB76697A3
:103E50000FB6F894DEBF0FBECDBF4C015B018A01E7
:103E60008091AD09882369F08091AD09882309F418
:103E7000BDC21A821982E12CF12C78E0C72ED12C18
:103E800014C06DEA79E08091A9099091AA090E9475
:103E9000B13E8111ABC2E8CFE20EF31EE114F10492
:103EA000D9F088E0E816F104BCF429E030E02C0FEA
:103EB0003D1F2E0D3F1DAE014F5F5F4FB6016E19C6
:103EC0007F098091A9099091AA090E94523F2981F6
:103ED0003A81882309F388C2121613060CF086C2B1
:103EE0008091AC09811104C019861A861B861C8634
:103EF00089859A85AB85BC858031910508F076C2AD
:103F0000FC01EE58FF4F0C94C943D4011696ED9175
:103F1000FC91179780819181A281B38189839A83D3
:103F2000AB83BC83AE014F5F5F4F64E070E085E11F
:103F300090E06CC18D859E85F1DD009731F42FEF07
:103F40003FEFA90161E070E00EC0FC01C080D180AC
:103F5000E280F380A501C701B6010E949328A70162
:103F6000960160E070E08DE190E03CC28D859E8519
:103F7000D5DD009721F42FEF3FEFA9010FC0DC0141
:103F8000CD90DD90ED90FD90AD0197018601B501DA
:103F9000C401B0D5A7019601882319F061E070E053
:103FA00002C060E070E08BE190E01CC28D859E85D0
:103FB000B5DD009721F42FEF3FEFA9010EC0FC0102
:103FC000C190D190E190F190BF01A7019601C40189
:103FD00086D7A7019601882319F061E070E002C03E
:103FE00060E070E08CE190E0FDC1D4011496ED91A9
:103FF000FC911597E080F180F70102811381A08088
:10400000B18060E1462E512C612C712C49825A827C
:104010006B827C8288E090E0A0E0B0E08D839E839C
:10402000AF83B8879E012F5E3F4FAE014F5F5F4F5A
:1040300068E070E08091A9099091AA090E9411405E
:10404000882319F0E12CF12CAEC089899A89089750
:10405000C9F7D701CD90DC90B8E0CB0ED11CCC0CC9
:10406000DD1CCC0CDD1CC6010E94ED437C010097D9
:1040700049F349825A826B827C82C601AA2797FD46
:10408000A095BA2F8D839E83AF83B8879E012F5E44
:104090003F4FAE014F5F5F4F68E070E08091A9092C
:1040A0009091AA090E94114081117DC089899A8945
:1040B000089709F078C0D4011296ED91FC911397FE
:1040C0004081518162817381D7014D935D936D93DE
:1040D0007C931397448155816681778114964D9323
:1040E0005D936D937C9317974085518562857385A9
:1040F00018964D935D936D937C931B97848595855E
:10410000A685B785F70184879587A687B787108A24
:10411000118A128A138A84E090E0A0E0B0E0848BD8
:10412000958BA68BB78B8091500890915108A0E099
:10413000B0E0808F918FA28FB38FC501AA2797FD22
:10414000A095BA2F848F958FA68FB78FB801A7013E
:10415000405E5F4F20E030E02A153B057CF4DB0138
:104160008D919D91BD01A0E0B0E0FA018193919302
:10417000A193B193AF012F5F3F4FEECF9E012F5E12
:104180003F4FA701B6018091A9099091AA090E9409
:104190001140811108C089899A898C159D0519F4EF
:1041A00081E08093AC09C70166960FB6F894DEBF34
:1041B0000FBECDBFDF91CF911F910F91FF90EF9078
:1041C000DF90CF90BF90AF909F908F907F906F9037
:1041D0005F904F900C9485448D859E85AF85B889FE
:1041E0000097A105B10529F199DC009789F481E0D8
:1041F00090E0A0E0B0E089839A83AB83BC83AE01FA
:104200004F5F5F4F64E070E082E190E0F7DCEEC06A
:10421000BC01C401ACD219821A821B821C82AE017D
:104220004F5F5F4F64E070E082E190E0E7DC811176
:10423000DDC081E08093AB09D9C0D4011496ED9123
:10424000FC9115970190F081E02D008511850115F5
:10425000110509F460C0D801ED90FC90C280D380B4
:1042600020E030E060E070E080E090E08E159F0597
:104270000CF5F801A281B381A20FB31F1296ED9144
:10428000FC911397EE0FFF1FEC0DFD1D0190F081C7
:10429000E02D16960D90BC91A02DEA9FA001EB9FFA
:1042A000500DFA9F500D1124640F751F0196285F61
:1042B0003F4FDCCF83E190E0B4DB811197C0812CCC
:1042C000912CA12CB12CAE14BF040CF08FC0D801DE
:1042D0001296ED91FC911397E80DF91DA281B3811F
:1042E000AA0FBB1FAC0DBD1D2D913C9186819781FE
:1042F000289FB001299F700D389F700D1124808177
:104300009181CBDBB8E08B0E911C81116FC0EFEF78
:10431000AE1ABE0AD8CF60E070E083E190E081DBA6
:1043200065C040E050E060E070E081E190E066DC74
:1043300081115CC0C12CD12C7601C701B601C1D35B
:104340008091360A882321F0A501C701B601C8DC97
:10435000A501C701B601DCD2FFEFCF1ADF0AEF0AD1
:10436000FF0A82E0C816D104E104F10431F710928B
:10437000AD091092AC098091A9099091AA090E94F7
:10438000BC3E34C081E090E09093380A8093370AB5
:1043900040E050E060E070E086E190E037CF81E0FF
:1043A000D8018C9323C08D859E85B8DB009731F4AE
:1043B0002FEF3FEFA90161E070E012C0FC01208106
:1043C000318142815381CA01B9012B8B3C8B4D8BCA
:1043D0005E8BFFD62B893C894D895E8960E070E059
:1043E0008EE190E023DC02C0C5017CDB66960FB64F
:1043F000F894DEBF0FBECDBFDF91CF911F910F911B
:10440000FF90EF90DF90CF90BF90AF909F908F90F4
:104410007F906F905F904F900895CF92DF92EF92D0
:10442000FF92CF93DF93EC01C12CD12C7601C70111
:10443000B60147D3AE01C701B60152DCAE01C701D8
:10444000B60166D28091A5099091A609009731F036
:104450000E9485441092A6091092A5098FEFC81AF0
:10446000D80AE80AF80A82E0C816D104E104F10487
:10447000F1F68091AC09882359F040E050E060E00B
:1044800070E084E190E0BADBC82F1092AC0901C063
:10449000C0E08091AD09882341F01092AD0921E080
:1044A00030E030935108209350088091A9099091F1
:1044B000AA090E94BF3E8091A9099091AA090E9471
:1044C000513F8C2FDF91CF91FF90EF90DF90CF90F5
:1044D0000895CF93DF93EC01AC0160E070E0CB0175
:1044E0000E94E42CAE0161E070E080E090E0DF919A
:1044F000CF910C94E42C60E070E0CB010E94492D38
:1045000061E070E080E090E00C94492DCF92DF9262
:10451000EF92FF920F931F93CF93DF93EC016A0109
:104520007B0100E010E09801A4D601E010E020E05B
:1045300030E0B701A601CE019CD6DF91CF911F914B
:104540000F91FF90EF90DF90CF900895EF92FF9240
:104550000F931F93CF93DF93DC01EA01F9011496C7
:104560008D919C91159712960D911C911397080FA0
:10457000191F2881398118964D915C91199742171E
:10458000530728F04D915C911197452B59F1780113
:10459000E21AF30A18964D915C911997481B590B32
:1045A0004E0D5F1D46175707B4F1A901460F571F5F
:1045B0004017510700F1F182E082338322836E19A4
:1045C0007F0975836483161617061CF030E020E01F
:1045D00002C0382F292F36832783680F791F7983EC
:1045E000688317C018968D919C911997821B930B25
:1045F0008617970784F07183608333832283158243
:1046000014821782168288819981860F971F998359
:10461000888380E001C081E0DF91CF911F910F91ED
:10462000FF90EF900895CF93DF9324E4269FE0015D
:10463000279FD00D1124C255D64F8AA99BA9009758
:1046400021F00E9485441BAA1AAA8EA99FA900974F
:1046500011F00E9485441B8A1A8A1E8A1F8A188EAE
:10466000198E1A8E1B8E1C8E1D8E1E8E1F8E18A2EA
:1046700019A281E090E09BA38AA31DA21CA21EA206
:104680001FA218A619A61BA61AA61DA61CA61EA622
:104690001FA618AA19AA1BAA1AAA1DAA1CAA1FAAF1
:1046A0001EAA19AE18AE1AAE1BAE1CAE1DAEFE0190
:1046B000FE961082118212821382CE5BDF4F198226
:1046C0001882DF91CF910895CF93DF93FB01DC0136
:1046D000CD91DC91AE81BF818081918123E0880FF3
:1046E000991F2A95E1F712960D90BC91A02DA80F65
:1046F000B91F6D917C91119784859585880F991FBD
:104700000A80DB81C02DC80FD91F0990D881C02D28
:1047100014968D919C911597892B19F082E090E069
:1047200002C081E090E08C9F90018D9F300D9C9F96
:10473000300D112480859185289FD001299FB00DCF
:10474000389FB00D11240480F581E02D2E9FC0010B
:104750002F9F900D3E9F900D1124860F971FFA01F9
:1047600091838083B383A283DF91CF9108952F92A9
:104770003F924F925F926F927F928F929F92AF92F1
:10478000BF92CF92DF92EF92FF920F931F93CF933E
:10479000DF9300D000D0CDB7DEB7DC011496ED91E9
:1047A000FC9115970190F081E02D808591859A8389
:1047B0008983A281B381BC83AB83DB018D909D9003
:1047C000AD90BD90C12CD12C7601C814D904EA0457
:1047D000FB040CF060C014964D905D906D907C9041
:1047E000179718964D915D916D917C911B97FD01E6
:1047F0007096FE83ED838D919C91119763E0880FF5
:10480000991F6A95E1F7E981FA8122813381280FA6
:10481000391FF901208031801C96ED91FC911D9784
:10482000EE0FFF1F8B819C81E80FF91F0190F08133
:10483000E02DD90114968D919C911597892B19F033
:1048400082E090E002C081E090E08E9F90018F9F17
:10485000300D9E9F300D1124249F8001259F100D47
:10486000349F100D1124249DC001259D900D349D71
:10487000900D1124A8016D817E81820D931D0E94EF
:104880001445AD81BE81A00FB11FEFEFCE1ADE0A35
:10489000EE0AFE0A9ACF26960FB6F894DEBF0FBE38
:1048A000CDBFDF91CF911F910F91FF90EF90DF90DF
:1048B000CF90BF90AF909F908F907F906F905F90C0
:1048C0004F903F902F900895CF93DF9324E4269F3D
:1048D000F001279FF00D1124E255F64FDB01A25B9A
:1048E000B74F3C91332329F0EF0119922A95E9F74C
:1048F0001C921482158216821782118610861386E6
:104900001286118A108A17861686DF91CF918BCE78
:104910002F923F924F925F926F927F928F929F92CF
:10492000AF92BF92CF92DF92EF92FF920F931F93BD
:10493000CF93DF9300D01F92CDB7DEB76B017C0120
:104940001A0184E48C9D90018D9D300D1124225517
:10495000364F3C832B83F90184819581A681B781F1
:10496000892B8A2B8B2B09F495C0A12CB12C412CBF
:10497000512C3201AB81BC8114964D915D916D91AA
:104980007C91179718968D919C911997441655060E
:10499000660677068CF5FC01EA0DFB1D328123814A
:1049A000032F122F812C912C82149304C4F4D8016C
:1049B000ED91FC91309769F0848195812A83398348
:1049C0000E948544F801808191810E94854439814B
:1049D0002A81FFEF8F1A9F0A0E5F1F4FE5CF832FAB
:1049E000922F0E9485442FEF421A520A620A720ADD
:1049F00034E0A30EB11CBECF0E948544EB81FC8144
:104A000082859385892BE1F0A12CB12C00E010E088
:104A1000AB81BC811A968D919C911B970215130551
:104A20006CF4FC01EA0DFB1D848195810E94854494
:104A30000F5F1F4FFEE0AF0EB11CEACF0E9485440E
:104A4000EB81FC81808991890E948544AB81BC8186
:104A50001E968D919C911F970E948544C701B601B7
:104A6000E2DDC701B6010F900F900F900F90DF911C
:104A7000CF911F910F91FF90EF90DF90CF90BF905B
:104A8000AF909F908F907F906F905F904F903F90EE
:104A90002F901ACF0F900F900F900F90DF91CF9122
:104AA0001F910F91FF90EF90DF90CF90BF90AF904C
:104AB0009F908F907F906F905F904F903F902F903E
:104AC000089524E4269FF001279FF00D1124E2555C
:104AD000F64F828993890497029758F485E090E015
:104AE000938B828B8FEF9FEFDC01828F938FA48F4C
:104AF000B58F08952F923F924F925F926F927F925F
:104B00008F929F92AF92BF92CF92DF92EF92FF92DD
:104B10000F931F93CF93DF93CDB7DEB7AA970FB64E
:104B2000F894DEBF0FBECDBF9AA389A31B016A0113
:104B30000B8B1C8B2D8B3E8B84E42B893C89829FB5
:104B40008001839F100D11240255164F2B893C893B
:104B50004D895E89D8012D933D934D935C931397B6
:104B6000AB016B897C898D899E89D2DEF6014191EA
:104B70005191619171917F01CA01D80114964D93B1
:104B80005D936D937C93179764E070E00E94D3432C
:104B9000F80191878087892B09F46DC118A21F8EB7
:104BA0001B8E1C8E1D8E1E8EF80184819581A68120
:104BB000B7812B8D3C8D4D8D5E8D281739074A07A7
:104BC0005B070CF0D1C0D80118960D90BC91A02DB8
:104BD0002F8D38A1A20FB31FBA8BA98BD7018D914E
:104BE0009C91880F991FA9A1BAA1ED91FC91E80FA2
:104BF000F91F80819181E989FA8991838083D701A6
:104C000014962D913D914D915C9117972BA33CA348
:104C10004DA35EA3B8E0EB0EF11C62E070E0C101B1
:104C20000E94D343E989FA8993838283892B09F40B
:104C300022C11F8A188E198E1A8E2F89388D498DA0
:104C40005A8D8BA19CA1ADA1BEA1281739074A0797
:104C50005B070CF018C1D701CD90DC90CC0CDD1CAB
:104C6000E989FA89A280B380AC0CBD1C68E070E0D1
:104C700081E090E00E94D343D5018D939C93A98954
:104C8000BA891296ED91FC911397EC0DFD1D808071
:104C900091808114910409F4EEC0F701448155819B
:104CA00066817781CA01D4014D935D936D937C93A6
:104CB0001397B8E0EB0EF11C64E070E00E94D34360
:104CC000F40195838483892B09F4D5C0A12CB12CE0
:104CD000412C512C3201F40180819181A281B38158
:104CE000481659066A067B0694F5D4011496CD90B1
:104CF000DC901597CA0CDB1CF701DE01119680E1F0
:104D000001900D928A95E1F7B0E1EB0EF11CA6013E
:104D1000BE016F5F7F4FE9A1FAA184819581D4DC48
:104D2000D40116968D919C911797F60122813381BB
:104D3000820F931F17969C938E931697FFEF4F1A2F
:104D40005F0A6F0A7F0A24E0A20EB11CC4CF2F892C
:104D5000388D498D5A8D2F5F3F4F4F4F5F4F2F8BAF
:104D6000388F498F5A8F69CF6EE070E0C1010E9481
:104D7000D343D8011B969C938E931A97612C712C68
:104D8000812C912CA12CB12C44244394512C8214BD
:104D900093040CF050C0F7014191519161917191D0
:104DA0007F01CA01D8011A96CD90DC901B97C60CE2
:104DB000D71C57FD60C0F60151824082009791F0E8
:104DC0004FA358A769A77AA70E94ED43D60115966D
:104DD0009C938E9314974FA158A569A57AA5892B0A
:104DE00021F449C0F60115821482D60113965C9312
:104DF0004E93129714968D919C91159717969C93AC
:104E00008E93169719969C938E9318971B961C92C7
:104E10001E921A9781E090E0452B462B472B11F408
:104E200080E090E0A80EB91EBFEF8B1A9B0AEEE05F
:104E30006E0E711CACCFD8011D961C921E921C9751
:104E4000C501F3E0880F991FFA95E1F70E94ED4341
:104E5000F801918B808B892B71F0C501880F991F08
:104E60000E94ED43D8011F969C938E931E97892B29
:104E700011F080E01BC0A1016B897C898D899E891E
:104E800047DD81E013C02B8D3C8D4D8D5E8D2F5FF6
:104E90003F4F4F4F5F4F2B8F3C8F4D8F5E8F2F8D2E
:104EA00038A12C5F3F4F38A32F8F7ECEAA960FB626
:104EB000F894DEBF0FBECDBFDF91CF911F910F9150
:104EC000FF90EF90DF90CF90BF90AF909F908F902A
:104ED0007F906F905F904F903F902F9008953F92FA
:104EE0004F925F926F927F928F929F92AF92BF92FA
:104EF000CF92DF92EF92FF920F931F93CF93DF93A6
:104F0000CDB7DEB764970FB6F894DEBF0FBECDBF46
:104F10004C01FB01298B3A8B4B8B5C8B84E4829F89
:104F20008001839F100D11240054164F80819181C0
:104F3000D80113969C938E93129744815581668174
:104F4000778114964D935D936D937C93179740856D
:104F500051856285738518964D935D936D937C930F
:104F60001B9744855585668577851C964D935D9383
:104F70006D937C931F9740895189628973895C96F0
:104F80004D935D936D937C935F977F01B4E1EB0E3E
:104F9000F11C141615060CF05DC0CA01880F991F8C
:104FA000880F991F0E94ED43F80191A380A3892BDC
:104FB00009F499C0A12CB12C412C512C320130E1C3
:104FC000332EB301A2012FEF421A520A620A720A6B
:104FD000F801848D958DA68DB78D481759076A07FE
:104FE0007B0764F5D8019096CD90DC909197CA0C20
:104FF000DB1CF701DE011196832D01900D928A953D
:10500000E1F7B0E1EB0EF11CA601BE016F5F7F4F2F
:10501000F4018481958158DBD80192968D919C9101
:105020009397F60122813381820F931F93969C936D
:105030008E939297F4E0AF0EB11CC3CF82A193A1DF
:105040000E94ED43D80195969C938E939497892B5B
:1050500009F449C0F70180819181A281B381AC013B
:10506000BD014D7F21E030E0452B462B472B11F051
:1050700020E030E0F801318B208B0197A109B109C4
:1050800021E030E00297A105B10510F020E030E00A
:10509000D80153963C932E935297F70184819581C2
:1050A000A681B781F801848B958BA68BB78B8485FD
:1050B0009585A685B785B7FF10C0B095A09590954A
:1050C00081959F4FAF4FBF4F80A791A7A2A7B3A7CE
:1050D00014861586168617860DC0F80110A611A62F
:1050E00012A613A607C069897A898B899C899BDAE5
:1050F00081E001C080E064960FB6F894DEBF0FBE79
:10510000CDBFDF91CF911F910F91FF90EF90DF9076
:10511000CF90BF90AF909F908F907F906F905F9057
:105120004F903F900895CF93DF9324E4269FF001A2
:10513000279FF00D1124E255F64F1092360A15A65E
:1051400014A620E030E080E090E0C1E0D0E08417D9
:10515000950714F5A285B385A20FB31F12966D9122
:105160007C911397161617069CF414966D917C91FA
:10517000159717967C936E93169719967C936E935A
:1051800018971B961C921E921A971196DC93CE9339
:105190000196225F3F4FDBCF13A612A611AE10AED1
:1051A000DF01DE961D921D921D921C92139782E0E4
:1051B00090E0938B828BDF91CF91089524E4269F1A
:1051C000F001279FF00D1124E255F64F138A128A41
:1051D0009FCB24E4269FF001279FF00D1124E25578
:1051E000F64F8289938981309105C8F08530910509
:1051F00018F0059769F008958FEF9FEFDC01828F1B
:10520000938FA48FB58F85E090E0938B828B089568
:105210008FEF9FEFDC01828F938FA48FB58F08955E
:1052200024E4249FF001259FF00D1124E255F64F50
:105230002EE0AC01249FC001259F900D1124028413
:10524000F385E02DE80FF91F81E08093360A82850F
:10525000938591878087408551852681378181E0BC
:1052600090E04217530711F080E090E09183808333
:1052700008952F923F924F925F926F927F928F92FA
:105280009F92AF92BF92CF92DF92EF92FF920F93D5
:105290001F93CF93DF93CDB7DEB7C454D1090FB6B8
:1052A000F894DEBF0FBECDBF98AF8FAB4BA75CA706
:1052B0006DA77EA723960CAF1DAF2EAF3FAF2397F0
:1052C00084E421962EAD3FAD2197829F1001839FEC
:1052D000300C1124C1018255964F1C01DC011A9635
:1052E0000D90BC91A02D2596BFAFAEAF2597FC01C8
:1052F00082899389029709F018C186A597A5A0A96C
:10530000B1A9892B8A2B8B2B29F484E090E0938B15
:10531000828B0BC1D10184899589EFA9F8ADE8177B
:10532000F90709F002C1D6960D911C91D7971AAED4
:1053300019AE412C512C3201F10186A597A5A0A9E7
:10534000B1A9481659066A067B060CF0D0C0D101F7
:10535000D2960D90BC91A02DE9ADFAADAE0FBF1F56
:10536000BAABA9AB12962D913C9113973CAF2BAFE2
:1053700036952795369527953EAF2DAFD101D89616
:105380008D919C91D997892B09F495C09696CD90D3
:10539000DD90ED90FC90999718AB0FA7E9A9FAA9B9
:1053A0000190F081E02DFCABEBAB1EAA1DAAEDA98C
:1053B000FEA92DAD3EADE217F3070CF07CC0D10184
:1053C00092968D919C919397892B79F1EBA9FCA9E9
:1053D00080809180A280B380A7019601C501B401AD
:1053E0000E94404387FD0CC0A7019601AFA5B8A954
:1053F0006D917D918D919C910E94F64187FD7CC0BD
:10540000A7019601C501B4010E94404318166CF42F
:10541000A7019601EFA5F8A960817181828193812E
:105420000E94F641882309F467C0D10194968D91BA
:105430009C919597892B71F1EBA9FCA980809180B3
:10544000A280B380A7019601C501B4010E94F64174
:1054500087FF0CC0A7019601AFA5B8A96D917D91FA
:105460008D919C910E94404387FF46C0A701960101
:10547000C501B4010E94F64181110CC0A70196013B
:10548000EFA5F8A960817181828193810E944043D8
:10549000181694F12DA93EA92F5F3F4F3EAB2DABBF
:1054A0008FA598A9049698AB8FA7ABA9BCA9149611
:1054B000BCABABAB7CCFA9A9BAA96D917C914BAD2C
:1054C0005CADC8010E9414458DAD9EAD880F991F3B
:1054D000880F991F080F191FBFEF4B1A5B0A6B0A41
:1054E0007B0AE9ADFAAD3496FAAFE9AF25CF81E09A
:1054F00090E091AF80AF19C0F101868D978DA0A18A
:10550000B1A1892B8A2B8B2B09F03AC284E090E061
:10551000D10153969C938E935297DE968D919C91D8
:10552000DF979B969C938E939A97D10152968D917B
:105530009C9153978230910589F4DA968D919D91D3
:105540000D90BC91A02D181619061A061B060CF01A
:1055500021C2E1E0F0E0F8ABEFA705C0049709F045
:1055600019C218AA1FA68EE02FA938AD829F50013C
:10557000839FB00C112425968EAD9FAD2597A80E64
:10558000B91ED50112964D915C91139741155105A5
:1055900009F400C216968D919C9117979AA789A736
:1055A000FE01319684E1DF011D928A95E9F7239689
:1055B0008CAD9DADAEADBFAD2397898B9A8BAB8B78
:1055C000BC8BAFA5B8A9AB2B09F448C04101BEE321
:1055D0008B0E911CF401C080D180E280F380F10138
:1055E00082AD93ADA4ADB5ADC816D906EA06FB06EB
:1055F000A9F5D50114966D917C91159718960D908B
:10560000BC91A02D14960D911D912D913C91179751
:10561000C8010D8B1E8B2F8B388F08969E8B8D8B20
:10562000F50120853185280F391F31872087808536
:105630009185460F571F841B950B97FD04C0680F7B
:10564000791F71876087F1E0CF1AD108E108F1086E
:10565000D401CD92DD92ED92FC9213979E012B5EC8
:105660003F4FAE01475D5F4F64E170E0C5010E94AE
:10567000A622082F10E00115110509F06DC18CE07C
:1056800090E0A0E0B0E08D839E83AF83B8879E0159
:10569000235E3F4FAE01475D5F4F64E070E0C501A0
:1056A0000E94A622082F10E00115110509F054C12F
:1056B00080E190E0A0E0B0E08D839E83AF83B88767
:1056C0004D8D5E8DBE01655D7F4F8F8D98A10E94CF
:1056D00014458BA19CA1009761F06D8D7E8DEBE24E
:1056E000F0E0EC0FFD1F6E0F7F1F49A15AA10E9431
:1056F00014451DA21EA21FA218A62FA938AD220F65
:10570000331F3EAB2DABCDA0DEA0EFA0F8A4F1017E
:1057100084819581A681B781C816D906EA06FB0661
:105720000CF0CBC0D1011896ED91FC911997C601F0
:10573000880F991F880F991FE80FF91FA081B18169
:105740008C91882309F4AFC0833009F4ACC0028087
:10575000F381E02D2DA93EA9E20FF31F80819181F5
:105760009CAB8BAB892B09F49EC089859A85AB8550
:10577000BC850196A11DB11D89879A87AB87BC871F
:105780009E01235E3F4FAE01475D5F4F64E070E0D6
:10579000C5010E94A62290E0009709F0DCC08D812F
:1057A0009E81AF81B8850496A11DB11D8D839E8316
:1057B000AF83B8874D8D5E8DBE016B5D7F4F8F8D42
:1057C00098A10E9414458BA19CA1009761F06D8D5A
:1057D0007E8DA5E2B0E0AC0FBD1F6A0F7B1F49A113
:1057E0005AA10E9414451AAA19AA412C512C32011F
:1057F000EBA9FCA980819181A281B3814816590649
:105800006A067B060CF04FC0EBA9FCA9848095804A
:1058100029A93AA9820E931ED40112966D917C910A
:1058200013979E01235E3F4FAE01475D5F4FC50159
:105830000E94A62290E0009709F08DC0F4014281F9
:105840005381662757FD6095762F8D819E81AF81AC
:10585000B885840F951FA61FB71F8D839E83AF83C6
:10586000B887608171814D8D5E8D8F8D98A10E946A
:1058700014458BA19CA1009759F0D4016D917C91A6
:105880002D8D3E8D620F731F49A15AA10E941445B0
:10589000BFEF4B1A5B0A6B0A7B0AE9A9FAA9349697
:1058A000FAABE9ABA5CFFFEFCF1ADF0AEF0AFF0A89
:1058B000CDA2DEA2EFA2F8A626CF89859A85AB8578
:1058C000BC85892B8A2B8B2B09F446C08AE190E09A
:1058D000A0E0B0E089839A83AB83BC832FA938AD65
:1058E000C901AA2797FDA095BA2F8D879E87AF87FC
:1058F000B88B4D895E89BE016F5F7F4F8F89988D10
:105900000E9414458B8D9C8D009761F06D897E8976
:10591000A1E0B0E0AC0FBD1F6A0F7B1F498D5A8D0F
:105920000E94144589A59AA5F50197838683118263
:1059300010822FA538A9232B69F1F101FE968081F1
:105940009181A281B3810196A11DB11D80839183B4
:10595000A283B3831FC08C018FA598A9892BD1F492
:10596000012BC1F081E090E0D1019D969C938E9334
:105970009C9785E090E053969C938E9352970AC033
:1059800083E090E0F101938B828B81E090E093A71C
:1059900082A7CBCDCC5BDF4F0FB6F894DEBF0FBE36
:1059A000CDBFDF91CF911F910F91FF90EF90DF90CE
:1059B000CF90BF90AF909F908F907F906F905F90AF
:1059C0004F903F902F900895CF92DF92EF92FF92E9
:1059D0000F931F93CF93DF9324E4269FE001279F2B
:1059E000D00D1124C255D64F2A893B892115310586
:1059F00009F446C021303105A9F4CAA4DBA49601FC
:105A00002F5F3F4F3BA72AA7EE24D7FCE094FE2C44
:105A10000A8D1B8D2C8D3D8DC016D106E206F30636
:105A200079F581DB8A899B89039751F54AA55BA5A6
:105A3000CA0101969BA78AA7662757FD6095762F16
:105A40008E8D9F8DA8A1B9A1481759076A077B07BA
:105A5000BCF08EAD9FAD9BA78AA784E090E09B8BA6
:105A60008A8B8AAD9BADACADBDAD181619061A0672
:105A70001B0634F4CE5BDF4F81E090E0998388838E
:105A8000DF91CF911F910F91FF90EF90DF90CF901A
:105A9000089524E4269FF001279FF00D1124E2557C
:105AA000F64F828993890497B9F442A553A54F5FB5
:105AB0005F4F53A742A7662757FD6095762F8689CB
:105AC0009789A08DB18D481759076A077B0721F484
:105AD00085E090E0938B828B08952F923F924F92B6
