:100000003BC100000C941A240C944B240C947C24C7
:100010000C94AD240C94DE240C940F250C944025F4
:100020000C9471255AC1000058C1000056C100004F
:1000300054C100000C943A2D50C100004EC1000084
:100040004CC100004AC1000048C1000046C1000088
:1000500044C1000042C1000040C100000C94A22530
:100060003CC100000C9479290C94AF2936C10000E2
:1000700034C1000032C1000030C100002EC10000B8
:100080002CC100002AC1000028C1000026C10000C8
:100090000C941B2A0C94512A20C100001EC10000A0
:1000A0001CC100001AC1000018C1000016C10000E8
:1000B00014C1000012C1000010C100000EC10000F8
:1000C0000CC100000AC100000C949A2D0C94BD2AAA
:1000D0000C94F32A02C100000C945F2B0C94952B16
:1000E000FCC00000AA144616A916AB16A115D2151D
:1000F0006B148B144F14881677168416AB16AB1638
:10010000AB163A14BA26BF26C426CE26D8265127C7
:10011000E226EA26F226FC26062710271F27292793
:10012000512733273D2747277327762765276927D8
:100130006F27AD277A277E27842788278C27922749
:1001400096279A27AD27A027A427A82700000A0BE7
:1001500002090C0D0E080703040100000000000056
:10016000000000000000000000000000000000008F
:10017000000000000000000012111000000000004C
:10018000000000000000000000000000000000006F
:10019000000001021020200808102040102040809C
:1001A000020102010804020101020408102040803B
:1001B00080402010080402018004020180402010C9
:1001C0000804020108040201010204081020408012
:1001D00001020408102040800505050507050808F0
:1001E0000808020202020A0A0808040404040101C1
:1001F00001010101010103030303030303030407D6
:1002000007070C0C0C0C0C0C0C0C0202020206066C
:100210000606060606060B0B0B0B0B0B0B0B000062
:1002200020002300260029002C002F0032000001AE
:10023000000003010601090100002200250028003A
:100240002B002E00310034000201000005010801DE
:100250000B0100002100240027002A002D0030009F
:10026000330001010000040107010A010200D8293E
:100270007A2A1C2BBE2B382C11241FBECFEFD1E2C3
:10028000DEBFCDBF00E00CBF17E0A0E0B2E0E8ECBD
:10029000F3E700E00BBF02C007900D92A635B1074F
:1002A000D9F72CE0A6E5B7E001C01D92A638B20749
:1002B000E1F712E0C8E7D2E000E006C022970109AA
:1002C000FE010BBF0E948438CE36D10780E00807BC
:1002D000A9F70E94BB350C94E23992CECF93DF93FD
:1002E000EC0161E088810E94AE2761E08C81DF91A2
:1002F000CF910C94AE274F925F926F927F92AF9204
:10030000BF92CF92DF92EF92FF920F931F93CF9302
:10031000DF93CDB7DEB728970FB6F894DEBF0FBED8
:10032000CDBF6D837E838F83988729833A834B83E8
:100330005C8327013801F50124853585468557857D
:100340000E94F53718162CF0F50140845184628420
:10035000738420E030E040E853E4C301B2010E941E
:10036000AB3687FF0EC020E030E0A901C301B20127
:100370000E94F53787FD07C0C301B2010E941737FD
:1003800003C06FEF01C060E0F50180810E94E727A4
:10039000F50124893589468957896D817E818F8150
:1003A00098850E94F5371816FCF420E030E040E80C
:1003B00053E469817A818B819C810E94AB3687FFEF
:1003C00022C020E030E0A90169817A818B819C8183
:1003D0000E94F53787FD05C069817A818B819C81F8
:1003E00021C0F601108222C0F50140885188628840
:1003F000738820E030E040E853E4C301B2010E947A
:10040000AB3687FD04C08FEFF60180830FC020E07C
:1004100030E0A901C301B2010E94F53787FDE1CFA9
:10042000C301B2010E941737F6016083F6016081B3
:1004300070E0F501848128960FB6F894DEBF0FBEF8
:10044000CDBFDF91CF911F910F91FF90EF90DF9083
:10045000CF90BF90AF907F906F905F904F900C9433
:1004600096269F92AF92BF92CF92DF92EF92FF9229
:100470000F931F93CF93DF93982ECB01BA015901AD
:10048000E801992049F1F6012081213029F1F70195
:1004900024853585468557850E94F537181634F42E
:1004A000F701608171818281938104C068817981C3
:1004B0008A819B81F70120893189428953890E9471
:1004C0004736F501608371838283938368837983E0
:1004D0008A839B8384E08C83F6019082DF91CF91A5
:1004E0001F910F91FF90EF90DF90CF90BF90AF9052
:1004F0009F9008952F923F924F925F926F927F92BA
:100500008F929F92AF92BF92CF92DF92EF92FF9223
:100510000F931F93CF93DF93CDB7DEB7CE57D1099B
:100520000FB6F894DEBF0FBECDBF80917D0C99272A
:1005300087FD90950197029710F080E001C083E05D
:1005400080937D0C8091720C992787FD909501977F
:10055000029710F080E001C083E08093720C8091DC
:10056000730C992787FD90950197029710F080E012
:1005700001C083E08093730C2091580C3091590C8A
:100580003A8F298F2090560C3090570C00916C0CAC
:1005900010916D0CE0910C0CF0910D0CC080D1808D
:1005A000E280F380D1012D913D914D915C91C70185
:1005B000B6010E94AB3618160CF045C0F10124A11B
:1005C00035A146A157A1C701B6010E94F53787FFA3
:1005D0003DC05801AA0CBB1CAA0CBB1CA20CB31C2E
:1005E000D5012D913D914D915C91C701B6010E94BD
:1005F000AB36812C912C87FF13C0B4E08B1A910885
:10060000F501E80DF91D2481358146815781C70127
:10061000B6010E94AB3687FF1BC001501109EDCF18
:10062000E4E08E0E911CF501E80DF91D2081318169
:1006300042815381C701B6010E94F53787FD08C08A
:100640000F5F1F4FEDCF00E010E002C008E010E0A8
:1006500010936D0C00936C0C000F111F000F111FF5
:10066000F101E00FF11F20813181428153812D8FF3
:100670003E8F4F8F58A3A8014C5F5F4F5AA349A3E9
:10068000FA01E20DF31D80809180A280B380A50164
:1006900094016D8D7E8D8F8D98A10E94AB36811156
:1006A00018C02D8D3E8D4F8D58A1C701B6010E94F7
:1006B000AB36E98DFA8D87FF03C0E00FF11F04C050
:1006C00089A19AA1E80FF91F408051806280738050
:1006D00050C0E98DFA8DE00FF11F4080518062809B
:1006E0007380E98DFA8DA9A1BAA1EA0FFB1F2081C1
:1006F000318142815381298F3A8F4B8F5C8FC301A7
:10070000B2010E94AB368823A1F1A7019601C50171
:10071000B4010E9446366B017C012D8D3E8D4F8DBC
:1007200058A1C501B4010E9446369B01AC01C70126
:10073000B6010E94AF366B017C01A30192010E94B9
:10074000F9374B015C01A701960160E070E080E899
:100750009FE30E944636298D3A8D4B8D5C8D0E9419
:10076000F9379B01AC01C501B4010E9447362B014A
:100770003C01E0904A04F0904B0400914C0410912D
:100780004D04609146047091470480914804909113
:100790004904F8E2AF2EF6E0BF2EA7E6CA2EABE082
:1007A000DA2EA3019201A7DD20914E0430914F046F
:1007B0004091500450915104C301B2010E94F93795
:1007C00020915204309153044091540450915504A7
:1007D0000E94AF362091560430915704409158043E
:1007E000509159040E94F9376B017C0160930C0B06
:1007F00070930D0B80930E0B90930F0B8091160C42
:100800009091170CA091180CB091190C898F9A8FA8
:10081000AB8FBC8F20911A0C30911B0C40911C0C9B
:1008200050911D0C2D8F3E8F4F8F58A380911E0C21
:1008300090911F0CA091200CB091210C89A39AA338
:10084000ABA3BCA30AE514E0B0E12B2EBBE03B2E2A
:10085000D8016D917D918D919D918D01298D3A8D5C
:100860004B8D5C8D0E94F93720E030E0A9010E9499
:1008700047364B015C01F80120853185428553855F
:100880006D8D7E8D8F8D98A10E94F9379B01AC01F3
:10089000C501B4010E9447364B015C01D801549652
:1008A0002D913D914D915C91579769A17AA18BA1B2
:1008B0009CA10E94F9379B01AC01C501B4010E94C3
:1008C0004736F10161937193819391931F01F4E095
:1008D00006361F0709F0BCCF2091140B3091150B81
:1008E0004091160B5091170B6091AE047091AF04BC
:1008F0008091B0049091B1040E94F9379B01AC0142
:1009000060931C0B70931D0B80931E0B90931F0B19
:10091000C701B6010E9447362091B2043091B3045A
:100920004091B4045091B5040E94F9376093200BB4
:100930007093210B8093220B9093230B2091120430
:1009400030911304409114045091150460914604B1
:100950007091470480914804909149040E94F537B2
:1009600018164CF4C0904A04D0904B04E0904C040C
:10097000F0904D0408C0C0900E04D0900F04E09099
:100980001004F090110420E030E040E853E4C70187
:10099000B6010E94AB3687FF0EC020E030E0A9010F
:1009A000C701B6010E94F53787FD07C0C701B60130
:1009B0000E94173703C06FEF01C060E08091FA0317
:1009C0000E94E72720911A0430911B0440911C04D7
:1009D00050911D0460914604709147048091480431
:1009E000909149040E94F53718164CF4C090200BE2
:1009F000D090210BE090220BF090230B08C0C09008
:100A00001604D0901704E0901804F090190420E028
:100A100030E040E853E4C701B6010E94AB3687FDE1
:100A200004C08FEF80935D0B12C020E030E0A9017D
:100A3000C701B6010E94F53787FF03C010925D0B16
:100A400006C0C701B6010E94173760935D0B609125
:100A50005D0B70E08091FE030E949626E0904A04B0
:100A6000F0904B0400914C0410914D0460914604A9
:100A700070914704809148049091490450E1A52E5B
:100A800056E0B52EE6E6CE2EEBE0DE2EA301920177
:100A900032DC2091220430912304409124045091AF
:100AA0002504609146047091470480914804909118
:100AB00049040E94F53718164CF4C0904A04D090AF
:100AC0004B04E0904C04F0904D0408C0C0901E040C
:100AD000D0901F04E0902004F090210420E030E04A
:100AE00040E853E4C701B6010E94AB3687FF0EC051
:100AF00020E030E0A901C701B6010E94F53787FD6B
:100B000007C0C701B6010E94173703C06FEF01C0CD
:100B100060E0809102040E94E72720912A0430912E
:100B20002B0440912C0450912D0460914604709147
:100B3000470480914804909149040E94F5371816A3
:100B4000CCF420E030E040E853E4C301B2010E945D
:100B5000AB3687FF21C020E030E0A901C301B2011C
:100B60000E94F53787FD03C0C301B20124C0109273
:100B70005C0B25C0C0902604D0902704E090280488
:100B8000F090290420E030E040E853E4C701B601CA
:100B90000E94AB3687FD04C08FEF80935C0B0FC0C3
:100BA00020E030E0A901C701B6010E94F53787FDBA
:100BB000DECFC701B6010E94173760935C0B6091CE
:100BC0005C0B70E0809106040E9496264090220CF7
:100BD0005090230C6090240C7090250C8090260C73
:100BE0009090270CA090280CB090290C20912A0CF2
:100BF00030912B0C40912C0C50912D0C298F3A8F59
:100C00004B8F5C8F06EB14E044E2242E4BE0342E35
:100C1000D8016D917D918D919D918D01A3019201DE
:100C20000E94F93720E030E0A9010E9447366B01AD
:100C30007C01F8012085318542855385C501B401C9
:100C40000E94F9379B01AC01C701B6010E944736EB
:100C50006B017C01D80154962D913D914D915C9191
:100C60005797698D7A8D8B8D9C8D0E94F9379B01EA
:100C7000AC01C701B6010E944736F101619371933F
:100C8000819391931F01F4E0023C1F0709F68091C4
:100C9000CE050E941C2821E06C962FAF6C97909196
:100CA000E005981718F06C961FAE6C97BB24B394B0
:100CB00080916E0C6C963FAD6C97831708F0B12C49
:100CC0008091D2050E941C2841E06D964FAF6D9730
:100CD0009091E105981718F06D961FAE6D97AA24B4
:100CE000A39480916F0C6D965FAD6D97851708F09A
:100CF000A12C8091D6050E941C2891E0A6969FAF5A
:100D0000A6979091E205981718F0A6961FAEA697A1
:100D10008091DA050E941C28A1E0A796AFAFA797A3
:100D20009091E305981718F0A7961FAEA7974091EA
:100D30000A0550910B0560910C0570910D0581E835
:100D4000C82E8CE0D82E9AEFE92E95E0F92E09E70F
:100D50001CE022E63BE08A2D84DB40910A0550919D
:100D60000B0560910C0570910D052EE7C22E2CE04D
:100D7000D22E34EEE32E35E0F32E04E71CE02EE510
:100D80003BE08B2D6EDB20912E0C30912F0C40918F
:100D9000300C5091310C298F3A8F4B8F5C8F8091A2
:100DA000320C9091330CA091340CB091350C8D8F96
:100DB0009E8FAF8FB8A32091360C3091370C4091A5
:100DC000380C5091390C29A33AA34BA35CA3809112
:100DD0003A0C90913B0CA0913C0CB0913D0C89AB2E
:100DE0009AABABABBCAB20911E0530911F05409177
:100DF000200550912105698D7A8D8B8D9C8D0E94E7
:100E0000F9376B017C0120912E0530912F0540911F
:100E10003005509131056D8D7E8D8F8D98A10E948A
:100E2000F9379B01AC01C701B6010E9447366B013F
:100E30007C0120913E0530913F0540914005509145
:100E4000410569A17AA18BA19CA10E94F9379B0160
:100E5000AC01C701B6010E9447366B017C012091AD
:100E60004E0530914F05409150055091510569A9AB
:100E70007AA98BA99CA90E94F9379B01AC01C701F3
:100E8000B6010E944736AB966CAF7DAF8EAF9FAF79
:100E9000AB976093300B7093310B8093320B909330
:100EA000330B209122053091230540912405509168
:100EB0002505698D7A8D8B8D9C8D0E94F9376B018C
:100EC0007C012091320530913305409134055091D9
:100ED00035056D8D7E8D8F8D98A10E94F9379B0110
:100EE000AC01C701B6010E9447366B017C0120911D
:100EF000420530914305409144055091450569A153
:100F00007AA18BA19CA10E94F9379B01AC01C7017A
:100F1000B6010E9447366B017C0120915205309149
:100F20005305409154055091550569A97AA98BA99B
:100F30009CA90E94F9379B01AC01C701B6010E9430
:100F40004736AF966CAF7DAF8EAF9FAFAF976093D4
:100F5000340B7093350B8093360B9093370B2091A5
:100F60002605309127054091280550912905698D66
:100F70007A8D8B8D9C8D0E94F9376B017C012091BD
:100F800036053091370540913805509139056D8D02
:100F90007E8D8F8D98A10E94F9379B01AC01C7010E
:100FA000B6010E9447366B017C01209146053091C5
:100FB0004705409148055091490569A17AA18BA147
:100FC0009CA10E94F9379B01AC01C701B6010E94A8
:100FD00047366B017C0120915605309157054091B1
:100FE00058055091590569A97AA98BA99CA90E9415
:100FF000F9379B01AC01C701B6010E944736E39661
:101000006CAF7DAF8EAF9FAFE3976093380B70935B
:10101000390B80933A0B90933B0B20912A0530912A
:101020002B0540912C0550912D05698D7A8D8B8D66
:101030009C8D0E94F9376B017C0120913A0530911B
:101040003B0540913C0550913D056D8D7E8D8F8D0A
:1010500098A10E94F9379B01AC01C701B6010E941B
:1010600047366B017C0120914A0530914B05409138
:101070004C0550914D0569A17AA18BA19CA10E94BC
:10108000F9379B01AC01C701B6010E9447366B01DD
:101090007C0120915A0530915B0540915C0550918F
:1010A0005D0569A97AA98BA99CA90E94F9379B01C2
:1010B000AC01C701B6010E944736E7966CAF7DAF21
:1010C0008EAF9FAFE79760933C0B70933D0B80937F
:1010D0003E0B90933F0B20913E0C30913F0C409182
:1010E000400C5091410C2DA33EA34FA358A78091D3
:1010F000420C9091430CA091440CB091450C89A7EF
:101100009AA7ABA7BCA72091460C3091470C409101
:10111000480C5091490C2DA73EA74FA758AB809182
:101120004A0C90914B0CA0914C0CB0914D0C8DAB96
:101130009EABAFABB8AF20916E0530916F0540917B
:101140007005509171056DA17EA18FA198A50E9497
:10115000F9376B017C0120917E0530917F0540912C
:1011600080055091810569A57AA58BA59CA50E9453
:10117000F9379B01AC01C701B6010E9447366B01EC
:101180007C0120918E0530918F0540919005509102
:1011900091056DA57EA58FA598A90E94F9379B01A1
:1011A000AC01C701B6010E9447366B017C0120915A
:1011B0009E0530919F054091A0055091A1056DA914
:1011C0007EA98FA998AD0E94F9379B01AC01C70198
:1011D000B6010E94473669AF7AAF8BAF9CAF609380
:1011E000400B7093410B8093420B9093430B2091E3
:1011F00072053091730540917405509175056DA18C
:101200007EA18FA198A50E94F9376B017C012091E6
:10121000820530918305409184055091850569A52B
:101220007AA58BA59CA50E94F9379B01AC01C7014B
:10123000B6010E9447366B017C01209192053091E6
:10124000930540919405509195056DA57EA58FA5B8
:1012500098A90E94F9379B01AC01C701B6010E9411
:1012600047366B017C012091A2053091A305409186
:10127000A4055091A5056DA97EA98FA998AD0E94DE
:10128000F9379B01AC01C701B6010E944736219690
:101290006CAF7DAF8EAF9FAF21976093440B70937F
:1012A000450B8093460B9093470B20917605309128
:1012B000770540917805509179056DA17EA18FA1A8
:1012C00098A50E94F9376B017C0120918605309129
:1012D0008705409188055091890569A57AA58BA558
:1012E0009CA50E94F9379B01AC01C701B6010E9481
:1012F00047366B017C01209196053091970540910E
:101300009805509199056DA57EA58FA598A90E9475
:10131000F9379B01AC01C701B6010E9447366B014A
:101320007C012091A6053091A7054091A805509118
:10133000A9056DA97EA98FA998AD0E94F9379B01D7
:10134000AC01C701B6010E94473625966CAF7DAF50
:101350008EAF9FAF25976093480B7093490B809396
:101360004A0B90934B0B20917A0530917B0540916D
:101370007C0550917D056DA17EA18FA198A50E944D
:10138000F9376B017C0120918A0530918B054091E2
:101390008C0550918D0569A57AA58BA59CA50E9409
:1013A000F9379B01AC01C701B6010E9447366B01BA
:1013B0007C0120919A0530919B0540919C055091AC
:1013C0009D056DA57EA58FA598A90E94F9379B0163
:1013D000AC01C701B6010E9447366B017C01209128
:1013E000AA053091AB054091AC055091AD056DA9B2
:1013F0007EA98FA998AD0E94F9379B01AC01C70166
:10140000B6010E94473629966CAF7DAF8EAF9FAF75
:10141000299760934C0B70934D0B80934E0B9093D8
:101420004F0B20E030E0A9016091AE057091AF054F
:101430008091B0059091B1050E94F9372091B205D5
:101440003091B3054091B4055091B5050E94AF3677
:101450006093500B7093510B8093520B9093530BEE
:101460006093540B7093550B8093560B9093570BCE
:101470002091B6053091B7054091B8055091B90556
:101480000E94F9372091BA053091BB054091BC0507
:101490005091BD050E94AF362091BE053091BF0529
:1014A0004091C0055091C1050E94F53718164CF4C3
:1014B00060914204709143048091440490914504EA
:1014C00008C060913E0470913F0480914004909167
:1014D000410420914E0C30914F0C4091500C509192
:1014E000510C0E9447366B017C012091C60530915A
:1014F000C7054091C8055091C9050E94F5371816D7
:1015000044F0C0903604D0903704E0903804F09056
:1015100039042091CA053091CB054091CC055091FA
:10152000CD05C701B6010E94F53718168CF48091DD
:101530003A0490913B04A0913C04B0913D04809307
:10154000580B9093590BA0935A0BB0935B0B08C0A8
:10155000C092580BD092590BE0925A0BF0925B0B51
:1015600020911E0C30911F0C4091200C5091210CA9
:10157000A1962CAF3DAF4EAF5FAFA19780911A0CF3
:1015800090911B0CA0911C0CB0911D0CA5968CAFDA
:101590009DAFAEAFBFAFA5972091160C3091170C41
:1015A0004091180C5091190CEF962CAF3DAF4EAFF7
:1015B0005FAFEF97AE01435F5F4F1A018EEE93E08E
:1015C0002D969FAF8EAF2D97A2EEB3E02F96BFAFB3
:1015D000AEAF2F97E6EDF3E06196FFAFEEAF619708
:1015E00026EA33E063963FAF2EAF639742EB53E0BA
:1015F00065965FAF4EAF65978EEB93E02B969FAFEE
:101600008EAF2B97AAECB3E06996BFAFAEAF6997E8
:1016100000E010E06996EEADFFAD699761917191C0
:10162000819191916996FFAFEEAF69972B96AEAD20
:10163000BFAD2B978D909D90AD90BD902B96BFAF79
:10164000AEAF2B976596EEADFFAD6597419051908B
:10165000619071906596FFAFEEAF65976396AEAD02
:10166000BFAD63972D913D914D915D916396BFAF55
:10167000AEAF6397EB962CAF3DAF4EAF5FAFEB973E
:1016800029AD3AAD4BAD5CAD0E94F9376B017C01E1
:10169000A1962CAD3DAD4EAD5FADA197C501B40196
:1016A0000E94F9374B015C01A5962CAD3DAD4EADC6
:1016B0005FADA597C301B2010E94F9372B013C0130
:1016C000EF962CAD3DAD4EAD5FADEF97EB966CADAB
:1016D0007DAD8EAD9FADEB970E94F9379B01AC01BC
:1016E000C301B2010E9447369B01AC01C501B401A0
:1016F0000E9447369B01AC01C701B6010E944736E4
:101700006B017C016196EEADFFAD619761917191C6
:10171000819191916196FFAFEEAF619721962CADCB
:101720003DAD4EAD5FAD21970E94F9379B01AC01F5
:10173000C701B6010E9447366B017C012F96AEAD02
:10174000BFAD2F976D917D918D919D912F96BFAFDC
:10175000AEAF2F9725962CAD3DAD4EAD5FAD259725
:101760000E94F9379B01AC01C701B6010E944736C0
:101770006B017C012D96EEADFFAD2D9761917191BE
:10178000819191912D96FFAFEEAF2D9729962CADBB
:101790003DAD4EAD5FAD29970E94F9379B01AC017D
:1017A000C701B6010E944736D1016D937D938D9399
:1017B0009D931D010F5F1F4F0330110509F02ACFC4
:1017C00020912A0C30912B0C40912C0C50912D0C17
:1017D00067962CAF3DAF4EAF5FAF67978091260CF9
:1017E0009091270CA091280CB091290C6B968CAF8E
:1017F0009DAFAEAFBFAF6B972091220C3091230C01
:101800004091240C5091250CA5962CAF3DAF4EAFC6
:101810005FAFA59746E15CE063965FAF4EAF63971D
:10182000CE0101969AAF89AFAEEEB3E0BEAFADAFD9
:10183000E2EEF3E02396FFAFEEAF239726ED33E021
:1018400027963FAF2EAF279746EA53E02B965FAF20
:101850004EAF2B9782EB93E02D969FAF8EAF2D97D7
:10186000AEEBB3E02F96BFAFAEAF2F97EAECF3E04D
:101870006196FFAFEEAF61979E01235F3F4F190165
:1018800000E010E0F10181919191A191B1911F01CE
:101890006396EEADFFAD639781939193A193B1935E
:1018A0006396FFAFEEAF63976196AEADBFAD619744
:1018B0006D917D918D919D916196BFAFAEAF619716
:1018C0002F96EEADFFAD2F9781909190A190B190A2
:1018D0002F96FFAFEEAF2F972D96AEADBFAD2D97E4
:1018E0004D905D906D907D902D96BFAFAEAF2D97D2
:1018F0002B96AEADBFAD2B972D913D914D915D9146
:101900002B96BFAFAEAF2B97A1962CAF3DAF4EAF8E
:101910005FAFA197AB962CAD3DAD4EAD5FADAB9734
:101920000E94F9376B017C0167962CAD3DAD4EAD41
:101930005FAD6797C501B4010E94F9374B015C01A7
:101940006B962CAD3DAD4EAD5FAD6B97C301B20153
:101950000E94F9372B013C01A5962CAD3DAD4EAD53
:101960005FADA597A1966CAD7DAD8EAD9FADA197F6
:101970000E94F9379B01AC01C301B2010E944736B6
:101980009B01AC01C501B4010E9447369B01AC012B
:10199000C701B6010E9447366B017C012796EEAD68
:1019A000FFAD279761917191819191912796FFAF3A
:1019B000EEAF2797AF962CAD3DAD4EAD5FADAF9777
:1019C0000E94F9379B01AC01C701B6010E9447365E
:1019D0006B017C012396AEADBFAD23976D917D91D8
:1019E0008D919D912396BFAFAEAF2397E3962CAD1B
:1019F0003DAD4EAD5FADE3970E94F9379B01AC0161
:101A0000C701B6010E9447366B017C01EDADFEAD0A
:101A10006191719181919191FEAFEDAFE7962CADFF
:101A20003DAD4EAD5FADE7970E94F9379B01AC012C
:101A3000C701B6010E944736A9ADBAAD6D937D933B
:101A40008D939D93BAAFA9AF0F5F1F4F0330110560
:101A500009F018CF89819A81AB81BC818093220CD7
:101A60009093230CA093240CB093250C8D819E8120
:101A7000AF81B8858093260C9093270CA093280CF7
:101A8000B093290C89859A85AB85BC8580932A0CF7
:101A900090932B0CA0932C0CB0932D0C6C96BFAD97
:101AA0006C97B0936E0C6D96EFAD6D97E0936F0CE5
:101AB000A696FFADA697F093700CA7962FADA797AB
:101AC0002093710CC0905E0BD0905F0BE090600B88
:101AD000F090610B20910E0530910F05409110059B
:101AE00050911105698D7A8D8B8D9C8D0E94F937EF
:101AF0004B015C01209112053091130540911405B2
:101B0000509115056D8D7E8D8F8D98A10E94F937AE
:101B10009B01AC01C501B4010E9447364B015C0139
:101B2000209116053091170540911805509119051F
:101B300069A17AA18BA19CA10E94F9379B01AC01FC
:101B4000C501B4010E9447364B015C0120911A0582
:101B500030911B0540911C0550911D0569A97AA97A
:101B60008BA99CA90E94F9379B01AC01C501B40166
:101B70000E9447369B01AC01C701B6010E9447365F
:101B800029A13AA14BA15CA120933A0C30933B0CC4
:101B900040933C0C50933D0C2D8D3E8D4F8D58A1A4
:101BA0002093360C3093370C4093380C5093390CFB
:101BB000298D3A8D4B8D5C8D2093320C3093330CF4
:101BC0004093340C5093350C60932E0C70932F0C73
:101BD0008093300C9093310CC090620BD090630BCB
:101BE000E090640BF090650B20915E0530915F05ED
:101BF00040916005509161056DA17EA18FA198A5CE
:101C00000E94F9374B015C01209162053091630518
:101C1000409164055091650569A57AA58BA59CA5A1
:101C20000E94F9379B01AC01C501B4010E944736FF
:101C30004B015C0120916605309167054091680574
:101C4000509169056DA57EA58FA598A90E94F937C9
:101C50009B01AC01C501B4010E9447364B015C01F8
:101C600020916A0530916B0540916C0550916D058E
:101C70006DA97EA98FA998AD0E94F9379B01AC018F
:101C8000C501B4010E9447369B01AC01C701B601F2
:101C90000E9447362DA53EA54FA558A920934A0C72
:101CA00030934B0C40934C0C50934D0C29A53AA506
:101CB0004BA55CA52093460C3093470C4093480CF1
:101CC0005093490C2DA13EA14FA158A52093420C41
:101CD0003093430C4093440C5093450C60933E0C5E
:101CE00070933F0C8093400C9093410C8091520C68
:101CF0009091530CA091540CB091550C80934E0CC4
:101D000090934F0CA093500CB093510C8091580BB2
:101D10009091590BA0915A0BB0915B0B8093520C90
:101D20009093530CA093540CB093550C82E090E028
:101D30000E948323E0910C0CF0910D0C40815181A5
:101D40006281738180E090E00E947F236091010CAA
:101D50007091020C8091030C9091040C0E94433707
:101D60002AE037ED43E25CE30E94F937AB01BC01A6
:101D700081E090E00E947F238090050C9090060CFB
:101D8000A090070CB090080C20E030E040E85FEB3A
:101D9000C501B4010E94AB3600910C0C10910D0CE2
:101DA000882319F1D801CD90DD90ED90FC90A7012A
:101DB0009601C501B4010E9446364B015C0120E04A
:101DC00030E040E054E3C701B6010E94F9379B01BF
:101DD000AC01C501B4010E94F537181634F085E452
:101DE00096E09093690B8093680B80910B0C88238D
:101DF00031F085E496E09093690B8093680B6091D5
:101E0000F90B7091FA0B8091FB0B9091FC0B6F5FBB
:101E10007F4F8F4F9F4F6093F90B7093FA0B809316
:101E2000FB0B9093FC0B0E9443372091FD0B3091EC
:101E3000FE0B4091FF0B5091000C0E94F937F80106
:101E400060837183828393838091010C9091020C53
:101E5000A091030CB091040C0196A11DB11D8093BB
:101E6000010C9093020CA093030CB093040CC25885
:101E7000DF4F0FB6F894DEBF0FBECDBFDF91CF911D
:101E80001F910F91FF90EF90DF90CF90BF90AF9098
:101E90009F908F907F906F905F904F903F902F908A
:101EA0000895CF92DF92EF92FF920F931F93CF93FB
:101EB000DF93E8E6FBE08EEADF011D928A95E9F701
:101EC00089E09CE090936F0B80936E0BACE0BCE0DC
:101ED000B093A90BA093A80BCDEFDBE0D0937D0BC3
:101EE000C0937C0BF093D30BE093D20BF0936D0B6C
:101EF000E0936C0B21E030E0FC013183208389E525
:101F000096E09093730B8093720B2EE03CE02D9340
:101F10003C9380E090E0A0E2B1E48093050C9093C4
:101F2000060CA093070CB093080C8AE097EDA3E28F
:101F3000BCE388839983AA83BB83E7EEFBE08CEC48
:101F40009EEBA3E6BCEF80839183A283B38386E7F5
:101F50009CECAFE8B8EF8093EB0B9093EC0BA09365
:101F6000ED0BB093EE0B8EEB91E1A2E4B4E4809321
:101F7000EF0B9093F00BA093F10BB093F20B83E572
:101F80009CEAABE3B8EE8093F30B9093F40BA09331
:101F9000F50BB093F60BCEE8D7E0D0936B0BC09364
:101FA0006A0BA8E6B7E0B983A88387ED96E08D9326
:101FB0009C9390936B0780936A0790936D0780932F
:101FC0006C0790936F0780936E07909371078093CF
:101FD00070079093730780937207909375078093AF
:101FE000740790937707809376079093790780938F
:101FF00078074DE75CE050937B0740937A07509356
:102000007D0740937C0742E75CE050937F07409355
:102010007E0743E75CE0509381074093800748E7E1
:102020005CE0509383074093820750938507409369
:1020300084079093870780938607909389078093FE
:10204000880790938B0780938A0790938D078093DE
:102050008C0747EF5BE05093930740939207F09310
:102060009107E093900730939507209394078CE5B0
:10207000ECE0FBE0DF011D928A95E9F7C6E1DCE0C8
:1020800088E6FE0111928A95E9F7E6E5F7E082E13C
:10209000DF011D928A95E9F7DA01ED93FC938EE05A
:1020A00090E0918380838EE693E09093590780932C
:1020B000580782E593E090935B0780935A0786ED7B
:1020C00092E090935D0780935C078AE592E090939D
:1020D0005F0780935E0782E392E09093570C8093B2
:1020E000560C8AE092E09093590C8093580C88E249
:1020F00096E00E946E0161E08091FA030E94AE2793
:1021000061E08091FE030E94AE2780E196E00E948C
:102110006E0161E0809102040E94AE2761E080912F
:1021200006040E94AE2760E08091CE050E94AE2793
:1021300060E08091D2050E94AE2760E08091D605D4
:102140000E94AE2760E08091DA050E94AE27809160
:10215000FE059091FF05A0910006B09101068093C5
:10216000620B9093630BA093640BB093650B80910B
:10217000E8059091E905A091EA05B091EB058093FF
:102180005E0B90935F0BA093600BB093610B81E0AB
:102190008093800C80937F0C80937E0C8093810CC5
:1021A00080919A0390919B03A0919C03B0919D0311
:1021B00088839983AA83BB838093220C9093230CFA
:1021C000A093240CB093250C80919E0390919F03C3
:1021D000A091A003B091A10380931A0C90931B0CC3
:1021E000A0931C0CB0931D0C8093260C9093270C8D
:1021F000A093280CB093290C8091A2039091A30383
:10220000A091A403B091A50380931E0C90931F0C82
:10221000A093200CB093210C80932A0C90932B0C4C
:10222000A0932C0CB0932D0C80910A0480936E0C1B
:1022300080910B0480936F0C80910C048093700C40
:1022400080910D048093710C809102069091030699
:10225000A0910406B09105068093790C90937A0CB6
:10226000A0937B0CB0937C0C8091EC059091ED05D4
:10227000A091EE05B091EF058093740C9093750CCE
:10228000A093760CB093770CC0908A03D0908B0308
:10229000E0908C03F0908D03C0922E0CD0922F0C06
:1022A000E092300CF092310C00918E0310918F036C
:1022B00020919003309191030093320C1093330CD2
:1022C0002093340C3093350C40919203509193033A
:1022D00060919403709195034093360C5093370CA2
:1022E0006093380C7093390C80919603909197030A
:1022F000A0919803B091990380933A0C90933B0C72
:10230000A0933C0CB0933D0CC0923E0CD0923F0C7D
:10231000E092400CF092410C0093420C1093430C5D
:102320002093440C3093450C4093460C5093470C3B
:102330006093480C7093490C80934A0C90934B0C1B
:10234000A0934C0CB0934D0C8091C2059091C305A5
:10235000A091C405B091C50580934E0C90934F0C8D
:10236000A093500CB093510C8093520C9093530C4B
:10237000A093540CB093550CDF91CF911F910F9106
:10238000FF90EF90DF90CF9008950895CF93DF9363
:10239000CDB7DEB72A970FB6F894DEBF0FBECDBF1C
:1023A000AC01CB0160E070E049835A836B837C838E
:1023B000AA2797FDA095BA2F8D839E83AF83B887F8
:1023C0009E01275F3F4FAE014F5F5F4F68E070E0B7
:1023D00080919F079091A0070E94C634811108C088
:1023E00081E029853A852830310519F480E001C063
:1023F00081E02A960FB6F894DEBF0FBECDBFDF9105
:10240000CF9108950F931F93CF93DF931F921F9245
:10241000CDB7DEB78B019E012F5F3F4FAC0180919E
:102420009F079091A0070E94C634811108C081E0E7
:1024300029813A812017310719F480E001C081E039
:102440000F900F90DF91CF911F910F910895CF932F
:10245000DF93EC011092A3071092A207AC0160E099
:1024600070E0CB010E94931DAE0161E070E080E05E
:1024700090E00E94931D80919F079091A007DF91AB
:10248000CF910C941535EF92FF920F931F93CF933A
:10249000DF931F921F92CDB7DEB78C0180919D070D
:1024A00090919E0780179107B4F580919B079091BA
:1024B0009C07009731F00E943A3910929E071092C3
:1024C0009D07C8010E94A23890939C0780939B07A8
:1024D000892B19F4E12CF12C18C010939E0700935E
:1024E0009D0719C02AE937E0AE014F5F5F4F61E0F9
:1024F00070E080919F079091A0070E94073481119E
:1025000007C089819A81E80EF91EE016F10654F39E
:1025100080E090E01FC0E12CF12C20919B073091CE
:102520009C07E016F106ACF42E0D3F1DAE014F5F87
:102530005F4FB8016E197F0980919F079091A007A6
:102540000E9407348111E4CF89819A81E80EF91E37
:10255000E4CFC9010F900F90DF91CF911F910F91A0
:10256000FF90EF9008950F931F93CF93DF93EB01AC
:102570008A010CDF81110AC00115110539F0BE0175
:10258000C801DF91CF911F910F913CCFDF91CF9187
:102590001F910F910895CF92DF92EF92FF92CF9308
:1025A000DF93CDB7DEB728970FB6F894DEBF0FBE26
:1025B000CDBF6B01E12CF12CC982DA82EB82FC8267
:1025C0002D833E834F835887AE014F5F5F4F68E096
:1025D00070E0C9DF28960FB6F894DEBF0FBECDBFFE
:1025E000DF91CF91FF90EF90DF90CF9008950F9300
:1025F0001F93CF93DF93EC018B010E9403349093E0
:10260000A00780939F07009741F0A801BE010E9498
:102610008833EC01009719F40CC0CAEDD6E0809124
:102620009F079091A0070E9406341092A007109275
:102630009F07CE01DF91CF911F910F910895809157
:102640009F079091A0070C9400346F927F928F9215
:102650009F92AF92BF92CF92DF92EF92FF920F9331
:102660001F93CF93DF9300D000D0CDB7DEB76B01BF
:102670007C014A018091A307882309F441C0940199
:10268000B701A601CE0101960E94222289819A817A
:1026900018161906ACF5A12CB12C00E010E08981C8
:1026A0009A81081719075CF76B807C806A0C7B1C89
:1026B000F3016081718182819381A4DE81111EC04A
:1026C000F30164817581161617062CF486819781B3
:1026D00099DE811113C0C801880F991FED81FE8119
:1026E000E80FF91FB701A601808191810E94C51DE5
:1026F0000F5F1F4FF8E0AF0EB11CD1CFC401A7DEB2
:1027000026960FB6F894DEBF0FBECDBFDF91CF91F6
:102710001F910F91FF90EF90DF90CF90BF90AF90FF
:102720009F908F907F906F900895CF93DF93EC01EF
:10273000AC0160E070E0CB0188DFAE0161E070E0E9
:1027400080E090E0DF91CF9180CFCF9380919F0781
:102750009091A0070E946433C82F811109C060E0E6
:1027600070E0CB0166D561E070E080E090E061D57B
:102770008C2FCF9108950F931F9389019A01AB017C
:10278000BC0180919F079091A0070E9414351F9172
:102790000F9108954F925F926F927F928F929F92C6
:1027A000AF92BF92CF92DF92EF92FF920F931F935F
:1027B000CF93DF93CDB7DEB766970FB6F894DEBF41
:1027C0000FBECDBF4C015B018A018091A307882316
:1027D00069F08091A307882309F4BDC21A82198287
:1027E000E12CF12C78E0C72ED12C14C063EA77E0FD
:1027F00080919F079091A0070E9466338111ABC220
:10280000E8CFE20EF31EE114F104D9F088E0E816F7
:10281000F104BCF429E030E02C0F3D1F2E0D3F1DCC
:10282000AE014F5F5F4FB6016E197F0980919F0720
:102830009091A0070E94073429813A81882309F3E7
:1028400088C2121613060CF086C28091A20781116D
:1028500004C019861A861B861C8689859A85AB85D5
:10286000BC858031910508F076C2FC01EE58FF4F1F
:102870000C947E38D4011696ED91FC9117978081C7
:102880009181A281B38189839A83AB83BC83AE019A
:102890004F5F5F4F64E070E085E190E06CC18D8533
:1028A0009E85F1DD009731F42FEF3FEFA90161E044
:1028B00070E00EC0FC01C080D180E280F380A501F1
:1028C000C701B6010E94481DA701960160E070E0B3
:1028D0008DE190E03CC28D859E85D5DD009721F489
:1028E0002FEF3FEFA9010FC0DC01CD90DD90ED90FF
:1028F000FD90AD0197018601B501C401B0D5A701D6
:102900009601882319F061E070E002C060E070E099
:102910008BE190E01CC28D859E85B5DD009721F48A
:102920002FEF3FEFA9010EC0FC01C190D190E190C3
:10293000F190BF01A7019601C40186D7A7019601B6
:10294000882319F061E070E002C060E070E08CE183
:1029500090E0FDC1D4011496ED91FC911597E080B3
:10296000F180F70102811381A080B18060E1462EE1
:10297000512C612C712C49825A826B827C8288E0B6
:1029800090E0A0E0B0E08D839E83AF83B8879E0186
:102990002F5E3F4FAE014F5F5F4F68E070E0809168
:1029A0009F079091A0070E94C634882319F0E12C5C
:1029B000F12CAEC089899A890897C9F7D701CD90C3
:1029C000DC90B8E0CB0ED11CCC0CDD1CCC0CDD1C9B
:1029D000C6010E94A2387C01009749F349825A82BD
:1029E0006B827C82C601AA2797FDA095BA2F8D83A2
:1029F0009E83AF83B8879E012F5E3F4FAE014F5F2E
:102A00005F4F68E070E080919F079091A0070E945F
:102A1000C63481117DC089899A89089709F078C0E8
:102A2000D4011296ED91FC911397408151816281FE
:102A30007381D7014D935D936D937C93139744817C
:102A400055816681778114964D935D936D937C9348
:102A50001797408551856285738518964D935D93D0
:102A60006D937C931B9784859585A685B785F70123
:102A700084879587A687B787108A118A128A138A56
:102A800084E090E0A0E0B0E0848B958BA68BB78BC0
:102A90008091420690914306A0E0B0E0808F918F34
:102AA000A28FB38FC501AA2797FDA095BA2F848F57
:102AB000958FA68FB78FB801A701405E5F4F20E0CA
:102AC00030E02A153B057CF4DB018D919D91BD0121
:102AD000A0E0B0E0FA0181939193A193B193AF018B
:102AE0002F5F3F4FEECF9E012F5E3F4FA701B601F4
:102AF00080919F079091A0070E94C634811108C061
:102B000089899A898C159D0519F481E08093A20723
:102B1000C70166960FB6F894DEBF0FBECDBFDF913A
:102B2000CF911F910F91FF90EF90DF90CF90BF90CA
:102B3000AF909F908F907F906F905F904F900C948C
:102B40003A398D859E85AF85B8890097A105B10575
:102B500029F199DC009789F481E090E0A0E0B0E0F1
:102B600089839A83AB83BC83AE014F5F5F4F64E080
:102B700070E082E190E0F7DCEEC0BC01C401ACD2B1
:102B800019821A821B821C82AE014F5F5F4F64E084
:102B900070E082E190E0E7DC8111DDC081E08093AC
:102BA000A107D9C0D4011496ED91FC91159701901D
:102BB000F081E02D008511850115110509F460C033
:102BC000D801ED90FC90C280D38020E030E060E03E
:102BD00070E080E090E08E159F050CF5F801A28171
:102BE000B381A20FB31F1296ED91FC911397EE0FD4
:102BF000FF1FEC0DFD1D0190F081E02D16960D904C
:102C0000BC91A02DEA9FA001EB9F500DFA9F500DA3
:102C10001124640F751F0196285F3F4FDCCF83E1BD
:102C200090E0B4DB811197C0812C912CA12CB12CA8
:102C3000AE14BF040CF08FC0D8011296ED91FC9138
:102C40001397E80DF91DA281B381AA0FBB1FAC0D2C
:102C5000BD1D2D913C9186819781289FB001299FB0
:102C6000700D389F700D112480819181CBDBB8E00D
:102C70008B0E911C81116FC0EFEFAE1ABE0AD8CF38
:102C800060E070E083E190E081DB65C040E050E00F
:102C900060E070E081E190E066DC81115CC0C12CF5
:102CA000D12C7601C701B601C1D380912C088823AD
:102CB00021F0A501C701B601C8DCA501C701B60115
:102CC000DCD2FFEFCF1ADF0AEF0AFF0A82E0C81654
:102CD000D104E104F10431F71092A3071092A20786
:102CE00080919F079091A0070E94713334C081E0CA
:102CF00090E090932E0880932D0840E050E060E033
:102D000070E086E190E037CF81E0D8018C9323C05A
:102D10008D859E85B8DB009731F42FEF3FEFA90139
:102D200061E070E012C0FC01208131814281538159
:102D3000CA01B9012B8B3C8B4D8B5E8BFFD62B8947
:102D40003C894D895E8960E070E08EE190E023DC93
:102D500002C0C5017CDB66960FB6F894DEBF0FBEDD
:102D6000CDBFDF91CF911F910F91FF90EF90DF903A
:102D7000CF90BF90AF909F908F907F906F905F901B
:102D80004F900895CF92DF92EF92FF92CF93DF930F
:102D9000EC01C12CD12C7601C701B60147D3AE019D
:102DA000C701B60152DCAE01C701B60166D28091FF
:102DB0009B0790919C07009731F00E943A3910923E
:102DC0009C0710929B078FEFC81AD80AE80AF80AE6
:102DD00082E0C816D104E104F104F1F68091A20763
:102DE000882359F040E050E060E070E084E190E03A
:102DF000BADBC82F1092A20701C0C0E08091A307E0
:102E0000882341F01092A30721E030E0309343067D
:102E10002093420680919F079091A0070E947433EF
:102E200080919F079091A0070E9406348C2FDF911C
:102E3000CF91FF90EF90DF90CF900895CF93DF93E5
:102E4000EC01AC0160E070E0CB010E949921AE0181
:102E500061E070E080E090E0DF91CF910C949921E7
:102E600060E070E0CB010E94FE2161E070E080E054
:102E700090E00C94FE21CF92DF92EF92FF920F939D
:102E80001F93CF93DF93EC016A017B0100E010E018
:102E90009801A4D601E010E020E030E0B701A601DF
:102EA000CE019CD6DF91CF911F910F91FF90EF90B3
:102EB000DF90CF900895EF92FF920F931F93CF93DF
:102EC000DF93DC01EA01F90114968D919C9115972D
:102ED00012960D911C911397080F191F28813981A3
:102EE00018964D915C9119974217530728F04D9110
:102EF0005C911197452B59F17801E21AF30A189663
:102F00004D915C911997481B590B4E0D5F1D46174B
:102F10005707B4F1A901460F571F4017510700F199
:102F2000F182E082338322836E197F097583648383
:102F3000161617061CF030E020E002C0382F292FAB
:102F400036832783680F791F7983688317C01896A3
:102F50008D919C911997821B930B8617970784F08C
:102F600071836083338322831582148217821682D1
:102F700088819981860F971F9983888380E001C09B
:102F800081E0DF91CF911F910F91FF90EF90089515
:102F9000CF93DF9324E4269FE001279FD00D1124D7
:102FA000CC55D84F8AA99BA9009721F00E943A39A5
:102FB0001BAA1AAA8EA99FA9009711F00E943A395C
:102FC0001B8A1A8A1E8A1F8A188E198E1A8E1B8EC9
:102FD0001C8E1D8E1E8E1F8E18A219A281E090E0FD
:102FE0009BA38AA31DA21CA21EA21FA218A619A6FB
:102FF0001BA61AA61DA61CA61EA61FA618AA19AABD
:103000001BAA1AAA1DAA1CAA1FAA1EAA19AE18AE8C
:103010001AAE1BAE1CAE1DAEFE01FE9610821182D2
:1030200012821382CE5BDF4F19821882DF91CF911B
:103030000895CF93DF93FB01DC01CD91DC91AE814C
:10304000BF818081918123E0880F991F2A95E1F744
:1030500012960D90BC91A02DA80FB91F6D917C9177
:10306000119784859585880F991F0A80DB81C02D73
:10307000C80FD91F0990D881C02D14968D919C91AD
:103080001597892B19F082E090E002C081E090E072
:103090008C9F90018D9F300D9C9F300D1124808559
:1030A0009185289FD001299FB00D389FB00D112424
:1030B0000480F581E02D2E9FC0012F9F900D3E9F33
:1030C000900D1124860F971FFA0191838083B3839B
:1030D000A283DF91CF9108952F923F924F925F92FA
:1030E0006F927F928F929F92AF92BF92CF92DF9218
:1030F000EF92FF920F931F93CF93DF9300D000D0F6
:10310000CDB7DEB7DC011496ED91FC9115970190D7
:10311000F081E02D808591859A838983A281B38196
:10312000BC83AB83DB018D909D90AD90BD90C12C95
:10313000D12C7601C814D904EA04FB040CF060C059
:1031400014964D905D906D907C90179718964D91C8
:103150005D916D917C911B97FD017096FE83ED83CF
:103160008D919C91119763E0880F991F6A95E1F703
:10317000E981FA8122813381280F391FF9012080EA
:1031800031801C96ED91FC911D97EE0FFF1F8B81F6
:103190009C81E80FF91F0190F081E02DD901149670
:1031A0008D919C911597892B19F082E090E002C0D7
:1031B00081E090E08E9F90018F9F300D9E9F300D9B
:1031C0001124249F8001259F100D349F100D112480
:1031D000249DC001259D900D349D900D1124A801C2
:1031E0006D817E81820D931D0E94C939AD81BE81A2
:1031F000A00FB11FEFEFCE1ADE0AEE0AFE0A9ACF39
:1032000026960FB6F894DEBF0FBECDBFDF91CF91EB
:103210001F910F91FF90EF90DF90CF90BF90AF90F4
:103220009F908F907F906F905F904F903F902F90E6
:103230000895CF93DF9324E4269FF001279FF00D9C
:103240001124EC55F84FDB01A05CB94F3C913323BE
:1032500029F0EF0119922A95E9F71C921482158240
:10326000168217821186108613861286118A108A9A
:1032700017861686DF91CF918BCE2F923F924F9279
:103280005F926F927F928F929F92AF92BF92CF92F6
:10329000DF92EF92FF920F931F93CF93DF9300D0B3
:1032A0001F92CDB7DEB76B017C011A0184E48C9DBF
:1032B00090018D9D300D11242C55384F3C832B836C
:1032C000F90184819581A681B781892B8A2B8B2B6B
:1032D00009F495C0A12CB12C412C512C3201AB81A9
:1032E000BC8114964D915D916D917C9117971896C4
:1032F0008D919C91199744165506660677068CF5B4
:10330000FC01EA0DFB1D32812381032F122F812C3A
:10331000912C82149304C4F4D801ED91FC91309760
:1033200069F0848195812A8339830E943A39F801B2
:10333000808191810E943A3939812A81FFEF8F1A69
:103340009F0A0E5F1F4FE5CF832F922F0E943A39BD
:103350002FEF421A520A620A720A34E0A30EB11C1D
:10336000BECF0E943A39EB81FC8182859385892BFF
:10337000E1F0A12CB12C00E010E0AB81BC811A96E9
:103380008D919C911B97021513056CF4FC01EA0DBD
:10339000FB1D848195810E943A390F5F1F4FFEE02B
:1033A000AF0EB11CEACF0E943A39EB81FC818089D3
:1033B00091890E943A39AB81BC811E968D919C9176
:1033C0001F970E943A39C701B601E2DDC701B60175
:1033D0000F900F900F900F90DF91CF911F910F9151
:1033E000FF90EF90DF90CF90BF90AF909F908F9025
:1033F0007F906F905F904F903F902F901ACF0F90DB
:103400000F900F900F90DF91CF911F910F91FF9030
:10341000EF90DF90CF90BF90AF909F908F907F9074
:103420006F905F904F903F902F90089524E4269FD7
:10343000F001279FF00D1124EC55F84F82899389F4
:103440000497029758F485E090E0938B828B8FEF7E
:103450009FEFDC01828F938FA48FB58F08952F92F9
:103460003F924F925F926F927F928F929F92AF9214
:10347000BF92CF92DF92EF92FF920F931F93CF9361
:10348000DF93CDB7DEB7AA970FB6F894DEBF0FBEB5
:10349000CDBF9AA389A31B016A010B8B1C8B2D8BBB
:1034A0003E8B84E42B893C89829F8001839F100D91
:1034B00011240C55184F2B893C894D895E89D80100
:1034C0002D933D934D935C931397AB016B897C894E
:1034D0008D899E89D2DEF601419151916191719160
:1034E0007F01CA01D80114964D935D936D937C932F
:1034F000179764E070E00E948838F8019187808710
:10350000892B09F46DC118A21F8E1B8E1C8E1D8E77
:103510001E8EF80184819581A681B7812B8D3C8D0B
:103520004D8D5E8D281739074A075B070CF0D1C017
:10353000D80118960D90BC91A02D2F8D38A1A20F07
:10354000B31FBA8BA98BD7018D919C91880F991FBE
:10355000A9A1BAA1ED91FC91E80FF91F8081918199
:10356000E989FA8991838083D70114962D913D9141
:103570004D915C9117972BA33CA34DA35EA3B8E09C
:10358000EB0EF11C62E070E0C1010E948838E9890D
:10359000FA8993838283892B09F422C11F8A188EAA
:1035A000198E1A8E2F89388D498D5A8D8BA19CA129
:1035B000ADA1BEA1281739074A075B070CF018C157
:1035C000D701CD90DC90CC0CDD1CE989FA89A28072
:1035D000B380AC0CBD1C68E070E081E090E00E941C
:1035E0008838D5018D939C93A989BA891296ED915B
:1035F000FC911397EC0DFD1D808091808114910446
:1036000009F4EEC0F7014481558166817781CA01D2
:10361000D4014D935D936D937C931397B8E0EB0EBB
:10362000F11C64E070E00E948838F4019583848383
:10363000892B09F4D5C0A12CB12C412C512C32017D
:10364000F40180819181A281B381481659066A06EE
:103650007B0694F5D4011496CD90DC901597CA0C96
:10366000DB1CF701DE01119680E101900D928A9535
:10367000E1F7B0E1EB0EF11CA601BE016F5F7F4FD9
:10368000E9A1FAA184819581D4DCD40116968D91AB
:103690009C911797F60122813381820F931F179611
:1036A0009C938E931697FFEF4F1A5F0A6F0A7F0A5B
:1036B00024E0A20EB11CC4CF2F89388D498D5A8DBC
:1036C0002F5F3F4F4F4F5F4F2F8B388F498F5A8F50
:1036D00069CF6EE070E0C1010E948838D8011B9666
:1036E0009C938E931A97612C712C812C912CA12C78
:1036F000B12C44244394512C821493040CF050C0F8
:10370000F70141915191619171917F01CA01D801F5
:103710001A96CD90DC901B97C60CD71C57FD60C045
:10372000F60151824082009791F04FA358A769A7F4
:103730007AA70E94A238D60115969C938E9314976F
:103740004FA158A569A57AA5892B21F449C0F60196
:1037500015821482D60113965C934E931297149699
:103760008D919C91159717969C938E931697199609
:103770009C938E9318971B961C921E921A9781E029
:1037800090E0452B462B472B11F480E090E0A80EEB
:10379000B91EBFEF8B1A9B0AEEE06E0E711CACCF08
:1037A000D8011D961C921E921C97C501F3E0880F4C
:1037B000991FFA95E1F70E94A238F801918B808B4E
:1037C000892B71F0C501880F991F0E94A238D8017A
:1037D0001F969C938E931E97892B11F080E01BC03F
:1037E000A1016B897C898D899E8947DD81E013C0A9
:1037F0002B8D3C8D4D8D5E8D2F5F3F4F4F4F5F4F1B
:103800002B8F3C8F4D8F5E8F2F8D38A12C5F3F4FBC
:1038100038A32F8F7ECEAA960FB6F894DEBF0FBEC8
:10382000CDBFDF91CF911F910F91FF90EF90DF906F
:10383000CF90BF90AF909F908F907F906F905F9050
:103840004F903F902F9008953F924F925F926F92CA
:103850007F928F929F92AF92BF92CF92DF92EF9220
:10386000FF920F931F93CF93DF93CDB7DEB764978B
:103870000FB6F894DEBF0FBECDBF4C01FB01298B04
:103880003A8B4B8B5C8B84E4829F8001839F100D6D
:1038900011240A54184F80819181D80113969C936A
:1038A0008E931297448155816681778114964D934A
:1038B0005D936D937C9317974085518562857385E1
:1038C00018964D935D936D937C931B974485558516
:1038D000668577851C964D935D936D937C931F97BA
:1038E00040895189628973895C964D935D936D938C
:1038F0007C935F977F01B4E1EB0EF11C1416150663
:103900000CF05DC0CA01880F991F880F991F0E9493
:10391000A238F80191A380A3892B09F499C0A12CA6
:10392000B12C412C512C320130E1332EB301A201D4
:103930002FEF421A520A620A720AF801848D958D9D
:10394000A68DB78D481759076A077B0764F5D8011C
:103950009096CD90DC909197CA0CDB1CF701DE01AC
:103960001196832D01900D928A95E1F7B0E1EB0E4F
:10397000F11CA601BE016F5F7F4FF4018481958128
:1039800058DBD80192968D919C919397F6012281F4
:103990003381820F931F93969C938E939297F4E0BA
:1039A000AF0EB11CC3CF82A193A10E94A238D8014F
:1039B00095969C938E939497892B09F449C0F701AF
:1039C00080819181A281B381AC01BD014D7F21E055
:1039D00030E0452B462B472B11F020E030E0F8017A
:1039E000318B208B0197A109B10921E030E00297CA
:1039F000A105B10510F020E030E0D80153963C93CA
:103A00002E935297F70184819581A681B781F801A1
:103A1000848B958BA68BB78B84859585A685B7857A
:103A2000B7FF10C0B095A095909581959F4FAF4F6F
:103A3000BF4F80A791A7A2A7B3A7148615861686A5
:103A400017860DC0F80110A611A612A613A607C06E
:103A500069897A898B899C899BDA81E001C080E041
:103A600064960FB6F894DEBF0FBECDBFDF91CF9145
:103A70001F910F91FF90EF90DF90CF90BF90AF908C
:103A80009F908F907F906F905F904F903F900895A0
:103A9000CF93DF9324E4269FF001279FF00D11249C
:103AA000EC55F84F10922C0815A614A620E030E033
:103AB00080E090E0C1E0D0E08417950714F5A2857E
:103AC000B385A20FB31F12966D917C9113971616B2
:103AD00017069CF414966D917C91159717967C931C
:103AE0006E93169719967C936E9318971B961C925B
:103AF0001E921A971196DC93CE930196225F3F4F48
:103B0000DBCF13A612A611AE10AEDF01DE961D921A
:103B10001D921D921C92139782E090E0938B828BF2
:103B2000DF91CF91089524E4269FF001279FF00DA7
:103B30001124EC55F84F138A128A9FCB24E4269F58
:103B4000F001279FF00D1124EC55F84F82899389DD
:103B500081309105C8F08530910518F0059769F01E
:103B600008958FEF9FEFDC01828F938FA48FB58F25
:103B700085E090E0938B828B08958FEF9FEFDC01BF
:103B8000828F938FA48FB58F089524E4249FF00132
:103B9000259FF00D1124EC55F84F2EE0AC01249F29
:103BA000C001259F900D11240284F385E02DE80FBC
:103BB000F91F81E080932C08828593859187808707
:103BC000408551852681378181E090E04217530777
:103BD00011F080E090E09183808308952F923F92CE
:103BE0004F925F926F927F928F929F92AF92BF920D
:103BF000CF92DF92EF92FF920F931F93CF93DF93B9
:103C0000CDB7DEB7C454D1090FB6F894DEBF0FBEEE
:103C1000CDBF98AF8FAB4BA75CA76DA77EA72396B0
:103C20000CAF1DAF2EAF3FAF239784E421962EAD8E
:103C30003FAD2197829F1001839F300C1124C10159
:103C40008C55984F1C01DC011A960D90BC91A02D4B
:103C50002596BFAFAEAF2597FC0182899389029765
:103C600009F018C186A597A5A0A9B1A9892B8A2B0F
:103C70008B2B29F484E090E0938B828B0BC1D101D4
:103C800084899589EFA9F8ADE817F90709F002C111
:103C9000D6960D911C91D7971AAE19AE412C512C86
:103CA0003201F10186A597A5A0A9B1A94816590628
:103CB0006A067B060CF0D0C0D101D2960D90BC9163
:103CC000A02DE9ADFAADAE0FBF1FBAABA9AB1296EE
:103CD0002D913C9113973CAF2BAF36952795369598
:103CE00027953EAF2DAFD101D8968D919C91D99754
:103CF000892B09F495C09696CD90DD90ED90FC90BF
:103D0000999718AB0FA7E9A9FAA90190F081E02DC6
:103D1000FCABEBAB1EAA1DAAEDA9FEA92DAD3EADD5
:103D2000E217F3070CF07CC0D10192968D919C9123
:103D30009397892B79F1EBA9FCA980809180A280CF
:103D4000B380A7019601C501B4010E94F53787FD34
:103D50000CC0A7019601AFA5B8A96D917D918D9179
:103D60009C910E94AB3687FD7CC0A7019601C501DE
:103D7000B4010E94F53718166CF4A7019601EFA55F
:103D8000F8A960817181828193810E94AB3688237A
:103D900009F467C0D10194968D919C919597892BD8
:103DA00071F1EBA9FCA980809180A280B380A7016A
:103DB0009601C501B4010E94AB3687FF0CC0A70174
:103DC0009601AFA5B8A96D917D918D919C910E94AE
:103DD000F53787FF46C0A7019601C501B4010E94CF
:103DE000AB3681110CC0A7019601EFA5F8A960813F
:103DF0007181828193810E94F537181694F12DA963
:103E00003EA92F5F3F4F3EAB2DAB8FA598A90496DF
:103E100098AB8FA7ABA9BCA91496BCABABAB7CCFBE
:103E2000A9A9BAA96D917C914BAD5CADC8010E9466
:103E3000C9398DAD9EAD880F991F880F991F080F46
:103E4000191FBFEF4B1A5B0A6B0A7B0AE9ADFAAD8B
:103E50003496FAAFE9AF25CF81E090E091AF80AF23
:103E600019C0F101868D978DA0A1B1A1892B8A2B54
:103E70008B2B09F03AC284E090E0D10153969C93D9
:103E80008E935297DE968D919C91DF979B969C9393
:103E90008E939A97D10152968D919C91539782302F
:103EA000910589F4DA968D919D910D90BC91A02D8C
:103EB000181619061A061B060CF021C2E1E0F0E004
:103EC000F8ABEFA705C0049709F019C218AA1FA6FE
:103ED0008EE02FA938AD829F5001839FB00C112432
:103EE00025968EAD9FAD2597A80EB91ED5011296C9
:103EF0004D915C9113974115510509F400C2169636
:103F00008D919C9117979AA789A7FE01319684E11C
:103F1000DF011D928A95E9F723968CAD9DADAEAD7C
:103F2000BFAD2397898B9A8BAB8BBC8BAFA5B8A900
:103F3000AB2B09F448C04101BEE38B0E911CF40188
:103F4000C080D180E280F380F10182AD93ADA4AD59
:103F5000B5ADC816D906EA06FB06A9F5D501149633
:103F60006D917C91159718960D90BC91A02D14968B
:103F70000D911D912D913C911797C8010D8B1E8BB2
:103F80002F8B388F08969E8B8D8BF5012085318580
:103F9000280F391F3187208780859185460F571F4D
:103FA000841B950B97FD04C0680F791F718760878C
:103FB000F1E0CF1AD108E108F108D401CD92DD92E9
:103FC000ED92FC9213979E012B5E3F4FAE01475D31
:103FD0005F4F64E170E0C5010E945B17082F10E09D
:103FE0000115110509F06DC18CE090E0A0E0B0E092
:103FF0008D839E83AF83B8879E01235E3F4FAE01C2
:10400000475D5F4F64E070E0C5010E945B17082FB9
:1040100010E00115110509F054C180E190E0A0E025
:10402000B0E08D839E83AF83B8874D8D5E8DBE01DA
:10403000655D7F4F8F8D98A10E94C9398BA19CA18E
:10404000009761F06D8D7E8DEBE2F0E0EC0FFD1FCF
:104050006E0F7F1F49A15AA10E94C9391DA21EA23D
:104060001FA218A62FA938AD220F331F3EAB2DABD0
:10407000CDA0DEA0EFA0F8A4F10184819581A681F6
:10408000B781C816D906EA06FB060CF0CBC0D101F1
:104090001896ED91FC911997C601880F991F880F0A
:1040A000991FE80FF91FA081B1818C91882309F431
:1040B000AFC0833009F4ACC00280F381E02D2DA99C
:1040C0003EA9E20FF31F808191819CAB8BAB892BC2
:1040D00009F49EC089859A85AB85BC850196A11D92
:1040E000B11D89879A87AB87BC879E01235E3F4FAE
:1040F000AE01475D5F4F64E070E0C5010E945B1751
:1041000090E0009709F0DCC08D819E81AF81B88579
:104110000496A11DB11D8D839E83AF83B8874D8DFD
:104120005E8DBE016B5D7F4F8F8D98A10E94C93956
:104130008BA19CA1009761F06D8D7E8DA5E2B0E012
:10414000AC0FBD1F6A0F7B1F49A15AA10E94C9393C
:104150001AAA19AA412C512C3201EBA9FCA9808181
:104160009181A281B381481659066A067B060CF03C
:104170004FC0EBA9FCA98480958029A93AA9820E99
:10418000931ED40112966D917C9113979E01235E2C
:104190003F4FAE01475D5F4FC5010E945B1790E046
:1041A000009709F08DC0F40142815381662757FDC5
:1041B0006095762F8D819E81AF81B885840F951F84
:1041C000A61FB71F8D839E83AF83B88760817181DF
:1041D0004D8D5E8D8F8D98A10E94C9398BA19CA1B8
:1041E000009759F0D4016D917C912D8D3E8D620F19
:1041F000731F49A15AA10E94C939BFEF4B1A5B0A2C
:104200006B0A7B0AE9A9FAA93496FAABE9ABA5CF08
:10421000FFEFCF1ADF0AEF0AFF0ACDA2DEA2EFA25C
:10422000F8A626CF89859A85AB85BC85892B8A2BF4
:104230008B2B09F446C08AE190E0A0E0B0E08983CE
:104240009A83AB83BC832FA938ADC901AA2797FDF8
:10425000A095BA2F8D879E87AF87B88B4D895E89D1
:10426000BE016F5F7F4F8F89988D0E94C9398B8DFA
:104270009C8D009761F06D897E89A1E0B0E0AC0F64
:10428000BD1F6A0F7B1F498D5A8D0E94C93989A5B0
:104290009AA5F50197838683118210822FA538A9EC
:1042A000232B69F1F101FE9680819181A281B38176
:1042B0000196A11DB11D80839183A283B3831FC08A
:1042C0008C018FA598A9892BD1F4012BC1F081E035
:1042D00090E0D1019D969C938E939C9785E090E011
:1042E00053969C938E9352970AC083E090E0F1011D
:1042F000938B828B81E090E093A782A7CBCDCC5BA0
:10430000DF4F0FB6F894DEBF0FBECDBFDF91CF9168
:104310001F910F91FF90EF90DF90CF90BF90AF90E3
:104320009F908F907F906F905F904F903F902F90D5
:104330000895CF92DF92EF92FF920F931F93CF9346
:10434000DF9324E4269FE001279FD00D1124CC5554
:10435000D84F2A893B892115310509F446C02130FF
:104360003105A9F4CAA4DBA496012F5F3F4F3BA7F8
:104370002AA7EE24D7FCE094FE2C0A8D1B8D2C8DF1
:104380003D8DC016D106E206F30679F581DB8A89F8
:104390009B89039751F54AA55BA5CA0101969BA786
:1043A0008AA7662757FD6095762F8E8D9F8DA8A1D1
:1043B000B9A1481759076A077B07BCF08EAD9FADBE
:1043C0009BA78AA784E090E09B8B8A8B8AAD9BADEC
:1043D000ACADBDAD181619061A061B0634F4CE5B3B
:1043E000DF4F81E090E099838883DF91CF911F9127
:1043F0000F91FF90EF90DF90CF90089524E4269FD7
:10440000F001279FF00D1124EC55F84F8289938914
:104410000497B9F442A553A54F5F5F4F53A742A736
:10442000662757FD6095762F86899789A08DB18D77
:10443000481759076A077B0721F485E090E0938BC2
:10444000828B08952F923F924F925F926F927F924C
:104450008F929F92AF92BF92CF92DF92EF92FF9294
:104460000F931F93CF93DF9300D01F92CDB7DEB78A
:1044700049835A836B837C83490124E4249F800110
:10448000259F100D11240C55184FD80152966D9090
:104490007C9053979301245031092230310508F064
:1044A000BCC01D961C921E921C97FC0111821082AA
:1044B00013821282A12CB12C20E030E0281539059E
:1044C0000CF067C0D8011A962D903C901B972A0CCF
:1044D0003B1CF10140815181452B09F054C060859E
:1044E000718542805380468157811C96ED90FC90E7
:1044F0001D976701F3E0CC0CDD1CFA95E1F75096AF
:10450000ED91FC915197EC0DFD1D6701CC0CDD1C6C
:104510001E96ED90FC901F97EC0CFD1CD7012D937F
:104520003C93D8011C96ED90FC901D97BFEFEB1AC1
:10453000FB0AD8011D96FC92EE921C97738362834E
:10454000D1011B965C934E931A976417750748F434
:10455000461B570B518340831582148217821682A3
:1045600012C0D1011496CD90DC9015977601E40C21
:10457000F51CE61AF70AF182E0824C195D095583B1
:104580004483D782C6822F5F3F4FBEE0AB0EB11C83
:1045900095CFF80124853585DC0111963C932E9347
:1045A0004089518913965C934E931297468557859F
:1045B00015965C934E931497232BD1F5B5E06B16AB
:1045C0007104B1F510922C08828D938DA48DB58D58
:1045D000AE014F5F5F4F64E070E08F3F9F4FAF4F82
:1045E000BF4F59F480E290E00E94B31269817A8152
:1045F0008B819C81A40197DA1BC08FE190E00E941F
:10460000B312D8019B961C921E929A9781E090E07B
:1046100053969C938E9352970BC0F801158614867F
:10462000DC0111961C921E9213961C921E921297F8
:104630000F900F900F900F90DF91CF911F910F91DE
:10464000FF90EF90DF90CF90BF90AF909F908F90B2
:104650007F906F905F904F903F902F900895EF92D2
:10466000FF920F931F93CF93DF937C018B01EA019D
:104670000E941F13811121C0809142069091430630
:10468000049711F183E090E09093430680934206F3
:104690001BC088818111F0CF28ED38EB45E050E058
:1046A00060E070E0CB010E94BB13AE01B801C7010E
:1046B0000E94CA13C8010E94951380912D08909101
:1046C0002E08892B31F3D8CFDF91CF911F910F9115
:1046D000FF90EF900895CF93DF93EB012091420676
:1046E000309143062430310539F00E94CA13CE01BF
:1046F000DF91CF910C949513DF91CF9108950C9495
:104700003B170C9430170C941E170C94A5130C94A3
:10471000C216089560E070E080E090E00C94F7121B
:104720000895AF92BF92CF92DF92EF92FF920F93D4
:104730001F93CF93DF931F921F92CDB7DEB75C011B
:1047400069017A018B0180E090E0C114D104E10499
:10475000F104F1F0C114D10421E0E206F10410F4F7
:10476000A60102C04FEF5FEF9E012F5F3F4FB801E0
:10477000C5010E9420358F3F2FEF920749F0298114
:104780003A81C21AD30AE108F108020F131FDDCFE4
:104790000F900F90DF91CF911F910F91FF90EF90AD
:1047A000DF90CF90BF90AF900895AF92BF92CF921D
:1047B000DF92EF92FF920F931F93CF93DF931F929D
:1047C0001F92CDB7DEB75C0169017A018B0180E0F1
:1047D00090E0C114D104E104F104F1F0C114D1045A
:1047E00021E0E206F10410F4A60102C04FEF5FEFF2
:1047F0009E012F5F3F4FB801C5010E945E358F3F7C
:104800002FEF920749F029813A81C21AD30AE108B1
:10481000F108020F131FDDCF0F900F90DF91CF91A2
:104820001F910F91FF90EF90DF90CF90BF90AF90CE
:10483000089508951F920F920FB60F9211240BB690
:104840000F922F933F934F935F936F937F938F9329
:104850009F93AF93BF93EF93FF9380913308909111
:104860003408892B29F0E0913308F0913408199528
:10487000FF91EF91BF91AF919F918F917F916F9138
:104880005F914F913F912F910F900BBE0F900FBEF4
:104890000F901F9018951F920F920FB60F92112430
:1048A0000BB60F922F933F934F935F936F937F932A
:1048B0008F939F93AF93BF93EF93FF9380913508AE
:1048C00090913608892B29F0E0913508F09136084F
:1048D0001995FF91EF91BF91AF919F918F917F912A
:1048E0006F915F914F913F912F910F900BBE0F9061
:1048F0000FBE0F901F9018951F920F920FB60F9238
:1049000011240BB60F922F933F934F935F936F93A6
:104910007F938F939F93AF93BF93EF93FF93809178
:10492000370890913808892B29F0E0913708F091E9
:1049300038081995FF91EF91BF91AF919F918F9199
:104940007F916F915F914F913F912F910F900BBE8F
:104950000F900FBE0F901F9018951F920F920FB6D9
:104960000F9211240BB60F922F933F934F935F93A7
:104970006F937F938F939F93AF93BF93EF93FF9327
:104980008091390890913A08892B29F0E0913908F3
:10499000F0913A081995FF91EF91BF91AF919F91D6
:1049A0008F917F916F915F914F913F912F910F90D8
:1049B0000BBE0F900FBE0F901F9018951F920F9275
:1049C0000FB60F9211240BB60F922F933F934F9374
:1049D0005F936F937F938F939F93AF93BF93EF9367
:1049E000FF9380912F0890913008892B29F0E09156
:1049F0002F08F09130081995FF91EF91BF91AF9179
:104A00009F918F917F916F915F914F913F912F91E6
:104A10000F900BBE0F900FBE0F901F9018951F9216
:104A20000F920FB60F9211240BB60F922F933F9354
:104A30004F935F936F937F938F939F93AF93BF93A6
:104A4000EF93FF938091310890913208892B29F0E0
:104A5000E0913108F09132081995FF91EF91BF91E3
:104A6000AF919F918F917F916F915F914F913F9106
:104A70002F910F900BBE0F900FBE0F901F901895A7
:104A80001F920F920FB60F9211240BB60F922F9315
:104A90003F934F935F936F937F938F939F93AF93C6
:104AA000BF93EF93FF9380913B0890913C08892B33
:104AB00029F0E0913B08F0913C081995FF91EF91A6
:104AC000BF91AF919F918F917F916F915F914F9126
:104AD0003F912F910F900BBE0F900FBE0F901F9024
:104AE00018951F920F920FB60F9211240BB60F92CA
:104AF0002F933F934F935F936F937F938F939F93E6
:104B0000AF93BF93EF93FF9380913D0890913E0840
:104B1000892B29F0E0913D08F0913E081995FF910D
:104B2000EF91BF91AF919F918F917F916F915F9125
:104B30004F913F912F910F900BBE0F900FBE0F9092
:104B40001F9018951F920F920FB60F9211242F935A
:104B50003F938F939F93AF93BF9380914008909121
:104B60004108A0914208B091430830913F0823E0EA
:104B7000230F2D3720F40196A11DB11D05C026E895
:104B8000230F0296A11DB11D20933F08809340087A
:104B900090934108A0934208B09343088091440841
:104BA00090914508A0914608B09147080196A11D33
:104BB000B11D8093440890934508A0934608B09394
:104BC0004708BF91AF919F918F913F912F910F9087
:104BD0000FBE0F901F9018953FB7F894809144082E
:104BE00090914508A0914608B091470826B5A89B2A
:104BF00005C02F3F19F00196A11DB11D3FBF6627CB
:104C0000782F892F9A2F620F711D811D911D42E00F
:104C1000660F771F881F991F4A95D1F70895CF9285
:104C2000DF92EF92FF92CF93DF936B017C01D4DF91
:104C3000EB01C114D104E104F10479F0FADDCCDF19
:104C40006C1B7D0B683E7340A0F381E0C81AD1084D
:104C5000E108F108C851DC4FECCFDF91CF91FF9014
:104C6000EF90DF90CF900895789484B5826084BDF2
:104C700084B5816084BD85B5826085BD85B5816060
:104C800085BDEEE6F0E0808181608083E1E8F0E0C0
:104C90001082808182608083808181608083E0E8EF
:104CA000F0E0808181608083E1EBF0E080818460CE
:104CB0008083E0EBF0E0808181608083E1E9F0E0D7
:104CC000808182608083808181608083E0E9F0E080
:104CD000808181608083E1EAF0E08081826080836E
:104CE000808181608083E0EAF0E080818160808360
:104CF000E1E2F1E080818260808380818160808355
:104D0000E0E2F1E0808181608083EAE7F0E0808189
:104D100084608083808182608083808181608083E1
:104D20008081806880831092C10008951F93CF9383
:104D3000DF93182FEB0161E011D1209711F460E0AF
:104D400004C0CF3FD10531F461E0812FDF91CF91D5
:104D50001F913DC1E12FF0E0E45BFE4F449150E034
:104D6000FA013197E231F10508F09BC0EE57FF4F91
:104D70000C947E3884B5806884BDC7BD97C084B567
:104D8000806284BDC8BD92C080918000806880939D
:104D90008000D0938900C093880088C080918000F3
:104DA000806280938000D0938B00C0938A007EC085
:104DB00080918000886080938000D0938D00C093A4
:104DC0008C0074C08091B00080688093B000C09364
:104DD000B3006CC08091B00080628093B000C0933B
:104DE000B40064C080919000806880939000D0935C
:104DF0009900C09398005AC080919000806280937F
:104E00009000D0939B00C0939A0050C08091900076
:104E1000886080939000D0939D00C0939C0046C012
:104E20008091A00080688093A0008091A0008F7B7B
:104E30008093A000D093A900C093A80037C08091B0
:104E4000A00080628093A000D093AB00C093AA0022
:104E50002DC08091A00088608093A000D093AD0009
:104E6000C093AC0023C08091200180688093200112
:104E7000D0932901C093280119C08091200180623C
:104E800080932001D0932B01C0932A010FC0809101
:104E90002001886080932001D0932D01C0932C01C4
:104EA00005C0C038D1050CF04FCF49CFDF91CF916D
:104EB0001F91089590E0FC013197E231F10508F06F
:104EC0004CC0EC56FF4F0C947E38809180008F7759
:104ED00003C0809180008F7D809380000895809131
:104EE0008000877FF9CF84B58F7702C084B58F7D2E
:104EF00084BD08958091B0008F7703C08091B00089
:104F00008F7D8093B0000895809190008F7707C0C7
:104F1000809190008F7D03C080919000877F809367
:104F2000900008958091A0008F7707C08091A00025
:104F30008F7D03C08091A000877F8093A00008959B
:104F4000809120018F7707C0809120018F7D03C061
:104F500080912001877F809320010895CF93DF9374
:104F600090E0FC01EE56FE4F2491FC01E852FE4F0A
:104F70008491882349F190E0880F991FFC01EE5A33
:104F8000FD4FA591B491885C9D4FFC01C591D491D2
:104F90009FB7611108C0F8948C91209582238C935F
:104FA000888182230AC0623051F4F8948C91322FA8
:104FB000309583238C938881822B888304C0F89456
:104FC0008C91822B8C939FBFDF91CF9108950F938B
:104FD0001F93CF93DF931F92CDB7DEB7282F30E01A
:104FE000F901E45BFE4F8491F901EE56FE4F1491F6
:104FF000F901E852FE4F04910023C1F0882319F013
:10500000698358DF6981E02FF0E0EE0FFF1FE85C55
:10501000FD4FA591B4919FB7F8948C91611103C095
:105020001095812301C0812B8C939FBF0F90DF913E
:10503000CF911F910F910895CF93DF93282F30E0E8
:10504000F901E45BFE4F8491F901EE56FE4FD491D5
:10505000F901E852FE4FC491CC2389F081112ADF77
:10506000EC2FF0E0EE0FFF1FE25EFD4FA591B49133
:105070002C912D2381E090E021F480E002C080E0BB
:1050800090E0DF91CF910895FC01818D228D90E019
:10509000805C9F4F821B91098F7399270895FC01B3
:1050A000918D828D981731F0828DE80FF11D858DDD
:1050B00090E008958FEF9FEF0895FC01918D828D10
:1050C000981761F0828DDF01A80FB11D5D968C915C
:1050D000928D9F5F9F73928F90E008958FEF9FEF67
:1050E0000895FC01848DDF01A80FB11DA35ABF4FA5
:1050F0002C91848D90E001968F739927848FA689D7
:10510000B7892C93A089B1898C9180648C93938DFD
:10511000848D981306C00288F389E02D80818F7DED
:1051200080830895CF93DF93EC01888D8823C1F0AD
:10513000EA89FB89808185FD05C0A889B9898C91A0
:1051400086FD0EC00FB607FCF5CF808185FFF2CF3C
:10515000A889B9898C9185FFEDCFCE01C2DFE8CF58
:10516000DF91CF910895CF92DF92FF920F931F931B
:10517000CF93DF931F92CDB7DEB76C01DC015B9656
:105180009C915B975C968C915C97981307C05096A6
:10519000ED91FC915197808185FD31C0F601038D21
:1051A00010E00F5F1F4F0F731127F02EF601848D53
:1051B000F81210C00FB607FCF9CFD6015096ED914A
:1051C000FC915197808185FFF1CFC601698389DF0A
:1051D0006981ECCF838DE80FF11DE35AFF4F6083A7
:1051E000D6015B960C935B975296ED91FC91539789
:1051F00080818062808381E058968C930DC0D601B7
:105200005696ED91FC91579760835096ED91FC91E5
:10521000519780818064808381E090E00F90DF91DE
:10522000CF911F910F91FF90DF90CF900895BF9283
:10523000CF92DF92EF92FF92CF93DF93EC016A015E
:105240007B01B22EE889F98982E08083411581EEE5
:10525000580761057105A1F060E079E08DE390E009
:10526000A70196010E945C3821503109410951097A
:105270005695479537952795211580E1380798F081
:10528000E889F989108260E874E88EE190E0A7016E
:1052900096010E945C382150310941095109569507
:1052A000479537952795EC85FD853083EE85FF85FD
:1052B0002083188EEC89FD89B082EA89FB89808180
:1052C00080618083EA89FB89808188608083EA89A4
:1052D000FB89808180688083EA89FB8980818F7D5A
:1052E0008083DF91CF91FF90EF90DF90CF90BF90C0
:1052F00008951F920F920FB60F9211240BB60F92C2
:105300002F938F939F93EF93FF93E0915808F09121
:1053100059088081E0915E08F0915F0882FD12C01B
:105320009081809161088F5F8F732091620882174E
:1053300051F0E0916108F0E0E85BF74F958F8093C2
:10534000610801C08081FF91EF919F918F912F9112
:105350000F900BBE0F900FBE0F901F9018951F92CD
:105360000F920FB60F9211240BB60F922F933F930B
:105370004F935F936F937F938F939F93AF93BF935D
:10538000EF93FF9388E498E0ACDEFF91EF91BF913B
:10539000AF919F918F917F916F915F914F913F91CD
:1053A0002F910F900BBE0F900FBE0F901F9018956E
:1053B00010924B0810924A0888EE93E0A0E0B0E00B
:1053C00080934C0890934D08A0934E08B0934F08DB
:1053D00089E197E0909349088093480885EC90E034
:1053E000909355088093540884EC90E0909357086C
:1053F0008093560880EC90E0909359088093580869
:1054000081EC90E090935B0880935A0882EC90E0E6
:1054100090935D0880935C0886EC90E090935F0821
:1054200080935E08109261081092620810926308DF
:105430001092640808951F920F920FB60F921124D4
:105440000BB60F922F938F939F93EF93FF93E0915F
:10545000F508F091F6088081E091FB08F091FC08D6
:1054600082FD12C090818091FE088F5F8F73209122
:10547000FF08821751F0E091FE08F0E0EB51F74F82
:10548000958F8093FE0801C08081FF91EF919F91DD
:105490008F912F910F900BBE0F900FBE0F901F900A
:1054A00018951F920F920FB60F9211240BB60F9200
:1054B0002F933F934F935F936F937F938F939F931C
:1054C000AF93BF93EF93FF9385EE98E00ADEFF91D1
:1054D000EF91BF91AF919F918F917F916F915F916C
:1054E0004F913F912F910F900BBE0F900FBE0F90D9
:1054F0001F9018951092E8081092E70888EE93E044
:10550000A0E0B0E08093E9089093EA08A093EB084C
:10551000B093EC0889E197E09093E6088093E50862
:105520008DEC90E09093F2088093F1088CEC90E081
:105530009093F4088093F30888EC90E09093F60839
:105540008093F50889EC90E09093F8088093F70831
:105550008AEC90E09093FA088093F9088EEC90E042
:105560009093FC088093FB081092FE081092FF08AD
:10557000109200091092010908951F920F920FB620
:105580000F9211240BB60F922F938F939F93EF934B
:10559000FF93E0919209F09193098081E09198093D
:1055A000F091990982FD12C0908180919B098F5FD3
:1055B0008F7320919C09821751F0E0919B09F0E0D4
:1055C000EE57F64F958F80939B0901C08081FF9124
:1055D000EF919F918F912F910F900BBE0F900FBE67
:1055E0000F901F9018951F920F920FB60F921124D3
:1055F0000BB60F922F933F934F935F936F937F93CD
:105600008F939F93AF93BF93EF93FF9382E899E0BB
:1056100068DDFF91EF91BF91AF919F918F917F9145
:105620006F915F914F913F912F910F900BBE0F9013
:105630000FBE0F901F901895109285091092840943
:1056400088EE93E0A0E0B0E080938609909387090C
:10565000A0938809B093890989E197E09093830921
:105660008093820985ED90E090938F0980938E0955
:1056700084ED90E0909391098093900980ED90E003
:10568000909393098093920981ED90E0909395090E
:105690008093940982ED90E0909397098093960906
:1056A00086ED90E0909399098093980910929B0958
:1056B00010929C0910929D0910929E0908951F92C4
:1056C0000F920FB60F9211240BB60F922F938F9358
:1056D0009F93EF93FF93E0912F0AF091300A80811E
:1056E000E091350AF091360A82FD12C090818091D6
:1056F000380A8F5F8F732091390A821751F0E09139
:10570000380AF0E0E15EF54F958F8093380A01C0CA
:105710008081FF91EF919F918F912F910F900BBE00
:105720000F900FBE0F901F9018951F920F920FB6FB
:105730000F9211240BB60F922F933F934F935F93C9
:105740006F937F938F939F93AF93BF93EF93FF9349
:105750008FE19AE0C6DCFF91EF91BF91AF919F91ED
:105760008F917F916F915F914F913F912F910F900A
:105770000BBE0F900FBE0F901F9018951092220A2B
:105780001092210A88EE93E0A0E0B0E08093230A13
:105790009093240AA093250AB093260A89E197E002
:1057A0009093200A80931F0A85E391E090932C0A3E
:1057B00080932B0A84E391E090932E0A80932D0A24
:1057C00080E391E09093300A80932F0A81E391E087
:1057D0009093320A8093310A82E391E09093340AE5
:1057E0008093330A86E391E09093360A8093350ADA
:1057F0001092380A1092390A10923A0A10923B0A13
:105800000895AF92BF92CF92DF92EF92FF920F93E3
:105810001F93CF93DF936C017B01C0E0D0E000E0E9
:1058200010E0F601EC0FFD1F4AE050E06281C70175
:10583000D7D05C016EE2C70168D08A0D9B1D080FAE
:10584000191F2196C330D10561F74AE050E0F601F7
:105850006581C701C5D0800F911FDF91CF911F9146
:105860000F91FF90EF90DF90CF90BF90AF90089591
:1058700089E297E09093BD0A8093BC0A1092BE0A19
:105880001092BF0A1092C00A1092C10A0895CF92D6
:10589000DF92EF92FF920F931F93CF93DF936C01F0
:1058A0007A01EB01E60EF71E00E010E0CE15DF05F1
:1058B00061F06991D601ED91FC910190F081E02DAC
:1058C000C6011995080F191FF1CFC801DF91CF91BB
:1058D0001F910F91FF90EF90DF90CF900895611589
:1058E000710581F0DB010D900020E9F7AD01415019
:1058F0005109461B570BDC01ED91FC910280F381AD
:10590000E02D199480E090E00895DC01ED91FC9188
:105910000190F081E02D19948F929F92AF92BF92E7
:10592000CF92DF92EF92FF920F931F93CF93DF936B
:10593000CDB7DEB7A1970FB6F894DEBF0FBECDBFCF
:105940007C01C42EE52FCB01D22E19A221E02D150A
:1059500010F02AE0D22E8E010F5D1F4F8D2C912C5E
:10596000A12CB12C6C2D7E2FA50194010E945C38D6
:105970008C2DD29E80191124015011098A3014F403
:10598000805D01C0895CF8018083211531054105E6
:10599000510521F0C22EE32FCA01E4CFB801C7019F
:1059A0009EDFA1960FB6F894DEBF0FBECDBFDF918C
:1059B000CF911F910F91FF90EF90DF90CF90BF900C
:1059C000AF909F908F9008952115310541F4DC012F
:1059D000ED91FC910190F081E02D642F19949CCF02
:1059E0009A01462F50E060E070E0EECF8230A9F0DF
:1059F00028F4882349F0813051F00895843009F16A
:105A0000E8F0853009F1089510926E0008958091B4
:105A10006F008D7F80936F000895809170008D7F5F
:105A20008093700081E08093B0008091B100887F06
:105A300084608093B1001092B300089510927100B9
:105A40000895109272000895109273000895CF93F4
:105A5000C82F809144068C1307C0ECE6F2E08491D5
:105A60009FEF9093440601C08FEFC0DF60E08C2F62
:105A7000CF91ADCA1F920F920FB60F9211240BB6A1
:105A80000F922F933F934F935F936F937F938F93D7
:105A90009F93AF93BF93EF93FF938091C50A90912B
:105AA000C60AA091C70AB091C80A892B8A2B8B2BF2
:105AB00051F19091C20AE091C30AF091C40A808129
:105AC000892780838091C50A9091C60AA091C70A50
:105AD000B091C80A181619061A061B06BCF4809164
