:100000003BC100000C946D2B0C949E2B0C94CF2BB9
:100010000C94002C0C94312C0C94622C0C94932C8A
:100020000C94C42C5AC1000058C1000056C10000F5
:1000300054C100000C948D3450C100004EC100002A
:100040004CC100004AC1000048C1000046C1000088
:1000500044C1000042C1000040C100000C94F52CD6
:100060003CC100000C94CC300C94023136C100002D
:1000700034C1000032C1000030C100002EC10000B8
:100080002CC100002AC1000028C1000026C10000C8
:100090000C946E310C94A43120C100001EC10000EC
:1000A0001CC100001AC1000018C1000016C10000E8
:1000B00014C1000012C1000010C100000EC10000F8
:1000C0000CC100000AC100000C94ED340C941032F5
:1000D0000C94463202C100000C94B2320C94E83207
:1000E000FCC00000FD1B991DFC1DFE1DF41C251D00
:1000F000BE1BDE1BA21BDB1DCA1DD71DFE1DFE1D68
:10010000FE1D8D1B0D2E122E172E212E2B2EA42EF2
:10011000352E3D2E452E4F2E592E632E722E7C2EBF
:10012000A42E862E902E9A2EC62EC92EB82EBC2E08
:10013000C22E002FCD2ED12ED72EDB2EDF2EE52E78
:10014000E92EED2E002FF32EF72EFB2E00000A0BCA
:1001500002090C0D0E080703040100000000000056
:10016000000000000000000000000000000000008F
:10017000000000000000000012111000000000004C
:10018000000000000000000000000000000000006F
:10019000000001021020200808102040102040809C
:1001A000020102010804020101020408102040803B
:1001B00080402010080402018004020180402010C9
:1001C0000804020108040201010204081020408012
:1001D00001020408102040800505050507050808F0
:1001E0000808020202020A0A0808040404040101C1
:1001F00001010101010103030303030303030407D6
:1002000007070C0C0C0C0C0C0C0C0202020206066C
:100210000606060606060B0B0B0B0B0B0B0B000062
:1002200020002300260029002C002F0032000001AE
:10023000000003010601090100002200250028003A
:100240002B002E00310034000201000005010801DE
:100250000B0100002100240027002A002D0030009F
:10026000330001010000040107010A0102002B31E3
:10027000CD316F3211338B3311241FBECFEFD1E25A
:10028000DEBFCDBF00E00CBF18E0A0E0B2E0E2E5C9
:10029000F2E800E00BBF02C007900D92A839B10749
:1002A000D9F72DE0A8E9B8E001C01D92A13DB20741
:1002B000E1F712E0C8E7D2E000E006C022970109AA
:1002C000FE010BBF0E94C93FCE36D10780E0080770
:1002D000A9F70E940E3D0C94274192CECF93DF9355
:1002E000EC0161E088810E94012F61E08C81DF9147
:1002F000CF910C94012F4F925F926F927F928F92C9
:100300009F92AF92BF92CF92DF92EF92FF920F93A4
:100310001F93CF93DF9300D01F92CDB7DEB76983D1
:100320007A838B839C8349015A0127013801F601A6
:1003300020893189428953890E943A3F18162CF04E
:10034000F601448455846684778420E030E040E8F8
:1003500053E4C301B2010E94F03D87FF0EC020E0CC
:1003600030E0A901C301B2010E943A3F87FD07C0F6
:10037000C301B2010E945C3E03C06FEF01C060E0A8
:10038000F60180810E943A2FF60124893589468939
:10039000578969817A818B819C810E943A3F181626
:1003A0002CF0F60180849184A284B38420E030E0B4
:1003B00040E853E4C501B4010E94F03D87FF0EC040
:1003C00020E030E0A901C501B4010E943A3F87FD59
:1003D00007C0C501B4010E945C3E03C06FEF01C0BD
:1003E00060E070E0F60184810F900F900F900F9005
:1003F000DF91CF911F910F91FF90EF90DF90CF9001
:10040000BF90AF909F908F907F906F905F904F9034
:100410000C94E92D9F92AF92BF92CF92DF92EF9210
:10042000FF920F931F93CF93DF93982ECB01BA01C6
:100430005901E801992049F1F6012081213029F183
:10044000F70124853585468557850E943A3F181661
:1004500034F4F701608171818281938104C06881E5
:1004600079818A819B81F701208931894289538969
:100470000E948C3DF501608371838283938368833E
:1004800079838A839B8384E08C83F6019082DF9159
:10049000CF911F910F91FF90EF90DF90CF90BF9081
:1004A000AF909F9008952F923F924F925F926F92DC
:1004B0007F928F929F92AF92BF92CF92DF92EF92F4
:1004C000FF920F931F93CF93DF93CDB7DEB7C05C3E
:1004D000D1090FB6F894DEBF0FBECDBF8091C40D19
:1004E000992787FD90950197029710F080E001C051
:1004F00083E08093C40D609136047091370480913D
:100500003804909139046093B20C7093B30C8093CB
:10051000B40C9093B50CE0903E04F0903F04009131
:1005200040041091410420913A0430913B044091E1
:100530003C0450913D04FCE7CF2EF7E0DF2EDBDEDC
:100540002091420430914304409144045091450469
:1005500060913A0470913B0480913C0490913D0479
:100560000E943E3F20914604309147044091480448
:10057000509149040E94F43D6B017C016093B60CDC
:100580007093B70C8093B80C9093B90C4090210DE8
:100590005090220D6090230D7090240D2091250D18
:1005A0003091260D4091270D5091280D2D873E87C3
:1005B0004F87588B8091290D90912A0DA0912B0D7A
:1005C000B0912C0D89A79AA7ABA7BCA70AE414E0A9
:1005D000AAEB2A2EACE03A2ED8016D917D918D9137
:1005E0009D918D01A30192010E943E3F20E030E0E9
:1005F000A9010E948C3D4B015C01F80120853185E9
:10060000428553856D857E858F8598890E943E3F02
:100610009B01AC01C501B4010E948C3D4B015C0102
:10062000D80154962D913D914D915C91579769A5B4
:100630007AA58BA59CA50E943E3F9B01AC01C501FC
:10064000B4010E948C3DF101619371938193919368
:100650001F01F4E006351F0709F0BECF2091BE0C44
:100660003091BF0C4091C00C5091C10CC701B60134
:100670000E948B3D6093C60C7093C70C8093C80C8E
:100680009093C90C20919E0430919F044091A00446
:100690005091A1040E943E3F2091A2043091A304F6
:1006A0004091A4045091A5040E94F43D2091A60419
:1006B0003091A7044091A8045091A9040E943A3FA8
:1006C00018164CF460913204709133048091340414
:1006D0009091350408C060912E0470912F04809190
:1006E00030049091310420912D0D30912E0D4091C8
:1006F0002F0D5091300D0E948C3D698B7B8B8D8B23
:100700009F8B2091AE043091AF044091B004509182
:10071000B1040E943A3F18164CF0E0902604F09085
:100720002704009128041091290404C0E988FB885B
:100730000D891F892091B2043091B3044091B40413
:100740005091B504B701C8010E943A3F18164CF405
:1007500080912A0490912B04A0912C04B0912D0437
:1007600002C0C701D8018093CA0C9093CB0CA09310
:10077000CC0CB093CD0C20910E0430910F0440911D
:100780001004509111046091B20C7091B30C8091DF
:10079000B40C9091B50C0E943A3F18164CF4C090DE
:1007A0003E04D0903F04E0904004F090410408C023
:1007B000C0900A04D0900B04E0900C04F0900D045B
:1007C00020E030E040E853E4C701B6010E94F03D6C
:1007D00087FF0EC020E030E0A901C701B6010E94EA
:1007E0003A3F87FD07C0C701B6010E945C3E03C0C7
:1007F0006FEF01C060E08091F2030E943A2F2091D8
:100800001204309113044091140450911504609126
:10081000B20C7091B30C8091B40C9091B50C0E9405
:100820003A3F18164CF4C090CA0CD090CB0CE09014
:10083000CC0CF090CD0C08C0C0900604D0900704FA
:10084000E0900804F090090420E030E040E853E430
:10085000C701B6010E94F03D87FF0EC020E030E0E6
:10086000A901C701B6010E943A3F87FD07C0C70131
:10087000B6010E945C3E03C06FEF01C060E070E013
:100880008091F6030E94E92DE0903E04F0903F0431
:10089000009140041091410420913A0430913B04AE
:1008A00040913C0450913D046091B20C7091B30CA6
:1008B0008091B40C9091B50CE4E6CE2EE7E0DE2EEC
:1008C0001ADD20911E0430911F04409120045091A4
:1008D00021046091B20C7091B30C8091B40C909192
:1008E000B50C0E943A3F18164CF4C0903E04D090CC
:1008F0003F04E0904004F090410408C0C0901A0406
:10090000D0901B04E0901C04F0901D0420E030E027
:1009100040E853E4C701B6010E94F03D87FF0EC0D6
:1009200020E030E0A901C701B6010E943A3F87FDEF
:1009300007C0C701B6010E945C3E03C06FEF01C053
:1009400060E08091FA030E943A2F209122043091B6
:10095000230440912404509125046091B20C7091BD
:10096000B30C8091B40C9091B50C0E943A3F1816CC
:100970004CF4C0903A04D0903B04E0903C04F090DA
:100980003D0408C0C0901604D0901704E0901804ED
:10099000F090190420E030E040E853E4C701B601CC
:1009A0000E94F03D87FF0EC020E030E0A901C701A2
:1009B000B6010E943A3F87FD07C0C701B6010E94F9
:1009C0005C3E03C06FEF01C060E070E08091FE0309
:1009D0000E94E92D4090350D5090360D6090370DF6
:1009E0007090380D8090390D90903A0DA0903B0D8D
:1009F000B0903C0D20913D0D30913E0D40913F0D4A
:100A00005091400D2D873E874F87588B06EB14E0A1
:100A10002EEC222E2CE0322ED8016D917D918D91FD
:100A20009D918D01A30192010E943E3F20E030E0A4
:100A3000A9010E948C3D6B017C01F8012085318564
:100A400042855385C501B4010E943E3F9B01AC0124
:100A5000C701B6010E948C3D6B017C01D801549600
:100A60002D913D914D915C9157976D857E858F8538
:100A700098890E943E3F9B01AC01C701B6010E94CC
:100A80008C3DF10161937193819391931F01F4E087
:100A9000023C1F0709F64090410D5090420D6090B6
:100AA000430D7090440D8090450D9090460DA090A0
:100AB000470DB090480D2091490D30914A0D40915D
:100AC0004B0D50914C0D2D873E874F87588B0AE078
:100AD00015E09AED292E9CE0392ED8016D917D917B
:100AE0008D919D918D01A30192010E943E3F20E0D6
:100AF00030E0A9010E948C3D6B017C01F80120854A
:100B0000318542855385C501B4010E943E3F9B015A
:100B1000AC01C701B6010E948C3D6B017C01D8017C
:100B200054962D913D914D915C9157976D857E85A1
:100B30008F8598890E943E3F9B01AC01C701B60199
:100B40000E948C3DF10161937193819391931F01F8
:100B5000F5E006311F0709F640904D0D50904E0DFF
:100B600060904F0D7090500D8090510D9090520DEF
:100B7000A090530DB090540D2091550D3091560D0D
:100B80004091570D5091580D2D873E874F87588BB8
:100B90000EE515E08AE5282E8CE0382ED8016D91FF
:100BA0007D918D919D918D01A30192010E943E3F07
:100BB00020E030E0A9010E948C3D6B017C01F8012E
:100BC0002085318542855385C501B4010E943E3F91
:100BD0009B01AC01C701B6010E948C3D6B017C01F9
:100BE000D80154962D913D914D915C9157976D850B
:100BF0007E858F8598890E943E3F9B01AC01C7018D
:100C0000B6010E948C3DF1016193719381939193A0
:100C10001F01F5E00A361F0709F68091F6060E94CB
:100C20006F2F8093E60C8091FA060E946F2F8093BD
:100C3000E70C8091FE060E946F2F8093E80C809154
:100C400002070E946F2F8093E90C21E0C357DF4F0A
:100C50002883CD58D0402091E60C90910807921738
:100C600028F0C357DF4F1882CD58D04031E0C2572B
:100C7000DF4F3883CE58D0402091E70C9091090780
:100C8000921728F0C257DF4F1882CE58D04041E06B
:100C9000C157DF4F4883CF58D0402091E80C909146
:100CA0000A07921728F0C157DF4F1882CF58D0405B
:100CB00051E0C057DF4F5883C059D04090910B0787
:100CC000981728F0C057DF4F1882C059D040409184
:100CD000B2055091B3056091B4057091B50581E0FE
:100CE0009091AE0DC257DF4FA881CE58D0409A17D1
:100CF00008F080E01CECC12E1DE0D12E0EE4E02EA9
:100D000007E0F02E00EC1DE026EF3CE083DB409195
:100D1000B2055091B3056091B4057091B50581E0BD
:100D20009091AF0DC157DF4FB881CF58D0409B177E
:100D300008F080E0ABECCA2EADE0DA2EB8E3EB2E83
:100D4000B7E0FB2E0BEB1DE022EF3CE063DB4091B4
:100D5000B2055091B3056091B4057091B50581E07D
:100D60009091B00DC057DF4FE881C059D0409E1719
:100D700008F080E0EAECCE2EEDE0DE2EF2E2EF2E7F
:100D8000F7E0FF2E06EB1DE02EEE3CE043DB40914A
:100D9000B2055091B3056091B4057091B50581E03D
:100DA0009091AD0DC357DF4FF881CD58D0409F17BC
:100DB00008F080E099ECC92E9DE0D92E2CE0E22EBF
:100DC00027E0F22E01EB1DE02AEE3CE023DB209130
:100DD000590D30915A0D40915B0D50915C0D2D874E
:100DE0003E874F87588B80915D0D90915E0DA0914D
:100DF0005F0DB091600D89A79AA7ABA7BCA7209102
:100E0000610D3091620D4091630D5091640D2DABD9
:100E10003EAB4FAB58AF8091650D9091660DA091A0
:100E2000670DB091680DAD968CAF9DAFAEAFBFAF03
:100E3000AD972091C6053091C7054091C8055091E6
:100E4000C9056D857E858F8598890E943E3F6B011F
:100E50007C012091D6053091D7054091D80550915D
:100E6000D90569A57AA58BA59CA50E943E3F9B014B
:100E7000AC01C701B6010E948C3D6B017C01209141
:100E8000E6053091E7054091E8055091E9056DA927
:100E90007EA98FA998AD0E943E3F9B01AC01C7017E
:100EA000B6010E948C3D6B017C012091F6053091CA
:100EB000F7054091F8055091F905AD966CAD7DAD03
:100EC0008EAD9FADAD970E943E3F9B01AC01C70127
:100ED000B6010E948C3DCF56DF4F688379838A83A9
:100EE0009B83C159D0406093660C7093670C8093CC
:100EF000680C9093690C2091CA053091CB05409104
:100F0000CC055091CD056D857E858F8598890E9491
:100F10003E3F6B017C012091DA053091DB05409169
:100F2000DC055091DD0569A57AA58BA59CA50E94DD
:100F30003E3F9B01AC01C701B6010E948C3D6B0195
:100F40007C012091EA053091EB054091EC05509130
:100F5000ED056DA97EA98FA998AD0E943E3F9B012A
:100F6000AC01C701B6010E948C3D6B017C01209150
:100F7000FA053091FB054091FC055091FD05AD96B9
:100F80006CAD7DAD8EAD9FADAD970E943E3F9B0198
:100F9000AC01C701B6010E948C3DCB56DF4F688380
:100FA00079838A839B83C559D04060936A0C709380
:100FB0006B0C80936C0C90936D0C2091CE0530914E
:100FC000CF054091D0055091D1056D857E858F85E7
:100FD00098890E943E3F6B017C012091DE05309193
:100FE000DF054091E0055091E10569A57AA58BA543
:100FF0009CA50E943E3F9B01AC01C701B6010E9427
:101000008C3D6B017C012091EE053091EF05409104
:10101000F0055091F1056DA97EA98FA998AD0E94A8
:101020003E3F9B01AC01C701B6010E948C3D6B01A4
:101030007C012091FE053091FF0540910006509102
:101040000106AD966CAD7DAD8EAD9FADAD970E94A6
:101050003E3F9B01AC01C701B6010E948C3DC756C3
:10106000DF4F688379838A839B83C959D04060931B
:101070006E0C70936F0C8093700C9093710C209198
:10108000D2053091D3054091D4055091D5056D8599
:101090007E858F8598890E943E3F6B017C0120915F
:1010A000E2053091E3054091E4055091E50569A51D
:1010B0007AA58BA59CA50E943E3F9B01AC01C70170
:1010C000B6010E948C3D6B017C012091F2053091AC
:1010D000F3054091F4055091F5056DA97EA98FA9FE
:1010E00098AD0E943E3F9B01AC01C701B6010E9432
:1010F0008C3D6B017C0120910206309103064091EA
:10110000040650910506AD966CAD7DAD8EAD9FADDC
:10111000AD970E943E3F9B01AC01C701B6010E9402
:101120008C3DC356DF4F688379838A839B83CD5977
:10113000D0406093720C7093730C8093740C9093F6
:10114000750C2091690D30916A0D40916B0D509195
:101150006C0D29AF3AAF4BAF5CAF80916D0D9091A4
:101160006E0DA0916F0DB091700D21968CAF9DAF5B
:10117000AEAFBFAF21972091710D3091720D4091AC
:10118000730D5091740D25962CAF3DAF4EAF5FAFF0
:1011900025978091750D9091760DA091770DB09166
:1011A000780DE1968CAF9DAFAEAFBFAFE1972091C8
:1011B000160630911706409118065091190669AD30
:1011C0007AAD8BAD9CAD0E943E3F6B017C012091BE
:1011D000260630912706409128065091290621962F
:1011E0006CAD7DAD8EAD9FAD21970E943E3F9B01C2
:1011F000AC01C701B6010E948C3D6B017C012091BE
:1012000036063091370640913806509139062596BA
:101210006CAD7DAD8EAD9FAD25970E943E3F9B018D
:10122000AC01C701B6010E948C3D6B017C0120918D
:101230004606309147064091480650914906E1968E
:101240006CAD7DAD8EAD9FADE1970E943E3F9B01A1
:10125000AC01C701B6010E948C3D698F7A8F8B8FDC
:101260009C8F6093760C7093770C8093780C90939E
:10127000790C20911A0630911B0640911C06509162
:101280001D0669AD7AAD8BAD9CAD0E943E3F6B01F2
:101290007C0120912A0630912B0640912C0650911A
:1012A0002D0621966CAD7DAD8EAD9FAD21970E9430
:1012B0003E3F9B01AC01C701B6010E948C3D6B0112
:1012C0007C0120913A0630913B0640913C065091BA
:1012D0003D0625966CAD7DAD8EAD9FAD25970E94E8
:1012E0003E3F9B01AC01C701B6010E948C3D6B01E2
:1012F0007C0120914A0630914B0640914C0650915A
:101300004D06E1966CAD7DAD8EAD9FADE1970E942F
:101310003E3F9B01AC01C701B6010E948C3D6D8F21
:101320007E8F8F8F98A360937A0C70937B0C809341
:101330007C0C90937D0C20911E0630911F064091ED
:1013400020065091210669AD7AAD8BAD9CAD0E940F
:101350003E3F6B017C0120912E0630912F0640917B
:1013600030065091310621966CAD7DAD8EAD9FADAE
:1013700021970E943E3F9B01AC01C701B6010E942C
:101380008C3D6B017C0120913E0630913F064091DF
:1013900040065091410625966CAD7DAD8EAD9FAD5A
:1013A00025970E943E3F9B01AC01C701B6010E94F8
:1013B0008C3D6B017C0120914E0630914F0640918F
:1013C000500650915106E1966CAD7DAD8EAD9FAD4E
:1013D000E1970E943E3F9B01AC01C701B6010E940C
:1013E0008C3D69A37AA38BA39CA360937E0C70931E
:1013F0007F0C8093800C9093810C20912206309179
:101400002306409124065091250669AD7AAD8BAD37
:101410009CAD0E943E3F6B017C01209132063091D1
:101420003306409134065091350621966CAD7DAD62
:101430008EAD9FAD21970E943E3F9B01AC01C7013D
:10144000B6010E948C3D6B017C01209142063091D7
:101450004306409144065091450625966CAD7DADFE
:101460008EAD9FAD25970E943E3F9B01AC01C70109
:10147000B6010E948C3D6B017C0120915206309197
:1014800053064091540650915506E1966CAD7DADE2
:101490008EAD9FADE1970E943E3F9B01AC01C7011D
:1014A000B6010E948C3D6DA37EA38FA398A7609385
:1014B000820C7093830C8093840C9093850C209104
:1014C000790D30917A0D40917B0D50917C0D2996CC
:1014D0002CAF3DAF4EAF5FAF299780917D0D9091BE
:1014E0007E0DA0917F0DB091800D2D968CAF9DAF9C
:1014F000AEAFBFAF2D972091810D3091820D4091FD
:10150000830D5091840D61962CAF3DAF4EAF5FAF10
:1015100061978091850D9091860DA091870DB09176
:10152000880DE5968CAF9DAFAEAFBFAFE59720912C
:1015300066063091670640916806509169062996C3
:101540006CAD7DAD8EAD9FAD29970E943E3F6B0186
:101550007C01209176063091770640917806509173
:1015600079062D966CAD7DAD8EAD9FAD2D970E9409
:101570003E3F9B01AC01C701B6010E948C3D6B014F
:101580007C01209186063091870640918806509113
:10159000890661966CAD7DAD8EAD9FAD61970E9461
:1015A0003E3F9B01AC01C701B6010E948C3D6B011F
:1015B0007C012091960630919706409198065091B3
:1015C0009906E5966CAD7DAD8EAD9FADE5970E9419
:1015D0003E3F9B01AC01C701B6010E948C3D6DA747
:1015E0007EA78FA798AB6093860C7093870C80932F
:1015F000880C9093890C20916A0630916B0640917B
:101600006C0650916D0629966CAD7DAD8EAD9FAD8B
:1016100029970E943E3F6B017C0120917A06309110
:101620007B0640917C0650917D062D966CAD7DAD7C
:101630008EAD9FAD2D970E943E3F9B01AC01C7012F
:10164000B6010E948C3D6B017C0120918A0630918D
:101650008B0640918C0650918D0661966CAD7DADE8
:101660008EAD9FAD61970E943E3F9B01AC01C701CB
:10167000B6010E948C3D6B017C0120919A0630914D
:101680009B0640919C0650919D06E5966CAD7DAD04
:101690008EAD9FADE5970E943E3F9B01AC01C70117
:1016A000B6010E948C3DA1966CAF7DAF8EAF9FAF0F
:1016B000A19760938A0C70938B0C80938C0C909301
:1016C0008D0C20916E0630916F06409170065091FE
:1016D000710629966CAD7DAD8EAD9FAD29970E94A8
:1016E0003E3F6B017C0120917E0630917F06409148
:1016F0008006509181062D966CAD7DAD8EAD9FAD6F
:101700002D970E943E3F9B01AC01C701B6010E948C
:101710008C3D6B017C0120918E0630918F064091AB
:1017200090065091910661966CAD7DAD8EAD9FADEA
:1017300061970E943E3F9B01AC01C701B6010E9428
:101740008C3D6B017C0120919E0630919F0640915B
:10175000A0065091A106E5966CAD7DAD8EAD9FAD16
:10176000E5970E943E3F9B01AC01C701B6010E9474
:101770008C3DA5966CAF7DAF8EAF9FAFA597609364
:101780008E0C70938F0C8093900C9093910C209101
:101790007206309173064091740650917506299631
:1017A0006CAD7DAD8EAD9FAD29970E943E3F6B0124
:1017B0007C012091820630918306409184065091ED
:1017C00085062D966CAD7DAD8EAD9FAD2D970E949B
:1017D0003E3F9B01AC01C701B6010E948C3D6B01ED
:1017E0007C0120919206309193064091940650918D
:1017F000950661966CAD7DAD8EAD9FAD61970E94F3
:101800003E3F9B01AC01C701B6010E948C3D6B01BC
:101810007C012091A2063091A3064091A40650912C
:10182000A506E5966CAD7DAD8EAD9FADE5970E94AA
:101830003E3F9B01AC01C701B6010E948C3DA996B9
:101840006CAF7DAF8EAF9FAFA9976093920C7093F2
:10185000930C8093940C9093950C2091890D30916A
:101860008A0D40918B0D50918C0D65962CAF3DAF3C
:101870004EAF5FAF659780918D0D90918E0DA091C9
:101880008F0DB091900D69968CAF9DAFAEAFBFAF8D
:1018900069972091910D3091920D4091930D509147
:1018A000940D6D962CAF3DAF4EAF5FAF6D978091AD
:1018B000950D9091960DA091970DB091980DE99688
:1018C0008CAF9DAFAEAFBFAFE9972091B606309118
:1018D000B7064091B8065091B90665966CAD7DADDE
:1018E0008EAD9FAD65970E943E3F6B017C012091BC
:1018F000C6063091C7064091C8065091C906699640
:101900006CAD7DAD8EAD9FAD69970E943E3F9B0152
:10191000AC01C701B6010E948C3D6B017C01209196
:10192000D6063091D7064091D8065091D9066D96CB
:101930006CAD7DAD8EAD9FAD6D970E943E3F9B011E
:10194000AC01C701B6010E948C3D6B017C01209166
:10195000E6063091E7064091E8065091E906E996DF
:101960006CAD7DAD8EAD9FADE9970E943E3F9B0172
:10197000AC01C701B6010E948C3DED966CAF7DAF06
:101980008EAF9FAFED976093960C7093970C8093FA
:10199000980C9093990C2091BA063091BB06409117
:1019A000BC065091BD0665966CAD7DAD8EAD9FAD0C
:1019B00065970E943E3F6B017C012091CA063091E1
:1019C000CB064091CC065091CD0669966CAD7DADAD
:1019D0008EAD9FAD69970E943E3F9B01AC01C70150
:1019E000B6010E948C3D6B017C012091DA0630919A
:1019F000DB064091DC065091DD066D966CAD7DAD49
:101A00008EAD9FAD6D970E943E3F9B01AC01C7011B
:101A1000B6010E948C3D6B017C012091EA06309159
:101A2000EB064091EC065091ED06E9966CAD7DAD6C
:101A30008EAD9FADE9970E943E3F9B01AC01C7016F
:101A4000B6010E948C3DCF55DF4F688379838A832E
:101A50009B83C15AD04060939A0C70939B0C8093E7
:101A60009C0C90939D0C2091BE063091BF06409136
:101A7000C0065091C10665966CAD7DAD8EAD9FAD33
:101A800065970E943E3F6B017C012091CE0630910C
:101A9000CF064091D0065091D10669966CAD7DADD0
:101AA0008EAD9FAD69970E943E3F9B01AC01C7017F
:101AB000B6010E948C3D6B017C012091DE063091C5
:101AC000DF064091E0065091E1066D966CAD7DAD6C
:101AD0008EAD9FAD6D970E943E3F9B01AC01C7014B
:101AE000B6010E948C3D6B017C012091EE06309185
:101AF000EF064091F0065091F106E9966CAD7DAD90
:101B00008EAD9FADE9970E943E3F9B01AC01C7019E
:101B1000B6010E948C3DCB55DF4F688379838A8361
:101B20009B83C55AD04060939E0C70939F0C80930A
:101B3000A00C9093A10C2091C2063091C306409155
:101B4000C4065091C50665966CAD7DAD8EAD9FAD5A
:101B500065970E943E3F6B017C012091D206309137
:101B6000D3064091D4065091D50669966CAD7DADF3
:101B70008EAD9FAD69970E943E3F9B01AC01C701AE
:101B8000B6010E948C3D6B017C012091E2063091F0
:101B9000E3064091E4065091E5066D966CAD7DAD8F
:101BA0008EAD9FAD6D970E943E3F9B01AC01C7017A
:101BB000B6010E948C3D6B017C012091F2063091B0
:101BC000F3064091F4065091F506E9966CAD7DADB3
:101BD0008EAD9FADE9970E943E3F9B01AC01C701CE
:101BE000B6010E948C3DC755DF4F688379838A8395
:101BF0009B83C95AD0406093A20C7093A30C80932E
:101C0000A40C9093A50C2091290D30912A0D4091A0
:101C10002B0D50912C0DCF54DF4F288339834A83ED
:101C20005B83C15BD0408091250D9091260DA091E2
:101C3000270DB091280DCB54DF4F88839983AA8359
:101C4000BB83C55BD0402091210D3091220D409186
:101C5000230D5091240DC354DF4F288339834A83C9
:101C60005B83CD5BD04036EA232E3CE0332E46EE3C
:101C700053E0EF965FAF4EAFEF978AED93E0CF570B
:101C8000DF4F99838883C158D040AEECB3E0CB5787
:101C9000DF4FB983A883C558D040EEE9F3E0C757BA
:101CA000DF4FF983E883C958D0402AEA33E0C355AF
:101CB000DF4F39832883CD5AD04046EB53E05AABEF
:101CC00049AB82EC93E0C155DF4F99838883CF5AAB
:101CD000D04000E010E0C155DF4FA881B981CF5A54
:101CE000D0406D917D918D919D91C155DF4FB9830C
:101CF000A883CF5AD040E9A9FAA981909190A190E8
:101D0000B190FAABE9ABC355DF4FA881B981CD5A89
:101D1000D0404D905D906D907D90C355DF4FB9835D
:101D2000A883CD5AD040C757DF4FA881B981C95881
:101D3000D0402D913D914D915D91C757DF4FB983B3
:101D4000A883C958D040C754DF4F288339834A83BA
:101D50005B83C95BD040298D3A8D4B8D5C8D0E9491
:101D60003E3F6B017C01CF54DF4F288139814A818E
:101D70005B81C15BD040C501B4010E943E3F4B0175
:101D80005C01CB54DF4F288139814A815B81C55B7F
:101D9000D040C301B2010E943E3F2B013C01C3541D
:101DA000DF4F288139814A815B81CD5BD040C754A8
:101DB000DF4F688179818A819B81C95BD0400E9415
:101DC0003E3F9B01AC01C301B2010E948C3D9B01CF
:101DD000AC01C501B4010E948C3D9B01AC01C7015F
:101DE000B6010E948C3D6B017C01CB57DF4FE8812F
:101DF000F981C558D0406191719181919191CB57F2
:101E0000DF4FF983E883C558D0402D8D3E8D4F8D2F
:101E100058A10E943E3F9B01AC01C701B6010E9440
:101E20008C3D6B017C01CF57DF4FA881B981C15830
:101E3000D0406D917D918D919D91CF57DF4FB983AA
:101E4000A883C158D04029A13AA14BA15CA10E940E
:101E50003E3F9B01AC01C701B6010E948C3D6B0166
:101E60007C01EF96EEADFFADEF976191719181919D
:101E70009191EF96FFAFEEAFEF972DA13EA14FA14D
:101E800058A50E943E3F9B01AC01C701B6010E94CC
:101E90008C3DD1016D937D938D939D931D010F5FBB
:101EA0001F4F0330110509F016CF8091310D90912D
:101EB000320DA091330DB091340D80932D0D909380
:101EC0002E0DA0932F0DB093300D89899B89AD897C
:101ED000BF898093310D9093320DA093330DB09351
:101EE000340D20913D0D30913E0D40913F0D5091AC
:101EF000400DC358DF4F288339834A835B83CD5716
:101F0000D0408091390D90913A0DA0913B0DB09148
:101F10003C0DCF57DF4F88839983AA83BB83C15879
:101F2000D0402091350D3091360D4091370D5091B4
:101F3000380DC757DF4F288339834A835B83C958DD
:101F4000D04041E25DE05A8B498BCE0101961C01E5
:101F5000A6EEB3E0BC8BAB8BEAEDF3E0FE8BED8B32
:101F60002EEC33E0388F2F8B4EE953E05A8F498F98
:101F70008AEA93E09E8F8D8FA6EBB3E0BAA3A9A364
:101F8000E2ECF3E0FEA3EDA326EA3CE03AAB29AB9A
:101F900000E010E0E9A9FAA981919191A191B19194
:101FA000FAABE9ABE989FA8981939193A193B19353
:101FB000FA8BE98BADA1BEA16D917D918D919D9123
:101FC000BEA3ADA3E9A1FAA181909190A190B19097
:101FD000FAA3E9A3AD8DBE8D4D905D906D907D907F
:101FE000BE8FAD8FA98DBA8D2D913D914D915D9193
:101FF000BA8FA98FCB57DF4F288339834A835B83FE
:10200000C558D0402DA53EA54FA558A90E943E3FDA
:102010006B017C01C358DF4F288139814A815B8184
:10202000CD57D040C501B4010E943E3F4B015C0139
:10203000CF57DF4F288139814A815B81C158D04019
:10204000C301B2010E943E3F2B013C01C757DF4F45
:10205000288139814A815B81C958D040CB57DF4FF5
:10206000688179818A819B81C558D0400E943E3F1A
:102070009B01AC01C301B2010E948C3D9B01AC01EC
:10208000C501B4010E948C3D9B01AC01C701B601A2
:102090000E948C3D6B017C01EF89F88D61917191FB
:1020A00081919191F88FEF8BA1962CAD3DAD4EAD06
:1020B0005FADA1970E943E3F9B01AC01C701B601F5
:1020C0000E948C3D6B017C01AD89BE896D917D9133
:1020D0008D919D91BE8BAD8BA5962CAD3DAD4EAD3A
:1020E0005FADA5970E943E3F9B01AC01C701B601C1
:1020F0000E948C3D6B017C01EB89FC89619171919F
:1021000081919191FC8BEB8BA9962CAD3DAD4EADA1
:102110005FADA9970E943E3F9B01AC01C701B6018C
:102120000E948C3DD1016D937D938D939D931D01F4
:102130000F5F1F4F0330110509F02CCF2091490D7F
:1021400030914A0D40914B0D50914C0DA1962CAF02
:102150003DAF4EAF5FAFA1978091450D9091460D79
:10216000A091470DB091480DA5968CAF9DAFAEAF35
:10217000BFAFA5972091410D3091420D4091430D85
:102180005091440D29AB3AAB4BAB5CAB45E35DE002
:102190005A8B498B86EA9CE09C8B8B8BA6EEB3E036
:1021A000BE8BAD8BEAEDF3E0F88FEF8B2EEC33E0D6
:1021B0003A8F298F4EE953E05E8F4D8F8AEA93E084
:1021C0009AA389A3A6EBB3E0BEA3ADA3E2ECF3E030
:1021D000FEA7EDA79E012F5F3F4F190100E010E021
:1021E000F10181919191A191B1911F01E989FA8940
:1021F00081939193A193B193FA8BE98BADA5BEA581
:102200006D917D918D919D91BEA7ADA7EDA1FEA190
:1022100081909190A190B190FEA3EDA3A9A1BAA144
:102220004D905D906D907D90BAA3A9A3AD8DBE8DAC
:102230002D913D914D915D91BE8FAD8FA9962CAFA3
:102240003DAF4EAF5FAFA997ED962CAD3DAD4EAD16
:102250005FADED970E943E3F6B017C01A1962CADD6
:102260003DAD4EAD5FADA197C501B4010E943E3FAB
:102270004B015C01A5962CAD3DAD4EAD5FADA59774
:10228000C301B2010E943E3F2B013C0129A93AA99A
:102290004BA95CA9A9966CAD7DAD8EAD9FADA997FC
:1022A0000E943E3F9B01AC01C301B2010E948C3DE4
:1022B0009B01AC01C501B4010E948C3D9B01AC01A6
:1022C000C701B6010E948C3D6B017C01E98DFA8D3E
:1022D0006191719181919191FA8FE98FCF55DF4F83
:1022E000288139814A815B81C15AD0400E943E3F9A
:1022F0009B01AC01C701B6010E948C3D6B017C01C2
:10230000AF89B88D6D917D918D919D91B88FAF8B77
:10231000CB55DF4F288139814A815B81C55AD04036
:102320000E943E3F9B01AC01C701B6010E948C3D5B
:102330006B017C01ED89FE8961917191819191918F
:10234000FE8BED8BC755DF4F288139814A815B8138
:10235000C95AD0400E943E3F9B01AC01C701B60163
:102360000E948C3DAB89BC896D937D938D939D9329
:10237000BC8BAB8B0F5F1F4F0330110509F030CFC3
:102380002091550D3091560D4091570D5091580D9B
:10239000A1962CAF3DAF4EAF5FAFA1978091510D8D
:1023A0009091520DA091530DB091540DA5968CAF04
:1023B0009DAFAEAFBFAFA59720914D0D30914E0DA3
:1023C00040914F0D5091500DED962CAF3DAF4EAF5B
:1023D0005FAFED9741E45DE05EA34DA3CE010196B2
:1023E0001C01A6EEB3E0BA8BA98BEAEDF3E0FC8BFF
:1023F000EB8B2EEC33E03E8B2D8B4EE953E0588F68
:102400004F8B8AEA93E09A8F898FA6EBB3E0BE8F59
:10241000AD8FE2ECF3E0FAA3E9A326EA3CE03EA7A5
:102420002DA700E010E0EDA5FEA581919191A1916D
:10243000B191FEA7EDA7EDA1FEA181939193A19388
:10244000B193FEA3EDA3A9A1BAA16D917D918D9148
:102450009D91BAA3A9A3ED8DFE8D81909190A1903D
:10246000B190FE8FED8FA98DBA8D4D905D906D90DE
:102470007D90BA8FA98FAF89B88D2D913D914D91E7
:102480005D91B88FAF8BA9962CAF3DAF4EAF5FAFCC
:10249000A997CF56DF4F288139814A815B81C15985
:1024A000D0400E943E3F6B017C01A1962CAD3DAD1A
:1024B0004EAD5FADA197C501B4010E943E3F4B01F7
:1024C0005C01A5962CAD3DAD4EAD5FADA597C301AA
:1024D000B2010E943E3F2B013C01ED962CAD3DAD7B
:1024E0004EAD5FADED97A9966CAD7DAD8EAD9FAD58
:1024F000A9970E943E3F9B01AC01C301B2010E941B
:102500008C3D9B01AC01C501B4010E948C3D9B0137
:10251000AC01C701B6010E948C3D6B017C01ED89C5
:10252000FE896191719181919191FE8BED8BCB56DA
:10253000DF4F288139814A815B81C559D0400E9493
:102540003E3F9B01AC01C701B6010E948C3D6B016F
:102550007C01AB89BC896D917D918D919D91BC8BE6
:10256000AB8BC756DF4F288139814A815B81C959BE
:10257000D0400E943E3F9B01AC01C701B6010E94C2
:102580008C3D6B017C01E989FA896191719181919E
:102590009191FA8BE98BC356DF4F288139814A81AB
:1025A0005B81CD59D0400E943E3F9B01AC01C701E9
:1025B000B6010E948C3DD1016D937D938D939D93C7
:1025C0001D010F5F1F4F0330110509F02CCF8981CA
:1025D0009A81AB81BC8180934D0D90934E0DA09359
:1025E0004F0DB093500D8D819E81AF81B885809342
:1025F000510D9093520DA093530DB093540D8985B6
:102600009A85AB85BC858093550D9093560DA0930C
:10261000570DB093580DC357DF4FB881CD58D040F8
:10262000B093AD0DC257DF4FE881CE58D040E09354
:10263000AE0DC157DF4FF881CF58D040F093AF0DAA
:10264000C057DF4F2881C059D0402093B00DC090B3
:10265000EA0CD090EB0CE090EC0CF090ED0C20919B
:10266000B6053091B7054091B8055091B9056D8513
:102670007E858F8598890E943E3F4B015C012091A9
:10268000BA053091BB054091BC055091BD0569A5C7
:102690007AA58BA59CA50E943E3F9B01AC01C5017C
:1026A000B4010E948C3D4B015C012091BE0530912C
:1026B000BF054091C0055091C1056DA97EA98FA9A4
:1026C00098AD0E943E3F9B01AC01C501B4010E9440
:1026D0008C3D4B015C012091C2053091C3054091B6
:1026E000C4055091C505AD966CAD7DAD8EAD9FAD69
:1026F000AD970E943E3F9B01AC01C501B4010E9411
:102700008C3D9B01AC01C701B6010E948C3D2DA9F7
:102710003EA94FA958AD2093650D3093660D4093A7
:10272000670D5093680D29A53AA54BA55CA520938C
:10273000610D3093620D4093630D5093640D2D85B0
:102740003E854F85588920935D0D30935E0D4093F3
:102750005F0D5093600D6093590D70935A0D8093E7
:102760005B0D90935C0DC090F60CD090F70CE09050
:10277000F80CF090F90C2091060630910706409174
:1027800008065091090669AD7AAD8BAD9CAD0E94EB
:102790003E3F4B015C0120910A0630910B064091AF
:1027A0000C0650910D0621966CAD7DAD8EAD9FADA2
:1027B00021970E943E3F9B01AC01C501B4010E94DC
:1027C0008C3D4B015C0120910E0630910F0640912B
:1027D00010065091110625966CAD7DAD8EAD9FAD66
:1027E00025970E943E3F9B01AC01C501B4010E94A8
:1027F0008C3D4B015C0120911206309113064091F3
:10280000140650911506E1966CAD7DAD8EAD9FAD71
:10281000E1970E943E3F9B01AC01C501B4010E94BB
:102820008C3D9B01AC01C701B6010E948C3D2596F1
:102830002CAD3DAD4EAD5FAD25972093750D30931A
:10284000760D4093770D5093780D21962CAD3DADCC
:102850004EAD5FAD21972093710D3093720D409373
:10286000730D5093740D29AD3AAD4BAD5CAD209313
:102870006D0D30936E0D40936F0D5093700D6093FE
:10288000690D70936A0D80936B0D90936C0DC090E1
:10289000EE0CD090EF0CE090F00CF090F10C209149
:1028A0005606309157064091580650915906299680
:1028B0006CAD7DAD8EAD9FAD29970E943E3F4B0123
:1028C0005C0120915A0630915B0640915C06509164
:1028D0005D062D966CAD7DAD8EAD9FAD2D970E94A2
:1028E0003E3F9B01AC01C501B4010E948C3D4B01F0
:1028F0005C0120915E0630915F0640916006509128
:10290000610661966CAD7DAD8EAD9FAD61970E9405
:102910003E3F9B01AC01C501B4010E948C3D4B01BF
:102920005C012091620630916306409164065091EB
:102930006506E5966CAD7DAD8EAD9FADE5970E94C9
:102940003E3F9B01AC01C501B4010E948C3D9B013F
:10295000AC01C701B6010E948C3D61962CAD3DAD26
:102960004EAD5FAD61972093850D3093860D4093FA
:10297000870D5093880D2D962CAD3DAD4EAD5FADBE
:102980002D972093810D3093820D4093830D5093AA
:10299000840D29962CAD3DAD4EAD5FAD29972093AA
:1029A0007D0D30937E0D40937F0D5093800D60938D
:1029B000790D70937A0D80937B0D90937C0DC09070
:1029C000F20CD090F30CE090F40CF090F50C209108
:1029D000A6063091A7064091A8065091A9066596D3
:1029E0006CAD7DAD8EAD9FAD65970E943E3F4B01B6
:1029F0005C012091AA063091AB064091AC06509143
:102A0000AD0669966CAD7DAD8EAD9FAD69970E94A8
:102A10003E3F9B01AC01C501B4010E948C3D4B01BE
:102A20005C012091AE063091AF064091B006509106
:102A3000B1066D966CAD7DAD8EAD9FAD6D970E946C
:102A40003E3F9B01AC01C501B4010E948C3D4B018E
:102A50005C012091B2063091B3064091B4065091CA
:102A6000B506E9966CAD7DAD8EAD9FADE9970E9440
:102A70003E3F9B01AC01C501B4010E948C3D9B010E
:102A8000AC01C701B6010E948C3D6D962CAD3DADE9
:102A90004EAD5FAD6D972093950D3093960D40939D
:102AA000970D5093980D69962CAD3DAD4EAD5FAD31
:102AB00069972093910D3093920D4093930D50930D
:102AC000940D65962CAD3DAD4EAD5FAD65972093F1
:102AD0008D0D30938E0D40938F0D5093900D60931C
:102AE000890D70938A0D80938B0D90938C0D81E0EE
:102AF00090E00E94D62A4091100D5091110D6091E6
:102B0000120D7091130D80E090E00E94D22A809007
:102B10001C0D90901D0DA0901E0DB0901F0D20E07B
:102B200030E040E85FEBC501B4010E94F03D88232E
:102B300031F1C090100DD090110DE090120DF09079
:102B4000130DA7019601C501B4010E948B3D4B01F5
:102B50005C0120E030E040E054E3C701B6010E9490
:102B60003E3F9B01AC01C501B4010E943A3F1816DB
:102B700034F089E997E09093FB0C8093FA0C8091F4
:102B8000200D882331F089E997E09093FB0C809326
:102B9000FA0C6091140D7091150D8091160D9091A5
:102BA000170D6F5F7F4F8F4F9F4F6093140D709382
:102BB000150D8093160D9093170D0E94883E20915D
:102BC000180D3091190D40911A0D50911B0D0E9456
:102BD0003E3F6093100D7093110D8093120D9093F2
:102BE000130DC054DF4F0FB6F894DEBF0FBECDBF3C
:102BF000DF91CF911F910F91FF90EF90DF90CF90D9
:102C0000BF90AF909F908F907F906F905F904F900C
:102C10003F902F900895CF92DF92EF92FF920F9303
:102C20001F93CF93DF9387E2EAEFFCE0DF011D9271
:102C30008A95E9F780E090E0A0E2B1E480931C0D72
:102C400090931D0DA0931E0DB0931F0D8AE097ED7C
:102C5000A3E2BCE38093180D9093190DA0931A0D75
:102C6000B0931B0DEEEFFCE084EA96E7ACEEB5E323
:102C700080839183A283B3838BEE9CEBA8EBBDE7AB
:102C80008093020D9093030DA093040DB093050D56
:102C90008FE299EDACECB1EF8093060D9093070DA8
:102CA000A093080DB093090D84ED99EAA0E4BFE666
:102CB00080930A0D90930B0DA0930C0DB0930D0D06
:102CC000CCEDD8E0D093FD0CC093FC0CAAEAB8E0A0
:102CD000B983A88389E198E08D939C939093AD0884
:102CE0008093AC089093AF088093AE089093B1089E
:102CF0008093B0089093B3088093B2089093B5087E
:102D00008093B4089093B7088093B6089093B9085D
:102D10008093B8089093BB088093BA089093BD083D
:102D20008093BC089093BF088093BE089093C1081D
:102D30008093C0089093C3088093C20824EC3DE0C0
:102D40003093C5082093C4083093C7082093C60861
:102D50002FEB3DE03093C9082093C8083093CB088F
:102D60002093CA082AEB3DE03093CD082093CC088D
:102D70003093CF082093CE0825EB3DE03093D10867
:102D80002093D0083093D3082093D2089093D5088D
:102D90008093D4089093D7088093D6089093D9084D
:102DA0008093D8089093DB088093DA082EE03DE00A
:102DB0003093E1082093E008F093DF08E093DE0809
:102DC00080E19DE09093E3088093E20880EAEAE5E1
:102DD000FCE0EF0119928A95E9F7C1E2DDE088EAAB
:102DE000FE0111928A95E9F7E8E9F8E082E1DF0156
:102DF0001D928A95E9F7D901ED93FC938EE090E05E
:102E00009183808386E693E090939B0880939A0851
:102E10008AE493E090939D0880939C0886EA92E070
:102E200090939F0880939E088AE092E09093A10877
:102E30008093A0088CE797E00E946E0161E080918A
:102E4000F2030E94012F61E08091F6030E94012F9E
:102E500084E697E00E946E0161E08091FA030E948F
:102E6000012F61E08091FE030E94012F60E08091BC
:102E7000F6060E94012F60E08091FA060E94012F61
:102E800060E08091FE060E94012F60E080910207C1
:102E90000E94012F8091520790915307A0915407EF
:102EA000B09155078093F60C9093F70CA093F80C13
:102EB000B093F90C80913C0790913D07A0913E079B
:102EC000B0913F078093F20C9093F30CA093F40C15
:102ED000B093F50C8091260790912707A0912807C1
:102EE000B09129078093EE0C9093EF0CA093F00C17
:102EF000B093F10C8091100790911107A0911207E7
:102F0000B09113078093EA0C9093EB0CA093EC0C18
:102F1000B093ED0C81E08093C90D8093CA0D80932E
:102F2000CB0D8093CC0D00919203109193032091CF
:102F3000940330919503088319832A833B8340913E
:102F40009603509197036091980370919903409371
:102F5000250D5093260D6093270D7093280D8091B9
:102F60009A0390919B03A0919C03B0919D03809341
:102F7000290D90932A0DA0932B0DB0932C0DC0908A
:102F8000AA04D090AB04E090AC04F090AD04C092E1
:102F90002D0DD0922E0DE0922F0DF092300DC0929B
:102FA000310DD092320DE092330DF092340D00933A
:102FB000350D1093360D2093370D3093380D009357
:102FC000410D1093420D2093430D3093440D009317
:102FD0004D0D10934E0D20934F0D3093500D409397
:102FE000390D50933A0D60933B0D70933C0D409317
:102FF000450D5093460D6093470D7093480D4093D7
:10300000510D5093520D6093530D7093540D809356
:103010003D0D90933E0DA0933F0DB093400D8093D6
:10302000490D90934A0DA0934B0DB0934C0D809396
:10303000550D9093560DA093570DB093580D809158
:1030400002048093AD0D809103048093AE0D8091B6
:1030500004048093AF0D809105048093B00D80919E
:10306000560790915707A0915807B0915907809340
:10307000C00D9093C10DA093C20DB093C30D80916C
:10308000400790914107A0914207B0914307809378
:10309000BB0D9093BC0DA093BD0DB093BE0D809160
:1030A0002A0790912B07A0912C07B0912D078093B0
:1030B000B60D9093B70DA093B80DB093B90D809154
:1030C000140790911507A0911607B09117078093E8
:1030D000B10D9093B20DA093B30DB093B40DC09009
:1030E0008203D0908303E0908403F0908503C09224
:1030F000590DD0925A0DE0925B0DF0925C0D00914B
:1031000086031091870320918803309189030093EF
:103110005D0D10935E0D20935F0D3093600D409117
:103120008A0350918B0360918C0370918D034093BF
:10313000610D5093620D6093630D7093640D8091E7
:103140008E0390918F03A0919003B091910380938F
:10315000650D9093660DA093670DB093680DC092B6
:10316000690DD0926A0DE0926B0DF0926C0D009398
:103170006D0D10936E0D20936F0D3093700D409375
:10318000710D5093720D6093730D7093740D809355
:10319000750D9093760DA093770DB093780DC09236
:1031A000790DD0927A0DE0927B0DF0927C0D009318
:1031B0007D0D10937E0D20937F0D3093800D4093F5
:1031C000810D5093820D6093830D7093840D8093D5
:1031D000850D9093860DA093870DB093880DC092B6
:1031E000890DD0928A0DE0928B0DF0928C0D009398
:1031F0008D0D10938E0D20938F0D3093900D409375
:10320000910D5093920D6093930D7093940D809354
:10321000950D9093960DA093970DB093980DDF9117
:10322000CF911F910F91FF90EF90DF90CF90089575
:103230000895CF93DF93CDB7DEB72A970FB6F894F2
:10324000DEBF0FBECDBFAC01CB0160E070E04983B3
:103250005A836B837C83AA2797FDA095BA2F8D8311
:103260009E83AF83B8879E01275F3F4FAE014F5FBC
:103270005F4F68E070E08091ED089091EE080E9449
:10328000193C811108C081E029853A852830310533
:1032900019F480E001C081E02A960FB6F894DEBFF1
:1032A0000FBECDBFDF91CF9108950F931F93CF93A2
:1032B000DF931F921F92CDB7DEB78B019E012F5F68
:1032C0003F4FAC018091ED089091EE080E94193CAF
:1032D000811108C081E029813A812017310719F452
:1032E00080E001C081E00F900F90DF91CF911F919E
:1032F0000F910895CF93DF93EC011092F108109293
:10330000F008AC0160E070E0CB010E94E624AE0161
:1033100061E070E080E090E00E94E6248091ED089A
:103320009091EE08DF91CF910C94683CEF92FF9260
:103330000F931F93CF93DF931F921F92CDB7DEB7EA
:103340008C018091EB089091EC0880179107B4F5FF
:103350008091E9089091EA08009731F00E947F403F
:103360001092EC081092EB08C8010E94E73F90937E
:10337000EA088093E908892B19F4E12CF12C18C094
:103380001093EC080093EB0819C028EE38E0AE016A
:103390004F5F5F4F61E070E08091ED089091EE0823
:1033A0000E945A3B811107C089819A81E80EF91E5B
:1033B000E016F10654F380E090E01FC0E12CF12C00
:1033C0002091E9083091EA08E016F106ACF42E0DE0
:1033D0003F1DAE014F5F5F4FB8016E197F098091AD
:1033E000ED089091EE080E945A3B8111E4CF89814B
:1033F0009A81E80EF91EE4CFC9010F900F90DF917A
:10340000CF911F910F91FF90EF9008950F931F930D
:10341000CF93DF93EB018A010CDF81110AC0011504
:10342000110539F0BE01C801DF91CF911F910F91B5
:103430003CCFDF91CF911F910F910895CF92DF92F2
:10344000EF92FF92CF93DF93CDB7DEB728970FB6F9
:10345000F894DEBF0FBECDBF6B01E12CF12CC98209
:10346000DA82EB82FC822D833E834F835887AE0144
:103470004F5F5F4F68E070E0C9DF28960FB6F894A1
:10348000DEBF0FBECDBFDF91CF91FF90EF90DF90F9
:10349000CF9008950F931F93CF93DF93EC018B018F
:1034A0000E94563B9093EE088093ED08009741F000
:1034B000A801BE010E94DB3AEC01009719F40CC090
:1034C000CCE1D8E08091ED089091EE080E94593B44
:1034D0001092EE081092ED08CE01DF91CF911F916E
:1034E0000F9108958091ED089091EE080C94533B54
:1034F0006F927F928F929F92AF92BF92CF92DF9204
:10350000EF92FF920F931F93CF93DF9300D000D0E1
:10351000CDB7DEB76B017C014A018091F1088823A9
:1035200009F441C09401B701A601CE0101960E94A1
:10353000752989819A8118161906ACF5A12CB12C30
:1035400000E010E089819A81081719075CF76B8009
:103550007C806A0C7B1CF301608171818281938184
:10356000A4DE81111EC0F301648175811616170651
:103570002CF48681978199DE811113C0C801880FD0
:10358000991FED81FE81E80FF91FB701A601808127
:1035900091810E9418250F5F1F4FF8E0AF0EB11CFC
:1035A000D1CFC401A7DE26960FB6F894DEBF0FBEBA
:1035B000CDBFDF91CF911F910F91FF90EF90DF90E2
:1035C000CF90BF90AF909F908F907F906F90089515
:1035D000CF93DF93EC01AC0160E070E0CB0188DFBA
:1035E000AE0161E070E080E090E0DF91CF9180CFAC
:1035F000CF938091ED089091EE080E94B73AC82FC2
:10360000811109C060E070E0CB0166D561E070E037
:1036100080E090E061D58C2FCF9108950F931F9398
:1036200089019A01AB01BC018091ED089091EE08EF
:103630000E94673C1F910F9108954F925F926F9285
:103640007F928F929F92AF92BF92CF92DF92EF9232
:10365000FF920F931F93CF93DF93CDB7DEB766979B
:103660000FB6F894DEBF0FBECDBF4C015B018A01DF
:103670008091F108882369F08091F108882309F48A
:10368000BDC21A821982E12CF12C78E0C72ED12C10
:1036900014C061EF78E08091ED089091EE080E94EF
:1036A000B93A8111ABC2E8CFE20EF31EE114F10486
:1036B000D9F088E0E816F104BCF429E030E02C0FE2
:1036C0003D1F2E0D3F1DAE014F5F5F4FB6016E19BE
:1036D0007F098091ED089091EE080E945A3B298164
:1036E0003A81882309F388C2121613060CF086C2A9
:1036F0008091F008811104C019861A861B861C86E9
:1037000089859A85AB85BC858031910508F076C2A4
:10371000FC01EE58FF4F0C94C33FD4011696ED9177
:10372000FC91179780819181A281B38189839A83CB
:10373000AB83BC83AE014F5F5F4F64E070E085E117
:1037400090E06CC18D859E85F1DD009731F42FEFFF
:103750003FEFA90161E070E00EC0FC01C080D180A4
:10376000E280F380A501C701B6010E949B24A70156
:10377000960160E070E08DE190E03CC28D859E8511
:10378000D5DD009721F42FEF3FEFA9010FC0DC0139
:10379000CD90DD90ED90FD90AD0197018601B501D2
:1037A000C401B0D5A7019601882319F061E070E04B
:1037B00002C060E070E08BE190E01CC28D859E85C8
:1037C000B5DD009721F42FEF3FEFA9010EC0FC01FA
:1037D000C190D190E190F190BF01A7019601C40181
:1037E00086D7A7019601882319F061E070E002C036
:1037F00060E070E08CE190E0FDC1D4011496ED91A1
:10380000FC911597E080F180F70102811381A0807F
:10381000B18060E1462E512C612C712C49825A8274
:103820006B827C8288E090E0A0E0B0E08D839E8394
:10383000AF83B8879E012F5E3F4FAE014F5F5F4F52
:1038400068E070E08091ED089091EE080E94193CCC
:10385000882319F0E12CF12CAEC089899A89089748
:10386000C9F7D701CD90DC90B8E0CB0ED11CCC0CC1
:10387000DD1CCC0CDD1CC6010E94E73F7C010097DB
:1038800049F349825A826B827C82C601AA2797FD3E
:10389000A095BA2F8D839E83AF83B8879E012F5E3C
:1038A0003F4FAE014F5F5F4F68E070E08091ED08E1
:1038B0009091EE080E94193C81117DC089899A89F6
:1038C000089709F078C0D4011296ED91FC911397F6
:1038D0004081518162817381D7014D935D936D93D6
:1038E0007C931397448155816681778114964D931B
:1038F0005D936D937C9317974085518562857385A1
:1039000018964D935D936D937C931B978485958555
:10391000A685B785F70184879587A687B787108A1C
:10392000118A128A138A84E090E0A0E0B0E0848BD0
:10393000958BA68BB78B8091960790919707A0E007
:10394000B0E0808F918FA28FB38FC501AA2797FD1A
:10395000A095BA2F848F958FA68FB78FB801A70136
:10396000405E5F4F20E030E02A153B057CF4DB0130
:103970008D919D91BD01A0E0B0E0FA0181939193FA
:10398000A193B193AF012F5F3F4FEECF9E012F5E0A
:103990003F4FA701B6018091ED089091EE080E947B
:1039A000193C811108C089899A898C159D0519F4E3
:1039B00081E08093F008C70166960FB6F894DEBFE9
:1039C0000FBECDBFDF91CF911F910F91FF90EF9070
:1039D000DF90CF90BF90AF909F908F907F906F902F
:1039E0005F904F900C947F408D859E85AF85B88900
:1039F0000097A105B10529F199DC009789F481E0D0
:103A000090E0A0E0B0E089839A83AB83BC83AE01F1
:103A10004F5F5F4F64E070E082E190E0F7DCEEC062
:103A2000BC01C401ACD219821A821B821C82AE0175
:103A30004F5F5F4F64E070E082E190E0E7DC81116E
:103A4000DDC081E08093EF08D9C0D4011496ED91D8
:103A5000FC9115970190F081E02D008511850115ED
:103A6000110509F460C0D801ED90FC90C280D380AC
:103A700020E030E060E070E080E090E08E159F058F
:103A80000CF5F801A281B381A20FB31F1296ED913C
:103A9000FC911397EE0FFF1FEC0DFD1D0190F081BF
:103AA000E02D16960D90BC91A02DEA9FA001EB9FF2
:103AB000500DFA9F500D1124640F751F0196285F59
:103AC0003F4FDCCF83E190E0B4DB811197C0812CC4
:103AD000912CA12CB12CAE14BF040CF08FC0D801D6
:103AE0001296ED91FC911397E80DF91DA281B38117
:103AF000AA0FBB1FAC0DBD1D2D913C9186819781F6
:103B0000289FB001299F700D389F700D112480816E
:103B10009181CBDBB8E08B0E911C81116FC0EFEF70
:103B2000AE1ABE0AD8CF60E070E083E190E081DB9E
:103B300065C040E050E060E070E081E190E066DC6C
:103B400081115CC0C12CD12C7601C701B601C1D353
:103B500080917A09882321F0A501C701B601C8DC4C
:103B6000A501C701B601DCD2FFEFCF1ADF0AEF0AC9
:103B7000FF0A82E0C816D104E104F10431F7109283
:103B8000F1081092F0088091ED089091EE080E94E3
:103B9000C43A34C081E090E090937C0980937B0923
:103BA00040E050E060E070E086E190E037CF81E0F7
:103BB000D8018C9323C08D859E85B8DB009731F4A6
:103BC0002FEF3FEFA90161E070E012C0FC012081FE
:103BD000318142815381CA01B9012B8B3C8B4D8BC2
:103BE0005E8BFFD62B893C894D895E8960E070E051
:103BF0008EE190E023DC02C0C5017CDB66960FB647
:103C0000F894DEBF0FBECDBFDF91CF911F910F9112
:103C1000FF90EF90DF90CF90BF90AF909F908F90EC
:103C20007F906F905F904F900895CF92DF92EF92C8
:103C3000FF92CF93DF93EC01C12CD12C7601C70109
:103C4000B60147D3AE01C701B60152DCAE01C701D0
:103C5000B60166D28091E9089091EA08009731F0A8
:103C60000E947F401092EA081092E9088FEFC81A6C
:103C7000D80AE80AF80A82E0C816D104E104F1047F
:103C8000F1F68091F008882359F040E050E060E0C0
:103C900070E084E190E0BADBC82F1092F00801C018
:103CA000C0E08091F108882341F01092F10821E0F2
:103CB00030E030939707209396078091ED0890911C
:103CC000EE080E94C73A8091ED089091EE080E949C
:103CD000593B8C2FDF91CF91FF90EF90DF90CF90E9
:103CE0000895CF93DF93EC01AC0160E070E0CB016D
:103CF0000E94EC28AE0161E070E080E090E0DF918E
:103D0000CF910C94EC2860E070E0CB010E94512927
:103D100061E070E080E090E00C945129CF92DF9256
:103D2000EF92FF920F931F93CF93DF93EC016A0101
:103D30007B0100E010E09801A4D601E010E020E053
:103D400030E0B701A601CE019CD6DF91CF911F9143
:103D50000F91FF90EF90DF90CF900895EF92FF9238
:103D60000F931F93CF93DF93DC01EA01F9011496BF
:103D70008D919C91159712960D911C911397080F98
:103D8000191F2881398118964D915C911997421716
:103D9000530728F04D915C911197452B59F178010B
:103DA000E21AF30A18964D915C911997481B590B2A
:103DB0004E0D5F1D46175707B4F1A901460F571F57
:103DC0004017510700F1F182E082338322836E199C
:103DD0007F0975836483161617061CF030E020E017
:103DE00002C0382F292F36832783680F791F7983E4
:103DF000688317C018968D919C911997821B930B1D
:103E00008617970784F0718360833383228315823A
:103E100014821782168288819981860F971F998351
:103E2000888380E001C081E0DF91CF911F910F91E5
:103E3000FF90EF900895CF93DF9324E4269FE00155
:103E4000279FD00D1124CE50D74F8AA99BA9009748
:103E500021F00E947F401BAA1AAA8EA99FA9009751
:103E600011F00E947F401B8A1A8A1E8A1F8A188EB0
:103E7000198E1A8E1B8E1C8E1D8E1E8E1F8E18A2E2
:103E800019A281E090E09BA38AA31DA21CA21EA2FE
:103E90001FA218A619A61BA61AA61DA61CA61EA61A
:103EA0001FA618AA19AA1BAA1AAA1DAA1CAA1FAAE9
:103EB0001EAA19AE18AE1AAE1BAE1CAE1DAEFE0188
:103EC000FE961082118212821382CE5BDF4F19821E
:103ED0001882DF91CF910895CF93DF93FB01DC012E
:103EE000CD91DC91AE81BF818081918123E0880FEB
:103EF000991F2A95E1F712960D90BC91A02DA80F5D
:103F0000B91F6D917C91119784859585880F991FB4
:103F10000A80DB81C02DC80FD91F0990D881C02D20
:103F200014968D919C911597892B19F082E090E061
:103F300002C081E090E08C9F90018D9F300D9C9F8E
:103F4000300D112480859185289FD001299FB00DC7
:103F5000389FB00D11240480F581E02D2E9FC00103
:103F60002F9F900D3E9F900D1124860F971FFA01F1
:103F700091838083B383A283DF91CF9108952F92A1
:103F80003F924F925F926F927F928F929F92AF92E9
:103F9000BF92CF92DF92EF92FF920F931F93CF9336
:103FA000DF9300D000D0CDB7DEB7DC011496ED91E1
:103FB000FC9115970190F081E02D808591859A8381
:103FC0008983A281B381BC83AB83DB018D909D90FB
:103FD000AD90BD90C12CD12C7601C814D904EA044F
:103FE000FB040CF060C014964D905D906D907C9039
:103FF000179718964D915D916D917C911B97FD01DE
:104000007096FE83ED838D919C91119763E0880FEC
:10401000991F6A95E1F7E981FA8122813381280F9E
:10402000391FF901208031801C96ED91FC911D977C
:10403000EE0FFF1F8B819C81E80FF91F0190F0812B
:10404000E02DD90114968D919C911597892B19F02B
:1040500082E090E002C081E090E08E9F90018F9F0F
:10406000300D9E9F300D1124249F8001259F100D3F
:10407000349F100D1124249DC001259D900D349D69
:10408000900D1124A8016D817E81820D931D0E94E7
:104090000E41AD81BE81A00FB11FEFEFCE1ADE0A37
:1040A000EE0AFE0A9ACF26960FB6F894DEBF0FBE30
:1040B000CDBFDF91CF911F910F91FF90EF90DF90D7
:1040C000CF90BF90AF909F908F907F906F905F90B8
:1040D0004F903F902F900895CF93DF9324E4269F35
:1040E000F001279FF00D1124EE50F74FDB01AC5685
:1040F000B84F3C91332329F0EF0119922A95E9F743
:104100001C921482158216821782118610861386DD
:104110001286118A108A17861686DF91CF918BCE70
:104120002F923F924F925F926F927F928F929F92C7
:10413000AF92BF92CF92DF92EF92FF920F931F93B5
:10414000CF93DF9300D01F92CDB7DEB76B017C0118
:104150001A0184E48C9D90018D9D300D11242E5008
:10416000374F3C832B83F90184819581A681B781E8
:10417000892B8A2B8B2B09F495C0A12CB12C412CB7
:10418000512C3201AB81BC8114964D915D916D91A2
:104190007C91179718968D919C9119974416550606
:1041A000660677068CF5FC01EA0DFB1D3281238142
:1041B000032F122F812C912C82149304C4F4D80164
:1041C000ED91FC91309769F0848195812A83398340
:1041D0000E947F40F801808191810E947F40398157
:1041E0002A81FFEF8F1A9F0A0E5F1F4FE5CF832FA3
:1041F000922F0E947F402FEF421A520A620A720ADF
:1042000034E0A30EB11CBECF0E947F40EB81FC8145
:1042100082859385892BE1F0A12CB12C00E010E080
:10422000AB81BC811A968D919C911B970215130549
:104230006CF4FC01EA0DFB1D848195810E947F4096
:104240000F5F1F4FFEE0AF0EB11CEACF0E947F4010
:10425000EB81FC81808991890E947F40AB81BC8188
:104260001E968D919C911F970E947F40C701B601B9
:10427000E2DDC701B6010F900F900F900F90DF9114
:10428000CF911F910F91FF90EF90DF90CF90BF9053
:10429000AF909F908F907F906F905F904F903F90E6
:1042A0002F901ACF0F900F900F900F90DF91CF911A
:1042B0001F910F91FF90EF90DF90CF90BF90AF9044
:1042C0009F908F907F906F905F904F903F902F9036
:1042D000089524E4269FF001279FF00D1124EE504D
:1042E000F74F828993890497029758F485E090E00C
:1042F000938B828B8FEF9FEFDC01828F938FA48F44
:10430000B58F08952F923F924F925F926F927F9256
:104310008F929F92AF92BF92CF92DF92EF92FF92D5
:104320000F931F93CF93DF93CDB7DEB7AA970FB646
:10433000F894DEBF0FBECDBF9AA389A31B016A010B
:104340000B8B1C8B2D8B3E8B84E42B893C89829FAD
:104350008001839F100D11240E50174F2B893C892B
:104360004D895E89D8012D933D934D935C931397AE
:10437000AB016B897C898D899E89D2DEF6014191E2
:104380005191619171917F01CA01D80114964D93A9
:104390005D936D937C93179764E070E00E94CD3F2E
:1043A000F80191878087892B09F46DC118A21F8EAF
:1043B0001B8E1C8E1D8E1E8EF80184819581A68118
:1043C000B7812B8D3C8D4D8D5E8D281739074A079F
:1043D0005B070CF0D1C0D80118960D90BC91A02DB0
:1043E0002F8D38A1A20FB31FBA8BA98BD7018D9146
:1043F0009C91880F991FA9A1BAA1ED91FC91E80F9A
:10440000F91F80819181E989FA8991838083D7019D
:1044100014962D913D914D915C9117972BA33CA340
:104420004DA35EA3B8E0EB0EF11C62E070E0C101A9
:104430000E94CD3FE989FA8993838283892B09F40D
:1044400022C11F8A188E198E1A8E2F89388D498D98
:104450005A8D8BA19CA1ADA1BEA1281739074A078F
:104460005B070CF018C1D701CD90DC90CC0CDD1CA3
:10447000E989FA89A280B380AC0CBD1C68E070E0C9
:1044800081E090E00E94CD3FD5018D939C93A98956
:10449000BA891296ED91FC911397EC0DFD1D808069
:1044A00091808114910409F4EEC0F7014481558193
:1044B00066817781CA01D4014D935D936D937C939E
:1044C0001397B8E0EB0EF11C64E070E00E94CD3F62
:1044D000F40195838483892B09F4D5C0A12CB12CD8
:1044E000412C512C3201F40180819181A281B38150
:1044F000481659066A067B0694F5D4011496CD90A9
:10450000DC901597CA0CDB1CF701DE01119680E1E7
:1045100001900D928A95E1F7B0E1EB0EF11CA60136
:10452000BE016F5F7F4FE9A1FAA184819581D4DC40
:10453000D40116968D919C911797F60122813381B3
:10454000820F931F17969C938E931697FFEF4F1A27
:104550005F0A6F0A7F0A24E0A20EB11CC4CF2F8924
:10456000388D498D5A8D2F5F3F4F4F4F5F4F2F8BA7
:10457000388F498F5A8F69CF6EE070E0C1010E9479
:10458000CD3FD8011B969C938E931A97612C712C6A
:10459000812C912CA12CB12C44244394512C8214B5
:1045A00093040CF050C0F7014191519161917191C8
:1045B0007F01CA01D8011A96CD90DC901B97C60CDA
:1045C000D71C57FD60C0F60151824082009791F0E0
:1045D0004FA358A769A77AA70E94E73FD60115966F
:1045E0009C938E9314974FA158A569A57AA5892B02
:1045F00021F449C0F60115821482D60113965C930A
:104600004E93129714968D919C91159717969C93A3
:104610008E93169719969C938E9318971B961C92BF
:104620001E921A9781E090E0452B462B472B11F400
:1046300080E090E0A80EB91EBFEF8B1A9B0AEEE057
:104640006E0E711CACCFD8011D961C921E921C9749
:10465000C501F3E0880F991FFA95E1F70E94E73F43
:10466000F801918B808B892B71F0C501880F991F00
:104670000E94E73FD8011F969C938E931E97892B2B
:1046800011F080E01BC0A1016B897C898D899E8916
:1046900047DD81E013C02B8D3C8D4D8D5E8D2F5FEE
:1046A0003F4F4F4F5F4F2B8F3C8F4D8F5E8F2F8D26
:1046B00038A12C5F3F4F38A32F8F7ECEAA960FB61E
:1046C000F894DEBF0FBECDBFDF91CF911F910F9148
:1046D000FF90EF90DF90CF90BF90AF909F908F9022
:1046E0007F906F905F904F903F902F9008953F92F2
:1046F0004F925F926F927F928F929F92AF92BF92F2
:10470000CF92DF92EF92FF920F931F93CF93DF939D
:10471000CDB7DEB764970FB6F894DEBF0FBECDBF3E
:104720004C01FB01298B3A8B4B8B5C8B84E4829F81
:104730008001839F100D11240C5F164F80819181A1
:10474000D80113969C938E9312974481558166816C
:10475000778114964D935D936D937C931797408565
:1047600051856285738518964D935D936D937C9307
:104770001B9744855585668577851C964D935D937B
:104780006D937C931F9740895189628973895C96E8
:104790004D935D936D937C935F977F01B4E1EB0E36
:1047A000F11C141615060CF05DC0CA01880F991F84
:1047B000880F991F0E94E73FF80191A380A3892BDE
:1047C00009F499C0A12CB12C412C512C320130E1BB
:1047D000332EB301A2012FEF421A520A620A720A63
:1047E000F801848D958DA68DB78D481759076A07F6
:1047F0007B0764F5D8019096CD90DC909197CA0C18
:10480000DB1CF701DE011196832D01900D928A9534
:10481000E1F7B0E1EB0EF11CA601BE016F5F7F4F27
:10482000F4018481958158DBD80192968D919C91F9
:104830009397F60122813381820F931F93969C9365
:104840008E939297F4E0AF0EB11CC3CF82A193A1D7
:104850000E94E73FD80195969C938E939497892B5D
:1048600009F449C0F70180819181A281B381AC0133
:10487000BD014D7F21E030E0452B462B472B11F049
:1048800020E030E0F801318B208B0197A109B109BC
:1048900021E030E00297A105B10510F020E030E002
:1048A000D80153963C932E935297F70184819581BA
:1048B000A681B781F801848B958BA68BB78B8485F5
:1048C0009585A685B785B7FF10C0B095A095909542
:1048D00081959F4FAF4FBF4F80A791A7A2A7B3A7C6
:1048E00014861586168617860DC0F80110A611A627
:1048F00012A613A607C069897A898B899C899BDADD
:1049000081E001C080E064960FB6F894DEBF0FBE70
:10491000CDBFDF91CF911F910F91FF90EF90DF906E
:10492000CF90BF90AF909F908F907F906F905F904F
:104930004F903F900895CF93DF9324E4269FF0019A
:10494000279FF00D1124EE50F74F10927A0915A60B
:1049500014A620E030E080E090E0C1E0D0E08417D1
:10496000950714F5A285B385A20FB31F12966D911A
:104970007C911397161617069CF414966D917C91F2
:10498000159717967C936E93169719967C936E9352
:1049900018971B961C921E921A971196DC93CE9331
:1049A0000196225F3F4FDBCF13A612A611AE10AEC9
:1049B000DF01DE961D921D921D921C92139782E0DC
:1049C00090E0938B828BDF91CF91089524E4269F12
:1049D000F001279FF00D1124EE50F74F138A128A31
:1049E0009FCB24E4269FF001279FF00D1124EE5069
:1049F000F74F8289938981309105C8F08530910500
:104A000018F0059769F008958FEF9FEFDC01828F12
:104A1000938FA48FB58F85E090E0938B828B089560
:104A20008FEF9FEFDC01828F938FA48FB58F089556
:104A300024E4249FF001259FF00D1124EE50F74F40
:104A40002EE0AC01249FC001259F900D112402840B
:104A5000F385E02DE80FF91F81E080937A098285C4
:104A6000938591878087408551852681378181E0B4
:104A700090E04217530711F080E090E0918380832B
:104A800008952F923F924F925F926F927F928F92F2
:104A90009F92AF92BF92CF92DF92EF92FF920F93CD
:104AA0001F93CF93DF93CDB7DEB7C454D1090FB6B0
:104AB000F894DEBF0FBECDBF98AF8FAB4BA75CA7FE
:104AC0006DA77EA723960CAF1DAF2EAF3FAF2397E8
:104AD00084E421962EAD3FAD2197829F1001839FE4
:104AE000300C1124C1018E50974F1C01DC011A9625
:104AF0000D90BC91A02D2596BFAFAEAF2597FC01C0
:104B000082899389029709F018C186A597A5A0A963
:104B1000B1A9892B8A2B8B2B29F484E090E0938B0D
:104B2000828B0BC1D10184899589EFA9F8ADE81773
:104B3000F90709F002C1D6960D911C91D7971AAECC
:104B400019AE412C512C3201F10186A597A5A0A9DF
:104B5000B1A9481659066A067B060CF0D0C0D101EF
:104B6000D2960D90BC91A02DE9ADFAADAE0FBF1F4E
:104B7000BAABA9AB12962D913C9113973CAF2BAFDA
:104B800036952795369527953EAF2DAFD101D8960E
:104B90008D919C91D997892B09F495C09696CD90CB
:104BA000DD90ED90FC90999718AB0FA7E9A9FAA9B1
:104BB0000190F081E02DFCABEBAB1EAA1DAAEDA984
:104BC000FEA92DAD3EADE217F3070CF07CC0D1017C
:104BD00092968D919C919397892B79F1EBA9FCA9E1
:104BE00080809180A280B380A7019601C501B401A5
:104BF0000E943A3F87FD0CC0A7019601AFA5B8A956
:104C00006D917D918D919C910E94F03D87FD7CC0BE
:104C1000A7019601C501B4010E943A3F18166CF431
:104C2000A7019601EFA5F8A9608171818281938126
:104C30000E94F03D882309F467C0D10194968D91BC
:104C40009C919597892B71F1EBA9FCA980809180AB
:104C5000A280B380A7019601C501B4010E94F03D76
:104C600087FF0CC0A7019601AFA5B8A96D917D91F2
:104C70008D919C910E943A3F87FF46C0A701960103
:104C8000C501B4010E94F03D81110CC0A70196013D
:104C9000EFA5F8A960817181828193810E943A3FDA
:104CA000181694F12DA93EA92F5F3F4F3EAB2DABB7
:104CB0008FA598A9049698AB8FA7ABA9BCA9149609
:104CC000BCABABAB7CCFA9A9BAA96D917C914BAD24
:104CD0005CADC8010E940E418DAD9EAD880F991F3D
:104CE000880F991F080F191FBFEF4B1A5B0A6B0A39
:104CF0007B0AE9ADFAAD3496FAAFE9AF25CF81E092
:104D000090E091AF80AF19C0F101868D978DA0A181
:104D1000B1A1892B8A2B8B2B09F03AC284E090E059
:104D2000D10153969C938E935297DE968D919C91D0
:104D3000DF979B969C938E939A97D10152968D9173
:104D40009C9153978230910589F4DA968D919D91CB
:104D50000D90BC91A02D181619061A061B060CF012
:104D600021C2E1E0F0E0F8ABEFA705C0049709F03D
:104D700019C218AA1FA68EE02FA938AD829F500134
:104D8000839FB00C112425968EAD9FAD2597A80E5C
:104D9000B91ED50112964D915C911397411551059D
:104DA00009F400C216968D919C9117979AA789A72E
:104DB000FE01319684E1DF011D928A95E9F7239681
:104DC0008CAD9DADAEADBFAD2397898B9A8BAB8B70
:104DD000BC8BAFA5B8A9AB2B09F448C04101BEE319
:104DE0008B0E911CF401C080D180E280F380F10130
:104DF00082AD93ADA4ADB5ADC816D906EA06FB06E3
:104E0000A9F5D50114966D917C91159718960D9082
:104E1000BC91A02D14960D911D912D913C91179749
:104E2000C8010D8B1E8B2F8B388F08969E8B8D8B18
:104E3000F50120853185280F391F3187208780852E
:104E40009185460F571F841B950B97FD04C0680F73
:104E5000791F71876087F1E0CF1AD108E108F10866
:104E6000D401CD92DD92ED92FC9213979E012B5EC0
:104E70003F4FAE01475D5F4F64E170E0C5010E94A6
:104E8000AE1E082F10E00115110509F06DC18CE070
:104E900090E0A0E0B0E08D839E83AF83B8879E0151
:104EA000235E3F4FAE01475D5F4F64E070E0C50198
:104EB0000E94AE1E082F10E00115110509F054C123
:104EC00080E190E0A0E0B0E08D839E83AF83B8875F
:104ED0004D8D5E8DBE01655D7F4F8F8D98A10E94C7
:104EE0000E418BA19CA1009761F06D8D7E8DEBE250
:104EF000F0E0EC0FFD1F6E0F7F1F49A15AA10E9429
:104F00000E411DA21EA21FA218A62FA938AD220F66
:104F1000331F3EAB2DABCDA0DEA0EFA0F8A4F10176
:104F200084819581A681B781C816D906EA06FB0659
:104F30000CF0CBC0D1011896ED91FC911997C601E8
:104F4000880F991F880F991FE80FF91FA081B18161
:104F50008C91882309F4AFC0833009F4ACC002807F
:104F6000F381E02D2DA93EA9E20FF31F80819181ED
:104F70009CAB8BAB892B09F49EC089859A85AB8548
:104F8000BC850196A11DB11D89879A87AB87BC8717
:104F90009E01235E3F4FAE01475D5F4F64E070E0CE
:104FA000C5010E94AE1E90E0009709F0DCC08D8123
:104FB0009E81AF81B8850496A11DB11D8D839E830E
:104FC000AF83B8874D8D5E8DBE016B5D7F4F8F8D3A
:104FD00098A10E940E418BA19CA1009761F06D8D5C
:104FE0007E8DA5E2B0E0AC0FBD1F6A0F7B1F49A10B
:104FF0005AA10E940E411AAA19AA412C512C320121
:10500000EBA9FCA980819181A281B3814816590640
:105010006A067B060CF04FC0EBA9FCA98480958042
:1050200029A93AA9820E931ED40112966D917C9102
:1050300013979E01235E3F4FAE01475D5F4FC50151
:105040000E94AE1E90E0009709F08DC0F4014281ED
:105050005381662757FD6095762F8D819E81AF81A4
:10506000B885840F951FA61FB71F8D839E83AF83BE
:10507000B887608171814D8D5E8D8F8D98A10E9462
:105080000E418BA19CA1009759F0D4016D917C91A8
:105090002D8D3E8D620F731F49A15AA10E940E41B2
:1050A000BFEF4B1A5B0A6B0A7B0AE9A9FAA934968F
:1050B000FAABE9ABA5CFFFEFCF1ADF0AEF0AFF0A81
:1050C000CDA2DEA2EFA2F8A626CF89859A85AB8570
:1050D000BC85892B8A2B8B2B09F446C08AE190E092
:1050E000A0E0B0E089839A83AB83BC832FA938AD5D
:1050F000C901AA2797FDA095BA2F8D879E87AF87F4
:10510000B88B4D895E89BE016F5F7F4F8F89988D07
:105110000E940E418B8D9C8D009761F06D897E8978
:10512000A1E0B0E0AC0FBD1F6A0F7B1F498D5A8D07
:105130000E940E4189A59AA5F50197838683118265
:1051400010822FA538A9232B69F1F101FE968081E9
:105150009181A281B3810196A11DB11D80839183AC
:10516000A283B3831FC08C018FA598A9892BD1F48A
:10517000012BC1F081E090E0D1019D969C938E932C
:105180009C9785E090E053969C938E9352970AC02B
:1051900083E090E0F101938B828B81E090E093A714
:1051A00082A7CBCDCC5BDF4F0FB6F894DEBF0FBE2E
:1051B000CDBFDF91CF911F910F91FF90EF90DF90C6
:1051C000CF90BF90AF909F908F907F906F905F90A7
:1051D0004F903F902F900895CF92DF92EF92FF92E1
:1051E0000F931F93CF93DF9324E4269FE001279F23
:1051F000D00D1124CE50D74F2A893B892115310576
:1052000009F446C021303105A9F4CAA4DBA49601F3
:105210002F5F3F4F3BA72AA7EE24D7FCE094FE2C3C
:105220000A8D1B8D2C8D3D8DC016D106E206F3062E
:1052300079F581DB8A899B89039751F54AA55BA59E
:10524000CA0101969BA78AA7662757FD6095762F0E
:105250008E8D9F8DA8A1B9A1481759076A077B07B2
:10526000BCF08EAD9FAD9BA78AA784E090E09B8B9E
:105270008A8B8AAD9BADACADBDAD181619061A066A
:105280001B0634F4CE5BDF4F81E090E09983888386
:10529000DF91CF911F910F91FF90EF90DF90CF9012
:1052A000089524E4269FF001279FF00D1124EE506D
:1052B000F74F828993890497B9F442A553A54F5FAC
:1052C0005F4F53A742A7662757FD6095762F8689C3
:1052D0009789A08DB18D481759076A077B0721F47C
:1052E00085E090E0938B828B08952F923F924F92AE
:1052F0005F926F927F928F929F92AF92BF92CF9266
:10530000DF92EF92FF920F931F93CF93DF9300D022
:105310001F92CDB7DEB749835A836B837C834901E3
:1053200024E4249F8001259F100D11240E50174F57
:10533000D80152966D907C90539793012450310977
:105340002230310508F0BCC01D961C921E921C979D
:10535000FC011182108213821282A12CB12C20E058
:1053600030E0281539050CF067C0D8011A962D9049
:105370003C901B972A0C3B1CF10140815181452B2D
:1053800009F054C060857185428053804681578101
:105390001C96ED90FC901D976701F3E0CC0CDD1C92
:1053A000FA95E1F75096ED91FC915197EC0DFD1DAA
:1053B0006701CC0CDD1C1E96ED90FC901F97EC0C49
:1053C000FD1CD7012D933C93D8011C96ED90FC90C9
:1053D0001D97BFEFEB1AFB0AD8011D96FC92EE92C7
:1053E0001C9773836283D1011B965C934E931A972B
:1053F0006417750748F4461B570B51834083158289
:1054000014821782168212C0D1011496CD90DC90BE
:1054100015977601E40CF51CE61AF70AF182E08292
:105420004C195D0955834483D782C6822F5F3F4F55
:10543000BEE0AB0EB11C95CFF80124853585DC01AB
:1054400011963C932E934089518913965C934E9309
:1054500012974685578515965C934E931497232B88
:10546000D1F5B5E06B167104B1F510927A09828D11
:10547000938DA48DB58DAE014F5F5F4F64E070E0FA
:105480008F3F9F4FAF4FBF4F59F480E290E00E9493
:10549000061A69817A818B819C81A40197DA1BC0ED
:1054A0008FE190E00E94061AD8019B961C921E92F2
:1054B0009A9781E090E053969C938E9352970BC0FD
:1054C000F80115861486DC0111961C921E92139623
:1054D0001C921E9212970F900F900F900F90DF91D9
:1054E000CF911F910F91FF90EF90DF90CF90BF90E1
:1054F000AF909F908F907F906F905F904F903F9074
:105500002F900895EF92FF920F931F93CF93DF9305
:105510007C018B01EA010E94721A811121C08091E5
:10552000960790919707049711F183E090E090938C
:105530009707809396071BC088818111F0CF28EDD3
:1055400038EB45E050E060E070E0CB010E940E1BBC
:10555000AE01B801C7010E941D1BC8010E94E81AD4
:1055600080917B0990917C09892B31F3D8CFDF9111
:10557000CF911F910F91FF90EF900895CF93DF93FC
:10558000EB0120919607309197072430310539F0CF
:105590000E941D1BCE01DF91CF910C94E81ADF9180
:1055A000CF9108950C948E1E0C94831E0C94711E42
:1055B0000C94F81A0C94151E089560E070E080E0D9
:1055C00090E00C944A1A0895AF92BF92CF92DF9266
:1055D000EF92FF920F931F93CF93DF931F921F922F
:1055E000CDB7DEB75C0169017A018B0180E090E004
:1055F000C114D104E104F104F1F0C114D10421E09B
:10560000E206F10410F4A60102C04FEF5FEF9E0125
:105610002F5F3F4FB801C5010E94733C8F3F2FEFB2
:10562000920749F029813A81C21AD30AE108F108A8
:10563000020F131FDDCF0F900F90DF91CF911F91BD
:105640000F91FF90EF90DF90CF90BF90AF900895B3
:10565000AF92BF92CF92DF92EF92FF920F931F9380
:10566000CF93DF931F921F92CDB7DEB75C01690124
:105670007A018B0180E090E0C114D104E104F104CF
:10568000F1F0C114D10421E0E206F10410F4A60106
:1056900002C04FEF5FEF9E012F5F3F4FB801C50182
:1056A0000E94B13C8F3F2FEF920749F029813A8148
:1056B000C21AD30AE108F108020F131FDDCF0F90C1
:1056C0000F90DF91CF911F910F91FF90EF90DF909E
:1056D000CF90BF90AF90089508951F920F920FB68C
:1056E0000F9211240BB60F922F933F934F935F931A
:1056F0006F937F938F939F93AF93BF93EF93FF939A
:105700008091810990918209892B29F0E09181098A
:10571000F09182091995FF91EF91BF91AF919F91FF
:105720008F917F916F915F914F913F912F910F904A
:105730000BBE0F900FBE0F901F9018951F920F92E7
:105740000FB60F9211240BB60F922F933F934F93E6
:105750005F936F937F938F939F93AF93BF93EF93D9
:10576000FF938091830990918409892B29F0E0911E
:105770008309F09184091995FF91EF91BF91AF9141
:105780009F918F917F916F915F914F913F912F9159
:105790000F900BBE0F900FBE0F901F9018951F9289
:1057A0000F920FB60F9211240BB60F922F933F93C7
:1057B0004F935F936F937F938F939F93AF93BF9319
:1057C000EF93FF938091850990918609892B29F0A9
:1057D000E0918509F09186091995FF91EF91BF91AC
:1057E000AF919F918F917F916F915F914F913F9179
:1057F0002F910F900BBE0F900FBE0F901F9018951A
:105800001F920F920FB60F9211240BB60F922F9387
:105810003F934F935F936F937F938F939F93AF9338
:10582000BF93EF93FF938091870990918809892B0B
:1058300029F0E0918709F09188091995FF91EF917E
:10584000BF91AF919F918F917F916F915F914F9198
:105850003F912F910F900BBE0F900FBE0F901F9096
:1058600018951F920F920FB60F9211240BB60F923C
:105870002F933F934F935F936F937F938F939F9358
:10588000AF93BF93EF93FF9380917D0990917E0931
:10589000892B29F0E0917D09F0917E091995FF91FE
:1058A000EF91BF91AF919F918F917F916F915F9198
:1058B0004F913F912F910F900BBE0F900FBE0F9005
:1058C0001F9018951F920F920FB60F9211240BB6CE
:1058D0000F922F933F934F935F936F937F938F9389
:1058E0009F93AF93BF93EF93FF9380917F09909124
:1058F0008009892B29F0E0917F09F09180091995A1
:10590000FF91EF91BF91AF919F918F917F916F9197
:105910005F914F913F912F910F900BBE0F900FBE53
:105920000F901F9018951F920F920FB60F9211248F
:105930000BB60F922F933F934F935F936F937F9389
:105940008F939F93AF93BF93EF93FF9380918909B8
:1059500090918A09892B29F0E0918909F0918A09AF
:105960001995FF91EF91BF91AF919F918F917F9189
:105970006F915F914F913F912F910F900BBE0F90C0
:105980000FBE0F901F9018951F920F920FB60F9297
:1059900011240BB60F922F933F934F935F936F9306
:1059A0007F938F939F93AF93BF93EF93FF938091D8
:1059B0008B0990918C09892B29F0E0918B09F0914A
:1059C0008C091995FF91EF91BF91AF919F918F91A4
:1059D0007F916F915F914F913F912F910F900BBEEF
:1059E0000F900FBE0F901F9018951F920F920FB639
:1059F0000F9211242F933F938F939F93AF93BF9355
:105A000080918E0990918F09A0919009B091910990
:105A100030918D0923E0230F2D3720F40196A11D2D
:105A2000B11D05C026E8230F0296A11DB11D2093CC
:105A30008D0980938E0990938F09A0939009B0935C
:105A400091098091920990919309A0919409B09144
:105A500095090196A11DB11D809392099093930918
:105A6000A0939409B0939509BF91AF919F918F91A5
:105A70003F912F910F900FBE0F901F9018953FB739
:105A8000F8948091920990919309A0919409B09112
:105A9000950926B5A89B05C02F3F19F00196A11DB9
:105AA000B11D3FBF6627782F892F9A2F620F711D76
:105AB000811D911D42E0660F771F881F991F4A952F
:105AC000D1F70895CF92DF92EF92FF92CF93DF93B9
:105AD0006B017C01D4DFEB01C114D104E104F104BA
