:100000000CC100006BC10000A5C10000DFC10000F1
:1000100019C2000053C200008DC20000C7C2000018
:1000200001C300002BC1000029C1000027C100004E
:1000300025C100000C94A90F21C100001FC10000C0
:100040001DC100001BC1000019C1000017C1000044
:1000500015C1000013C1000011C100001FC3000042
:100060000DC100000C94170A0C944A0A07C1000045
:1000700005C1000003C1000001C10000FFC0000075
:10008000FDC00000FBC00000F9C00000F7C0000088
:100090000C94C60A0C94F90AF1C00000EFC00000ED
:1000A000EDC00000EBC00000E9C00000E7C00000A8
:1000B000E5C00000E3C00000E1C00000DFC00000B8
:1000C000DDC00000DBC000000C943C100C94750BEC
:1000D0000C94A80BD3C000000C94240C0C94570C67
:1000E000CDC000000A061406EC05F60500068C06D5
:1000F0001E06280632063C06460650065A066406C8
:100100008C066E0678068206000021002400270077
:100110002A002D0030003300010100000401070116
:100120000A0100002200250028002B002E003100CB
:10013000340002010000050108010B010505050559
:10014000070508080808020202020A0A080804044F
:10015000040401010101010101010303030303037D
:100160000303040707070C0C0C0C0C0C0C0C02020C
:10017000020206060606060606060B0B0B0B0B0B09
:100180000B0B010210202008081020401020408096
:10019000020102010804020101020408102040804B
:1001A00080402010080402018004020180402010D9
:1001B0000804020108040201010204081020408022
:1001C000010204081020408000000A0B02090C0DF7
:1001D0000E080703040100000000000000000000FA
:1001E000000000000000000000000000000000000F
:1001F00000000000121110000000000000000000CC
:1002000000000000000000000000000000000200EC
:10021000BA0A690B180CC90C9A0D11241FBECFEF36
:10022000D1E2DEBFCDBF00E00CBF12E0A0E0B2E043
:10023000E4EDF2E200E00BBF02C007900D92A6349D
:10024000B107D9F724E0A6E4B2E001C01D92A53EB3
:10025000B207E1F712E0CAE1D2E000E006C022975F
:100260000109FE010BBF0E945711C031D10780E088
:100270000807A9F70E94DC100C946811C1CECF9337
:10028000DF93CDB7DEB780910A0290910B02A09167
:100290000C02B0910D0253D3DF91CF910895CF930B
:1002A000DF93CDB7DEB783EE94E0FC0111821082BC
:1002B00080910A0290910B02A0910C02B0910D0264
:1002C000BC01CD010E942710DF91CF910895CF93FB
:1002D000DF93CDB7DEB7DF91CF9108951F920F92D4
:1002E00000905F000F92112400905B000F922F93FB
:1002F0003F934F935F936F937F938F939F93AF93AE
:10030000BF93EF93FF93CF93DF93CDB7DEB7809189
:100310004A0290914B02009731F080914A029091ED
:100320004B02FC011995DF91CF91FF91EF91BF91A5
:10033000AF919F918F917F916F915F914F913F917D
:100340002F910F9000925B000F9000925F000F9032
:100350001F9018951F920F9200905F000F9211242A
:1003600000905B000F922F933F934F935F936F9397
:100370007F938F939F93AF93BF93EF93FF93CF930D
:10038000DF93CDB7DEB780914C0290914D0200977C
:1003900031F080914C0290914D02FC011995DF9152
:1003A000CF91FF91EF91BF91AF919F918F917F91ED
:1003B0006F915F914F913F912F910F9000925B0051
:1003C0000F9000925F000F901F9018951F920F9250
:1003D00000905F000F92112400905B000F922F930A
:1003E0003F934F935F936F937F938F939F93AF93BD
:1003F000BF93EF93FF93CF93DF93CDB7DEB7809199
:100400004E0290914F02009731F080914E029091F0
:100410004F02FC011995DF91CF91FF91EF91BF91B0
:10042000AF919F918F917F916F915F914F913F918C
:100430002F910F9000925B000F9000925F000F9041
:100440001F9018951F920F9200905F000F92112439
:1004500000905B000F922F933F934F935F936F93A6
:100460007F938F939F93AF93BF93EF93FF93CF931C
:10047000DF93CDB7DEB78091500290915102009783
:1004800031F08091500290915102FC011995DF9159
:10049000CF91FF91EF91BF91AF919F918F917F91FC
:1004A0006F915F914F913F912F910F9000925B0060
:1004B0000F9000925F000F901F9018951F920F925F
:1004C00000905F000F92112400905B000F922F9319
:1004D0003F934F935F936F937F938F939F93AF93CC
:1004E000BF93EF93FF93CF93DF93CDB7DEB78091A8
:1004F000460290914702009731F080914602909118
:100500004702FC011995DF91CF91FF91EF91BF91C7
:10051000AF919F918F917F916F915F914F913F919B
:100520002F910F9000925B000F9000925F000F9050
:100530001F9018951F920F9200905F000F92112448
:1005400000905B000F922F933F934F935F936F93B5
:100550007F938F939F93AF93BF93EF93FF93CF932B
:10056000DF93CDB7DEB780914802909149020097A2
:1005700031F08091480290914902FC011995DF9178
:10058000CF91FF91EF91BF91AF919F918F917F910B
:100590006F915F914F913F912F910F9000925B006F
:1005A0000F9000925F000F901F9018951F920F926E
:1005B00000905F000F92112400905B000F922F9328
:1005C0003F934F935F936F937F938F939F93AF93DB
:1005D000BF93EF93FF93CF93DF93CDB7DEB78091B7
:1005E000520290915302009731F080915202909103
:1005F0005302FC011995DF91CF91FF91EF91BF91CB
:10060000AF919F918F917F916F915F914F913F91AA
:100610002F910F9000925B000F9000925F000F905F
:100620001F9018951F920F9200905F000F92112457
:1006300000905B000F922F933F934F935F936F93C4
:100640007F938F939F93AF93BF93EF93FF93CF933A
:10065000DF93CDB7DEB78091540290915502009799
:1006600031F08091540290915502FC011995DF916F
:10067000CF91FF91EF91BF91AF919F918F917F911A
:100680006F915F914F913F912F910F9000925B007E
:100690000F9000925F000F901F9018951F920F927D
:1006A00000905F000F9211248F939F93AF93BF939D
:1006B000CF93DF93CDB7DEB72597DEBFCDBF809157
:1006C0005A0290915B02A0915C02B0915D02898315
:1006D0009A83AB83BC8380915E028D8389819A81EA
:1006E000AB81BC810196A11DB11D89839A83AB8327
:1006F000BC838D818D5F8D838D818D3770F08D8171
:100700008D578D8389819A81AB81BC810196A11D12
:10071000B11D89839A83AB83BC838D8180935E02F4
:1007200089819A81AB81BC8180935A0290935B024C
:10073000A0935C02B0935D028091560290915702A3
:10074000A0915802B09159020196A11DB11D80934C
:10075000560290935702A0935802B09359020F90FB
:100760000F900F900F900F90DF91CF91BF91AF91AD
:100770009F918F910F9000925F000F901F9018959E
:10078000CF93DF93CDB7DEB7789484E490E024E490
:1007900030E0F90120812260FC01208384E490E0B4
:1007A00024E430E0F90120812160FC01208385E40C
:1007B00090E025E430E0F90120812260FC012083F3
:1007C00085E490E025E430E0F90120812160FC011E
:1007D00020838EE690E02EE630E0F9012081216052
:1007E000FC01208381E890E0FC01108281E890E028
:1007F00021E830E0F90120812260FC01208381E8BA
:1008000090E021E830E0F90120812160FC012083A3
:1008100080E890E020E830E0F90120812160FC01CF
:10082000208381EB90E021EB30E0F901208124600E
:10083000FC01208380EB90E020EB30E0F901208187
:100840002160FC01208381E990E021E930E0F90199
:1008500020812260FC01208381E990E021E930E0E1
:10086000F90120812160FC01208380E990E020E9EA
:1008700030E0F90120812160FC01208381EA90E0D1
:1008800021EA30E0F90120812260FC01208381EA25
:1008900090E021EA30E0F90120812160FC01208311
:1008A00080EA90E020EA30E0F90120812160FC013B
:1008B000208381E291E021E231E0F9012081226090
:1008C000FC01208381E291E021E231E0F901208105
:1008D0002160FC01208380E291E020E231E0F90117
:1008E00020812160FC0120838AE790E02AE730E044
:1008F000F90120812460FC0120838AE790E02AE747
:1009000030E0F90120812260FC0120838AE790E039
:100910002AE730E0F90120812160FC0120838AE789
:1009200090E02AE730E0F90120812068FC01208373
:1009300081EC90E0FC011082DF91CF910895CF937C
:10094000DF9300D0CDB7DEB78B838B81863318F071
:100950008B8186538B838BE790E02BE730E0F901A6
:100960002081422F477F2B81269526952695222F81
:1009700030E021703327220F331F220F331F220F45
:10098000331F242BFC0120838CE790E020910E0282
:10099000222F30E000243695279507943695279529
:1009A0000794322F202D322F2B812770232BFC010F
:1009B00020838AE790E02AE730E0F9012081206473
:1009C000FC01208300008AE790E0FC018081882FF1
:1009D00090E0807499270097B1F788E790E0FC01D8
:1009E0008081898389E790E0FC0180818A838A8104
:1009F000882F90E0382F22278981882F90E0822B42
:100A0000932B0F900F900F90DF91CF910895CF937C
:100A1000DF93CDB7DEB769970FB6F894DEBF0FBE90
:100A2000CDBF888F698F888D882F90E08E579E4F1D
:100A30009A83898389819A81FC0184918B838B813C
:100A40008C83888D882F90E0845C9E4F9E838D835D
:100A50008D819E81FC0184918F838F818887888519
:100A6000882309F494C08885882F90E0880F991F07
:100A7000885F9E4F9A87898789859A85FC01259191
:100A80003491CF013C872B879A8789878B859C85FA
:100A90009E878D878885882F90E0880F991F8E5DAF
:100AA0009E4F988B8F878F859889FC012591349173
:100AB000CF013A8B298B988B8F8789899A899C8B58
:100AC0008B8B898D882331F58FE590E0FC01808147
:100AD0008D8BF8948D859E85FC018081982F8C816B
:100AE00080958923282F8D859E85FC0120838B8905
:100AF0009C89FC018081982F8C8180958923282FE7
:100B00008B899C89FC0120838FE590E02D89FC0175
:100B100020833DC0898D823021F58FE590E0FC0176
:100B200080818E8BF8948D859E85FC018081982F25
:100B30008C8180958923282F8D859E85FC012083BB
:100B40008B899C89FC0190818C81292F282B8B8992
:100B50009C89FC0120838FE590E02E89FC01208395
:100B600016C08FE590E0FC0180818F8BF8948D8515
:100B70009E85FC0190818C81292F282B8D859E8557
:100B8000FC0120838FE590E02F89FC01208369968A
:100B90000FB6F894DEBF0FBECDBFDF91CF910895A1
:100BA000CF93DF931F92CDB7DEB789838981882FDA
:100BB00090E0AA2797FDA095BA2F41E050E021E1EF
:100BC00030E0841B950B2817390708F4A5C08E5810
:100BD0009F4FFC010C94511180E890E020E830E038
:100BE000F90120812F77FC01208396C080E890E0F6
:100BF00020E830E0F90120812F7DFC0120838CC0AA
:100C000080E890E020E830E0F9012081277FFC01B6
:100C1000208382C084E490E024E430E0F901208164
:100C20002F77FC01208378C084E490E024E430E056
:100C3000F90120812F7DFC0120836EC080EB90E0C4
:100C400020EB30E0F90120812F77FC01208364C084
:100C500080EB90E020EB30E0F90120812F7DFC015A
:100C600020835AC080E990E020E930E0F90120813A
:100C70002F77FC01208350C080E990E020E930E02C
:100C8000F90120812F7DFC01208346C080E990E09E
:100C900020E930E0F9012081277FFC0120833CC05E
:100CA00080EA90E020EA30E0F90120812F77FC0112
:100CB000208332C080EA90E020EA30E0F901208110
:100CC0002F7DFC01208328C080EA90E020EA30E0FC
:100CD000F9012081277FFC0120831EC080E291E082
:100CE00020E231E0F90120812F77FC01208314C03C
:100CF00080E291E020E231E0F90120812F7DFC01CA
:100D000020830AC080E291E020E231E0F9012081F5
:100D1000277FFC01208300000F90DF91CF91089581
:100D2000CF93DF93CDB7DEB765970FB6F894DEBFEC
:100D30000FBECDBF8C8B6D8B8C89882F90E0885334
:100D40009E4F9A83898389819A81FC0184918B8348
:100D50008B818C838C89882F90E08E579E4F9E8349
:100D60008D838D819E81FC0184918F838F81888703
:100D70008C89882F90E0845C9E4F9A87898789852B
:100D80009A85FC0184918B878B858C878C85882341
:100D900009F443C08C81882311F08C8101DF8C859C
:100DA000882F90E0880F991F8E5D9E4F9E878D87BC
:100DB0008D859E85FC0125913491CF01388B2F873D
:100DC0009E878D878F8598899A8B898B8FE590E098
:100DD000FC0180818B8BF8948D89882371F489893B
:100DE0009A89FC018081982F888580958923282FF6
:100DF00089899A89FC0120830BC089899A89FC0121
:100E000090818885292F282B89899A89FC01208344
:100E10008FE590E02B89FC01208365960FB6F8944E
:100E2000DEBF0FBECDBFDF91CF910895CF93DF938B
:100E3000CDB7DEB70E945B11CF93DF9300D0CDB763
:100E4000DEB79B838A838A819B81FC01848D882FF6
:100E500090E02A813B81820F931F835A9F4FFC01B0
:100E6000808189838A819B81FC01848D882F90E019
:100E700001968F739078992324F40197806C9F6F6B
:100E80000196282F8A819B81FC01248F8A819B8176
:100E9000FC01868997892981FC0120838A819B81B5
:100EA000FC01808991892A813B81F901208931895E
:100EB000F90120812064FC0120838A819B81FC014F
:100EC000238D8A819B81FC01948D81E0291709F093
:100ED00080E0882379F08A819B81FC018289938953
:100EE0002A813B81F90122893389F90120812F7DF3
:100EF000FC0120830F900F900F90DF91CF91089508
:100F0000CF93DF931F921F92CDB7DEB79A83898369
:100F100089819A81FC01818D882F90E09C01205C61
:100F20003F4F89819A81FC01828D882F90E0A90131
:100F3000481B590BCA018F7399270F900F90DF91AF
:100F4000CF910895CF93DF931F921F92CDB7DEB755
:100F50009A83898389819A81FC01218D89819A8173
:100F6000FC01928D81E0291709F080E0882319F0B7
:100F70008FEF9FEF0FC089819A81FC01828D882FAE
:100F800090E029813A81820F931F4D96FC01808168
:100F9000882F90E00F900F90DF91CF910895CF931D
:100FA000DF9300D0CDB7DEB79B838A838A819B8194
:100FB000FC01218D8A819B81FC01928D81E02917A2
:100FC00009F080E0882319F08FEF9FEF1CC08A8121
:100FD0009B81FC01828D882F90E02A813B81820FCA
:100FE000931F4D96FC01808189838A819B81FC013E
:100FF000828D8F5F282F2F738A819B81FC01228F26
:101000008981882F90E00F900F900F90DF91CF9102
:101010000895CF93DF931F921F92CDB7DEB79A83C7
:10102000898389819A81FC01908D81E089278823B9
:1010300009F04DC02CC08FE590E0FC018081882331
:101040007CF089819A81FC0182899389FC018081ED
:10105000882F90E080729927009711F081E001C0FD
:1010600080E08823A1F089819A81FC01808991899F
:10107000FC018081882F90E08072992721E0009701
:1010800009F420E0222319F089819A81D5DE898133
:101090009A81FC0182899389FC018081882F90E0EC
:1010A00080729927009769F489819A81FC0180896F
:1010B0009189FC018081882F90E0807499270097A6
:1010C00011F481E001C080E0882309F0B4CF0F90D3
:1010D0000F90DF91CF910895CF93DF9300D01F92AF
:1010E000CDB7DEB79B838A836C838A819B81FC01A9
:1010F000238D8A819B81FC01848D281779F48A8154
:101100009B81FC0180899189FC018081882F90E07E
:1011100080729927009711F081E001C080E0882358
:10112000D1F08A819B81FC01868997892C81FC0101
:1011300020838A819B81FC01808991892A813B815E
:10114000F90120893189F90120812064FC01208383
:1011500081E090E064C08A819B81FC01838D882FAF
:1011600090E001968F739078992324F40197806C16
:101170009F6F019689831EC08FE590E0FC018081FE
:101180008095881F8827881F8823A1F08A819B81EA
:10119000FC0180899189FC018081882F90E0807218
:1011A000992721E0009709F420E0222319F08A8191
:1011B0009B8142DE8A819B81FC01248D81E09981A3
:1011C000291709F080E08823B9F68A819B81FC0108
:1011D000838D882F90E02A813B81820F931F835A51
:1011E0009F4F2C81FC0120838A819B812981FC01F6
:1011F000238F8A819B81FC01828993892A813B818B
:10120000F90122893389F90120812062FC012083C0
:101210008A819B8121E0FC01208F81E090E00F908A
:101220000F900F900F90DF91CF910895CF93DF93A0
:101230001F921F92CDB7DEB79A83898389819A81E5
:1012400022E432E0FC013183208389819A81FC0110
:10125000138212820F900F90DF91CF910895CF9358
:10126000DF931F921F92CDB7DEB79A83898389815E
:101270009A81DCDF89819A8126E232E0FC013183A8
:10128000208329813A8188EE93E0A0E0B0E0F90163
:1012900084839583A683B7830F900F90DF91CF91BE
:1012A0000895CF92DF92EF92FF920F931F93CF9307
:1012B000DF93CDB7DEB72E970FB6F894DEBF0FBE23
:1012C000CDBF9A8389837C836B835E834D8338870C
:1012D0002F831A870987FC86EB86DE86CD86898177
:1012E0009A81BDDF89819A8126E132E0FC01318358
:1012F000208389819A812B813C81FC013587248759
:1013000089819A812D813E81FC01378726878981D9
:101310009A812F813885FC01318B208B89819A81BC
:1013200029853A85FC01338B228B89819A812B8513
:101330003C85FC01358B248B89819A812D853E85E6
:10134000FC01378B268B89819A81FC01118E898162
:101350009A81FC01128E89819A81FC01138E898108
:101360009A81FC01148E2E960FB6F894DEBF0FBE44
:10137000CDBFDF91CF911F910F91FF90EF90DF9044
:10138000CF900895CF93DF9300D01F92CDB7DEB7F3
:101390009C838B838B819C81FC0180899189FC01DA
:1013A0008081882F90E08470992721E0009709F0D0
:1013B00020E0222371F18B819C81FC018689978931
:1013C000FC01808189838B819C81FC01818D8F5FF1
:1013D0008F738A838B819C81FC01228D81E09A81AD
:1013E000291709F480E0882399F08B819C81FC0106
:1013F000818D882F90E02B813C81820F931F4D9629
:101400002981FC0120838B819C812A81FC01218F11
:1014100007C08B819C81FC0186899789FC018081B2
:101420000F900F900F900F90DF91CF9108951F9222
:101430000F9200905F000F92112400905B000F92BA
:101440002F933F934F935F936F937F938F939F93CC
:10145000AF93BF93EF93FF93CF93DF93CDB7DEB7F7
:101460008FE592E08FDFDF91CF91FF91EF91BF91F8
:10147000AF919F918F917F916F915F914F913F912C
:101480002F910F9000925B000F9000925F000F90E1
:101490001F9018951F920F9200905F000F921124D9
:1014A00000905B000F922F933F934F935F936F9346
:1014B0007F938F939F93AF93BF93EF93FF93CF93BC
:1014C000DF93CDB7DEB78FE592E0B6DCDF91CF9149
:1014D000FF91EF91BF91AF919F918F917F916F910C
:1014E0005F914F913F912F910F9000925B000F9071
:1014F00000925F000F901F901895CF92DF92EF92AD
:10150000FF920F931F93CF93DF9300D01F92CDB71D
:10151000DEB79A8389837C836B8389819A8181304A
:101520009105D9F48B819C818F3F2FEF9207A9F40D
:101530000F2EF6ECCF2ED12CF02D0F2EF2ECEF2E3D
:10154000F12CF02D01EC10E020EC30E044EC50E008
:1015500065EC70E08FE592E0A4DE0F900F900F90A5
:101560000F90DF91CF911F910F91FF90EF90DF903F
:10157000CF900895CF93DF93CDB7DEB76FEF7FEFB6
:1015800081E090E0BADFDF91CF9108951F920F9232
:1015900000905F000F92112400905B000F922F9338
:1015A0003F934F935F936F937F938F939F93AF93EB
:1015B000BF93EF93FF93CF93DF93CDB7DEB78CEF5D
:1015C00092E0E0DEDF91CF91FF91EF91BF91AF917B
:1015D0009F918F917F916F915F914F913F912F914B
:1015E0000F9000925B000F9000925F000F901F9091
:1015F00018951F920F9200905F000F921124009097
:101600005B000F922F933F934F935F936F937F9362
:101610008F939F93AF93BF93EF93FF93CF93DF93FA
:10162000CDB7DEB78CEF92E007DCDF91CF91FF9171
:10163000EF91BF91AF919F918F917F916F915F914A
:101640004F913F912F910F9000925B000F9000926D
:101650005F000F901F901895CF92DF92EF92FF924C
:101660000F931F93CF93DF9300D01F92CDB7DEB7B8
:101670009A8389837C836B8389819A8181309105E8
:10168000D9F48B819C818F3F2FEF9207A9F40F2E05
:10169000FEECCF2ED12CF02D0F2EFAECEF2EF12CEC
:1016A000F02D09EC10E028EC30E04CEC50E06DEC53
:1016B00070E08CEF92E0F5DD0F900F900F900F909F
:1016C000DF91CF911F910F91FF90EF90DF90CF901E
:1016D0000895CF93DF93CDB7DEB76FEF7FEF81E053
:1016E00090E0BADFDF91CF9108951F920F920090A2
:1016F0005F000F92112400905B000F922F933F9395
:101700004F935F936F937F938F939F93AF93BF9309
:10171000EF93FF93CF93DF93CDB7DEB789E993E0E3
:1017200031DEDF91CF91FF91EF91BF91AF919F910A
:101730008F917F916F915F914F913F912F910F907A
:1017400000925B000F9000925F000F901F90189521
:101750001F920F9200905F000F92112400905B0087
:101760000F922F933F934F935F936F937F938F933A
:101770009F93AF93BF93EF93FF93CF93DF93CDB737
:10178000DEB789E993E058DBDF91CF91FF91EF91CC
:10179000BF91AF919F918F917F916F915F914F9189
:1017A0003F912F910F9000925B000F9000925F008D
:1017B0000F901F901895CF92DF92EF92FF920F93A8
:1017C0001F93CF93DF9300D01F92CDB7DEB79A83DC
:1017D00089837C836B8389819A8181309105D9F4D7
:1017E0008B819C818F3F2FEF9207A9F40F2EF6ED8E
:1017F000CF2ED12CF02D0F2EF2EDEF2EF12CF02D5F
:1018000001ED10E020ED30E044ED50E065ED70E0DA
:1018100089E993E046DD0F900F900F900F90DF91D4
:10182000CF911F910F91FF90EF90DF90CF9008958F
:10183000CF93DF93CDB7DEB76FEF7FEF81E090E01E
:10184000BADFDF91CF9108951F920F9200905F0051
:101850000F92112400905B000F922F933F934F93B0
:101860005F936F937F938F939F93AF93BF93EF9308
:10187000FF93CF93DF93CDB7DEB786E394E082DDAD
:10188000DF91CF91FF91EF91BF91AF919F918F9198
:101890007F916F915F914F913F912F910F900092A7
:1018A0005B000F9000925F000F901F9018951F92A1
:1018B0000F9200905F000F92112400905B000F9236
:1018C0002F933F934F935F936F937F938F939F9348
:1018D000AF93BF93EF93FF93CF93DF93CDB7DEB773
:1018E00086E394E0A9DADF91CF91FF91EF91BF9168
:1018F000AF919F918F917F916F915F914F913F91A8
:101900002F910F9000925B000F9000925F000F905C
:101910001F901895CF92DF92EF92FF920F931F9333
:10192000CF93DF9300D01F92CDB7DEB79A83898320
:101930007C836B8389819A8181309105E9F48B8165
:101940009C818F3F2FEF9207B9F40F2EF6E3CF2E35
:10195000DD24D394F02D0F2EF2E3EF2EFF24F39429
:10196000F02D01E311E020E331E044E351E065E3D1
:1019700071E086E394E095DC0F900F900F900F904C
:10198000DF91CF911F910F91FF90EF90DF90CF905B
:101990000895CF93DF93CDB7DEB76FEF7FEF81E090
:1019A00090E0B8DFDF91CF910895CF93DF931F923E
:1019B0001F92CDB7DEB79A83898389819A812CE300
:1019C00032E0FC01318320830F900F90DF91CF91A3
:1019D00008950F93CF93DF9300D000D0CDB7DEB73B
:1019E0009A8389836B834C832D830E8389819A81AB
:1019F000DCDF89819A8126E332E0FC013183208398
:101A000089819A812B81FC01228389819A812C8191
:101A1000FC01238389819A812D81FC0124838981A2
:101A20009A812E81FC01258326960FB6F894DEBF9D
:101A30000FBECDBFDF91CF910F910895CF93DF936C
:101A4000CDB7DEB728970FB6F894DEBF0FBECDBF77
:101A50009E838D8378876F831A8219821C821B82F2
:101A600024C02D813E818B819C81820F931F029621
:101A7000FC0120818F8198854AE050E0622FF9D0E7
:101A800029813A81820F931F9A8389838F81988558
:101A90006EE2D3D029813A81820F931F9A83898382
:101AA0008B819C8101969C838B838B819C8183306D
:101AB0009105BCF28D819E81FC0125818F819885E5
:101AC0004AE050E0622FD5D029813A81820F931FDE
:101AD0009A83898389819A8128960FB6F894DEBF0C
:101AE0000FBECDBFDF91CF9108950F93CF93DF93BA
:101AF00000D01F92CDB7DEB79A8389837C836B8336
:101B000089819A818130910569F48B819C818F3F15
:101B10002FEF920739F400E020E040E060E083ED31
:101B200094E057DF0F900F900F900F90DF91CF91BF
:101B30000F910895CF93DF93CDB7DEB76FEF7FEFAF
:101B400081E090E0D2DFDF91CF9108950F931F9352
:101B5000CF93DF9300D01F92CDB7DEB79A838983EE
:101B60007C836B838B819C81009719F480E090E0EB
:101B700014C089819A81FC01808191810296FC01C7
:101B8000008111818B819C819AD3AC012B813C8196
:101B900089819A81B901F80119950F900F900F90E2
:101BA0000F90DF91CF911F910F910895CF93DF9305
:101BB000CDB7DEB728970FB6F894DEBF0FBECDBF06
:101BC0009C838B837E836D8358874F831A8219820F
:101BD0001CC08B819C81FC0180819181FC01208152
:101BE00031818D819E81AC014F5F5F4F5E834D835C
:101BF000FC0140818B819C81642FF9011995298119
:101C00003A81820F931F9A8389838F8198859C01E3
:101C10002150310938872F8321E0009709F420E013
:101C20002223B9F689819A8128960FB6F894DEBFEF
:101C30000FBECDBFDF91CF910895CF93DF9300D03A
:101C4000CDB7DEB79A8389836B8389819A81FC0142
:101C500080819181FC01208131814B8189819A8130
:101C6000642FF90119950F900F900F90DF91CF918C
:101C70000895CF93DF9300D01F921F92CDB7DEB7A8
:101C80009A8389836B835D834C838B81882F90E05B
:101C9000A0E0B0E02C813D81E981FA81AC01BD0179
:101CA000CF0108D00F900F900F900F900F90DF9101
:101CB000CF910895CF93DF93CDB7DEB728970FB6B6
:101CC000F894DEBF0FBECDBF9A8389834B835C83BC
:101CD0006D837E8338872F838F819885009779F471
:101CE00089819A81FC0180819181FC01208131816F
:101CF0004B8189819A81642FF90119950BC02F813D
:101D00008B819C81AD81BE81E981FA81AC01BD01ED
:101D1000CF0109D028960FB6F894DEBF0FBECDBF15
:101D2000DF91CF910895CF93DF93CDB7DEB7E397DF
:101D30000FB6F894DEBF0FBECDBF9AA789A74BA7F9
:101D40005CA76DA77EA72FA780E290E09E01285F89
:101D50003F4F820F931F9A83898389819A81FC0167
:101D600010828FA5823010F48AE08FA78BA59CA5E6
:101D7000ADA5BEA58B839C83AD83BE838FA5282F85
:101D800030E040E050E08BA59CA5ADA5BEA5BC0110
:101D9000CD0165D2DA01C9018BA79CA7ADA7BEA76B
:101DA0009B812BA58FA5289F802D1124F92FF81B2F
:101DB0008F2F8F8389819A8101979A8389838F815D
:101DC0008A3024F48F81805D282F03C08F81895C45
:101DD000282F89819A81FC0120838BA59CA5ADA524
:101DE000BEA50097A105B10509F0C0CF29813A81B0
:101DF00089A59AA5B901AADEE3960FB6F894DEBFCD
:101E00000FBECDBFDF91CF910895CF93DF931F9287
:101E1000CDB7DEB789838981882F90E08230910524
:101E200011F18330910534F4009771F08130910500
:101E300081F045C084309105C1F18430910584F171
:101E400085309105B9F13BC08EE690E0FC0110822F
:101E500036C08FE690E02FE630E0F90120812D7F3B
:101E6000FC0120832CC080E790E020E730E0F901FE
:101E700020812D7FFC01208380EB90E021E0FC019C
:101E8000208381EB90E021EB30E0F9012081287F75
:101E90002460FC01208383EB90E0FC0110820FC0E2
:101EA00081E790E0FC0110820AC082E790E0FC012B
:101EB000108205C083E790E0FC01108200000F90C3
:101EC000DF91CF910895CF93DF93CDB7DEB72797FA
:101ED0000FB6F894DEBF0FBECDBF8F838FEF89831F
:101EE0001B821A8222C08A819B81815F9D4FFC01E7
:101EF00090818F819817A1F48A819B81825F9D4F89
:101F00009D838C838C819D81FC0184918E838E8145
:101F100089838A819B81815F9D4F2FEFFC01208304
:101F20008A819B8101969B838A838A819B81181673
:101F30001906CCF6898169DF60E08F810E949006E6
:101F400027960FB6F894DEBF0FBECDBFDF91CF91BD
:101F500008951F920F9200905F000F92112400903D
:101F60005B000F922F933F934F935F936F937F93F9
:101F70008F939F93AF93BF93EF93FF93CF93DF9391
:101F8000CDB7DEB78091D9049091DA04A091DB043B
:101F9000B091DC0421E00097A105B10509F420E02F
:101FA0002223A1F14091DF048091DD049091DE04B1
:101FB0002091DD043091DE04F90120812427FC0109
:101FC00020838091D9049091DA04A091DB04B09130
:101FD000DC0421E0181619061A061B060CF020E096
:101FE0002223B9F08091D9049091DA04A091DB0406
:101FF000B091DC040197A109B1098093D9049093B1
:10200000DA04A093DB04B093DC0403C080910F02D8
:102010005ADFDF91CF91FF91EF91BF91AF919F91E7
:102020008F917F916F915F914F913F912F910F9081
:1020300000925B000F9000925F000F901F90189528
:10204000CF93DF93CDB7DEB7DF91CF910895CF93D4
:10205000DF9300D01F92CDB7DEB769837A838B837D
:102060009C83898160E00E9407050F900F900F907C
:102070000F90DF91CF9108951F920F9200905F0013
:102080000F92112400905B000F922F933F934F9378
:102090005F936F937F938F939F93AF93BF93EF93D0
:1020A000FF93CF93DF93CDB7DEB784E291E026E9CB
:1020B00037EEFC01318320835BD0DF91CF91FF911C
:1020C000EF91BF91AF919F918F917F916F915F91B0
:1020D0004F913F912F910F9000925B000F900092D3
:1020E0005F000F901F901895CF93DF93CDB7DEB7A9
:1020F00084E291E026E937EEFC013183208383E717
:1021000090E023E730E0F90120812E7FFC0120835D
:1021100080E291E020E231E0F90120812C7FFC0196
:10212000208381E291E021E231E0F9012081277EE4
:10213000FC01208381E291E021E231E0F90120817C
:102140002460FC01208381E291E021E231E0F90189
:1021500020812C7FFC01208383E790E023E730E09F
:10216000F90120812160FC012083DF91CF91089546
:10217000CF93DF93CDB7DEB78091E20491E0980F63
:102180009093E204882361F081E090E09093E10471
:102190008093E0048091E20481508093E20409C0BE
:1021A00078940E943F01F8948091E20481508093DA
:1021B000E204DF91CF910895CF93DF93CDB7DEB7DF
:1021C00029970FB6F894DEBF0FBECDBF81E0898797
:1021D0008DEC9CECACECBDE389839A83AB83BC8330
:1021E0001D821E821F8218860E94C00329DF8091F3
:1021F000100290911102FC01118210820E944F0185
:1022000073DF8091100290911102FC018081918115
:1022100021E0009709F020E0822F89877894789454
:102220000DC08091100290911102FC01808191817A
:1022300021E0009709F020E0822F89878985882393
:1022400081F70E946701F89480E090E029960FB62C
:10225000F894DEBF0FBECDBFDF91CF910895A1E20C
:102260001A2EAA1BBB1BFD010DC0AA1FBB1FEE1F10
:10227000FF1FA217B307E407F50720F0A21BB30B5B
:10228000E40BF50B661F771F881F991F1A9469F7D7
:1022900060957095809590959B01AC01BD01CF0133
:1022A0000895EE0FFF1F0590F491E02D199407900B
:1022B000F691E02D199481E090E0F89409C0FC01BA
:1022C00001900020E9F7809590958E0F9F1F08954B
:0422D000F894FFCFB0
:1022D4000000E5048000010000000600000001FF8A
:1022E400E304000000006C08D60D8007CF07A207A6
:1022F4000908000000001607D60D16071607160772
:102304001607000000001E0D000000001607000064
:0623140000001607D60DC3
:00000001FF
