:100000003BC100000C94BD1A0C94EE1A0C941F1BFB
:100010000C94501B0C94811B0C94B21B0C94E31B8E
:100020000C94141C5AC1000058C1000056C10000B5
:1000300054C100000C94DD2350C100004EC10000EB
:100040004CC100004AC1000048C1000046C1000088
:1000500044C1000042C1000040C100000C94451C96
:100060003CC100000C941C200C94522036C10000AE
:1000700034C1000032C1000030C100002EC10000B8
:100080002CC100002AC1000028C1000026C10000C8
:100090000C94BE200C94F42020C100001EC100006E
:1000A0001CC100001AC1000018C1000016C10000E8
:1000B00014C1000012C1000010C100000EC10000F8
:1000C0000CC100000AC100000C943D240C94602176
:1000D0000C94962102C100000C9402220C94382248
:1000E000FCC000004D0BE90C4C0D4E0D440C750C82
:1000F0000E0B2E0BF20A2B0D1A0D270D4E0D4E0D69
:100100004E0DDD0A5D1D621D671D711D7B1DF41DF9
:10011000851D8D1D951D9F1DA91DB31DC21DCC1DC7
:10012000F41DD61DE01DEA1D161E191E081E0C1E0C
:10013000121E501E1D1E211E271E2B1E2F1E351E79
:10014000391E3D1E501E431E471E4B1E00000A0B4B
:1001500002090C0D0E080703040100000000000056
:10016000000000000000000000000000000000008F
:10017000000000000000000012111000000000004C
:10018000000000000000000000000000000000006F
:10019000000001021020200808102040102040809C
:1001A000020102010804020101020408102040803B
:1001B00080402010080402018004020180402010C9
:1001C0000804020108040201010204081020408012
:1001D00001020408102040800505050507050808F0
:1001E0000808020202020A0A0808040404040101C1
:1001F00001010101010103030303030303030407D6
:1002000007070C0C0C0C0C0C0C0C0202020206066C
:100210000606060606060B0B0B0B0B0B0B0B000062
:1002200020002300260029002C002F0032000001AE
:10023000000003010601090100002200250028003A
:100240002B002E00310034000201000005010801DE
:100250000B0100002100240027002A002D0030009F
:10026000330001010000040107010A0102007B20A4
:100270001D21BF216122DB2211241FBECFEFD1E25D
:10028000DEBFCDBF00E00CBF15E0A0E0B2E0EEE0C5
:10029000F1E600E00BBF02C007900D92A03AB10753
:1002A000D9F72AE0A0EAB5E001C01D92AC34B2074C
:1002B000E1F712E0C8E7D2E000E006C022970109AA
:1002C000FE010BBF0E94272FCE36D10780E0080722
:1002D000A9F70E945E2C0C94853092CECF93DF93C9
:1002E000EC0161E088810E94511E61E08C81DF9108
:1002F000CF910C94511E4F925F926F927F92AF926A
:10030000BF92CF92DF92EF92FF920F931F93CF9302
:10031000DF93CDB7DEB728970FB6F894DEBF0FBED8
:10032000CDBF6D837E838F83988729833A834B83E8
:100330005C8327013801F50124853585468557857D
:100340000E94982E18162CF0F50140845184628486
:10035000738420E030E040E853E4C301B2010E941E
:100360004E2D87FF0EC020E030E0A901C301B2018D
:100370000E94982E87FD07C0C301B2010E94BA2DCA
:1003800003C06FEF01C060E0F50180810E948A1E0A
:10039000F50124893589468957896D817E818F8150
:1003A00098850E94982E1816FCF420E030E040E872
:1003B00053E469817A818B819C810E944E2D87FF55
:1003C00022C020E030E0A90169817A818B819C8183
:1003D0000E94982E87FD05C069817A818B819C815E
:1003E00021C0F601108222C0F50140885188628840
:1003F000738820E030E040E853E4C301B2010E947A
:100400004E2D87FD04C08FEFF60180830FC020E0E2
:1004100030E0A901C301B2010E94982E87FDE1CF0F
:10042000C301B2010E94BA2DF6016083F60160811A
:1004300070E0F501848128960FB6F894DEBF0FBEF8
:10044000CDBFDF91CF911F910F91FF90EF90DF9083
:10045000CF90BF90AF907F906F905F904F900C9433
:10046000391D5F926F927F928F929F92AF92BF924F
:10047000CF92DF92EF92FF920F931F93CF93DF9370
:10048000582E4A015B013901E801882301F1F60188
:1004900080818130E1F0288139814A815B81C50109
:1004A000B4010E94E92C9B01AC01F70160857185C4
:1004B000828593850E94522DF3016083718382832C
:1004C000938388829982AA82BB8284E08C83F6011E
:1004D0005082DF91CF911F910F91FF90EF90DF90AD
:1004E000CF90BF90AF909F908F907F906F905F90D4
:1004F00008952F923F924F925F926F927F928F92C8
:100500009F92AF92BF92CF92DF92EF92FF920F93A2
:100510001F93CF93DF93CDB7DEB760970FB6F894F4
:10052000DEBF0FBECDBF80919509992787FD9095BD
:100530000197029710F080E001C083E08093950955
:10054000E0913E0AF0913F0A80819181A281B381BE
:1005500080934A0990934B09A0934C09B0934D099D
:1005600080910E040E94BF1E8093540921E02983CC
:1005700090911E04981708F0198240914A095091F1
:100580004B0960914C0970914D0981E090917E0971
:10059000A9819A1708F080E02BE6C22E29E0D22E1E
:1005A00030E3E32E34E0F32E07E819E02CE539E0E0
:1005B00058DF809112040E94BF1E80935509B1E05C
:1005C000BA8390911F04981708F01A8240914A0943
:1005D00050914B0960914C0970914D0981E09091C7
:1005E0007F09EA819E1708F080E00DE6C02E09E041
:1005F000D02E9CE4E92E94E0F92E01E919E024E6DE
:1006000039E02FDF809116040E94BF1E80935609A7
:10061000F1E0FB8390912004981708F01B82409131
:100620004A0950914B0960914C0970914D0981E044
:10063000909180092B81921708F080E0BCE6CB2EC8
:10064000B9E0DB2E1EE3E12E14E0F12E0CE819E0F8
:1006500020E639E006DF80911A040E94BF1E8093D5
:10066000570991E09C8390912104981708F01C820F
:1006700040914A0950914B0960914C0970914D0984
:1006800081E090918109AC819A1708F080E0FAE648
:10069000CF2EF9E0DF2EA2E2EA2EA4E0FA2E02E845
:1006A00019E028E539E0DDDE809106049091070429
:1006B000A0910804B091090489879A87AB87BC8709
:1006C00080934E0990934F09A0935009B09351091C
:1006D0000091740910917509609072097090730906
:1006E00040907C0950907D09E0913E0AF0913F0ACC
:1006F000C080D180E280F380D3012D913D914D9156
:100700005C91C701B6010E944E2D18160CF047C02F
:10071000F30124A135A146A157A1C701B6010E944A
:10072000982E87FF3FC04201880C991C880C991CA9
:10073000860C971CD4012D913D914D915C91C70180
:10074000B6010E944E2DA12CB12C87FF14C0E4E00D
:10075000AE1AB108F401EA0DFB1D248135814681F2
:100760005781C701B6010E944E2D87FF1EC0B1E020
:100770004B1A5108ECCF24E0A20EB11CF401EA0D93
:10078000FB1D2081318142815381C701B6010E9446
:10079000982E87FD0AC0FFEF4F1A5F0AECCF412C5D
:1007A000512C03C078E0472E512C50927D09409285
:1007B0007C09440C551C440C551CF301E40DF51D3B
:1007C00080809180A280B380120184E0280E311CC9
:1007D000620C731CD3018D919D910D90BC91A02D45
:1007E0008D839E83AF83B8879C01AD01C501B401A1
:1007F0000E944E2D811114C0A5019401C701B601BC
:100800000E944E2D87FF04C0F201E00FF11F03C0CC
:10081000F801E20DF31D408051806280738051C069
:10082000F201E00FF11F4080518062807380020D61
:10083000131DD8018D919D910D90BC91A02D8D8798
:100840009E87AF87B88B9C01AD01C301B2010E94A6
:100850004E2D8823B1F1A70196016D817E818F8194
:1008600098850E94E92C6B017C01A50194016D81A2
:100870007E818F8198850E94E92C9B01AC01C70184
:10088000B6010E94522D6B017C01A30192010E94CE
:100890009C2E4B015C01A701960160E070E080E8AE
:1008A0009FE30E94E92C2D853E854F8558890E9443
:1008B0009C2E9B01AC01C501B4010E94EA2C2B01C6
:1008C0003C01E0900A04F0900B0400910C0410919C
:1008D0000D0442E7A42E44E0B42E59E6C52E59E09B
:1008E000D52EA301920169857A858B859C8503DDD0
:1008F0002091EA033091EB034091EC035091ED031A
:1009000060914E0970914F09809150099091510961
:100910000E94982E18164CF4C0900A04D0900B0434
:10092000E0900C04F0900D0408C0C090E603D09055
:10093000E703E090E803F090E90320E030E040E8CE
:1009400053E4C701B6010E944E2D87FF0EC020E080
:1009500030E0A901C701B6010E94982E87FD07C0AB
:10096000C701B6010E94BA2D03C06FEF01C060E05D
:100970008091D2030E948A1E2091F2033091F303EA
:100980004091F4035091F50360914E0970914F0925
:1009900080915009909151090E94982E1816CCF41C
:1009A00020E030E040E853E4C301B2010E944E2D44
:1009B00087FF21C020E030E0A901C301B2010E94FD
:1009C000982E87FD03C0C301B20124C010925309C1
:1009D00025C0C090EE03D090EF03E090F003F090BC
:1009E000F10320E030E040E853E4C701B6010E9483
:1009F0004E2D87FD04C08FEF809353090FC020E078
:100A000030E0A901C701B6010E94982E87FDDECF14
:100A1000C701B6010E94BA2D609353096091530932
:100A200070E08091D6030E94391DE0900A04F09096
:100A30000B0400910C0410910D0460914E0970910B
:100A40004F0980915009909151092AE5A22E24E086
:100A5000B22E38E6C32E39E0D32EA30192014BDC2F
:100A60002091FA033091FB034091FC035091FD0368
:100A700060914E0970914F098091500990915109F0
:100A80000E94982E18164CF4C0900A04D0900B04C3
:100A9000E0900C04F0900D0408C0C090F603D090D4
:100AA000F703E090F803F090F90320E030E040E82D
:100AB00053E4C701B6010E944E2D87FF0EC020E00F
:100AC00030E0A901C701B6010E94982E87FD07C03A
:100AD000C701B6010E94BA2D03C06FEF01C060E0EC
:100AE0008091DA030E948A1E20910204309103044F
:100AF000409104045091050460914E0970914F0992
:100B000080915009909151090E94982E1816CCF4AA
:100B100020E030E040E853E4C301B2010E944E2DD2
:100B200087FF21C020E030E0A901C301B2010E948B
:100B3000982E87FD03C0C301B20124C01092520950
:100B400025C0C090FE03D090FF03E0900004F09019
:100B5000010420E030E040E853E4C701B6010E9400
:100B60004E2D87FD04C08FEF809352090FC020E007
:100B700030E0A901C701B6010E94982E87FDDECFA3
:100B8000C701B6010E94BA2D6093520960915209C3
:100B900070E08091DE030E94391DB981B0937E0917
:100BA000EA81E0937F09FB81F09380092C812093F7
:100BB000810982E090E00E94261AE0913E0AF091BD
:100BC0003F0A408151816281738180E090E00E9400
:100BD000221A6091330A7091340A8091350A9091FB
:100BE000360A0E94E62D2AE037ED43E25CE30E94DC
:100BF0009C2EAB01BC0181E090E00E94221A809003
:100C0000370A9090380AA090390AB0903A0A20E04A
:100C100030E040E85FEBC501B4010E944E2D009129
:100C20003E0A10913F0A882319F1D801CD90DD903A
:100C3000ED90FC90A7019601C501B4010E94E92C3A
:100C40004B015C0120E030E040E054E3C701B60115
:100C50000E949C2E9B01AC01C501B4010E94982EFC
:100C6000181634F08FE894E090939B0980939A09CA
:100C700080913D0A882331F08FE894E090939B099E
:100C800080939A0960912B0A70912C0A80912D0A09
:100C900090912E0A6F5F7F4F8F4F9F4F60932B0A6B
:100CA00070932C0A80932D0A90932E0A0E94E62DB1
:100CB00020912F0A3091300A4091310A5091320A26
:100CC0000E949C2EF80160837183828393838091BC
:100CD000330A9091340AA091350AB091360A0196F0
:100CE000A11DB11D8093330A9093340AA093350A55
:100CF000B093360A60960FB6F894DEBF0FBECDBF34
:100D0000DF91CF911F910F91FF90EF90DF90CF90E7
:100D1000BF90AF909F908F907F906F905F904F901B
:100D20003F902F900895CF93DF93EAE9F9E08EEAA0
:100D3000DF011D928A95E9F78BE39AE09093A10970
:100D40008093A009AEE3BAE0B093DB09A093DA097F
:100D5000CFE2DAE0D093AF09C093AE09F093050A71
:100D6000E093040AF0939F09E0939E0921E030E0AC
:100D7000FC013183208383EA94E09093A50980935A
:100D8000A40920E43AE02D933C9380E090E0A0E2B7
:100D9000B1E48093370A9093380AA093390AB0934C
:100DA0003A0A8AE097EDA3E2BCE388839983AA8399
:100DB000BB83E9E1FAE082EA96E6ACE7BDE3808333
:100DC0009183A283B38384ED94EAA3E8B4EB809388
:100DD0001D0A90931E0AA0931F0AB093200A8EEC5E
:100DE00093EAA5E9BDE38093210A9093220AA09398
:100DF000230AB093240A89E49EE4A6E8B1E980932B
:100E0000250A9093260AA093270AB093280ACCECCF
:100E1000D5E0D0939D09C0939C09A2EBB5E0B983BE
:100E2000A88381E295E08D939C939093B505809380
:100E3000B4059093B7058093B6059093B905809358
:100E4000B8059093BB058093BA059093BD05809338
:100E5000BC059093BF058093BE059093C105809318
:100E6000C0059093C3058093C20585E999E09093EE
:100E7000C5058093C40580E999E09093C7058093E8
:100E8000C6058BE899E09093C9058093C80586E86C
:100E900099E09093CB058093CA05A9E2BAE0B0939C
:100EA000D105A093D005F093CF05E093CE05309304
:100EB000D3052093D20580E2EAE4F9E0EF0119922C
:100EC0008A95E9F78CE2EEE6F9E0EF0119928A954E
:100ED000E9F7E0EAF5E082E1EF0119928A95E9F796
:100EE000ED93FC938EE090E09183808386EB93E01A
:100EF0009093A3058093A2058AE993E09093A505BA
:100F00008093A40586EE92E09093A7058093A605B2
:100F10008AE592E09093A9058093A80560E080910E
:100F20000E040E94511E8091300490913104A091D2
:100F30003204B091330480935C0990935D09A093CF
:100F40005E09B0935F0960E0809112040E94511E17
:100F500080914C0490914D04A0914E04B0914F04A7
:100F60008093640990936509A0936609B09367091B
:100F700060E0809116040E94511E80913E04909181
:100F80003F04A0914004B091410480936009909384
:100F90006109A0936209B093630960E080911A042B
:100FA0000E94511E8091220490912304A091240458
:100FB000B09125048093580990935909A0935A0938
:100FC000B0935B0982E392E0909373098093720976
:100FD0008AE092E0909375098093740910927D09DC
:100FE00010927C0982E794E079D961E08091D20384
:100FF0000E94511E61E08091D6030E94511E8AE535
:1010000094E06CD961E08091DA030E94511E61E0A6
:101010008091DE030E94511E81E080936A098093D3
:101020006B0980936C0980936D098091E203809332
:101030007E098091340490913504A0913604B091DA
:1010400037048093870990938809A0938909B09306
:101050008A098091E30380937F09809150049091E5
:101060005104A0915204B09153048093910990933C
:101070009209A0939309B09394098091E40380931B
:1010800080098091420490914304A0914404B0915E
:10109000450480938C0990938D09A0938E09B09399
:1010A0008F098091E50380938109809126049091B6
:1010B0002704A0912804B091290480938209909379
:1010C0008309A0938409B0938509DF91CF91089596
:1010D0000895CF93DF93CDB7DEB72A970FB6F89474
:1010E000DEBF0FBECDBFAC01CB0160E070E0498335
:1010F0005A836B837C83AA2797FDA095BA2F8D8393
:101100009E83AF83B8879E01275F3F4FAE014F5F3D
:101110005F4F68E070E08091DD059091DE050E94F0
:10112000692B811108C081E029853A852830310575
:1011300019F480E001C081E02A960FB6F894DEBF72
:101140000FBECDBFDF91CF9108950F931F93CF9323
:10115000DF931F921F92CDB7DEB78B019E012F5FE9
:101160003F4FAC018091DD059091DE050E94692B17
:10117000811108C081E029813A812017310719F4D3
:1011800080E001C081E00F900F90DF91CF911F911F
:101190000F910895CF93DF93EC011092E105109227
:1011A000E005AC0160E070E0CB010E943614AE01B6
:1011B00061E070E080E090E00E9436148091DD05EF
:1011C0009091DE05DF91CF910C94B82BEF92FF92B6
:1011D0000F931F93CF93DF931F921F92CDB7DEB76C
:1011E0008C018091DB059091DC0580179107B4F5A7
:1011F0008091D9059091DA05009731F00E94DD2F9A
:101200001092DC051092DB05C8010E94452F9093D7
:10121000DA058093D905892B19F4E12CF12C18C03B
:101220001093DC050093DB0519C028ED35E0AE0115
:101230004F5F5F4F61E070E08091DD059091DE05CA
:101240000E94AA2A811107C089819A81E80EF91E9D
:10125000E016F10654F380E090E01FC0E12CF12C81
:101260002091D9053091DA05E016F106ACF42E0D87
:101270003F1DAE014F5F5F4FB8016E197F0980912E
:10128000DD059091DE050E94AA2A8111E4CF8981B3
:101290009A81E80EF91EE4CFC9010F900F90DF91FB
:1012A000CF911F910F91FF90EF9008950F931F938F
:1012B000CF93DF93EB018A010CDF81110AC0011586
:1012C000110539F0BE01C801DF91CF911F910F9137
:1012D0003CCFDF91CF911F910F910895CF92DF9274
:1012E000EF92FF92CF93DF93CDB7DEB728970FB67B
:1012F000F894DEBF0FBECDBF6B01E12CF12CC9828B
:10130000DA82EB82FC822D833E834F835887AE01C5
:101310004F5F5F4F68E070E0C9DF28960FB6F89422
:10132000DEBF0FBECDBFDF91CF91FF90EF90DF907A
:10133000CF9008950F931F93CF93DF93EC018B0110
:101340000E94A62A9093DE058093DD05009741F068
:10135000A801BE010E942B2AEC01009719F40CC0D1
:10136000C4E2D5E08091DD059091DE050E94A92AB6
:101370001092DE051092DD05CE01DF91CF911F9115
:101380000F9108958091DD059091DE050C94A32ABC
:101390006F927F928F929F92AF92BF92CF92DF9285
:1013A000EF92FF920F931F93CF93DF9300D000D063
:1013B000CDB7DEB76B017C014A018091E10588233E
:1013C00009F441C09401B701A601CE0101960E9423
:1013D000C51889819A8118161906ACF5A12CB12C73
:1013E00000E010E089819A81081719075CF76B808B
:1013F0007C806A0C7B1CF301608171818281938106
:10140000A4DE81111EC0F3016481758116161706D2
:101410002CF48681978199DE811113C0C801880F51
:10142000991FED81FE81E80FF91FB701A6018081A8
:1014300091810E9468140F5F1F4FF8E0AF0EB11C3E
:10144000D1CFC401A7DE26960FB6F894DEBF0FBE3B
:10145000CDBFDF91CF911F910F91FF90EF90DF9063
:10146000CF90BF90AF909F908F907F906F90089596
:10147000CF93DF93EC01AC0160E070E0CB0188DF3B
:10148000AE0161E070E080E090E0DF91CF9180CF2D
:10149000CF938091DD059091DE050E94072AC82F29
:1014A000811109C060E070E0CB0166D561E070E0B9
:1014B00080E090E061D58C2FCF9108950F931F931A
:1014C00089019A01AB01BC018091DD059091DE0597
:1014D0000E94B72B1F910F9108954F925F926F92C8
:1014E0007F928F929F92AF92BF92CF92DF92EF92B4
:1014F000FF920F931F93CF93DF93CDB7DEB766971D
:101500000FB6F894DEBF0FBECDBF4C015B018A0160
:101510008091E105882369F08091E105882309F431
:10152000BDC21A821982E12CF12C78E0C72ED12C91
:1015300014C061EE75E08091DD059091DE050E949A
:10154000092A8111ABC2E8CFE20EF31EE114F104C7
:10155000D9F088E0E816F104BCF429E030E02C0F63
:101560003D1F2E0D3F1DAE014F5F5F4FB6016E193F
:101570007F098091DD059091DE050E94AA2A2981CC
:101580003A81882309F388C2121613060CF086C22A
:101590008091E005811104C019861A861B861C867D
:1015A00089859A85AB85BC858031910508F076C226
:1015B000FC01EE58FF4F0C94212FD4011696ED91AB
:1015C000FC91179780819181A281B38189839A834D
:1015D000AB83BC83AE014F5F5F4F64E070E085E199
:1015E00090E06CC18D859E85F1DD009731F42FEF81
:1015F0003FEFA90161E070E00EC0FC01C080D18026
:10160000E280F380A501C701B6010E94EB13A70198
:10161000960160E070E08DE190E03CC28D859E8592
:10162000D5DD009721F42FEF3FEFA9010FC0DC01BA
:10163000CD90DD90ED90FD90AD0197018601B50153
:10164000C401B0D5A7019601882319F061E070E0CC
:1016500002C060E070E08BE190E01CC28D859E8549
:10166000B5DD009721F42FEF3FEFA9010EC0FC017B
:10167000C190D190E190F190BF01A7019601C40102
:1016800086D7A7019601882319F061E070E002C0B7
:1016900060E070E08CE190E0FDC1D4011496ED9122
:1016A000FC911597E080F180F70102811381A08001
:1016B000B18060E1462E512C612C712C49825A82F6
:1016C0006B827C8288E090E0A0E0B0E08D839E8316
:1016D000AF83B8879E012F5E3F4FAE014F5F5F4FD4
:1016E00068E070E08091DD059091DE050E94692B35
:1016F000882319F0E12CF12CAEC089899A890897CA
:10170000C9F7D701CD90DC90B8E0CB0ED11CCC0C42
:10171000DD1CCC0CDD1CC6010E94452F7C0100970E
:1017200049F349825A826B827C82C601AA2797FDBF
:10173000A095BA2F8D839E83AF83B8879E012F5EBD
:101740003F4FAE014F5F5F4F68E070E08091DD0575
:101750009091DE050E94692B81117DC089899A894B
:10176000089709F078C0D4011296ED91FC91139777
:101770004081518162817381D7014D935D936D9357
:101780007C931397448155816681778114964D939C
:101790005D936D937C931797408551856285738522
:1017A00018964D935D936D937C931B9784859585D7
:1017B000A685B785F70184879587A687B787108A9E
:1017C000118A128A138A84E090E0A0E0B0E0848B52
:1017D000958BA68BB78B80918C0490918D04A0E0A3
:1017E000B0E0808F918FA28FB38FC501AA2797FD9C
:1017F000A095BA2F848F958FA68FB78FB801A701B8
:10180000405E5F4F20E030E02A153B057CF4DB01B1
:101810008D919D91BD01A0E0B0E0FA01819391937B
:10182000A193B193AF012F5F3F4FEECF9E012F5E8B
:101830003F4FA701B6018091DD059091DE050E9422
:10184000692B811108C089899A898C159D0519F425
:1018500081E08093E005C70166960FB6F894DEBF7D
:101860000FBECDBFDF91CF911F910F91FF90EF90F1
:10187000DF90CF90BF90AF909F908F907F906F90B0
:101880005F904F900C94DD2F8D859E85AF85B88934
:101890000097A105B10529F199DC009789F481E051
:1018A00090E0A0E0B0E089839A83AB83BC83AE0173
:1018B0004F5F5F4F64E070E082E190E0F7DCEEC0E4
:1018C000BC01C401ACD219821A821B821C82AE01F7
:1018D0004F5F5F4F64E070E082E190E0E7DC8111F0
:1018E000DDC081E08093DF05D9C0D4011496ED916D
:1018F000FC9115970190F081E02D0085118501156F
:10190000110509F460C0D801ED90FC90C280D3802D
:1019100020E030E060E070E080E090E08E159F0510
:101920000CF5F801A281B381A20FB31F1296ED91BD
:10193000FC911397EE0FFF1FEC0DFD1D0190F08140
:10194000E02D16960D90BC91A02DEA9FA001EB9F73
:10195000500DFA9F500D1124640F751F0196285FDA
:101960003F4FDCCF83E190E0B4DB811197C0812C45
:10197000912CA12CB12CAE14BF040CF08FC0D80157
:101980001296ED91FC911397E80DF91DA281B38198
:10199000AA0FBB1FAC0DBD1D2D913C918681978177
:1019A000289FB001299F700D389F700D11248081F0
:1019B0009181CBDBB8E08B0E911C81116FC0EFEFF2
:1019C000AE1ABE0AD8CF60E070E083E190E081DB20
:1019D00065C040E050E060E070E081E190E066DCEE
:1019E00081115CC0C12CD12C7601C701B601C1D3D5
:1019F00080916A06882321F0A501C701B601C8DCE1
:101A0000A501C701B601DCD2FFEFCF1ADF0AEF0A4A
:101A1000FF0A82E0C816D104E104F10431F7109204
:101A2000E1051092E0058091DD059091DE050E94B0
:101A3000142A34C081E090E090936C0680936B068A
:101A400040E050E060E070E086E190E037CF81E078
:101A5000D8018C9323C08D859E85B8DB009731F427
:101A60002FEF3FEFA90161E070E012C0FC0120817F
:101A7000318142815381CA01B9012B8B3C8B4D8B43
:101A80005E8BFFD62B893C894D895E8960E070E0D2
:101A90008EE190E023DC02C0C5017CDB66960FB6C8
:101AA000F894DEBF0FBECDBFDF91CF911F910F9194
:101AB000FF90EF90DF90CF90BF90AF909F908F906E
:101AC0007F906F905F904F900895CF92DF92EF924A
:101AD000FF92CF93DF93EC01C12CD12C7601C7018B
:101AE000B60147D3AE01C701B60152DCAE01C70152
:101AF000B60166D28091D9059091DA05009731F050
:101B00000E94DD2F1092DA051092D9058FEFC81AC6
:101B1000D80AE80AF80A82E0C816D104E104F10400
:101B2000F1F68091E005882359F040E050E060E054
:101B300070E084E190E0BADBC82F1092E00501C0AC
:101B4000C0E08091E105882341F01092E10521E099
:101B500030E030938D0420938C048091DD059091CA
:101B6000DE050E94172A8091DD059091DE050E9416
:101B7000A92A8C2FDF91CF91FF90EF90DF90CF902B
:101B80000895CF93DF93EC01AC0160E070E0CB01EE
:101B90000E943C18AE0161E070E080E090E0DF91CF
:101BA000CF910C943C1860E070E0CB010E94A1182A
:101BB00061E070E080E090E00C94A118CF92DF9299
:101BC000EF92FF920F931F93CF93DF93EC016A0183
:101BD0007B0100E010E09801A4D601E010E020E0D5
:101BE00030E0B701A601CE019CD6DF91CF911F91C5
:101BF0000F91FF90EF90DF90CF900895EF92FF92BA
:101C00000F931F93CF93DF93DC01EA01F901149640
:101C10008D919C91159712960D911C911397080F19
:101C2000191F2881398118964D915C911997421797
:101C3000530728F04D915C911197452B59F178018C
:101C4000E21AF30A18964D915C911997481B590BAB
:101C50004E0D5F1D46175707B4F1A901460F571FD8
:101C60004017510700F1F182E082338322836E191D
:101C70007F0975836483161617061CF030E020E098
:101C800002C0382F292F36832783680F791F798365
:101C9000688317C018968D919C911997821B930B9E
:101CA0008617970784F071836083338322831582BC
:101CB00014821782168288819981860F971F9983D3
:101CC000888380E001C081E0DF91CF911F910F9167
:101CD000FF90EF900895CF93DF9324E4269FE001D7
:101CE000279FD00D1124CE51DA4F8AA99BA90097C6
:101CF00021F00E94DD2F1BAA1AAA8EA99FA9009786
:101D000011F00E94DD2F1B8A1A8A1E8A1F8A188EE4
:101D1000198E1A8E1B8E1C8E1D8E1E8E1F8E18A263
:101D200019A281E090E09BA38AA31DA21CA21EA27F
:101D30001FA218A619A61BA61AA61DA61CA61EA69B
:101D40001FA618AA19AA1BAA1AAA1DAA1CAA1FAA6A
:101D50001EAA19AE18AE1AAE1BAE1CAE1DAEFE0109
:101D6000FE961082118212821382CE5BDF4F19829F
:101D70001882DF91CF910895CF93DF93FB01DC01AF
:101D8000CD91DC91AE81BF818081918123E0880F6C
:101D9000991F2A95E1F712960D90BC91A02DA80FDE
:101DA000B91F6D917C91119784859585880F991F36
:101DB0000A80DB81C02DC80FD91F0990D881C02DA2
:101DC00014968D919C911597892B19F082E090E0E3
:101DD00002C081E090E08C9F90018D9F300D9C9F10
:101DE000300D112480859185289FD001299FB00D49
:101DF000389FB00D11240480F581E02D2E9FC00185
:101E00002F9F900D3E9F900D1124860F971FFA0172
:101E100091838083B383A283DF91CF9108952F9222
:101E20003F924F925F926F927F928F929F92AF926A
:101E3000BF92CF92DF92EF92FF920F931F93CF93B7
:101E4000DF9300D000D0CDB7DEB7DC011496ED9162
:101E5000FC9115970190F081E02D808591859A8302
:101E60008983A281B381BC83AB83DB018D909D907C
:101E7000AD90BD90C12CD12C7601C814D904EA04D0
:101E8000FB040CF060C014964D905D906D907C90BA
:101E9000179718964D915D916D917C911B97FD015F
:101EA0007096FE83ED838D919C91119763E0880F6E
:101EB000991F6A95E1F7E981FA8122813381280F20
:101EC000391FF901208031801C96ED91FC911D97FE
:101ED000EE0FFF1F8B819C81E80FF91F0190F081AD
:101EE000E02DD90114968D919C911597892B19F0AD
:101EF00082E090E002C081E090E08E9F90018F9F91
:101F0000300D9E9F300D1124249F8001259F100DC0
:101F1000349F100D1124249DC001259D900D349DEA
:101F2000900D1124A8016D817E81820D931D0E9468
:101F30006C30AD81BE81A00FB11FEFEFCE1ADE0A6B
:101F4000EE0AFE0A9ACF26960FB6F894DEBF0FBEB1
:101F5000CDBFDF91CF911F910F91FF90EF90DF9058
:101F6000CF90BF90AF909F908F907F906F905F9039
:101F70004F903F902F900895CF93DF9324E4269FB6
:101F8000F001279FF00D1124EE51FA4FDB01A65707
:101F9000BB4F3C91332329F0EF0119922A95E9F7C1
:101FA0001C9214821582168217821186108613865F
:101FB0001286118A108A17861686DF91CF918BCEF2
:101FC0002F923F924F925F926F927F928F929F9249
:101FD000AF92BF92CF92DF92EF92FF920F931F9337
:101FE000CF93DF9300D01F92CDB7DEB76B017C019A
:101FF0001A0184E48C9D90018D9D300D11242E5189
:102000003A4F3C832B83F90184819581A681B78166
:10201000892B8A2B8B2B09F495C0A12CB12C412C38
:10202000512C3201AB81BC8114964D915D916D9123
:102030007C91179718968D919C9119974416550687
:10204000660677068CF5FC01EA0DFB1D32812381C3
:10205000032F122F812C912C82149304C4F4D801E5
:10206000ED91FC91309769F0848195812A833983C1
:102070000E94DD2FF801808191810E94DD2F39813E
:102080002A81FFEF8F1A9F0A0E5F1F4FE5CF832F24
:10209000922F0E94DD2F2FEF421A520A620A720A13
:1020A00034E0A30EB11CBECF0E94DD2FEB81FC817A
:1020B00082859385892BE1F0A12CB12C00E010E002
:1020C000AB81BC811A968D919C911B9702151305CB
:1020D0006CF4FC01EA0DFB1D848195810E94DD2FCB
:1020E0000F5F1F4FFEE0AF0EB11CEACF0E94DD2F45
:1020F000EB81FC81808991890E94DD2FAB81BC81BD
:102100001E968D919C911F970E94DD2FC701B601ED
:10211000E2DDC701B6010F900F900F900F90DF9195
:10212000CF911F910F91FF90EF90DF90CF90BF90D4
:10213000AF909F908F907F906F905F904F903F9067
:102140002F901ACF0F900F900F900F90DF91CF919B
:102150001F910F91FF90EF90DF90CF90BF90AF90C5
:102160009F908F907F906F905F904F903F902F90B7
:10217000089524E4269FF001279FF00D1124EE51CD
:10218000FA4F828993890497029758F485E090E08A
:10219000938B828B8FEF9FEFDC01828F938FA48FC5
:1021A000B58F08952F923F924F925F926F927F92D8
:1021B0008F929F92AF92BF92CF92DF92EF92FF9257
:1021C0000F931F93CF93DF93CDB7DEB7AA970FB6C8
:1021D000F894DEBF0FBECDBF9AA389A31B016A018D
:1021E0000B8B1C8B2D8B3E8B84E42B893C89829F2F
:1021F0008001839F100D11240E511A4F2B893C89A9
:102200004D895E89D8012D933D934D935C9313972F
:10221000AB016B897C898D899E89D2DEF601419163
:102220005191619171917F01CA01D80114964D932A
:102230005D936D937C93179764E070E00E942B2F61
:10224000F80191878087892B09F46DC118A21F8E30
:102250001B8E1C8E1D8E1E8EF80184819581A68199
:10226000B7812B8D3C8D4D8D5E8D281739074A0720
:102270005B070CF0D1C0D80118960D90BC91A02D31
:102280002F8D38A1A20FB31FBA8BA98BD7018D91C7
:102290009C91880F991FA9A1BAA1ED91FC91E80F1B
:1022A000F91F80819181E989FA8991838083D7011F
:1022B00014962D913D914D915C9117972BA33CA3C2
:1022C0004DA35EA3B8E0EB0EF11C62E070E0C1012B
:1022D0000E942B2FE989FA8993838283892B09F441
:1022E00022C11F8A188E198E1A8E2F89388D498D1A
:1022F0005A8D8BA19CA1ADA1BEA1281739074A0711
:102300005B070CF018C1D701CD90DC90CC0CDD1C24
:10231000E989FA89A280B380AC0CBD1C68E070E04A
:1023200081E090E00E942B2FD5018D939C93A98989
:10233000BA891296ED91FC911397EC0DFD1D8080EA
:1023400091808114910409F4EEC0F7014481558114
:1023500066817781CA01D4014D935D936D937C931F
:102360001397B8E0EB0EF11C64E070E00E942B2F95
:10237000F40195838483892B09F4D5C0A12CB12C59
:10238000412C512C3201F40180819181A281B381D1
:10239000481659066A067B0694F5D4011496CD902A
:1023A000DC901597CA0CDB1CF701DE01119680E169
:1023B00001900D928A95E1F7B0E1EB0EF11CA601B8
:1023C000BE016F5F7F4FE9A1FAA184819581D4DCC2
:1023D000D40116968D919C911797F6012281338135
:1023E000820F931F17969C938E931697FFEF4F1AA9
:1023F0005F0A6F0A7F0A24E0A20EB11CC4CF2F89A6
:10240000388D498D5A8D2F5F3F4F4F4F5F4F2F8B28
:10241000388F498F5A8F69CF6EE070E0C1010E94FA
:102420002B2FD8011B969C938E931A97612C712C9D
:10243000812C912CA12CB12C44244394512C821436
:1024400093040CF050C0F701419151916191719149
:102450007F01CA01D8011A96CD90DC901B97C60C5B
:10246000D71C57FD60C0F60151824082009791F061
:102470004FA358A769A77AA70E94452FD6011596A2
:102480009C938E9314974FA158A569A57AA5892B83
:1024900021F449C0F60115821482D60113965C938B
:1024A0004E93129714968D919C91159717969C9325
:1024B0008E93169719969C938E9318971B961C9241
:1024C0001E921A9781E090E0452B462B472B11F482
:1024D00080E090E0A80EB91EBFEF8B1A9B0AEEE0D9
:1024E0006E0E711CACCFD8011D961C921E921C97CB
:1024F000C501F3E0880F991FFA95E1F70E94452F77
:10250000F801918B808B892B71F0C501880F991F81
:102510000E94452FD8011F969C938E931E97892B5E
:1025200011F080E01BC0A1016B897C898D899E8997
:1025300047DD81E013C02B8D3C8D4D8D5E8D2F5F6F
:102540003F4F4F4F5F4F2B8F3C8F4D8F5E8F2F8DA7
:1025500038A12C5F3F4F38A32F8F7ECEAA960FB69F
:10256000F894DEBF0FBECDBFDF91CF911F910F91C9
:10257000FF90EF90DF90CF90BF90AF909F908F90A3
:102580007F906F905F904F903F902F9008953F9273
:102590004F925F926F927F928F929F92AF92BF9273
:1025A000CF92DF92EF92FF920F931F93CF93DF931F
:1025B000CDB7DEB764970FB6F894DEBF0FBECDBFC0
:1025C0004C01FB01298B3A8B4B8B5C8B84E4829F03
:1025D0008001839F100D11240C501A4F808191812E
:1025E000D80113969C938E931297448155816681EE
:1025F000778114964D935D936D937C9317974085E7
:1026000051856285738518964D935D936D937C9388
:102610001B9744855585668577851C964D935D93FC
:102620006D937C931F9740895189628973895C9669
:102630004D935D936D937C935F977F01B4E1EB0EB7
:10264000F11C141615060CF05DC0CA01880F991F05
:10265000880F991F0E94452FF80191A380A3892B11
:1026600009F499C0A12CB12C412C512C320130E13C
:10267000332EB301A2012FEF421A520A620A720AE4
:10268000F801848D958DA68DB78D481759076A0777
:102690007B0764F5D8019096CD90DC909197CA0C99
:1026A000DB1CF701DE011196832D01900D928A95B6
:1026B000E1F7B0E1EB0EF11CA601BE016F5F7F4FA9
:1026C000F4018481958158DBD80192968D919C917B
:1026D0009397F60122813381820F931F93969C93E7
:1026E0008E939297F4E0AF0EB11CC3CF82A193A159
:1026F0000E94452FD80195969C938E939497892B91
:1027000009F449C0F70180819181A281B381AC01B4
:10271000BD014D7F21E030E0452B462B472B11F0CA
:1027200020E030E0F801318B208B0197A109B1093D
:1027300021E030E00297A105B10510F020E030E083
:10274000D80153963C932E935297F701848195813B
:10275000A681B781F801848B958BA68BB78B848576
:102760009585A685B785B7FF10C0B095A0959095C3
:1027700081959F4FAF4FBF4F80A791A7A2A7B3A747
:1027800014861586168617860DC0F80110A611A6A8
:1027900012A613A607C069897A898B899C899BDA5E
:1027A00081E001C080E064960FB6F894DEBF0FBEF2
:1027B000CDBFDF91CF911F910F91FF90EF90DF90F0
:1027C000CF90BF90AF909F908F907F906F905F90D1
:1027D0004F903F900895CF93DF9324E4269FF0011C
:1027E000279FF00D1124EE51FA4F10926A0615A69C
:1027F00014A620E030E080E090E0C1E0D0E0841753
:10280000950714F5A285B385A20FB31F12966D919B
:102810007C911397161617069CF414966D917C9173
:10282000159717967C936E93169719967C936E93D3
:1028300018971B961C921E921A971196DC93CE93B2
:102840000196225F3F4FDBCF13A612A611AE10AE4A
:10285000DF01DE961D921D921D921C92139782E05D
:1028600090E0938B828BDF91CF91089524E4269F93
:10287000F001279FF00D1124EE51FA4F138A128AAE
:102880009FCB24E4269FF001279FF00D1124EE51E9
:10289000FA4F8289938981309105C8F0853091057E
:1028A00018F0059769F008958FEF9FEFDC01828F94
:1028B000938FA48FB58F85E090E0938B828B0895E2
:1028C0008FEF9FEFDC01828F938FA48FB58F0895D8
:1028D00024E4249FF001259FF00D1124EE51FA4FBE
:1028E0002EE0AC01249FC001259F900D112402848D
:1028F000F385E02DE80FF91F81E080936A06828559
:10290000938591878087408551852681378181E035
:1029100090E04217530711F080E090E091838083AC
:1029200008952F923F924F925F926F927F928F9273
:102930009F92AF92BF92CF92DF92EF92FF920F934E
:102940001F93CF93DF93CDB7DEB7C454D1090FB631
:10295000F894DEBF0FBECDBF98AF8FAB4BA75CA77F
:102960006DA77EA723960CAF1DAF2EAF3FAF239769
:1029700084E421962EAD3FAD2197829F1001839F65
:10298000300C1124C1018E519A4F1C01DC011A96A2
:102990000D90BC91A02D2596BFAFAEAF2597FC0141
:1029A00082899389029709F018C186A597A5A0A9E5
:1029B000B1A9892B8A2B8B2B29F484E090E0938B8F
:1029C000828B0BC1D10184899589EFA9F8ADE817F5
:1029D000F90709F002C1D6960D911C91D7971AAE4E
:1029E00019AE412C512C3201F10186A597A5A0A961
:1029F000B1A9481659066A067B060CF0D0C0D10171
:102A0000D2960D90BC91A02DE9ADFAADAE0FBF1FCF
:102A1000BAABA9AB12962D913C9113973CAF2BAF5B
:102A200036952795369527953EAF2DAFD101D8968F
:102A30008D919C91D997892B09F495C09696CD904C
:102A4000DD90ED90FC90999718AB0FA7E9A9FAA932
:102A50000190F081E02DFCABEBAB1EAA1DAAEDA905
:102A6000FEA92DAD3EADE217F3070CF07CC0D101FD
:102A700092968D919C919397892B79F1EBA9FCA962
:102A800080809180A280B380A7019601C501B40126
:102A90000E94982E87FD0CC0A7019601AFA5B8A98A
:102AA0006D917D918D919C910E944E2D87FD7CC0F2
:102AB000A7019601C501B4010E94982E18166CF466
:102AC000A7019601EFA5F8A96081718182819381A8
:102AD0000E944E2D882309F467C0D10194968D91F0
:102AE0009C919597892B71F1EBA9FCA9808091802D
:102AF000A280B380A7019601C501B4010E944E2DAA
:102B000087FF0CC0A7019601AFA5B8A96D917D9173
:102B10008D919C910E94982E87FF46C0A701960137
:102B2000C501B4010E944E2D81110CC0A701960170
:102B3000EFA5F8A960817181828193810E94982E0E
:102B4000181694F12DA93EA92F5F3F4F3EAB2DAB38
:102B50008FA598A9049698AB8FA7ABA9BCA914968A
:102B6000BCABABAB7CCFA9A9BAA96D917C914BADA5
:102B70005CADC8010E946C308DAD9EAD880F991F71
:102B8000880F991F080F191FBFEF4B1A5B0A6B0ABA
:102B90007B0AE9ADFAAD3496FAAFE9AF25CF81E013
:102BA00090E091AF80AF19C0F101868D978DA0A103
:102BB000B1A1892B8A2B8B2B09F03AC284E090E0DB
:102BC000D10153969C938E935297DE968D919C9152
:102BD000DF979B969C938E939A97D10152968D91F5
:102BE0009C9153978230910589F4DA968D919D914D
:102BF0000D90BC91A02D181619061A061B060CF094
:102C000021C2E1E0F0E0F8ABEFA705C0049709F0BE
:102C100019C218AA1FA68EE02FA938AD829F5001B5
:102C2000839FB00C112425968EAD9FAD2597A80EDD
:102C3000B91ED50112964D915C911397411551051E
:102C400009F400C216968D919C9117979AA789A7AF
:102C5000FE01319684E1DF011D928A95E9F7239602
:102C60008CAD9DADAEADBFAD2397898B9A8BAB8BF1
:102C7000BC8BAFA5B8A9AB2B09F448C04101BEE39A
:102C80008B0E911CF401C080D180E280F380F101B1
:102C900082AD93ADA4ADB5ADC816D906EA06FB0664
:102CA000A9F5D50114966D917C91159718960D9004
:102CB000BC91A02D14960D911D912D913C911797CB
:102CC000C8010D8B1E8B2F8B388F08969E8B8D8B9A
:102CD000F50120853185280F391F318720878085B0
:102CE0009185460F571F841B950B97FD04C0680FF5
:102CF000791F71876087F1E0CF1AD108E108F108E8
:102D0000D401CD92DD92ED92FC9213979E012B5E41
:102D10003F4FAE01475D5F4F64E170E0C5010E9427
:102D2000FE0D082F10E00115110509F06DC18CE0B2
:102D300090E0A0E0B0E08D839E83AF83B8879E01D2
:102D4000235E3F4FAE01475D5F4F64E070E0C50119
:102D50000E94FE0D082F10E00115110509F054C165
:102D600080E190E0A0E0B0E08D839E83AF83B887E0
:102D70004D8D5E8DBE01655D7F4F8F8D98A10E9448
:102D80006C308BA19CA1009761F06D8D7E8DEBE284
:102D9000F0E0EC0FFD1F6E0F7F1F49A15AA10E94AA
:102DA0006C301DA21EA21FA218A62FA938AD220F9B
:102DB000331F3EAB2DABCDA0DEA0EFA0F8A4F101F8
:102DC00084819581A681B781C816D906EA06FB06DB
:102DD0000CF0CBC0D1011896ED91FC911997C6016A
:102DE000880F991F880F991FE80FF91FA081B181E3
:102DF0008C91882309F4AFC0833009F4ACC0028001
:102E0000F381E02D2DA93EA9E20FF31F808191816E
:102E10009CAB8BAB892B09F49EC089859A85AB85C9
:102E2000BC850196A11DB11D89879A87AB87BC8798
:102E30009E01235E3F4FAE01475D5F4F64E070E04F
:102E4000C5010E94FE0D90E0009709F0DCC08D8165
:102E50009E81AF81B8850496A11DB11D8D839E838F
:102E6000AF83B8874D8D5E8DBE016B5D7F4F8F8DBB
:102E700098A10E946C308BA19CA1009761F06D8D90
:102E80007E8DA5E2B0E0AC0FBD1F6A0F7B1F49A18C
:102E90005AA10E946C301AAA19AA412C512C320155
:102EA000EBA9FCA980819181A281B38148165906C2
:102EB0006A067B060CF04FC0EBA9FCA984809580C4
:102EC00029A93AA9820E931ED40112966D917C9184
:102ED00013979E01235E3F4FAE01475D5F4FC501D3
:102EE0000E94FE0D90E0009709F08DC0F401428130
:102EF0005381662757FD6095762F8D819E81AF8126
:102F0000B885840F951FA61FB71F8D839E83AF833F
:102F1000B887608171814D8D5E8D8F8D98A10E94E3
:102F20006C308BA19CA1009759F0D4016D917C91DC
:102F30002D8D3E8D620F731F49A15AA10E946C30E6
:102F4000BFEF4B1A5B0A6B0A7B0AE9A9FAA9349610
:102F5000FAABE9ABA5CFFFEFCF1ADF0AEF0AFF0A02
:102F6000CDA2DEA2EFA2F8A626CF89859A85AB85F1
:102F7000BC85892B8A2B8B2B09F446C08AE190E013
:102F8000A0E0B0E089839A83AB83BC832FA938ADDE
:102F9000C901AA2797FDA095BA2F8D879E87AF8775
:102FA000B88B4D895E89BE016F5F7F4F8F89988D89
:102FB0000E946C308B8D9C8D009761F06D897E89AD
:102FC000A1E0B0E0AC0FBD1F6A0F7B1F498D5A8D89
:102FD0000E946C3089A59AA5F5019783868311829A
:102FE00010822FA538A9232B69F1F101FE9680816B
:102FF0009181A281B3810196A11DB11D808391832E
:10300000A283B3831FC08C018FA598A9892BD1F40B
:10301000012BC1F081E090E0D1019D969C938E93AD
:103020009C9785E090E053969C938E9352970AC0AC
:1030300083E090E0F101938B828B81E090E093A795
:1030400082A7CBCDCC5BDF4F0FB6F894DEBF0FBEAF
:10305000CDBFDF91CF911F910F91FF90EF90DF9047
:10306000CF90BF90AF909F908F907F906F905F9028
:103070004F903F902F900895CF92DF92EF92FF9262
:103080000F931F93CF93DF9324E4269FE001279FA4
:10309000D00D1124CE51DA4F2A893B8921153105F3
:1030A00009F446C021303105A9F4CAA4DBA4960175
:1030B0002F5F3F4F3BA72AA7EE24D7FCE094FE2CBE
:1030C0000A8D1B8D2C8D3D8DC016D106E206F306B0
:1030D00079F581DB8A899B89039751F54AA55BA520
:1030E000CA0101969BA78AA7662757FD6095762F90
:1030F0008E8D9F8DA8A1B9A1481759076A077B0734
:10310000BCF08EAD9FAD9BA78AA784E090E09B8B1F
:103110008A8B8AAD9BADACADBDAD181619061A06EB
:103120001B0634F4CE5BDF4F81E090E09983888307
:10313000DF91CF911F910F91FF90EF90DF90CF9093
:10314000089524E4269FF001279FF00D1124EE51ED
:10315000FA4F828993890497B9F442A553A54F5F2A
:103160005F4F53A742A7662757FD6095762F868944
:103170009789A08DB18D481759076A077B0721F4FD
:1031800085E090E0938B828B08952F923F924F922F
:103190005F926F927F928F929F92AF92BF92CF92E7
:1031A000DF92EF92FF920F931F93CF93DF9300D0A4
:1031B0001F92CDB7DEB749835A836B837C83490165
:1031C00024E4249F8001259F100D11240E511A4FD5
:1031D000D80152966D907C905397930124503109F9
:1031E0002230310508F0BCC01D961C921E921C971F
:1031F000FC011182108213821282A12CB12C20E0DA
:1032000030E0281539050CF067C0D8011A962D90CA
:103210003C901B972A0C3B1CF10140815181452BAE
:1032200009F054C060857185428053804681578182
:103230001C96ED90FC901D976701F3E0CC0CDD1C13
:10324000FA95E1F75096ED91FC915197EC0DFD1D2B
:103250006701CC0CDD1C1E96ED90FC901F97EC0CCA
:10326000FD1CD7012D933C93D8011C96ED90FC904A
:103270001D97BFEFEB1AFB0AD8011D96FC92EE9248
:103280001C9773836283D1011B965C934E931A97AC
:103290006417750748F4461B570B5183408315820A
:1032A00014821782168212C0D1011496CD90DC9040
:1032B00015977601E40CF51CE61AF70AF182E08214
:1032C0004C195D0955834483D782C6822F5F3F4FD7
:1032D000BEE0AB0EB11C95CFF80124853585DC012D
:1032E00011963C932E934089518913965C934E938B
:1032F00012974685578515965C934E931497232B0A
:10330000D1F5B5E06B167104B1F510926A06828DA5
:10331000938DA48DB58DAE014F5F5F4F64E070E07B
:103320008F3F9F4FAF4FBF4F59F480E290E00E9414
:10333000560969817A818B819C81A40197DA1BC02F
:103340008FE190E00E945609D8019B961C921E9234
:103350009A9781E090E053969C938E9352970BC07E
:10336000F80115861486DC0111961C921E921396A4
:103370001C921E9212970F900F900F900F90DF915A
:10338000CF911F910F91FF90EF90DF90CF90BF9062
:10339000AF909F908F907F906F905F904F903F90F5
:1033A0002F900895EF92FF920F931F93CF93DF9387
:1033B0007C018B01EA010E94C209811121C0809128
:1033C0008C0490918D04049711F183E090E0909328
:1033D0008D0480938C041BC088818111F0CF28ED6F
:1033E00038EB45E050E060E070E0CB010E945E0AFF
:1033F000AE01B801C7010E946D0AC8010E94380AD7
:1034000080916B0690916C06892B31F3D8CFDF91B8
:10341000CF911F910F91FF90EF900895CF93DF937D
:10342000EB0120918C0430918D042430310539F06A
:103430000E946D0ACE01DF91CF910C94380ADF9182
:10344000CF9108950C94DE0D0C94D30D0C94C10D06
:103450000C94480A0C94650D089560E070E080E0DB
:1034600090E00C949A090895AF92BF92CF92DF92A8
:10347000EF92FF920F931F93CF93DF931F921F92B0
:10348000CDB7DEB75C0169017A018B0180E090E085
:10349000C114D104E104F104F1F0C114D10421E01C
:1034A000E206F10410F4A60102C04FEF5FEF9E01A7
:1034B0002F5F3F4FB801C5010E94C32B8F3F2FEFF5
:1034C000920749F029813A81C21AD30AE108F1082A
:1034D000020F131FDDCF0F900F90DF91CF911F913F
:1034E0000F91FF90EF90DF90CF90BF90AF90089535
:1034F000AF92BF92CF92DF92EF92FF920F931F9302
:10350000CF93DF931F921F92CDB7DEB75C016901A5
:103510007A018B0180E090E0C114D104E104F10450
:10352000F1F0C114D10421E0E206F10410F4A60187
:1035300002C04FEF5FEF9E012F5F3F4FB801C50103
:103540000E94012C8F3F2FEF920749F029813A8189
:10355000C21AD30AE108F108020F131FDDCF0F9042
:103560000F90DF91CF911F910F91FF90EF90DF901F
:10357000CF90BF90AF90089508951F920F920FB60D
:103580000F9211240BB60F922F933F934F935F939B
:103590006F937F938F939F93AF93BF93EF93FF931B
:1035A0008091710690917206892B29F0E091710645
:1035B000F09172061995FF91EF91BF91AF919F9194
:1035C0008F917F916F915F914F913F912F910F90CC
:1035D0000BBE0F900FBE0F901F9018951F920F9269
:1035E0000FB60F9211240BB60F922F933F934F9368
:1035F0005F936F937F938F939F93AF93BF93EF935B
:10360000FF938091730690917406892B29F0E091C5
:103610007306F09174061995FF91EF91BF91AF91E8
:103620009F918F917F916F915F914F913F912F91DA
:103630000F900BBE0F900FBE0F901F9018951F920A
:103640000F920FB60F9211240BB60F922F933F9348
:103650004F935F936F937F938F939F93AF93BF939A
:10366000EF93FF938091750690917606892B29F050
:10367000E0917506F09176061995FF91EF91BF9153
:10368000AF919F918F917F916F915F914F913F91FA
:103690002F910F900BBE0F900FBE0F901F9018959B
:1036A0001F920F920FB60F9211240BB60F922F9309
:1036B0003F934F935F936F937F938F939F93AF93BA
:1036C000BF93EF93FF938091770690917806892BB3
:1036D00029F0E0917706F09178061995FF91EF9126
:1036E000BF91AF919F918F917F916F915F914F911A
:1036F0003F912F910F900BBE0F900FBE0F901F9018
:1037000018951F920F920FB60F9211240BB60F92BD
:103710002F933F934F935F936F937F938F939F93D9
:10372000AF93BF93EF93FF9380916D0690916E06D8
:10373000892B29F0E0916D06F0916E061995FF91A5
:10374000EF91BF91AF919F918F917F916F915F9119
:103750004F913F912F910F900BBE0F900FBE0F9086
:103760001F9018951F920F920FB60F9211240BB64F
:103770000F922F933F934F935F936F937F938F930A
:103780009F93AF93BF93EF93FF9380916F069091B8
:103790007006892B29F0E0916F06F091700619955B
:1037A000FF91EF91BF91AF919F918F917F916F9119
:1037B0005F914F913F912F910F900BBE0F900FBED5
:1037C0000F901F9018951F920F920FB60F92112411
:1037D0000BB60F922F933F934F935F936F937F930B
:1037E0008F939F93AF93BF93EF93FF93809179064D
:1037F00090917A06892B29F0E0917906F0917A066A
:103800001995FF91EF91BF91AF919F918F917F910A
:103810006F915F914F913F912F910F900BBE0F9041
:103820000FBE0F901F9018951F920F920FB60F9218
:1038300011240BB60F922F933F934F935F936F9387
:103840007F938F939F93AF93BF93EF93FF93809159
:103850007B0690917C06892B29F0E0917B06F09104
:103860007C061995FF91EF91BF91AF919F918F9138
:103870007F916F915F914F913F912F910F900BBE70
:103880000F900FBE0F901F9018951F920F920FB6BA
:103890000F9211242F933F938F939F93AF93BF93D6
:1038A00080917E0690917F06A0918006B09181065E
:1038B00030917D0623E0230F2D3720F40196A11DC2
:1038C000B11D05C026E8230F0296A11DB11D20934E
:1038D0007D0680937E0690937F06A0938006B0932A
:1038E00081068091820690918306A0918406B09112
:1038F00085060196A11DB11D8093820690938306D3
:10390000A0938406B0938506BF91AF919F918F914C
:103910003F912F910F900FBE0F901F9018953FB7BA
:10392000F8948091820690918306A0918406B091CC
:10393000850626B5A89B05C02F3F19F00196A11D4D
:10394000B11D3FBF6627782F892F9A2F620F711DF7
:10395000811D911D42E0660F771F881F991F4A95B0
:10396000D1F70895CF92DF92EF92FF92CF93DF933A
:103970006B017C01D4DFEB01C114D104E104F1043B
:1039800079F0FADDCCDF6C1B7D0B683E7340A0F351
:1039900081E0C81AD108E108F108C851DC4FECCF2A
:1039A000DF91CF91FF90EF90DF90CF9008957894C2
:1039B00084B5826084BD84B5816084BD85B5826034
:1039C00085BD85B5816085BDEEE6F0E080818160D2
:1039D0008083E1E8F0E010828081826080838081D2
:1039E00081608083E0E8F0E0808181608083E1EBAA
:1039F000F0E0808184608083E0EBF0E08081816092
:103A00008083E1E9F0E08081826080838081816051
:103A10008083E0E9F0E0808181608083E1EAF0E08A
:103A2000808182608083808181608083E0EAF0E031
:103A3000808181608083E1E2F1E080818260808327
:103A4000808181608083E0E2F1E080818160808319
:103A5000EAE7F0E0808184608083808182608083F7
:103A60008081816080838081806880831092C10022
:103A700008951F93CF93DF93182FEB0161E011D1CD
:103A8000209711F460E004C0CF3FD10531F461E02C
:103A9000812FDF91CF911F913DC1E12FF0E0E45BD9
:103AA000FE4F449150E0FA013197E231F10508F000
:103AB0009BC0EE57FF4F0C94212F84B5806884BDC6
:103AC000C7BD97C084B5806284BDC8BD92C08091D7
:103AD0008000806880938000D0938900C093880024
:103AE00088C080918000806280938000D0938B009A
:103AF000C0938A007EC0809180008860809380009F
:103B0000D0938D00C0938C0074C08091B000806809
:103B10008093B000C093B3006CC08091B00080620D
:103B20008093B000C093B40064C08091900080681E
:103B300080939000D0939900C09398005AC08091D0
:103B40009000806280939000D0939B00C0939A0075
:103B500050C080919000886080939000D0939D0029
:103B6000C0939C0046C08091A00080688093A00014
:103B70008091A0008F7B8093A000D093A900C09378
:103B8000A80037C08091A00080628093A000D093ED
:103B9000AB00C093AA002DC08091A00088608093E4
:103BA000A000D093AD00C093AC0023C08091200151
:103BB000806880932001D0932901C093280119C007
:103BC00080912001806280932001D0932B01C093CB
:103BD0002A010FC080912001886080932001D0933A
:103BE0002D01C0932C0105C0C038D1050CF04FCF7A
:103BF00049CFDF91CF911F91089590E0FC0131975B
:103C0000E231F10508F04CC0EC56FF4F0C94212F27
:103C1000809180008F7703C0809180008F7D80939A
:103C20008000089580918000877FF9CF84B58F77D9
:103C300002C084B58F7D84BD08958091B0008F77D8
:103C400003C08091B0008F7D8093B0000895809173
:103C500090008F7707C0809190008F7D03C0809186
:103C60009000877F8093900008958091A0008F77C7
:103C700007C08091A0008F7D03C08091A000877F46
:103C80008093A0000895809120018F7707C08091D4
:103C900020018F7D03C080912001877F80932001C8
:103CA0000895CF93DF9390E0FC01EE56FE4F2491F0
:103CB000FC01E852FE4F8491882349F190E0880F7F
:103CC000991FFC01EE5AFD4FA591B491885C9D4F60
:103CD000FC01C591D4919FB7611108C0F8948C91F3
:103CE000209582238C93888182230AC0623051F40C
:103CF000F8948C91322F309583238C938881822B7A
:103D0000888304C0F8948C91822B8C939FBFDF91A1
:103D1000CF9108950F931F93CF93DF931F92CDB749
:103D2000DEB7282F30E0F901E45BFE4F8491F90102
:103D3000EE56FE4F1491F901E852FE4F0491002314
:103D4000C1F0882319F0698358DF6981E02FF0E022
:103D5000EE0FFF1FE85CFD4FA591B4919FB7F8945B
:103D60008C91611103C01095812301C0812B8C932C
:103D70009FBF0F90DF91CF911F910F910895CF9327
:103D8000DF93282F30E0F901E45BFE4F8491F901C5
:103D9000EE56FE4FD491F901E852FE4FC491CC2368
:103DA00089F081112ADFEC2FF0E0EE0FFF1FE25EB9
:103DB000FD4FA591B4912C912D2381E090E021F449
:103DC00080E002C080E090E0DF91CF910895FC0197
:103DD000818D228D90E0805C9F4F821B91098F73B3
:103DE00099270895FC01918D828D981731F0828D6D
:103DF000E80FF11D858D90E008958FEF9FEF0895F6
:103E0000FC01918D828D981761F0828DDF01A80FE2
:103E1000B11D5D968C91928D9F5F9F73928F90E004
:103E200008958FEF9FEF0895FC01848DDF01A80FA7
:103E3000B11DA35ABF4F2C91848D90E001968F73D2
:103E40009927848FA689B7892C93A089B1898C91F1
:103E500080648C93938D848D981306C00288F389B7
:103E6000E02D80818F7D80830895CF93DF93EC01D7
:103E7000888D8823C1F0EA89FB89808185FD05C092
:103E8000A889B9898C9186FD0EC00FB607FCF5CFC5
:103E9000808185FFF2CFA889B9898C9185FFEDCF0C
:103EA000CE01C2DFE8CFDF91CF910895CF92DF92AC
:103EB000FF920F931F93CF93DF931F92CDB7DEB77F
:103EC0006C01DC015B969C915B975C968C915C9796
:103ED000981307C05096ED91FC915197808185FD14
:103EE00031C0F601038D10E00F5F1F4F0F731127D4
:103EF000F02EF601848DF81210C00FB607FCF9CF32
:103F0000D6015096ED91FC915197808185FFF1CFBC
:103F1000C601698389DF6981ECCF838DE80FF11DCC
:103F2000E35AFF4F6083D6015B960C935B975296E2
:103F3000ED91FC91539780818062808381E0589657
:103F40008C930DC0D6015696ED91FC9157976083E6
:103F50005096ED91FC91519780818064808381E03F
:103F600090E00F90DF91CF911F910F91FF90DF9024
:103F7000CF900895BF92CF92DF92EF92FF92CF93AE
:103F8000DF93EC016A017B01B22EE889F98982E0B6
:103F90008083411581EE580761057105A1F060E04D
:103FA00079E08DE390E0A70196010E94FF2E215059
:103FB000310941095109569547953795279521159E
:103FC00080E1380798F0E889F989108260E874E8A0
:103FD0008EE190E0A70196010E94FF2E2150310949
:103FE000410951095695479537952795EC85FD85EB
:103FF0003083EE85FF852083188EEC89FD89B082A1
:10400000EA89FB89808180618083EA89FB898081DC
:1040100088608083EA89FB89808180688083EA895F
:10402000FB8980818F7D8083DF91CF91FF90EF901E
:10403000DF90CF90BF9008951F920F920FB60F920E
:1040400011240BB60F922F938F939F93EF93FF93AF
:10405000E0919606F09197068081E0919C06F091A0
:104060009D0682FD12C0908180919F068F5F8F73A5
:104070002091A006821751F0E0919F06F0E0EA57E8
:10408000F94F958F80939F0601C08081FF91EF913A
:104090009F918F912F910F900BBE0F900FBE0F909D
:1040A0001F9018951F920F920FB60F9211240BB606
:1040B0000F922F933F934F935F936F937F938F93C1
:1040C0009F93AF93BF93EF93FF9386E896E0ACDEA8
:1040D000FF91EF91BF91AF919F918F917F916F91E0
:1040E0005F914F913F912F910F900BBE0F900FBE9C
:1040F0000F901F901895109289061092880688EEEE
:1041000093E0A0E0B0E080938A0690938B06A093A2
:104110008C06B0938D0683E695E090938706809396
:10412000860685EC90E0909393068093920684EC4B
:1041300090E0909395068093940680EC90E09093A5
:1041400097068093960681EC90E090939906809371
:10415000980682EC90E090939B0680939A0686ECFA
:1041600090E090939D0680939C0610929F0610927B
:10417000A0061092A1061092A20608951F920F9217
:104180000FB60F9211240BB60F922F938F939F931C
:10419000EF93FF93E0913307F09134078081E09132
:1041A0003907F0913A0782FD12C0908180913C0757
:1041B0008F5F8F7320913D07821751F0E0913C078C
:1041C000F0E0ED5DF84F958F80933C0701C0808152
:1041D000FF91EF919F918F912F910F900BBE0F90B8
:1041E0000FBE0F901F9018951F920F920FB60F924F
:1041F00011240BB60F922F933F934F935F936F93BE
:104200007F938F939F93AF93BF93EF93FF9383E23B
:1042100097E00ADEFF91EF91BF91AF919F918F914F
:104220007F916F915F914F913F912F910F900BBEB6
:104230000F900FBE0F901F901895109226071092A6
:10424000250788EE93E0A0E0B0E0809327079093E5
:104250002807A0932907B0932A0783E695E0909357
:104260002407809323078DEC90E090933007809390
:104270002F078CEC90E0909332078093310788EC05
:1042800090E0909334078093330789EC90E090930B
:104290003607809335078AEC90E090933807809337
:1042A00037078EEC90E090933A078093390710928D
:1042B0003C0710923D0710923E0710923F07089569
:1042C0001F920F920FB60F9211240BB60F922F93DD
:1042D0008F939F93EF93FF93E091D007F091D107D5
:1042E0008081E091D607F091D70782FD12C09081BE
:1042F0008091D9078F5F8F732091DA07821751F071
:10430000E091D907F0E0E054F84F958F8093D907FA
:1043100001C08081FF91EF919F918F912F910F901C
:104320000BBE0F900FBE0F901F9018951F920F920B
:104330000FB60F9211240BB60F922F933F934F930A
:104340005F936F937F938F939F93AF93BF93EF93FD
:10435000FF9380EC97E068DDFF91EF91BF91AF9103
:104360009F918F917F916F915F914F913F912F918D
:104370000F900BBE0F900FBE0F901F9018951092CC
:10438000C3071092C20788EE93E0A0E0B0E08093EC
:10439000C4079093C507A093C607B093C70783E6E9
:1043A00095E09093C1078093C00785ED90E09093CE
:1043B000CD078093CC0784ED90E09093CF07809356
:1043C000CE0780ED90E09093D1078093D00781EDE8
:1043D00090E09093D3078093D20782ED90E0909382
:1043E000D5078093D40786ED90E09093D70780930C
:1043F000D6071092D9071092DA071092DB071092B5
:10440000DC0708951F920F920FB60F9211240BB67E
:104410000F922F938F939F93EF93FF93E0916D08EB
:10442000F0916E088081E0917308F091740882FD2C
:1044300012C09081809176088F5F8F7320917708EA
:10444000821751F0E0917608F0E0E35AF74F958F2C
:104450008093760801C08081FF91EF919F918F91A9
:104460002F910F900BBE0F900FBE0F901F901895BD
:104470001F920F920FB60F9211240BB60F922F932B
:104480003F934F935F936F937F938F939F93AF93DC
:10449000BF93EF93FF938DE598E0C6DCFF91EF911A
:1044A000BF91AF919F918F917F916F915F914F914C
:1044B0003F912F910F900BBE0F900FBE0F901F904A
:1044C00018951092600810925F0888EE93E0A0E0C3
:1044D000B0E08093610890936208A0936308B09362
:1044E000640883E695E090935E0880935D0885E319
:1044F00091E090936A088093690884E391E0909337
:104500006C0880936B0880E391E090936E08809331
:104510006D0881E391E09093700880936F0882E3C7
:1045200091E0909372088093710886E391E09093F4
:10453000740880937308109276081092770810928E
:104540007808109279080895AF92BF92CF92DF92C7
:10455000EF92FF920F931F93CF93DF936C017B0138
:10456000C0E0D0E000E010E0F601EC0FFD1F4AE0F3
:1045700050E06281C701D7D05C016EE2C70168D00C
:104580008A0D9B1D080F191F2196C330D10561F7B5
:104590004AE050E0F6016581C701C5D0800F911F48
:1045A000DF91CF911F910F91FF90EF90DF90CF900F
:1045B000BF90AF90089583E795E09093FB088093B8
:1045C000FA081092FC081092FD081092FE08109252
:1045D000FF080895CF92DF92EF92FF920F931F93FF
:1045E000CF93DF936C017A01EB01E60EF71E00E03A
:1045F00010E0CE15DF0561F06991D601ED91FC91D7
:104600000190F081E02DC6011995080F191FF1CF17
:10461000C801DF91CF911F910F91FF90EF90DF9034
:10462000CF9008956115710581F0DB010D90002098
:10463000E9F7AD0141505109461B570BDC01ED91E3
:10464000FC910280F381E02D199480E090E00895C0
:10465000DC01ED91FC910190F081E02D19948F9295
:104660009F92AF92BF92CF92DF92EF92FF920F9301
:104670001F93CF93DF93CDB7DEB7A1970FB6F89412
:10468000DEBF0FBECDBF7C01C42EE52FCB01D22EE5
:1046900019A221E02D1510F02AE0D22E8E010F5D17
:1046A0001F4F8D2C912CA12CB12C6C2D7E2FA50190
:1046B00094010E94FF2E8C2DD29E8019112401504E
:1046C00011098A3014F4805D01C0895CF80180838F
:1046D000211531054105510521F0C22EE32FCA01F4
:1046E000E4CFB801C7019EDFA1960FB6F894DEBFF4
:1046F0000FBECDBFDF91CF911F910F91FF90EF9033
:10470000DF90CF90BF90AF909F908F90089521152C
:10471000310541F4DC01ED91FC910190F081E02D37
:10472000642F19949CCF9A01462F50E060E070E00E
:10473000EECF8230A9F028F4882349F0813051F07F
:104740000895843009F1E8F0853009F10895109258
:104750006E00089580916F008D7F80936F000895A3
:10476000809170008D7F8093700081E08093B00015
:104770008091B100887F84608093B1001092B30073
:104780000895109271000895109272000895109289
:1047900073000895CF93C82F80918E048C1307C0A7
:1047A000ECE6F2E084919FEF90938E0401C08FEFCE
:1047B000C0DF60E08C2FCF91ADCA1F920F920FB671
:1047C0000F9211240BB60F922F933F934F935F9349
:1047D0006F937F938F939F93AF93BF93EF93FF93C9
:1047E0008091030990910409A0910509B0910609EF
:1047F000892B8A2B8B2B51F190910009E0910109B3
:10480000F09102098081892780838091030990912A
:104810000409A0910509B0910609181619061A068F
:104820001B06BCF48091030990910409A09105092D
:10483000B09106090197A109B109809303099093EA
:104840000409A0930509B093060903C080918E0462
:10485000A1DFFF91EF91BF91AF919F918F917F91D8
:104860006F915F914F913F912F910F900BBE0F90E1
:104870000FBE0F901F90189508951F920F920FB6BC
:104880000F9211240BB60F922F933F934F935F9388
:104890006F937F938F939F93AF93BF93EF93FF9308
:1048A0008FE89DEF9093250180932401EBD7FF9132
:1048B000EF91BF91AF919F918F917F916F915F9198
:1048C0004F913F912F910F900BBE0F900FBE0F9005
:1048D0001F9018958FE89DEF9093250180932401F8
:1048E000A3E7B0E08C918E7F8C93E0E2F1E08081D1
:1048F0008C7F8083E1E2F1E08081877E808380810C
:104900008460808380818C7F80838C9181608C9394
:104910000895CF92DF92EF92FF920F931F93CF9360
:10492000DF93FC01DB01CA01B901C12CD12C760156
:104930001DE7C0E2C216D306E406F506C9F00C91E5
:10494000033021F0D3E8D00FD23080F41083DC9113
:10495000DC27D18332966F5F7F4F8F4F9F4FDFEF02
:10496000CD1ADD0AED0AFD0A1196E4CF0193F7CFC7
:10497000DF91CF911F910F91FF90EF90DF90CF903B
:104980000895AF92BF92CF92DF92EF92FF920F9372
:104990001F93CF93DF93CDB7DEB72C970FB6F89464
:1049A000DEBF0FBECDBF8C015B01FB01818188237F
:1049B00009F486C08EE7F8018083818383E08587D0
:1049C0008687108A1786128A118A138A148A158A92
:1049D000168A178A22E030E040E050E0B801C501B5
:1049E000CFD281116EC021E030E040E050E0B8014C
:1049F0006E5F7F4FCE0101968CDF9B01AC01BE0143
:104A00006F5F7F4FC501BCD281115BC0F501208172
:104A1000F80183819481A581B68189879A87AB87C4
:104A2000BC87211108C02B859A8589853C853987EB
:104A30002A879B878C8724E030E040E050E0BE016D
:104A4000675F7F4FCE01019664DF9B01AC01BE0121
:104A50006F5F7F4FC50194D2811133C0C12CD12C1F
:104A60007601F80183819481A581B681C816D906A3
:104A7000EA06FB06D8F4F801678170856C0D7D1D90
:104A800021E030E040E050E0CE01019642DF9B01A2
:104A9000AC01BE016F5F7F4FC50172D2811111C0A1
:104AA000FFEFCF1ADF0AEF0AFF0ADBCFB801635F1F
:104AB0007F4F22E030E040E050E0C50161D201C00C
:104AC00080E02C960FB6F894DEBF0FBECDBFDF910D
:104AD000CF911F910F91FF90EF90DF90CF90BF90FB
:104AE000AF9008952F923F924F925F926F927F9274
:104AF0008F929F92AF92BF92CF92DF92EF92FF92EE
:104B00000F931F93CF93DF93CDB7DEB727970FB6E1
:104B1000F894DEBF0FBECDBF7C016B011D821982F0
:104B20001A821B821C82DB0111968C91882309F466
:104B3000AAC18EE7F7018083818383E0858786871A
:104B4000108A1786128A118A138A148A158A168A7D
:104B5000178A3396FF83EE8385E0482E512C570148
:104B6000FDE0AF0EB11C47018FEF881A980A66244A
:104B70006394712C170192E0290E311C8E010F5F96
:104B80001F4F21E030E040E050E0BE016B5F7F4FFF
:104B9000C6014BD2811178C189819A81AB81BC81D8
:104BA0000197A105B10551F0D70150961C921E92B4
:104BB0001F9752961C921E92519765C1F7018785E7
:104BC000908902970397C8F497898D81992329F0DA
:104BD000178AF0E28F278D8310C08D3749F08E370A
:104BE00039F1833051F4128A118A108A178605C070
:104BF000E1E0D7015796EC93C1CFF7018785908903
:104C00008230910509F43FC02CF4009769F00197B8
:104C100031F1B4CF8430910509F4BEC00CF469C001
:104C2000059709F4F5C0AACF8D818E3709F0A6CF7C
:104C3000D70152969C928E9251978C9353968D9158
:104C40009D910D90BC91A02D0196A11DB11DF70164
:104C5000838B948BA58BB68B708A67868FCF8D8163
:104C60008E3709F00BC10188F289E02D8083F701AE
:104C7000138A148A158A168A82E090E0908B8787BF
:104C8000328A218A7BCFF70183899489A589B689E5
:104C9000892B8A2B8B2B09F0F1C00188F289E02D3A
:104CA000CF010196D70152969C938E9351978D8197
:104CB000808353968D919D910D90BC91A02D01966E
:104CC000A11DB11DF701838B948BA58BB68B01972A
:104CD000A105B10509F052CF83E090E0908B878762
:104CE000AE81BF81B28BA18B138A148A158A168A72
:104CF00045CFF70183899489A589B6890497A105D1
:104D0000B10508F0BBC00188F289E02DCF01019602
:104D1000D70152969C938E9351978D8180835396A1
:104D20008D919D910D90BC91A02D0196A11DB11D5D
:104D3000F701838B948BA58BB68B0497A105B105E6
:104D400009F01CCFD6018C91538144813581268195
:104D5000811103C0C901DA0104C0852F942FA32F4C
:104D6000B22FF70183839483A583B683138A148AB1
:104D7000158A168A892B8A2B8B2B49F084E090E0C8
:104D8000908B878787819085928B818BF7CE508A15
:104D90004786B28AA18AF2CEF70143895489658990
:104DA000768983819481A581B681481759076A075E
:104DB0007B0708F063C00188F289E02DCF010196DE
:104DC000D70152969C938E9351978D8180835396F1
:104DD0008D919D910D90BC91A02D0196A11DB11DAD
:104DE000F701838B948BA58BB68B438154816581AE
:104DF000768184179507A607B70709F0BFCE508ABA
:104E00004786B28AA18A138A148A158A168AB6CE70
:104E1000F70183899489A589B6890297A105B1050F
:104E200068F52D81233051F50188F289E02DCF01FD
:104E30000196D70152969C938E9351972083539657
:104E40008D919D910D90BC91A02D0196A11DB11D3C
:104E5000F701838B948BA58BB68B0297A105B105C7
:104E600009F08CCE86E090E0908B8787128A118AB9
:104E7000138A148A158A168A80E006C0F701128AFE
:104E8000118A108A178681E027960FB6F894DEBF44
:104E90000FBECDBFDF91CF911F910F91FF90EF908B
:104EA000DF90CF90BF90AF909F908F907F906F904A
:104EB0005F904F903F902F90089581E08093070975
:104EC0001092080987E099E00895CF92DF92EF925F
:104ED000FF920F931F93CF93DF938C017B016A01A5
:104EE000FC018181811120C06CE070E081E090E0E4
:104EF000B2D7EC0190930A09809309090097A1F0B9
:104F00001A861B8681E0F8018183B601C70160D44F
:104F100099838883E0910909F0910A098081918140
:104F2000019621F4F801118281E001C080E0DF9157
:104F3000CF911F910F91FF90EF90DF90CF90089548
:104F4000CF93DF93FC0121812223B1F01182E09104
:104F50000909F0910A098081918131D4EC01809195
:104F6000090990910A09009711F00E94DD2F81E054
:104F7000219619F080E001C081E0DF91CF91089582
:104F8000FC018181882369F0E0910909F0910A0907
:104F9000808191810E94341A21E0019619F020E06D
:104FA00001C021E0822F08950F931F93CF93DF93C9
:104FB0001F921F92CDB7DEB78B011A821982DC01D6
:104FC00011968C91811102C081E028C0E0910909FD
:104FD000F0910A098285882321F081E0FB0180831A
:104FE0001CC0DB011C92BF016E5F7F4F9E012F5FD3
:104FF0003F4F48E050E08081918103D4019621F336
:1050000089819A81009749F091E0F8019083E091BD
:105010000909F0910A098287138680E00F900F90AA
:10502000DF91CF911F910F9108958F929F92AF9230
:10503000BF92CF92DF92EF92FF920F931F93CF9385
:10504000DF935B0169017A01F801108211821282FB
:105050001382FC018181811102C081E032C0C091C4
:105060000909D0910A098A858823F1F090E0490165
:105070008217930708F44C016B8570E06E5F7F4FD9
:105080006C0F7D1FA401C5010E946C308A858819B0
:105090008A878B85880D8B87A80CB91CA701960180
:1050A0002819390941095109B501888199810E945E
:1050B000781A019691F2F801C082D182E282F382DD
:1050C00080E0DF91CF911F910F91FF90EF90DF90E3
:1050D000CF90BF90AF909F908F900895CF93DF9324
:1050E000FB0120813181DC016D917C91DA01A85BAB
:1050F000BF4F672B19F42115310531F0E901C85B69
:10510000DF4F5983488303C051834083FC0151839F
:1051100040831D921C92DF91CF910895FC01DB0129
:105120008D919C91208131812115310519F40097D1
:1051300009F40895D901A85BBF4F8D919C911197F7
:1051400091838083892B19F4FB01118210821D92B7
:105150001C92C90108952091120930911309809180
:10516000140990911509892B19F481E0232B09F07A
:1051700080E0089520910E0930910F098091100967
:1051800090911109892B19F481E0232B09F080E01B
:105190000895CF93DF93C5E0D0E06AE470E081E04A
:1051A00090E059D6009751F0AC0162E179E084E1DA
:1051B00099E094DF219789F780E001C081E0DF91D9
:1051C000CF9108957F928F929F92AF92BF92CF928C
:1051D000DF92EF92FF920F931F93CF93DF931F9273
:1051E0001F92CDB7DEB75C01BC018FE299E07ADC9B
:1051F000782E811141C080913109823019F41092CA
:1052000016093AC0C0903209D0903309E0903409B1
:10521000F0903509809036099090370962E179E085
:1052200084E199E07BDF8C01A601B40155D7F80138
:10523000E05CFF4FEE24D7FCE094FE2CC082D182CC
:10524000E282F38234961082118212821382A801C4
:105250006EE079E080E199E041DF7DDF81110CC0F3
:1052600002E010E09E012F5F3F4F40E050E060E021
:1052700070E0C50112D0782E872D0F900F90DF912E
:10528000CF911F910F91FF90EF90DF90CF90BF9043
:10529000AF909F908F907F9008958F929F92AF9242
:1052A000BF92CF92DF92EF92FF920F931F93CF9313
:1052B000DF9300D0CDB7DEB76C014B0158017A0106
:1052C0004331510518F082E1E82EF12CF901F18209
:1052D000E08200E010E080911609882379F1F2E085
:1052E000AF16B10459F11B82BE016D5F7F4FC6013D
:1052F0005BDE81113BC08B81811104C02CDF8111E9
:1053000006C0E7CFC6015EDF8823C1F32FC0083C8B
:1053100011051CF40F5F1F4FDECF3BDF811126C04C
:1053200002E010E09E012F5F3F4F40E050E060E060
:1053300070E0C601B2DF882361F218C0C701A0E0A7
:10534000B0E080931A0990931B09A0931C09B093B5
:105350001D09A0921909A701B40180911E0990911D
:105360001F09BAD6B60187E199E00BDB0F900F90C9
:105370000F90DF91CF911F910F91FF90EF90DF90F1
:10538000CF90BF90AF909F908F900895CF93E3DE22
:10539000811107C062E179E084E199E0BFDE0DD6BA
:1053A000F6CFE8DE811107C06EE079E080E199E098
:1053B000B5DE03D6F6CF8091360990913709FDD539
:1053C000C8E1EFE2F9E0DF018C2F1D928A95E9F741
:1053D00080911E0990911F09F0D5E7E1F9E0DF0106
:1053E0001D92CA95E9F710920F0910920E091092BA
:1053F00011091092100910921309109212091092BB
:1054000015091092140910921609CF91089580E0A1
:10541000089521E0FC0181819281892B09F420E02B
:10542000FB01208380E008951092160908950F93E0
:105430001F93CF93DF93EC0109811A8101151105A8
:1054400029F0A4DFC8017CDD1A821982DF91CF9197
:105450001F910F9108958F929F92AF92BF92CF921A
:10546000DF92EF92FF920F931F93CF93DF938C0104
:105470005B014A01C42FD92DEE24E394F12CEA14E8
:10548000FB0484F4FFEFEF1AFF0A8A819B810097E7
:1054900039F06DE975E030D6892B11F41B821A8240
:1054A0002296EDCF81E0F801808307DDEC010097C3
:1054B00099F16CDF80E490E0E8D490931F09809329
:1054C0001E09892B39F190E4C92ED12CE12CF12C45
:1054D000C0922009D0922109E0922209F09223097A
:1054E00080E490E0D2D49093370980933609892BD9
:1054F00089F0C0923809D0923909E0923A09F092C5
:105500003B0947DE811106C0A401B501CE01DDDCF7
:10551000882311F0C0E0D0E0F801D283C183CD2B05
:1055200019F080E090E002C085E795E0DF91CF912F
:105530001F910F91FF90EF90DF90CF90BF90AF90B1
:105540009F908F900895FC01808108958BE099E0F1
:10555000089508956F927F928F929F92AF92BF921B
:10556000CF92DF92EF92FF920F931F93CF93DF932F
:105570001F921F92CDB7DEB77C015B018A01490102
:10558000FC01C180D280F6DD8823C9F01982BE01FA
:105590006F5F7F4FC60108DD782E811188C0898139
:1055A000882339F0C6010EDE811107C0E3DD8823B0
:1055B00031F0F801118210827AC0782E78C0F7019C
:1055C000C180D2808091100990911109009731F427
:1055D000C601F8DD782E8823A9F369C07C01F4E4C4
:1055E000EF0EF11CF70140815181628173813C0112
:1055F000F0E46F0E711CF30120813181241B350B07
:10560000F801A216B3061CF03183208302C0B182D8
:10561000A082BC01640F751FF80140815181C40153
:105620005BD5F80180819181AA2797FDA095BA2FBB
:10563000F7014081518162817381840F951FA61FFC
:10564000B71F80839183A283B383F301408151818B
:105650006281738184179507A607B70739F57BDD4B
:10566000182FF3011082118212821382F701108227
:105670001182128213826EE079E080E199E04EDDC2
:10568000AC0162E179E084E199E028DD112371F059
:1056900002E010E09E012F5F3F4F40E050E060E0ED
:1056A00070E0C601FADD782E811101C0712C872DC2
:1056B0000F900F90DF91CF911F910F91FF90EF907E
:1056C000DF90CF90BF90AF909F908F907F906F9022
:1056D00008955F926F927F928F929F92AF92BF9246
:1056E000CF92DF92EF92FF920F931F93CF93DF93AE
:1056F0001F921F92CDB7DEB76B013A015901FC0131
:10570000818092801A821982E12CF12C55245394C5
:10571000EC14FD04B4F401E010E09E012F5F3F4F54
:10572000A6014E195F09B3016E0D7F1DC401B5DDE1
:1057300081110BC089819A81E80EF91E50921609D9
:10574000E7CF80E0F501D182C0820F900F90DF910A
:10575000CF911F910F91FF90EF90DF90CF90BF906E
:10576000AF909F908F907F906F905F900895089575
:10577000CF93DF93EC0189819A81E2DB1A8219824F
:10578000DF91CF9108950F931F93CF93DF93EA0199
:105790008901F894E0918606F09187060280F381F2
:1057A000E02D86E896E019957894F801D183C083BE
:1057B00080E090E0DF91CF911F910F91089568EE06
:1057C00073E080E090E00E94B21C80E090E00895D9
:1057D0000E94D71C26E040E052EC61E070E086E8D1
:1057E00096E00E94BA1F86E896E00E94E71E892B89
:1057F00029F086E896E00E94001FF5CF80E090E057
:105800000895CF92DF92EF92FF920F931F93CF9361
:10581000DF931F921F92CDB7DEB77A016901F901BC
:105820001182108286E896E069837A830E94E71EDF
:1058300069817A81892BC9F08B01F6018081918180
:105840008E159F0590F486E896E00E94001F8F3F1A
:10585000FFEF9F0791F3F80181938F01F60180819B
:105860009181019691838083E8CF80E090E00F9052
:105870000F90DF91CF911F910F91FF90EF90DF90EC
:10588000CF9008952091470981E0820F80934709C6
:10589000222349F081E090E09093490980934809E0
:1058A00020934709089578940E947902F894809192
:1058B00047098150809347090C94241ADF92EF9294
:1058C000FF920F931F93CF93DF931F921F92CDB739
:1058D000DEB781E08A830E94D71C0E943C24E091BD
:1058E0002205F09123051182108260E070E080E0D3
:1058F00090E00E942D1A0E94930678940091220550
:1059000010912305C80183569F4F0E942C1A82E0F4
:1059100090E00E94281A1982AE014F5F5F4F62E04B
:1059200070E0F801828193810E94D21989818823D5
:1059300029F081E0F801ED55FF4F80830E94331A72
:10594000F8940E946A24F80180819181892B29F4BE
:1059500081E0ED55FF4F9081911180E08A8378942A
:1059600078947801F3EAEF0EF11CDD24D3948A8158
:105970008823E1F01982AE014F5F5F4F62E070E073
:10598000F801828193810E940E1A8981882311F087
:10599000F701D082F80180819181892B21F481E087
:1059A000F7019081911180E08A83E1CF82E090E05D
:1059B0000E942A1A0E946808F89480E090E00F90F4
:1059C0000F90DF91CF911F910F91FF90EF90DF909B
:1059D00008955058BB27AA270ED070C161D130F06E
:1059E00066D120F031F49F3F11F41EF456C10EF43D
:1059F000E095E7FB4CC1E92F72D180F3BA1762073B
:105A000073078407950718F071F49EF58AC10EF4A8
:105A1000E0950B2EBA2FA02D0B01B90190010C01BE
:105A2000CA01A0011124FF27591B99F0593F50F4D6
:105A3000503E68F11A16F040A22F232F342F44272E
:105A4000585FF3CF469537952795A795F040539526
:105A5000C9F77EF41F16BA0B620B730B840BBAF0F6
:105A60009150A1F0FF0FBB1F661F771F881FC2F761
:105A70000EC0BA0F621F731F841F48F48795779575
:105A80006795B795F7959E3F08F0B3CF9395880F2C
:105A900008F09927EE0F979587950895D4D008F4CC
:105AA00081E008950CD00AC102D140F0F9D030F065
:105AB00021F45F3F19F0EBC0511134C1EEC00FD19A
:105AC00098F39923C9F35523B1F3951B550BBB27C5
:105AD000AA2762177307840738F09F5F5F4F220F72
