:100000003BC100000C945B220C948C220C94BD220A
:100010000C94EE220C941F230C9450230C948123F7
:100020000C94B2235AC1000058C1000056C1000010
:1000300054C100000C947B2B50C100004EC1000045
:100040004CC100004AC1000048C1000046C1000088
:1000500044C1000042C1000040C100000C94E323F1
:100060003CC100000C94BA270C94F02736C1000064
:1000700034C1000032C1000030C100002EC10000B8
:100080002CC100002AC1000028C1000026C10000C8
:100090000C945C280C94922820C100001EC1000022
:1000A0001CC100001AC1000018C1000016C10000E8
:1000B00014C1000012C1000010C100000EC10000F8
:1000C0000CC100000AC100000C94DB2B0C94FE282C
:1000D0000C94342902C100000C94A0290C94D62958
:1000E000FCC00000EB128714EA14EC14E2131314A2
:1000F000AC12CC129012C914B814C514EC14EC1440
:10010000EC147B12FB24002505250F2519259225CB
:1001100023252B2533253D254725512560256A2597
:10012000922574257E258825B425B725A625AA25E0
:10013000B025EE25BB25BF25C525C925CD25D32551
:10014000D725DB25EE25E125E525E92500000A0B6D
:1001500002090C0D0E080703040100000000000056
:10016000000000000000000000000000000000008F
:10017000000000000000000012111000000000004C
:10018000000000000000000000000000000000006F
:10019000000001021020200808102040102040809C
:1001A000020102010804020101020408102040803B
:1001B00080402010080402018004020180402010C9
:1001C0000804020108040201010204081020408012
:1001D00001020408102040800505050507050808F0
:1001E0000808020202020A0A0808040404040101C1
:1001F00001010101010103030303030303030407D6
:1002000007070C0C0C0C0C0C0C0C0202020206066C
:100210000606060606060B0B0B0B0B0B0B0B000062
:1002200020002300260029002C002F0032000001AE
:10023000000003010601090100002200250028003A
:100240002B002E00310034000201000005010801DE
:100250000B0100002100240027002A002D0030009F
:10026000330001010000040107010A0102001928FE
:10027000BB285D29FF29792A11241FBECFEFD1E2C7
:10028000DEBFCDBF00E00CBF16E0A0E0B2E0EAE4C4
:10029000F0E700E00BBF02C007900D92A63CB1074B
:1002A000D9F72BE0A6ECB6E001C01D92AC3DB20739
:1002B000E1F712E0C8E7D2E000E006C022970109AA
:1002C000FE010BBF0E94C536CE36D10780E008077D
:1002D000A9F70E94FC330C94233892CECF93DF937E
:1002E000EC0161E088810E94EF2561E08C81DF9163
:1002F000CF910C94EF254F925F926F927F928F92E5
:100300009F92AF92BF92CF92DF92EF92FF920F93A4
:100310001F93CF93DF9300D01F92CDB7DEB76983D1
:100320007A838B839C8349015A0127013801F601A6
:1003300020893189428953890E94363618162CF05B
:10034000F601448455846684778420E030E040E8F8
:1003500053E4C301B2010E94EC3487FF0EC020E0D9
:1003600030E0A901C301B2010E94363687FD07C003
:10037000C301B2010E94583503C06FEF01C060E0B5
:10038000F60180810E942826F60124893589468954
:10039000578969817A818B819C810E943636181633
:1003A0002CF0F60180849184A284B38420E030E0B4
:1003B00040E853E4C501B4010E94EC3487FF0EC04D
:1003C00020E030E0A901C501B4010E94363687FD66
:1003D00007C0C501B4010E94583503C06FEF01C0CA
:1003E00060E070E0F60184810F900F900F900F9005
:1003F000DF91CF911F910F91FF90EF90DF90CF9001
:10040000BF90AF909F908F907F906F905F904F9034
:100410000C94D7249F92AF92BF92CF92DF92EF922B
:10042000FF920F931F93CF93DF93982ECB01BA01C6
:100430005901E801992049F1F6012081213029F183
:10044000F70124853585468557850E94363618166E
:1004500034F4F701608171818281938104C06881E5
:1004600079818A819B81F701208931894289538969
:100470000E948834F501608371838283938368834B
:1004800079838A839B8384E08C83F6019082DF9159
:10049000CF911F910F91FF90EF90DF90CF90BF9081
:1004A000AF909F9008952F923F924F925F926F92DC
:1004B0007F928F929F92AF92BF92CF92DF92EF92F4
:1004C000FF920F931F93CF93DF93CDB7DEB7CE5735
:1004D000D1090FB6F894DEBF0FBECDBF8091D30B0C
:1004E000992787FD90950197029710F080E001C051
:1004F00083E08093D30B8091C80B992787FD90955B
:100500000197029710F080E001C083E08093C80B50
:100510008091C90B992787FD90950197029710F05C
:1005200080E001C083E08093C90BE090D203F0909B
:10053000D3030091D4031091D5036091CE03709141
:10054000CF038091D0039091D103E8E9CE2EE5E06E
:10055000DE2E20E030E0A901CEDE20E030E0A9016F
:100560006091D6037091D7038091D8039091D903FD
:100570000E943A362091DA033091DB034091DC038C
:100580005091DD030E94F0346B017C016093800A7E
:100590007093810A8093820A9093830A40907A0B29
:1005A00050907B0B60907C0B70907D0B20917E0BAC
:1005B00030917F0B4091800B5091810B298F3A8FA6
:1005C0004B8F5C8F8091820B9091830BA091840B59
:1005D000B091850B8D8F9E8FAF8FB8A30EED13E07A
:1005E000F4E82F2EFAE03F2ED8016D917D918D9188
:1005F0009D918D01A30192010E943A3620E030E0E6
:10060000A9010E9488344B015C01F80120853185E5
:1006100042855385698D7A8D8B8D9C8D0E943A36EB
:100620009B01AC01C501B4010E9488344B015C01FF
:10063000D80154962D913D914D915C9157976D8DB8
:100640007E8D8F8D98A10E943A369B01AC01C50129
:10065000B4010E948834F101619371938193919365
:100660001F01F3E00A3E1F0709F0BECF2091880A60
:100670003091890A40918A0A50918B0AC701B601CC
:100680000E9487346093900A7093910A8093920A33
:100690009093930A209132043091330440913404B2
:1006A000509135040E943A36209136043091370437
:1006B00040913804509139040E94F0342091860B07
:1006C0003091870B4091880B5091890B0E948834A0
:1006D0006B017C0120913E0430913F044091400425
:1006E000509141040E943636181644F0C090C6035B
:1006F000D090C703E090C803F090C9032091420452
:10070000309143044091440450914504C701B6011F
:100710000E94363618168CF48091CA039091CB0350
:10072000A091CC03B091CD038093940A9093950A45
:10073000A093960AB093970A08C0C092940AD092E8
:10074000950AE092960AF092970A2091A6033091BA
:10075000A7034091A8035091A9036091CE03709123
:10076000CF038091D0039091D1030E9436361816A2
:100770004CF4C090D203D090D303E090D403F09017
:10078000D50308C0C090A203D090A303E090A403B7
:10079000F090A50320E030E040E853E4C701B60143
:1007A0000E94EC3487FF0EC020E030E0A901C701B1
:1007B000B6010E94363687FD07C0C701B6010E9408
:1007C000583503C06FEF01C060E080918A030E943A
:1007D00028262091AA033091AB034091AC0350919D
:1007E000AD036091CE037091CF038091D0039091BF
:1007F000D1030E94363618164CF4C090940AD0905B
:10080000950AE090960AF090970A08C0C0909E035F
:10081000D0909F03E090A003F090A10320E030E08F
:1008200040E853E4C701B6010E94EC3487FF0EC0D4
:1008300020E030E0A901C701B6010E94363687FDED
:1008400007C0C701B6010E94583503C06FEF01C051
:1008500060E070E080918E030E94D724E090D20384
:10086000F090D3030091D4031091D5036091CE038F
:100870007091CF038091D0039091D10350E8C52EA1
:1008800055E0D52E20E030E0A90135DD2091B603FA
:100890003091B7034091B8035091B9036091CE03F2
:1008A0007091CF038091D0039091D1030E9436368E
:1008B00018164CF4C090D203D090D303E090D40328
:1008C000F090D50308C0C090B203D090B303E0907D
:1008D000B403F090B50320E030E040E853E4C701F2
:1008E000B6010E94EC3487FF0EC020E030E0A90181
:1008F000C701B6010E94363687FD07C0C701B601A1
:100900000E94583503C06FEF01C060E080919203F0
:100910000E9428262091BA033091BB034091BC036A
:100920005091BD036091CE037091CF038091D003AD
:100930009091D1030E9436361816E4F0C090AE03B1
:10094000D090AF03E090B003F090B10320E030E02E
:1009500040E853E4C701B6010E94EC3487FF12C09F
:1009600020E030E0A901C701B6010E94363687FFBA
:1009700004C00AC0C12CD12C7601C701B6010E9467
:10098000583503C06FEF01C060E070E080919603BE
:100990000E94D72440908E0B50908F0B6090900B4C
:1009A0007090910B8090920B9090930BA090940B71
:1009B000B090950B2091960B3091970B4091980B2E
:1009C0005091990B298F3A8F4B8F5C8F06E414E07E
:1009D00048E9242E4AE0342ED8016D917D918D9105
:1009E0009D918D01A30192010E943A3620E030E0F2
:1009F000A9010E9488346B017C01F80120853185B2
:100A000042855385C501B4010E943A369B01AC0171
:100A1000C701B6010E9488346B017C01D80154964D
:100A20002D913D914D915C915797698D7A8D8B8D6C
:100A30009C8D0E943A369B01AC01C701B6010E9411
:100A40008834F10161937193819391931F01F4E0D4
:100A500002351F0709F680913E050E945D2621E0C0
:100A60006C962FAF6C9790915005981718F06C9674
:100A70001FAE6C97BB24B3948091C40B6C963FADB2
:100A80006C97831708F0B12C809142050E945D2677
:100A900041E06D964FAF6D9790915105981718F002
:100AA0006D961FAE6D97AA24A3948091C50B6D9689
:100AB0005FAD6D97851708F0A12C809146050E94C7
:100AC0005D2691E0A6969FAFA69790915205981744
:100AD00018F0A6961FAEA69780914A050E945D2643
:100AE000A1E0A796AFAFA79790915305981718F07C
:100AF000A7961FAEA79740919A0450919B046091CE
:100B00009C0470919D0487EDC82E8BE0D82E9AE648
:100B1000E92E95E0F92E0FEC1BE028EC3AE08A2D47
:100B200079DC40919A0450919B0460919C047091EF
:100B30009D0424EDC22E2BE0D22E34E5E32E35E0C9
:100B4000F32E0AEC1BE024EC3AE08B2D63DC2091C1
:100B50009A0B30919B0B40919C0B50919D0B298FD0
:100B60003A8F4B8F5C8F80919E0B90919F0BA09141
:100B7000A00BB091A10B8D8F9E8FAF8FB8A320914A
:100B8000A20B3091A30B4091A40B5091A50B29A36C
:100B90003AA34BA35CA38091A60B9091A70BA091C5
:100BA000A80BB091A90B89AB9AABABABBCAB2091B6
:100BB000AE043091AF044091B0045091B104698DFE
:100BC0007A8D8B8D9C8D0E943A366B017C01209131
:100BD000BE043091BF044091C0045091C1046D8D9A
:100BE0007E8D8F8D98A10E943A369B01AC01C70182
:100BF000B6010E9488346B017C012091CE043091B3
:100C0000CF044091D0045091D10469A17AA18BA165
:100C10009CA10E943A369B01AC01C701B6010E941B
:100C200088346B017C012091DE043091DF04409117
:100C3000E0045091E10469A97AA98BA99CA90E94BA
:100C40003A369B01AC01C701B6010E948834AB96CD
:100C50006CAF7DAF8EAF9FAFAB976093A40A7093DC
:100C6000A50A8093A60A9093A70A2091B204309116
:100C7000B3044091B4045091B504698D7A8D8B8D85
:100C80009C8D0E943A366B017C012091C204309108
:100C9000C3044091C4045091C5046D8D7E8D8F8D29
:100CA00098A10E943A369B01AC01C701B6010E948F
:100CB00088346B017C012091D2043091D30440919F
:100CC000D4045091D50469A17AA18BA19CA10E9462
:100CD0003A369B01AC01C701B6010E9488346B0112
:100CE0007C012091E2043091E3044091E4045091AE
:100CF000E50469A97AA98BA99CA90E943A369B01AF
:100D0000AC01C701B6010E948834AF966CAF7DAFCD
:100D10008EAF9FAFAF976093A80A7093A90A809394
:100D2000AA0A9093AB0A2091B6043091B70440917F
:100D3000B8045091B904698D7A8D8B8D9C8D0E9479
:100D40003A366B017C012091C6043091C704409172
:100D5000C8045091C9046D8D7E8D8F8D98A10E941D
:100D60003A369B01AC01C701B6010E9488346B0181
:100D70007C012091D6043091D7044091D804509141
:100D8000D90469A17AA18BA19CA10E943A369B014A
:100D9000AC01C701B6010E9488346B017C0120912F
:100DA000E6043091E7044091E8045091E90469A910
:100DB0007AA98BA99CA90E943A369B01AC01C70174
:100DC000B6010E948834E3966CAF7DAF8EAF9FAFC3
:100DD000E3976093AC0A7093AD0A8093AE0A909348
:100DE000AF0A2091BA043091BB044091BC045091E9
:100DF000BD04698D7A8D8B8D9C8D0E943A366B0176
:100E00007C012091CA043091CB044091CC045091D4
:100E1000CD046D8D7E8D8F8D98A10E943A369B01F9
:100E2000AC01C701B6010E9488346B017C0120919E
:100E3000DA043091DB044091DC045091DD0469A1B7
:100E40007AA18BA19CA10E943A369B01AC01C701FB
:100E5000B6010E9488346B017C012091EA04309134
:100E6000EB044091EC045091ED0469A97AA98BA997
:100E70009CA90E943A369B01AC01C701B6010E94B1
:100E80008834E7966CAF7DAF8EAF9FAFE7976093E6
:100E9000B00A7093B10A8093B20A9093B30A20917A
:100EA000AA0B3091AB0B4091AC0B5091AD0B2DA325
:100EB0003EA34FA358A78091AE0B9091AF0BA0918A
:100EC000B00BB091B10B89A79AA7ABA7BCA7209193
:100ED000B20B3091B30B4091B40B5091B50B2DA7D1
:100EE0003EA74FA758AB8091B60B9091B70BA0913E
:100EF000B80BB091B90B8DAB9EABAFABB8AF209137
:100F0000FE043091FF0440910005509101056DA150
:100F10007EA18FA198A50E943A366B017C01209199
:100F20000E0530910F05409110055091110569A5EE
:100F30007AA58BA59CA50E943A369B01AC01C701FE
:100F4000B6010E9488346B017C0120911E0530910E
:100F50001F0540912005509121056DA57EA58FA507
:100F600098A90E943A369B01AC01C701B6010E94C4
:100F700088346B017C0120912E0530912F05409122
:100F80003005509131056DA97EA98FA998AD0E94B9
:100F90003A369B01AC01C701B6010E94883469AFA3
:100FA0007AAF8BAF9CAF6093B40A7093B50A80930D
:100FB000B60A9093B70A209102053091030540913B
:100FC0000405509105056DA17EA18FA198A50E94F1
:100FD0003A366B017C012091120530911305409146
:100FE00014055091150569A57AA58BA59CA50E94AD
:100FF0003A369B01AC01C701B6010E9488346B01EF
:101000007C012091220530912305409124055091C7
:1010100025056DA57EA58FA598A90E943A369B014E
:10102000AC01C701B6010E9488346B017C0120919C
:1010300032053091330540913405509135056DA945
:101040007EA98FA998AD0E943A369B01AC01C701D9
:10105000B6010E94883421966CAF7DAF8EAF9FAFF2
:1010600021976093B80A7093B90A8093BA0A909353
:10107000BB0A209106053091070540910805509163
:1010800009056DA17EA18FA198A50E943A366B013A
:101090007C0120911605309117054091180550915B
:1010A000190569A57AA58BA59CA50E943A369B01D6
:1010B000AC01C701B6010E9488346B017C0120910C
:1010C00026053091270540912805509129056DA5E9
:1010D0007EA58FA598A90E943A369B01AC01C70155
:1010E000B6010E9488346B017C0120913605309155
:1010F000370540913805509139056DA97EA98FA912
:1011000098AD0E943A369B01AC01C701B6010E941E
:10111000883425966CAF7DAF8EAF9FAF25976093D7
:10112000BC0A7093BD0A8093BE0A9093BF0A2091B7
:101130000A0530910B0540910C0550910D056DA1EC
:101140007EA18FA198A50E943A366B017C01209167
:101150001A0530911B0540911C0550911D0569A58C
:101160007AA58BA59CA50E943A369B01AC01C701CC
:10117000B6010E9488346B017C0120912A053091D0
:101180002B0540912C0550912D056DA57EA58FA5B1
:1011900098A90E943A369B01AC01C701B6010E9492
:1011A00088346B017C0120913A0530913B054091D8
:1011B0003C0550913D056DA97EA98FA998AD0E946F
:1011C0003A369B01AC01C701B6010E9488342996CA
:1011D0006CAF7DAF8EAF9FAF29976093C00A7093BD
:1011E000C10A8093C20A9093C30A2091820B309166
:1011F000830B4091840B5091850BA1962CAF3DAF92
:101200004EAF5FAFA19780917E0B90917F0BA09125
:10121000800BB091810BA5968CAF9DAFAEAFBFAFE9
:10122000A59720917A0B30917B0B40917C0B5091CC
:101230007D0BEF962CAF3DAF4EAF5FAFEF97AE019A
:10124000435F5F4F1A018EE793E02D969FAF8EAFFD
:101250002D97A2E7B3E02F96BFAFAEAF2F97E6E68C
:10126000F3E06196FFAFEEAF619726E333E063965C
:101270003FAF2EAF639742E453E065965FAF4EAF4A
:1012800065978EE493E02B969FAF8EAF2B97AAE5E0
:10129000B3E06996BFAFAEAF699700E010E0699622
:1012A000EEADFFAD699761917191819191916996D0
:1012B000FFAFEEAF69972B96AEADBFAD2B978D907C
:1012C0009D90AD90BD902B96BFAFAEAF2B9765961E
:1012D000EEADFFAD6597419051906190719065962C
:1012E000FFAFEEAF65976396AEADBFAD63972D913F
:1012F0003D914D915D916396BFAFAEAF6397EB9615
:101300002CAF3DAF4EAF5FAFEB9729AD3AAD4BADD4
:101310005CAD0E943A366B017C01A1962CAD3DADCF
:101320004EAD5FADA197C501B4010E943A364B01A5
:101330005C01A5962CAD3DAD4EAD5FADA597C3014B
:10134000B2010E943A362B013C01EF962CAD3DAD27
:101350004EAD5FADEF97EB966CAD7DAD8EAD9FADB5
:10136000EB970E943A369B01AC01C301B2010E9487
:1013700088349B01AC01C501B4010E9488349B01F3
:10138000AC01C701B6010E9488346B017C016196F3
:10139000EEADFFAD619761917191819191916196EF
:1013A000FFAFEEAF619721962CAD3DAD4EAD5FAD79
:1013B00021970E943A369B01AC01C701B6010E94F9
:1013C00088346B017C012F96AEADBFAD2F976D9128
:1013D0007D918D919D912F96BFAFAEAF2F972596A2
:1013E0002CAD3DAD4EAD5FAD25970E943A369B01C9
:1013F000AC01C701B6010E9488346B017C012D96B7
:10140000EEADFFAD2D9761917191819191912D96E6
:10141000FFAFEEAF2D9729962CAD3DAD4EAD5FAD34
:1014200029970E943A369B01AC01C701B6010E9480
:101430008834D1016D937D938D939D931D010F5F32
:101440001F4F0330110509F02ACF80918A0B90912C
:101450008B0BA0918C0BB0918D0B8093860B90938E
:10146000870BA093880BB093890B8091940A90917D
:10147000950AA091960AB091970A80938A0B90934F
:101480008B0BA0938C0BB0938D0B2091960B30910E
:10149000970B4091980B5091990B67962CAF3DAFED
:1014A0004EAF5FAF67978091920B9091930BA09195
:1014B000940BB091950B6B968CAF9DAFAEAFBFAF59
:1014C0006B9720918E0B30918F0B4091900B509128
:1014D000910BA5962CAF3DAF4EAF5FAFA5974AE7F6
:1014E0005BE063965FAF4EAF6397CE0101969AAF14
:1014F00089AFAEE7B3E0BEAFADAFE2E7F3E023966E
:10150000FFAFEEAF239726E633E027963FAF2EAF2F
:10151000279746E353E02B965FAF4EAF2B9782E4BD
:1015200093E02D969FAF8EAF2D97AEE4B3E02F964C
:10153000BFAFAEAF2F97EAE5F3E06196FFAFEEAF36
:1015400061979E01235F3F4F190100E010E0F10118
:1015500081919191A191B1911F016396EEADFFAD83
:10156000639781939193A193B1936396FFAFEEAF8D
:1015700063976196AEADBFAD61976D917D918D9191
:101580009D916196BFAFAEAF61972F96EEADFFAD67
:101590002F9781909190A190B1902F96FFAFEEAFD1
:1015A0002F972D96AEADBFAD2D974D905D906D9060
:1015B0007D902D96BFAFAEAF2D972B96AEADBFAD44
:1015C0002B972D913D914D915D912B96BFAFAEAF75
:1015D0002B97A1962CAF3DAF4EAF5FAFA197AB96C7
:1015E0002CAD3DAD4EAD5FADAB970E943A366B0171
:1015F0007C0167962CAD3DAD4EAD5FAD6797C501E3
:10160000B4010E943A364B015C016B962CAD3DADA6
:101610004EAD5FAD6B97C301B2010E943A362B010C
:101620003C01A5962CAD3DAD4EAD5FADA597A19605
:101630006CAD7DAD8EAD9FADA1970E943A369B01FA
:10164000AC01C301B2010E9488349B01AC01C50109
:10165000B4010E9488349B01AC01C701B6010E940D
:1016600088346B017C012796EEADFFAD2797619121
:101670007191819191912796FFAFEEAF2797AF9629
:101680002CAD3DAD4EAD5FADAF970E943A369B019C
:10169000AC01C701B6010E9488346B017C0123961E
:1016A000AEADBFAD23976D917D918D919D912396A8
:1016B000BFAFAEAF2397E3962CAD3DAD4EAD5FAD62
:1016C000E3970E943A369B01AC01C701B6010E9424
:1016D00088346B017C01EDADFEAD6191719181911A
:1016E0009191FEAFEDAFE7962CAD3DAD4EAD5FAD48
:1016F000E7970E943A369B01AC01C701B6010E94F0
:101700008834A9ADBAAD6D937D938D939D93BAAF97
:10171000A9AF0F5F1F4F0330110509F018CF898162
:101720009A81AB81BC8180938E0B90938F0BA09399
:10173000900BB093910B8D819E81AF81B885809382
:10174000920B9093930BA093940BB093950B898578
:101750009A85AB85BC858093960B9093970BA0934D
:10176000980BB093990B6C96BFAD6C97B093C40B6C
:101770006D96EFAD6D97E093C50BA696FFADA6975E
:10178000F093C60BA7962FADA7972093C70BC090D9
:10179000C40AD090C50AE090C60AF090C70A20910A
:1017A0009E0430919F044091A0045091A104698D42
:1017B0007A8D8B8D9C8D0E943A364B015C01209175
:1017C000A2043091A3044091A4045091A5046D8D0E
:1017D0007E8D8F8D98A10E943A369B01AC01C50188
:1017E000B4010E9488344B015C012091A604309121
:1017F000A7044091A8045091A90469A17AA18BA1E2
:101800009CA10E943A369B01AC01C501B4010E9423
:1018100088344B015C012091AA043091AB044091C3
:10182000AC045091AD0469A97AA98BA99CA90E9426
:101830003A369B01AC01C501B4010E9488349B017A
:10184000AC01C701B6010E94883429A13AA14BA17D
:101850005CA12093A60B3093A70B4093A80B509349
:10186000A90B2D8D3E8D4F8D58A12093A20B309347
:10187000A30B4093A40B5093A50B298D3A8D4B8D50
:101880005C8D20939E0B30939F0B4093A00B509345
:10189000A10B60939A0B70939B0B80939C0B90937E
:1018A0009D0BC090C80AD090C90AE090CA0AF09077
:1018B000CB0A2091EE043091EF044091F004509156
:1018C000F1046DA17EA18FA198A50E943A364B012B
:1018D0005C012091F2043091F3044091F4045091A2
:1018E000F50469A57AA58BA59CA50E943A369B01B3
:1018F000AC01C501B4010E9488344B015C01209108
:10190000F6043091F7044091F8045091F9046DA564
:101910007EA58FA598A90E943A369B01AC01C5010E
:10192000B4010E9488344B015C012091FA0430918B
:10193000FB044091FC045091FD046DA97EA98FA980
:1019400098AD0E943A369B01AC01C501B4010E94DA
:1019500088349B01AC01C701B6010E9488342DA5D3
:101960003EA54FA558A92093B60B3093B70B4093D3
:10197000B80B5093B90B29A53AA54BA55CA52093AC
:10198000B20B3093B30B4093B40B5093B50B2DA116
:101990003EA14FA158A52093AE0B3093AF0B4093BF
:1019A000B00B5093B10B6093AA0B7093AB0B809369
:1019B000AC0B9093AD0B82E090E00E94C421E091CB
:1019C000700BF091710B408151816281738180E0D5
:1019D00090E00E94C0216091650B7091660B809130
:1019E000670B9091680B0E9484352AE037ED43E243
:1019F0005CE30E943A36AB01BC0181E090E00E94BA
:101A0000C0218090690B90906A0BA0906B0BB090F6
:101A10006C0B20E030E040E85FEBC501B4010E94B0
:101A2000EC340091700B1091710B882319F1D801DF
:101A3000CD90DD90ED90FC90A7019601C501B40119
:101A40000E9487344B015C0120E030E040E054E329
:101A5000C701B6010E943A369B01AC01C501B40131
:101A60000E943636181634F085EB95E09093CD0A37
:101A70008093CC0A80916F0B882331F085EB95E041
:101A80009093CD0A8093CC0A60915D0B70915E0BB0
:101A900080915F0B9091600B6F5F7F4F8F4F9F4FD7
:101AA00060935D0B70935E0B80935F0B9093600B64
:101AB0000E9484352091610B3091620B4091630B41
:101AC0005091640B0E943A36F801608371838283DF
:101AD00093838091650B9091660BA091670BB091F9
:101AE000680B0196A11DB11D8093650B9093660B49
:101AF000A093670BB093680BC258DF4F0FB6F894F2
:101B0000DEBF0FBECDBFDF91CF911F910F91FF9030
:101B1000EF90DF90CF90BF90AF909F908F907F908D
:101B20006F905F904F903F902F900895CF92DF92EB
:101B3000EF92FF920F931F93CF93DF93ECECFAE0B9
:101B40008EEADF011D928A95E9F78DE69BE090937E
:101B5000D30A8093D20AA0E7BBE0B0930D0BA09309
:101B60000C0BC1E6DBE0D093E10AC093E00AF093EE
:101B7000370BE093360BF093D10AE093D00A21E0C3
:101B800030E0FC013183208389EC95E09093D70A03
:101B90008093D60A22E73BE02D933C9380E090E0CF
:101BA000A0E2B1E48093690B90936A0BA0936B0B56
:101BB000B0936C0B8AE097EDA3E2BCE38883998332
:101BC000AA83BB83EBE4FBE087EF92E6A9EBBCEDD5
:101BD00080839183A283B3838EE594E0ABE4BCE57C
:101BE00080934F0B9093500BA093510BB093520BDB
:101BF00086E09BEEA4E5BDE68093530B9093540BD7
:101C0000A093550BB093560B8AE392E0A9E7B4E397
:101C10008093570B9093580BA093590BB0935A0B8A
:101C2000C2E0D7E0D093CF0AC093CE0AA8EDB6E0C9
:101C3000B983A88387E496E08D939C939093DB0609
:101C40008093DA069093DD068093DC069093DF069E
:101C50008093DE069093E1068093E0069093E3067E
:101C60008093E2069093E5068093E4069093E7065E
:101C70008093E6069093E9068093E8069093EB063E
:101C80008093EA069093ED068093EC069093EF061E
:101C90008093EE069093F1068093F00643ED5BE0AF
:101CA0005093F3064093F2065093F5064093F406E2
:101CB00048EC5BE05093F7064093F60649EC5BE096
:101CC0005093F9064093F8064EEC5BE05093FB0608
:101CD0004093FA065093FD064093FC069093FF064E
:101CE0008093FE0690930107809300074BE55BE02D
:101CF0005093070740930607F0930507E093040706
:101D000030930907209308078CE4E0E8FAE0DF014C
:101D10001D928A95E9F7CAE7DBE08AE5FE01119298
:101D20008A95E9F7E6ECF6E082E1DF011D928A95FB
:101D3000E9F7DA01ED93FC938EE090E091838083E4
:101D40008EEF92E09093C9068093C80682EE92E0EF
:101D50009093CB068093CA0686E892E09093CD06D6
:101D60008093CC068AE092E09093CF068093CE06D3
:101D700088E995E00E946E0161E080918A030E94EB
:101D8000EF2561E080918E030E94EF2580E895E0C9
:101D90000E946E0161E0809192030E94EF2561E054
:101DA000809196030E94EF2560E080913E050E949D
:101DB000EF2560E0809142050E94EF2560E0809170
:101DC00046050E94EF2560E080914A050E94EF25BC
:101DD00080916E0590916F05A0917005B09171058D
:101DE0008093C80A9093C90AA093CA0AB093CB0AF9
:101DF0008091580590915905A0915A05B0915B05C5
:101E00008093C40A9093C50AA093C60AB093C70AE8
:101E100081E08093D60B8093D50B8093D40B809375
:101E2000D70B00912A0310912B0320912C033091A2
:101E30002D03088319832A833B8340912E035091FD
:101E40002F03609130037091310340937E0B5093C8
:101E50007F0B6093800B7093810B80913203909184
:101E60003303A0913403B09135038093820B909398
:101E7000830BA093840BB093850BC0903A04D09051
:101E80003B04E0903C04F0903D04C092860BD0925D
:101E9000870BE092880BF092890BC0928A0BD0924C
:101EA0008B0BE0928C0BF0928D0B00938E0B1093AA
:101EB0008F0B2093900B3093910B4093920B509388
:101EC000930B6093940B7093950B8093960B909368
:101ED000970BA093980BB093990B80919A038093E2
:101EE000C40B80919B038093C50B80919C038093CE
:101EF000C60B80919D038093C70B809172059091D2
:101F00007305A0917405B09175058093CF0B9093E4
:101F1000D00BA093D10BB093D20B80915C05909124
:101F20005D05A0915E05B0915F058093CA0B90930B
:101F3000CB0BA093CC0BB093CD0BC0901A03D090D9
:101F40001B03E0901C03F0901D03C0929A0BD092EB
:101F50009B0BE0929C0BF0929D0B00911E03109145
:101F60001F03209120033091210300939E0B1093B7
:101F70009F0B2093A00B3093A10B40912203509113
:101F8000230360912403709125034093A20B509387
:101F9000A30B6093A40B7093A50B809126039091E3
:101FA0002703A0912803B09129038093A60B909357
:101FB000A70BA093A80BB093A90BC092AA0BD09229
:101FC000AB0BE092AC0BF092AD0B0093AE0B109309
:101FD000AF0B2093B00B3093B10B4093B20B5093E7
:101FE000B30B6093B40B7093B50B8093B60B9093C7
:101FF000B70BA093B80BB093B90BDF91CF911F91A2
:102000000F91FF90EF90DF90CF9008950895CF93B8
:10201000DF93CDB7DEB72A970FB6F894DEBF0FBEB9
:10202000CDBFAC01CB0160E070E049835A836B8384
:102030007C83AA2797FDA095BA2F8D839E83AF83BB
:10204000B8879E01275F3F4FAE014F5F5F4F68E04B
:1020500070E080911307909114070E94073381115B
:1020600008C081E029853A852830310519F480E0DF
:1020700001C081E02A960FB6F894DEBF0FBECDBF37
:10208000DF91CF9108950F931F93CF93DF931F920A
:102090001F92CDB7DEB78B019E012F5F3F4FAC0182
:1020A00080911307909114070E940733811108C093
:1020B00081E029813A812017310719F480E001C0BD
:1020C00081E00F900F90DF91CF911F910F910895B4
:1020D000CF93DF93EC011092170710921607AC0113
:1020E00060E070E0CB010E94D41BAE0161E070E0C3
:1020F00080E090E00E94D41B809113079091140718
:10210000DF91CF910C945633EF92FF920F931F9370
:10211000CF93DF931F921F92CDB7DEB78C018091D2
:1021200011079091120780179107B4F580910F075E
:1021300090911007009731F00E947B3710921207A0
:1021400010921107C8010E94E33690931007809304
:102150000F07892B19F4E12CF12C18C010931207EA
:102160000093110719C02EE037E0AE014F5F5F4FBB
:1021700061E070E080911307909114070E9448324B
:10218000811107C089819A81E80EF91EE016F106D7
:1021900054F380E090E01FC0E12CF12C20910F0758
:1021A00030911007E016F106ACF42E0D3F1DAE0184
:1021B0004F5F5F4FB8016E197F09809113079091AF
:1021C00014070E9448328111E4CF89819A81E80E78
:1021D000F91EE4CFC9010F900F90DF91CF911F91AD
:1021E0000F91FF90EF9008950F931F93CF93DF937C
:1021F000EB018A010CDF81110AC00115110539F0CC
:10220000BE01C801DF91CF911F910F913CCFDF91AB
:10221000CF911F910F910895CF92DF92EF92FF928D
:10222000CF93DF93CDB7DEB728970FB6F894DEBF14
:102230000FBECDBF6B01E12CF12CC982DA82EB829B
:10224000FC822D833E834F835887AE014F5F5F4FE3
:1022500068E070E0C9DF28960FB6F894DEBF0FBEC5
:10226000CDBFDF91CF91FF90EF90DF90CF90089599
:102270000F931F93CF93DF93EC018B010E944432A5
:102280009093140780931307009741F0A801BE01B3
:102290000E94C931EC01009719F40CC0CAE4D6E0E1
:1022A00080911307909114070E94473210921407EF
:1022B00010921307CE01DF91CF911F910F910895D6
:1022C00080911307909114070C9441326F927F9282
:1022D0008F929F92AF92BF92CF92DF92EF92FF9236
:1022E0000F931F93CF93DF9300D000D0CDB7DEB70D
:1022F0006B017C014A0180911707882309F441C0D2
:102300009401B701A601CE0101960E946320898144
:102310009A8118161906ACF5A12CB12C00E010E03A
:1023200089819A81081719075CF76B807C806A0C99
:102330007B1CF3016081718182819381A4DE811114
:102340001EC0F30164817581161617062CF4868170
:10235000978199DE811113C0C801880F991FED8103
:10236000FE81E80FF91FB701A601808191810E94CB
:10237000061C0F5F1F4FF8E0AF0EB11CD1CFC40198
:10238000A7DE26960FB6F894DEBF0FBECDBFDF9155
:10239000CF911F910F91FF90EF90DF90CF90BF9062
:1023A000AF909F908F907F906F900895CF93DF9321
:1023B000EC01AC0160E070E0CB0188DFAE0161E0D0
:1023C00070E080E090E0DF91CF9180CFCF9380915B
:1023D0001307909114070E94A531C82F811109C0DD
:1023E00060E070E0CB0166D561E070E080E090E0F5
:1023F00061D58C2FCF9108950F931F9389019A0176
:10240000AB01BC0180911307909114070E945533D2
:102410001F910F9108954F925F926F927F928F92CA
:102420009F92AF92BF92CF92DF92EF92FF920F9363
:102430001F93CF93DF93CDB7DEB766970FB6F894AF
:10244000DEBF0FBECDBF4C015B018A018091170733
:10245000882369F080911707882309F4BDC21A8286
:102460001982E12CF12C78E0C72ED12C14C067E141
:1024700077E080911307909114070E94A731811192
:10248000ABC2E8CFE20EF31EE114F104D9F088E00C
:10249000E816F104BCF429E030E02C0F3D1F2E0DAE
:1024A0003F1DAE014F5F5F4FB6016E197F098091EE
:1024B0001307909114070E94483229813A8188239A
:1024C00009F388C2121613060CF086C28091160713
:1024D000811104C019861A861B861C8689859A85F7
:1024E000AB85BC858031910508F076C2FC01EE58C1
:1024F000FF4F0C94BF36D4011696ED91FC911797BF
:1025000080819181A281B38189839A83AB83BC83CB
:10251000AE014F5F5F4F64E070E085E190E06CC119
:102520008D859E85F1DD009731F42FEF3FEFA901F6
:1025300061E070E00EC0FC01C080D180E280F380D9
:10254000A501C701B6010E94891BA701960160E0A1
:1025500070E08DE190E03CC28D859E85D5DD0097D1
:1025600021F42FEF3FEFA9010FC0DC01CD90DD90EA
:10257000ED90FD90AD0197018601B501C401B0D584
:10258000A7019601882319F061E070E002C060E0C5
:1025900070E08BE190E01CC28D859E85B5DD0097D3
:1025A00021F42FEF3FEFA9010EC0FC01C190D190A3
:1025B000E190F190BF01A7019601C40186D7A70160
:1025C0009601882319F061E070E002C060E070E0DD
:1025D0008CE190E0FDC1D4011496ED91FC9115972A
:1025E000E080F180F70102811381A080B18060E179
:1025F000462E512C612C712C49825A826B827C822E
:1026000088E090E0A0E0B0E08D839E83AF83B88740
:102610009E012F5E3F4FAE014F5F5F4F68E070E05D
:1026200080911307909114070E940733882319F0B3
:10263000E12CF12CAEC089899A890897C9F7D70196
:10264000CD90DC90B8E0CB0ED11CCC0CDD1CCC0CBA
:10265000DD1CC6010E94E3367C01009749F34982E4
:102660005A826B827C82C601AA2797FDA095BA2F59
:102670008D839E83AF83B8879E012F5E3F4FAE014F
:102680004F5F5F4F68E070E08091130790911407EF
:102690000E94073381117DC089899A89089709F0C2
:1026A00078C0D4011296ED91FC911397408151812D
:1026B00062817381D7014D935D936D937C931397E2
:1026C000448155816681778114964D935D936D9316
:1026D0007C931797408551856285738518964D9335
:1026E0005D936D937C931B9784859585A685B785AF
:1026F000F70184879587A687B787108A118A128A7F
:10270000138A84E090E0A0E0B0E0848B958BA68BE8
:10271000B78B8091B2059091B305A0E0B0E0808FB7
:10272000918FA28FB38FC501AA2797FDA095BA2FCD
:10273000848F958FA68FB78FB801A701405E5F4F3A
:1027400020E030E02A153B057CF4DB018D919D9162
:10275000BD01A0E0B0E0FA0181939193A193B19300
:10276000AF012F5F3F4FEECF9E012F5E3F4FA7017E
:10277000B60180911307909114070E9407338111CD
:1027800008C089899A898C159D0519F481E0809388
:102790001607C70166960FB6F894DEBF0FBECDBF11
:1027A000DF91CF911F910F91FF90EF90DF90CF902D
:1027B000BF90AF909F908F907F906F905F904F9061
:1027C0000C947B378D859E85AF85B8890097A105D0
:1027D000B10529F199DC009789F481E090E0A0E04F
:1027E000B0E089839A83AB83BC83AE014F5F5F4FB8
:1027F00064E070E082E190E0F7DCEEC0BC01C4016F
:10280000ACD219821A821B821C82AE014F5F5F4FCD
:1028100064E070E082E190E0E7DC8111DDC081E0FE
:1028200080931507D9C0D4011496ED91FC911597AA
:102830000190F081E02D008511850115110509F445
:1028400060C0D801ED90FC90C280D38020E030E0E1
:1028500060E070E080E090E08E159F050CF5F801D7
:10286000A281B381A20FB31F1296ED91FC91139731
:10287000EE0FFF1FEC0DFD1D0190F081E02D16966F
:102880000D90BC91A02DEA9FA001EB9F500DFA9FE7
:10289000500D1124640F751F0196285F3F4FDCCF48
:1028A00083E190E0B4DB811197C0812C912CA12CA5
:1028B000B12CAE14BF040CF08FC0D8011296ED916C
:1028C000FC911397E80DF91DA281B381AA0FBB1FDC
:1028D000AC0DBD1D2D913C9186819781289FB00143
:1028E000299F700D389F700D112480819181CBDB61
:1028F000B8E08B0E911C81116FC0EFEFAE1ABE0ACB
:10290000D8CF60E070E083E190E081DB65C040E01B
:1029100050E060E070E081E190E066DC81115CC035
:10292000C12CD12C7601C701B601C1D38091A0077B
:10293000882321F0A501C701B601C8DCA501C701A4
:10294000B601DCD2FFEFCF1ADF0AEF0AFF0A82E0FE
:10295000C816D104E104F10431F710921707109260
:10296000160780911307909114070E94B23134C06A
:1029700081E090E09093A2078093A10740E050E0AF
:1029800060E070E086E190E037CF81E0D8018C9381
:1029900023C08D859E85B8DB009731F42FEF3FEF84
:1029A000A90161E070E012C0FC0120813181428107
:1029B0005381CA01B9012B8B3C8B4D8B5E8BFFD6AB
:1029C0002B893C894D895E8960E070E08EE190E062
:1029D00023DC02C0C5017CDB66960FB6F894DEBF2F
:1029E0000FBECDBFDF91CF911F910F91FF90EF9060
:1029F000DF90CF90BF90AF909F908F907F906F901F
:102A00005F904F900895CF92DF92EF92FF92CF9315
:102A1000DF93EC01C12CD12C7601C701B60147D35D
:102A2000AE01C701B60152DCAE01C701B60166D2E4
:102A300080910F0790911007009731F00E947B372B
:102A40001092100710920F078FEFC81AD80AE80AE1
:102A5000F80A82E0C816D104E104F104F1F680918D
:102A60001607882359F040E050E060E070E084E110
:102A700090E0BADBC82F1092160701C0C0E0809129
:102A80001707882341F01092170721E030E03093B8
:102A9000B3052093B20580911307909114070E940B
:102AA000B53180911307909114070E9447328C2F03
:102AB000DF91CF91FF90EF90DF90CF900895CF936B
:102AC000DF93EC01AC0160E070E0CB010E94DA1F03
:102AD000AE0161E070E080E090E0DF91CF910C9476
:102AE000DA1F60E070E0CB010E943F2061E070E0FF
:102AF00080E090E00C943F20CF92DF92EF92FF9223
:102B00000F931F93CF93DF93EC016A017B0100E0E9
:102B100010E09801A4D601E010E020E030E0B70119
:102B2000A601CE019CD6DF91CF911F910F91FF900E
:102B3000EF90DF90CF900895EF92FF920F931F9345
:102B4000CF93DF93DC01EA01F90114968D919C91FA
:102B5000159712960D911C911397080F191F288134
:102B6000398118964D915C9119974217530728F0B7
:102B70004D915C911197452B59F17801E21AF30AB6
:102B800018964D915C911997481B590B4E0D5F1D7E
:102B900046175707B4F1A901460F571F40175107B1
:102BA00000F1F182E082338322836E197F097583FD
:102BB0006483161617061CF030E020E002C0382FA0
:102BC000292F36832783680F791F7983688317C07D
:102BD00018968D919C911997821B930B86179707D6
:102BE00084F0718360833383228315821482178279
:102BF000168288819981860F971F9983888380E048
:102C000001C081E0DF91CF911F910F91FF90EF9074
:102C10000895CF93DF9324E4269FE001279FD00DF2
:102C20001124C85ED84F8AA99BA9009721F00E9461
:102C30007B371BAA1AAA8EA99FA9009711F00E94A0
:102C40007B371B8A1A8A1E8A1F8A188E198E1A8E43
:102C50001B8E1C8E1D8E1E8E1F8E18A219A281E047
:102C600090E09BA38AA31DA21CA21EA21FA218A6CD
:102C700019A61BA61AA61DA61CA61EA61FA618AA44
:102C800019AA1BAA1AAA1DAA1CAA1FAA1EAA19AE13
:102C900018AE1AAE1BAE1CAE1DAEFE01FE96108223
:102CA000118212821382CE5BDF4F19821882DF916C
:102CB000CF910895CF93DF93FB01DC01CD91DC919F
:102CC000AE81BF818081918123E0880F991F2A9571
:102CD000E1F712960D90BC91A02DA80FB91F6D9130
:102CE0007C91119784859585880F991F0A80DB81D7
:102CF000C02DC80FD91F0990D881C02D14968D9171
:102D00009C911597892B19F082E090E002C081E038
:102D100090E08C9F90018D9F300D9C9F300D112471
:102D200080859185289FD001299FB00D389FB00DD7
:102D300011240480F581E02D2E9FC0012F9F900D5E
:102D40003E9F900D1124860F971FFA019183808377
:102D5000B383A283DF91CF9108952F923F924F9238
:102D60005F926F927F928F929F92AF92BF92CF921B
:102D7000DF92EF92FF920F931F93CF93DF9300D0D8
:102D800000D0CDB7DEB7DC011496ED91FC9115971C
:102D90000190F081E02D808591859A838983A281BD
:102DA000B381BC83AB83DB018D909D90AD90BD90D2
:102DB000C12CD12C7601C814D904EA04FB040CF010
:102DC00060C014964D905D906D907C90179718960A
:102DD0004D915D916D917C911B97FD017096FE83E5
:102DE000ED838D919C91119763E0880F991F6A95EF
:102DF000E1F7E981FA8122813381280F391FF90136
:102E0000208031801C96ED91FC911D97EE0FFF1FE5
:102E10008B819C81E80FF91F0190F081E02DD90191
:102E200014968D919C911597892B19F082E090E072
:102E300002C081E090E08E9F90018F9F300D9E9F99
:102E4000300D1124249F8001259F100D349F100DFB
:102E50001124249DC001259D900D349D900D1124B9
:102E6000A8016D817E81820D931D0E940A38AD817B
:102E7000BE81A00FB11FEFEFCE1ADE0AEE0AFE0AE6
:102E80009ACF26960FB6F894DEBF0FBECDBFDF9166
:102E9000CF911F910F91FF90EF90DF90CF90BF9057
:102EA000AF909F908F907F906F905F904F903F90EA
:102EB0002F900895CF93DF9324E4269FF001279F5E
:102EC000F00D1124E85EF84FDB01A055BA4F3C919C
:102ED000332329F0EF0119922A95E9F71C92148205
:102EE0001582168217821186108613861286118A21
:102EF000108A17861686DF91CF918BCE2F923F9244
:102F00004F925F926F927F928F929F92AF92BF92F9
:102F1000CF92DF92EF92FF920F931F93CF93DF93A5
:102F200000D01F92CDB7DEB76B017C011A0184E49B
:102F30008C9D90018D9D300D1124285E384F3C836F
:102F40002B83F90184819581A681B781892B8A2BF6
:102F50008B2B09F495C0A12CB12C412C512C3201A2
:102F6000AB81BC8114964D915D916D917C911797C9
:102F700018968D919C91199744165506660677060A
:102F80008CF5FC01EA0DFB1D32812381032F122FEA
:102F9000812C912C82149304C4F4D801ED91FC91FE
:102FA000309769F0848195812A8339830E947B3729
:102FB000F801808191810E947B3739812A81FFEF5E
:102FC0008F1A9F0A0E5F1F4FE5CF832F922F0E940B
:102FD0007B372FEF421A520A620A720A34E0A30EBC
:102FE000B11CBECF0E947B37EB81FC81828593852B
:102FF000892BE1F0A12CB12C00E010E0AB81BC8169
:103000001A968D919C911B97021513056CF4FC0187
:10301000EA0DFB1D848195810E947B370F5F1F4F56
:10302000FEE0AF0EB11CEACF0E947B37EB81FC8142
:10303000808991890E947B37AB81BC811E968D91DE
:103040009C911F970E947B37C701B601E2DDC70143
:10305000B6010F900F900F900F90DF91CF911F91BD
:103060000F91FF90EF90DF90CF90BF90AF909F9027
:103070008F907F906F905F904F903F902F901ACFDE
:103080000F900F900F900F90DF91CF911F910F91A4
:10309000FF90EF90DF90CF90BF90AF909F908F9078
:1030A0007F906F905F904F903F902F90089524E411
:1030B000269FF001279FF00D1124E85EF84F8289CA
:1030C00093890497029758F485E090E0938B828B64
:1030D0008FEF9FEFDC01828F938FA48FB58F0895C0
:1030E0002F923F924F925F926F927F928F929F9218
:1030F000AF92BF92CF92DF92EF92FF920F931F9306
:10310000CF93DF93CDB7DEB7AA970FB6F894DEBFA3
:103110000FBECDBF9AA389A31B016A010B8B1C8B29
:103120002D8B3E8B84E42B893C89829F8001839F79
:10313000100D1124085E184F2B893C894D895E893A
:10314000D8012D933D934D935C931397AB016B89FD
:103150007C898D899E89D2DEF601419151916191E0
:1031600071917F01CA01D80114964D935D936D93BF
:103170007C93179764E070E00E94C936F80191874C
:103180008087892B09F46DC118A21F8E1B8E1C8E9F
:103190001D8E1E8EF80184819581A681B7812B8DAD
:1031A0003C8D4D8D5E8D281739074A075B070CF063
:1031B000D1C0D80118960D90BC91A02D2F8D38A1AB
:1031C000A20FB31FBA8BA98BD7018D919C91880F49
:1031D000991FA9A1BAA1ED91FC91E80FF91F808177
:1031E0009181E989FA8991838083D70114962D9181
:1031F0003D914D915C9117972BA33CA34DA35EA3EA
:10320000B8E0EB0EF11C62E070E0C1010E94C9362B
:10321000E989FA8993838283892B09F422C11F8A61
:10322000188E198E1A8E2F89388D498D5A8D8BA143
:103230009CA1ADA1BEA1281739074A075B070CF076
:1032400018C1D701CD90DC90CC0CDD1CE989FA893E
:10325000A280B380AC0CBD1C68E070E081E090E01F
:103260000E94C936D5018D939C93A989BA8912967B
:10327000ED91FC911397EC0DFD1D808091808114E0
:10328000910409F4EEC0F70144815581668177818C
:10329000CA01D4014D935D936D937C931397B8E06D
:1032A000EB0EF11C64E070E00E94C936F4019583D6
:1032B0008483892B09F4D5C0A12CB12C412C512C2D
:1032C0003201F40180819181A281B38148165906AF
:1032D0006A067B0694F5D4011496CD90DC90159780
:1032E000CA0CDB1CF701DE01119680E101900D9202
:1032F0008A95E1F7B0E1EB0EF11CA601BE016F5F0C
:103300007F4FE9A1FAA184819581D4DCD40116967E
:103310008D919C911797F60122813381820F931F23
:1033200017969C938E931697FFEF4F1A5F0A6F0ABA
:103330007F0A24E0A20EB11CC4CF2F89388D498D9D
:103340005A8D2F5F3F4F4F4F5F4F2F8B388F498FD5
:103350005A8F69CF6EE070E0C1010E94C936D80172
:103360001B969C938E931A97612C712C812C912C17
:10337000A12CB12C44244394512C821493040CF0BE
:1033800050C0F70141915191619171917F01CA0142
:10339000D8011A96CD90DC901B97C60CD71C57FD10
:1033A00060C0F60151824082009791F04FA358A768
:1033B00069A77AA70E94E336D60115969C938E934F
:1033C00014974FA158A569A57AA5892B21F449C066
:1033D000F60115821482D60113965C934E931297D0
:1033E00014968D919C91159717969C938E93169792
:1033F00019969C938E9318971B961C921E921A975F
:1034000081E090E0452B462B472B11F480E090E0C3
:10341000A80EB91EBFEF8B1A9B0AEEE06E0E711C50
:10342000ACCFD8011D961C921E921C97C501F3E0EB
:10343000880F991FFA95E1F70E94E336F801918B06
:10344000808B892B71F0C501880F991F0E94E3368C
:10345000D8011F969C938E931E97892B11F080E0C4
:103460001BC0A1016B897C898D899E8947DD81E024
:1034700013C02B8D3C8D4D8D5E8D2F5F3F4F4F4F79
:103480005F4F2B8F3C8F4D8F5E8F2F8D38A12C5F20
:103490003F4F38A32F8F7ECEAA960FB6F894DEBF8B
:1034A0000FBECDBFDF91CF911F910F91FF90EF9095
:1034B000DF90CF90BF90AF909F908F907F906F9054
:1034C0005F904F903F902F9008953F924F925F9260
:1034D0006F927F928F929F92AF92BF92CF92DF9224
:1034E000EF92FF920F931F93CF93DF93CDB7DEB789
:1034F00064970FB6F894DEBF0FBECDBF4C01FB0141
:10350000298B3A8B4B8B5C8B84E4829F8001839F59
:10351000100D1124065D184F80819181D8011396FA
:103520009C938E931297448155816681778114967E
:103530004D935D936D937C9317974085518562857C
:10354000738518964D935D936D937C931B9744857B
:103550005585668577851C964D935D936D937C9319
:103560001F9740895189628973895C964D935D9359
:103570006D937C935F977F01B4E1EB0EF11C141601
:1035800015060CF05DC0CA01880F991F880F991F9E
:103590000E94E336F80191A380A3892B09F499C016
:1035A000A12CB12C412C512C320130E1332EB3012E
:1035B000A2012FEF421A520A620A720AF801848DA0
:1035C000958DA68DB78D481759076A077B0764F557
:1035D000D8019096CD90DC909197CA0CDB1CF70136
:1035E000DE011196832D01900D928A95E1F7B0E1ED
:1035F000EB0EF11CA601BE016F5F7F4FF4018481C9
:10360000958158DBD80192968D919C919397F60104
:1036100022813381820F931F93969C938E9392976E
:10362000F4E0AF0EB11CC3CF82A193A10E94E33698
:10363000D80195969C938E939497892B09F449C051
:10364000F70180819181A281B381AC01BD014D7FE1
:1036500021E030E0452B462B472B11F020E030E0F5
:10366000F801318B208B0197A109B10921E030E0ED
:103670000297A105B10510F020E030E0D801539683
:103680003C932E935297F70184819581A681B7814F
:10369000F801848B958BA68BB78B84859585A68541
:1036A000B785B7FF10C0B095A095909581959F4FB5
:1036B000AF4FBF4F80A791A7A2A7B3A714861586C7
:1036C000168617860DC0F80110A611A612A613A61D
:1036D00007C069897A898B899C899BDA81E001C05E
:1036E00080E064960FB6F894DEBF0FBECDBFDF91C9
:1036F000CF911F910F91FF90EF90DF90CF90BF90EF
:10370000AF909F908F907F906F905F904F903F9081
:103710000895CF93DF9324E4269FF001279FF00DB7
:103720001124E85EF84F1092A00715A614A620E019
:1037300030E080E090E0C1E0D0E08417950714F518
:10374000A285B385A20FB31F12966D917C9113973A
:10375000161617069CF414966D917C911597179682
:103760007C936E93169719967C936E9318971B967D
:103770001C921E921A971196DC93CE930196225FAB
:103780003F4FDBCF13A612A611AE10AEDF01DE96BF
:103790001D921D921D921C92139782E090E0938BD4
:1037A000828BDF91CF91089524E4269FF001279F1B
:1037B000F00D1124E85EF84F138A128A9FCB24E49F
:1037C000269FF001279FF00D1124E85EF84F8289B3
:1037D000938981309105C8F08530910518F00597DF
:1037E00069F008958FEF9FEFDC01828F938FA48F94
:1037F000B58F85E090E0938B828B08958FEF9FEFDC
:10380000DC01828F938FA48FB58F089524E4249FC9
:10381000F001259FF00D1124E85EF84F2EE0AC0179
:10382000249FC001259F900D11240284F385E02D73
:10383000E80FF91F81E08093A00782859385918727
:103840008087408551852681378181E090E042174D
:10385000530711F080E090E09183808308952F92C8
:103860003F924F925F926F927F928F929F92AF9210
:10387000BF92CF92DF92EF92FF920F931F93CF935D
:10388000DF93CDB7DEB7C454D1090FB6F894DEBFCD
:103890000FBECDBF98AF8FAB4BA75CA76DA77EA720
:1038A00023960CAF1DAF2EAF3FAF239784E4219634
:1038B0002EAD3FAD2197829F1001839F300C1124C4
:1038C000C101885E984F1C01DC011A960D90BC91D5
:1038D000A02D2596BFAFAEAF2597FC0182899389B5
:1038E000029709F018C186A597A5A0A9B1A9892BAF
:1038F0008A2B8B2B29F484E090E0938B828B0BC175
:10390000D10184899589EFA9F8ADE817F90709F085
:1039100002C1D6960D911C91D7971AAE19AE412CC3
:10392000512C3201F10186A597A5A0A9B1A948168D
:1039300059066A067B060CF0D0C0D101D2960D90D4
:10394000BC91A02DE9ADFAADAE0FBF1FBAABA9ABCC
:1039500012962D913C9113973CAF2BAF369527953E
:10396000369527953EAF2DAFD101D8968D919C917C
:10397000D997892B09F495C09696CD90DD90ED905E
:10398000FC90999718AB0FA7E9A9FAA90190F081CB
:10399000E02DFCABEBAB1EAA1DAAEDA9FEA92DAD37
:1039A0003EADE217F3070CF07CC0D10192968D91E9
:1039B0009C919397892B79F1EBA9FCA98080918048
:1039C000A280B380A7019601C501B4010E943636DA
:1039D00087FD0CC0A7019601AFA5B8A96D917D9197
:1039E0008D919C910E94EC3487FD7CC0A7019601CB
:1039F000C501B4010E94363618166CF4A701960171
:103A0000EFA5F8A960817181828193810E94EC34D5
:103A1000882309F467C0D10194968D919C91959764
:103A2000892B71F1EBA9FCA980809180A280B380E1
:103A3000A7019601C501B4010E94EC3487FF0CC0B8
:103A4000A7019601AFA5B8A96D917D918D919C912B
:103A50000E94363687FF46C0A7019601C501B40112
:103A60000E94EC3481110CC0A7019601EFA5F8A9C2
:103A700060817181828193810E943636181694F19B
:103A80002DA93EA92F5F3F4F3EAB2DAB8FA598A927
:103A9000049698AB8FA7ABA9BCA91496BCABABABF3
:103AA0007CCFA9A9BAA96D917C914BAD5CADC80141
:103AB0000E940A388DAD9EAD880F991F880F991FFF
:103AC000080F191FBFEF4B1A5B0A6B0A7B0AE9AD9F
:103AD000FAAD3496FAAFE9AF25CF81E090E091AF2F
:103AE00080AF19C0F101868D978DA0A1B1A1892B5E
:103AF0008A2B8B2B09F03AC284E090E0D1015396D7
:103B00009C938E935297DE968D919C91DF979B9616
:103B10009C938E939A97D10152968D919C91539735
:103B20008230910589F4DA968D919D910D90BC912A
:103B3000A02D181619061A061B060CF021C2E1E08A
:103B4000F0E0F8ABEFA705C0049709F019C218AA76
:103B50001FA68EE02FA938AD829F5001839FB00C25
:103B6000112425968EAD9FAD2597A80EB91ED501BF
:103B700012964D915C9113974115510509F400C2BD
:103B800016968D919C9117979AA789A7FE01319659
:103B900084E1DF011D928A95E9F723968CAD9DADF6
:103BA000AEADBFAD2397898B9A8BAB8BBC8BAFA58A
:103BB000B8A9AB2B09F448C04101BEE38B0E911CA0
:103BC000F401C080D180E280F380F10182AD93AD39
:103BD000A4ADB5ADC816D906EA06FB06A9F5D50110
:103BE00014966D917C91159718960D90BC91A02D0F
:103BF00014960D911D912D913C911797C8010D8B35
:103C00001E8B2F8B388F08969E8B8D8BF501208510
:103C10003185280F391F3187208780859185460F90
:103C2000571F841B950B97FD04C0680F791F718780
:103C30006087F1E0CF1AD108E108F108D401CD92F4
:103C4000DD92ED92FC9213979E012B5E3F4FAE01E9
:103C5000475D5F4F64E170E0C5010E949C15082F2D
:103C600010E00115110509F06DC18CE090E0A0E0B5
:103C7000B0E08D839E83AF83B8879E01235E3F4F64
:103C8000AE01475D5F4F64E070E0C5010E949C1586
:103C9000082F10E00115110509F054C180E190E0F2
:103CA000A0E0B0E08D839E83AF83B8874D8D5E8D9D
:103CB000BE01655D7F4F8F8D98A10E940A388BA150
:103CC0009CA1009761F06D8D7E8DEBE2F0E0EC0F32
:103CD000FD1F6E0F7F1F49A15AA10E940A381DA225
:103CE0001EA21FA218A62FA938AD220F331F3EAB6C
:103CF0002DABCDA0DEA0EFA0F8A4F10184819581C9
:103D0000A681B781C816D906EA06FB060CF0CBC01F
:103D1000D1011896ED91FC911997C601880F991F52
:103D2000880F991FE80FF91FA081B1818C9188231A
:103D300009F4AFC0833009F4ACC00280F381E02DF8
:103D40002DA93EA9E20FF31F808191819CAB8BAB23
:103D5000892B09F49EC089859A85AB85BC8501961F
:103D6000A11DB11D89879A87AB87BC879E01235E01
:103D70003F4FAE01475D5F4F64E070E0C5010E94B8
:103D80009C1590E0009709F0DCC08D819E81AF8189
:103D9000B8850496A11DB11D8D839E83AF83B8871E
:103DA0004D8D5E8DBE016B5D7F4F8F8D98A10E9402
:103DB0000A388BA19CA1009761F06D8D7E8DA5E2E4
:103DC000B0E0AC0FBD1F6A0F7B1F49A15AA10E9432
:103DD0000A381AAA19AA412C512C3201EBA9FCA9C4
:103DE00080819181A281B381481659066A067B06BB
:103DF0000CF04FC0EBA9FCA98480958029A93AA9B1
:103E0000820E931ED40112966D917C9113979E01A0
:103E1000235E3F4FAE01475D5F4FC5010E949C1579
:103E200090E0009709F08DC0F4014281538166272C
:103E300057FD6095762F8D819E81AF81B885840F67
:103E4000951FA61FB71F8D839E83AF83B8876081A0
:103E500071814D8D5E8D8F8D98A10E940A388BA146
:103E60009CA1009759F0D4016D917C912D8D3E8DD0
:103E7000620F731F49A15AA10E940A38BFEF4B1A63
:103E80005B0A6B0A7B0AE9A9FAA93496FAABE9AB9B
:103E9000A5CFFFEFCF1ADF0AEF0AFF0ACDA2DEA2FD
:103EA000EFA2F8A626CF89859A85AB85BC85892B9C
:103EB0008A2B8B2B09F446C08AE190E0A0E0B0E0A9
:103EC00089839A83AB83BC832FA938ADC901AA2704
:103ED00097FDA095BA2F8D879E87AF87B88B4D89A8
:103EE0005E89BE016F5F7F4F8F89988D0E940A386F
:103EF0008B8D9C8D009761F06D897E89A1E0B0E08B
:103F0000AC0FBD1F6A0F7B1F498D5A8D0E940A3866
:103F100089A59AA5F50197838683118210822FA522
:103F200038A9232B69F1F101FE9680819181A2814C
:103F3000B3810196A11DB11D80839183A283B383B8
:103F40001FC08C018FA598A9892BD1F4012BC1F03A
:103F500081E090E0D1019D969C938E939C9785E0A3
:103F600090E053969C938E9352970AC083E090E022
:103F7000F101938B828B81E090E093A782A7CBCD58
:103F8000CC5BDF4F0FB6F894DEBF0FBECDBFDF9125
:103F9000CF911F910F91FF90EF90DF90CF90BF9046
:103FA000AF909F908F907F906F905F904F903F90D9
:103FB0002F900895CF92DF92EF92FF920F931F936D
:103FC000CF93DF9324E4269FE001279FD00D112497
:103FD000C85ED84F2A893B892115310509F446C0AE
:103FE00021303105A9F4CAA4DBA496012F5F3F4F0D
:103FF0003BA72AA7EE24D7FCE094FE2C0A8D1B8D4C
:104000002C8D3D8DC016D106E206F30679F581DBD5
:104010008A899B89039751F54AA55BA5CA01019638
:104020009BA78AA7662757FD6095762F8E8D9F8D5B
:10403000A8A1B9A1481759076A077B07BCF08EAD44
:104040009FAD9BA78AA784E090E09B8B8A8B8AAD6B
:104050009BADACADBDAD181619061A061B0634F49F
:10406000CE5BDF4F81E090E099838883DF91CF9131
:104070001F910F91FF90EF90DF90CF90089524E46F
:10408000269FF001279FF00D1124E85EF84F8289EA
:1040900093890497B9F442A553A54F5F5F4F53A787
:1040A00042A7662757FD6095762F86899789A08D50
:1040B000B18D481759076A077B0721F485E090E026
:1040C000938B828B08952F923F924F925F926F92C3
:1040D0007F928F929F92AF92BF92CF92DF92EF9298
:1040E000FF920F931F93CF93DF9300D01F92CDB712
:1040F000DEB749835A836B837C83490124E4249F80
:104100008001259F100D1124085E184FD80152968A
:104110006D907C90539793012450310922303105E2
:1041200008F0BCC01D961C921E921C97FC011182C7
:10413000108213821282A12CB12C20E030E02815CD
:1041400039050CF067C0D8011A962D903C901B974A
:104150002A0C3B1CF10140815181452B09F054C0D0
:104160006085718542805380468157811C96ED9011
:10417000FC901D976701F3E0CC0CDD1CFA95E1F78C
:104180005096ED91FC915197EC0DFD1D6701CC0C03
:10419000DD1C1E96ED90FC901F97EC0CFD1CD701CA
:1041A0002D933C93D8011C96ED90FC901D97BFEF8A
:1041B000EB1AFB0AD8011D96FC92EE921C977383B2
:1041C0006283D1011B965C934E931A97641775070F
:1041D00048F4461B570B5183408315821482178283
:1041E000168212C0D1011496CD90DC9015977601FD
:1041F000E40CF51CE61AF70AF182E0824C195D091D
:1042000055834483D782C6822F5F3F4FBEE0AB0EFB
:10421000B11C95CFF80124853585DC0111963C93BE
:104220002E934089518913965C934E93129746853D
:10423000578515965C934E931497232BD1F5B5E0D3
:104240006B167104B1F51092A007828D938DA48D29
:10425000B58DAE014F5F5F4F64E070E08F3F9F4FC1
:10426000AF4FBF4F59F480E290E00E94F410698193
:104270007A818B819C81A40197DA1BC08FE190E049
:104280000E94F410D8019B961C921E929A9781E08E
:1042900090E053969C938E9352970BC0F80115862D
:1042A0001486DC0111961C921E9213961C921E928B
:1042B00012970F900F900F900F90DF91CF911F9159
:1042C0000F91FF90EF90DF90CF90BF90AF909F90B5
:1042D0008F907F906F905F904F903F902F900895B8
:1042E000EF92FF920F931F93CF93DF937C018B018B
:1042F000EA010E946011811121C08091B205909164
:10430000B305049711F183E090E09093B305809397
:10431000B2051BC088818111F0CF28ED38EB45E054
:1043200050E060E070E0CB010E94FC11AE01B801EA
:10433000C7010E940B12C8010E94D6118091A107EB
:104340009091A207892B31F3D8CFDF91CF911F91A4
:104350000F91FF90EF900895CF93DF93EB012091A1
:10436000B2053091B3052430310539F00E940B12AB
:10437000CE01DF91CF910C94D611DF91CF910895AA
:104380000C947C150C9471150C945F150C94E6112B
:104390000C940315089560E070E080E090E00C94C8
:1043A00038110895AF92BF92CF92DF92EF92FF92B1
:1043B0000F931F93CF93DF931F921F92CDB7DEB75A
:1043C0005C0169017A018B0180E090E0C114D104A5
:1043D000E104F104F1F0C114D10421E0E206F1049A
:1043E00010F4A60102C04FEF5FEF9E012F5F3F4F19
:1043F000B801C5010E9461338F3F2FEF920749F04A
:1044000029813A81C21AD30AE108F108020F131F69
:10441000DDCF0F900F90DF91CF911F910F91FF9003
:10442000EF90DF90CF90BF90AF900895AF92BF9282
:10443000CF92DF92EF92FF920F931F93CF93DF9370
:104440001F921F92CDB7DEB75C0169017A018B0123
:1044500080E090E0C114D104E104F104F1F0C11452
:10446000D10421E0E206F10410F4A60102C04FEFEE
:104470005FEF9E012F5F3F4FB801C5010E949F3340
:104480008F3F2FEF920749F029813A81C21AD30A50
:10449000E108F108020F131FDDCF0F900F90DF919D
:1044A000CF911F910F91FF90EF90DF90CF90BF9031
:1044B000AF90089508951F920F920FB60F92112496
:1044C0000BB60F922F933F934F935F936F937F930E
:1044D0008F939F93AF93BF93EF93FF938091A70721
:1044E0009091A807892B29F0E091A707F091A807E0
:1044F0001995FF91EF91BF91AF919F918F917F910E
:104500006F915F914F913F912F910F900BBE0F9044
:104510000FBE0F901F9018951F920F920FB60F921B
:1045200011240BB60F922F933F934F935F936F938A
:104530007F938F939F93AF93BF93EF93FF9380915C
:10454000A9079091AA07892B29F0E091A907F0917A
:10455000AA071995FF91EF91BF91AF919F918F910C
:104560007F916F915F914F913F912F910F900BBE73
:104570000F900FBE0F901F9018951F920F920FB6BD
:104580000F9211240BB60F922F933F934F935F938B
:104590006F937F938F939F93AF93BF93EF93FF930B
:1045A0008091AB079091AC07892B29F0E091AB0784
:1045B000F091AC071995FF91EF91BF91AF919F9149
:1045C0008F917F916F915F914F913F912F910F90BC
:1045D0000BBE0F900FBE0F901F9018951F920F9259
:1045E0000FB60F9211240BB60F922F933F934F9358
:1045F0005F936F937F938F939F93AF93BF93EF934B
:10460000FF938091AD079091AE07892B29F0E0913F
:10461000AD07F091AE071995FF91EF91BF91AF9162
:104620009F918F917F916F915F914F913F912F91CA
:104630000F900BBE0F900FBE0F901F9018951F92FA
:104640000F920FB60F9211240BB60F922F933F9338
:104650004F935F936F937F938F939F93AF93BF938A
:10466000EF93FF938091A3079091A407892B29F0E2
:10467000E091A307F091A4071995FF91EF91BF91E5
:10468000AF919F918F917F916F915F914F913F91EA
:104690002F910F900BBE0F900FBE0F901F9018958B
:1046A0001F920F920FB60F9211240BB60F922F93F9
:1046B0003F934F935F936F937F938F939F93AF93AA
:1046C000BF93EF93FF938091A5079091A607892B45
:1046D00029F0E091A507F091A6071995FF91EF91B8
:1046E000BF91AF919F918F917F916F915F914F910A
:1046F0003F912F910F900BBE0F900FBE0F901F9008
:1047000018951F920F920FB60F9211240BB60F92AD
:104710002F933F934F935F936F937F938F939F93C9
:10472000AF93BF93EF93FF938091AF079091B00742
:10473000892B29F0E091AF07F091B0071995FF910F
:10474000EF91BF91AF919F918F917F916F915F9109
:104750004F913F912F910F900BBE0F900FBE0F9076
:104760001F9018951F920F920FB60F9211240BB63F
:104770000F922F933F934F935F936F937F938F93FA
:104780009F93AF93BF93EF93FF938091B107909165
:10479000B207892B29F0E091B107F091B207199582
:1047A000FF91EF91BF91AF919F918F917F916F9109
:1047B0005F914F913F912F910F900BBE0F900FBEC5
:1047C0000F901F9018951F920F920FB60F92112401
:1047D0002F933F938F939F93AF93BF938091B40791
:1047E0009091B507A091B607B091B7073091B30784
:1047F00023E0230F2D3720F40196A11DB11D05C024
:1048000026E8230F0296A11DB11D2093B3078093C4
:10481000B4079093B507A093B607B093B7078091FC
:10482000B8079091B907A091BA07B091BB0701965C
:10483000A11DB11D8093B8079093B907A093BA0743
:10484000B093BB07BF91AF919F918F913F912F91F3
:104850000F900FBE0F901F9018953FB7F89480915E
:10486000B8079091B907A091BA07B091BB0726B5D8
:10487000A89B05C02F3F19F00196A11DB11D3FBF98
:104880006627782F892F9A2F620F711D811D911D28
:1048900042E0660F771F881F991F4A95D1F7089548
:1048A000CF92DF92EF92FF92CF93DF936B017C0167
:1048B000D4DFEB01C114D104E104F10479F0FADD95
:1048C000CCDF6C1B7D0B683E7340A0F381E0C81AFF
:1048D000D108E108F108C851DC4FECCFDF91CF914E
:1048E000FF90EF90DF90CF900895789484B5826028
:1048F00084BD84B5816084BD85B5826085BD85B584
:10490000816085BDEEE6F0E0808181608083E1E832
:10491000F0E010828081826080838081816080836A
:10492000E0E8F0E0808181608083E1EBF0E080816D
:1049300084608083E0EBF0E0808181608083E1E946
:10494000F0E0808182608083808181608083E0E903
:10495000F0E0808181608083E1EAF0E08081826024
:104960008083808181608083E0EAF0E080818160E3
:104970008083E1E2F1E080818260808380818160D8
:104980008083E0E2F1E0808181608083EAE7F0E00B
:104990008081846080838081826080838081816067
:1049A00080838081806880831092C10008951F9366
:1049B000CF93DF93182FEB0161E011D1209711F411
:1049C00060E004C0CF3FD10531F461E0812FDF9179
:1049D000CF911F913DC1E12FF0E0E45BFE4F449188
:1049E00050E0FA013197E231F10508F09BC0EE5733
:1049F000FF4F0C94BF3684B5806884BDC7BD97C097
:104A000084B5806284BDC8BD92C0809180008068FA
:104A100080938000D0938900C093880088C08091E3
:104A20008000806280938000D0938B00C0938A00C6
:104A30007EC080918000886080938000D0938D003C
:104A4000C0938C0074C08091B00080688093B000E7
:104A5000C093B3006CC08091B00080628093B000BE
:104A6000C093B40064C080919000806880939000EF
:104A7000D0939900C09398005AC0809190008062B2
:104A800080939000D0939B00C0939A0050C0809177
:104A90009000886080939000D0939D00C0939C000C
:104AA00046C08091A00080688093A0008091A00003
:104AB0008F7B8093A000D093A900C093A80037C03B
:104AC0008091A00080628093A000D093AB00C0933F
:104AD000AA002DC08091A00088608093A000D09390
:104AE000AD00C093AC0023C080912001806880930A
:104AF0002001D0932901C093280119C08091200181
:104B0000806280932001D0932B01C0932A010FC0B3
:104B100080912001886080932001D0932D01C09363
:104B20002C0105C0C038D1050CF04FCF49CFDF9123
:104B3000CF911F91089590E0FC013197E231F1058A
:104B400008F04CC0EC56FF4F0C94BF3680918000AB
:104B50008F7703C0809180008F7D809380000895BF
:104B600080918000877FF9CF84B58F7702C084B5AC
:104B70008F7D84BD08958091B0008F7703C08091B0
:104B8000B0008F7D8093B0000895809190008F7762
:104B900007C0809190008F7D03C080919000877F37
:104BA0008093900008958091A0008F7707C0809136
:104BB000A0008F7D03C08091A000877F8093A0001C
:104BC0000895809120018F7707C0809120018F7D0B
:104BD00003C080912001877F809320010895CF93A7
:104BE000DF9390E0FC01EE56FE4F2491FC01E85269
:104BF000FE4F8491882349F190E0880F991FFC01B2
:104C0000EE5AFD4FA591B491885C9D4FFC01C59172
:104C1000D4919FB7611108C0F8948C91209582239C
:104C20008C93888182230AC0623051F4F8948C916D
:104C3000322F309583238C938881822B888304C004
:104C4000F8948C91822B8C939FBFDF91CF91089524
:104C50000F931F93CF93DF931F92CDB7DEB7282F0B
:104C600030E0F901E45BFE4F8491F901EE56FE4F0E
:104C70001491F901E852FE4F04910023C1F08823FA
:104C800019F0698358DF6981E02FF0E0EE0FFF1F14
:104C9000E85CFD4FA591B4919FB7F8948C91611198
:104CA00003C01095812301C0812B8C939FBF0F906F
:104CB000DF91CF911F910F910895CF93DF93282F0C
:104CC00030E0F901E45BFE4F8491F901EE56FE4FAE
:104CD000D491F901E852FE4FC491CC2389F081119F
:104CE0002ADFEC2FF0E0EE0FFF1FE25EFD4FA591F3
:104CF000B4912C912D2381E090E021F480E002C05A
:104D000080E090E0DF91CF910895FC01818D228DAC
:104D100090E0805C9F4F821B91098F7399270895C3
:104D2000FC01918D828D981731F0828DE80FF11D75
:104D3000858D90E008958FEF9FEF0895FC01918D90
:104D4000828D981761F0828DDF01A80FB11D5D96ED
:104D50008C91928D9F5F9F73928F90E008958FEF5B
:104D60009FEF0895FC01848DDF01A80FB11DA35AA8
:104D7000BF4F2C91848D90E001968F739927848F7B
:104D8000A689B7892C93A089B1898C9180648C9372
:104D9000938D848D981306C00288F389E02D80815D
:104DA0008F7D80830895CF93DF93EC01888D8823D6
:104DB000C1F0EA89FB89808185FD05C0A889B98990
:104DC0008C9186FD0EC00FB607FCF5CF808185FF64
:104DD000F2CFA889B9898C9185FFEDCFCE01C2DFD2
:104DE000E8CFDF91CF910895CF92DF92FF920F939A
:104DF0001F93CF93DF931F92CDB7DEB76C01DC0119
:104E00005B969C915B975C968C915C97981307C01E
:104E10005096ED91FC915197808185FD31C0F6014E
:104E2000038D10E00F5F1F4F0F731127F02EF60157
:104E3000848DF81210C00FB607FCF9CFD60150963A
:104E4000ED91FC915197808185FFF1CFC601698377
:104E500089DF6981ECCF838DE80FF11DE35AFF4FA5
:104E60006083D6015B960C935B975296ED91FC9113
:104E7000539780818062808381E058968C930DC027
:104E8000D6015696ED91FC91579760835096ED911F
:104E9000FC91519780818064808381E090E00F9045
:104EA000DF91CF911F910F91FF90DF90CF900895E8
:104EB000BF92CF92DF92EF92FF92CF93DF93EC01FC
:104EC0006A017B01B22EE889F98982E0808341156D
:104ED00081EE580761057105A1F060E079E08DE38E
:104EE00090E0A70196010E949D36215031094109A9
:104EF00051095695479537952795211580E1380733
:104F000098F0E889F989108260E874E88EE190E011
:104F1000A70196010E949D3621503109410951098E
:104F20005695479537952795EC85FD853083EE8519
:104F3000FF852083188EEC89FD89B082EA89FB8980
:104F4000808180618083EA89FB8980818860808399
:104F5000EA89FB89808180688083EA89FB89808176
:104F60008F7D8083DF91CF91FF90EF90DF90CF9086
:104F7000BF9008951F920F920FB60F9211240BB697
:104F80000F922F938F939F93EF93FF93E091CC0712
:104F9000F091CD078081E091D207F091D30782FD97
:104FA00012C090818091D5078F5F8F732091D607B3
:104FB000821751F0E091D507F0E0E454F84F958F57
:104FC0008093D50701C08081FF91EF919F918F91D0
:104FD0002F910F900BBE0F900FBE0F901F90189542
:104FE0001F920F920FB60F9211240BB60F922F93B0
:104FF0003F934F935F936F937F938F939F93AF9361
:10500000BF93EF93FF938CEB97E0ACDEFF91EF91B2
:10501000BF91AF919F918F917F916F915F914F91D0
:105020003F912F910F900BBE0F900FBE0F901F90CE
:1050300018951092BF071092BE0788EE93E0A0E08B
:10504000B0E08093C0079093C107A093C207B093CC
:10505000C30789E896E09093BD078093BC0785EC71
:1050600090E09093C9078093C80784EC90E09093F8
:10507000CB078093CA0780EC90E09093CD07809394
:10508000CC0781EC90E09093CF078093CE0782EC21
:1050900090E09093D1078093D00786EC90E09093B6
:1050A000D3078093D2071092D5071092D60710929B
:1050B000D7071092D80708951F920F920FB60F923C
:1050C00011240BB60F922F938F939F93EF93FF931F
:1050D000E0916908F0916A088081E0916F08F09191
:1050E000700882FD12C09081809172088F5F8F736B
:1050F00020917308821751F0E0917208F0E0E75AAE
:10510000F74F958F8093720801C08081FF91EF91D6
:105110009F918F912F910F900BBE0F900FBE0F900C
:105120001F9018951F920F920FB60F9211240BB675
:105130000F922F933F934F935F936F937F938F9330
:105140009F93AF93BF93EF93FF9389E598E00ADEB7
:10515000FF91EF91BF91AF919F918F917F916F914F
:105160005F914F913F912F910F900BBE0F900FBE0B
:105170000F901F90189510925C0810925B0888EEB3
:1051800093E0A0E0B0E080935D0890935E08A09368
:105190005F08B093600889E896E090935A0880937E
:1051A00059088DEC90E090936608809365088CEC2C
:1051B00090E0909368088093670888EC90E0909363
:1051C0006A088093690889EC90E090936C0880935A
:1051D0006B088AEC90E090936E0880936D088EECDB
:1051E00090E09093700880936F081092720810926C
:1051F0007308109274081092750808951F920F9208
:105200000FB60F9211240BB60F922F938F939F938B
:10521000EF93FF93E0910609F09107098081E091F7
:105220000C09F0910D0982FD12C0908180910F0947
:105230008F5F8F7320911009821751F0E0910F0951
:10524000F0E0EA50F74F958F80930F0901C08081FD
:10525000FF91EF919F918F912F910F900BBE0F9027
:105260000FBE0F901F9018951F920F920FB60F92BE
:1052700011240BB60F922F933F934F935F936F932D
:105280007F938F939F93AF93BF93EF93FF9386EF9B
:1052900098E068DDFF91EF91BF91AF919F918F9161
:1052A0007F916F915F914F913F912F910F900BBE26
:1052B0000F900FBE0F901F9018951092F908109242
:1052C000F80888EE93E0A0E0B0E08093FA089093AD
:1052D000FB08A093FC08B093FD0889E896E0909342
:1052E000F7088093F60885ED90E09093030980938A
:1052F000020984ED90E0909305098093040980ED04
:1053000090E0909307098093060981ED90E09093D7
:1053100009098093080982ED90E090930B0980932E
:105320000A0986ED90E090930D0980930C09109284
:105330000F09109210091092110910921209089584
:105340001F920F920FB60F9211240BB60F922F934C
:105350008F939F93EF93FF93E091A309F091A4099A
:105360008081E091A909F091AA0982FD12C0908183
:105370008091AC098F5F8F732091AD09821751F036
:10538000E091AC09F0E0ED56F64F958F8093AC09B3
:1053900001C08081FF91EF919F918F912F910F908C
:1053A0000BBE0F900FBE0F901F9018951F920F927B
:1053B0000FB60F9211240BB60F922F933F934F937A
:1053C0005F936F937F938F939F93AF93BF93EF936D
:1053D000FF9383E999E0C6DCFF91EF91BF91AF9114
:1053E0009F918F917F916F915F914F913F912F91FD
:1053F0000F900BBE0F900FBE0F901F90189510923C
:1054000096091092950988EE93E0A0E0B0E08093B1
:10541000970990939809A0939909B0939A0989E8FC
:1054200096E0909394098093930985E391E090939B
:10543000A00980939F0984E391E09093A20980934F
:10544000A10980E391E09093A4098093A30981E3EB
:1054500091E09093A6098093A50982E391E090934F
:10546000A8098093A70986E391E09093AA09809305
:10547000A9091092AC091092AD091092AE091092D0
:10548000AF090895AF92BF92CF92DF92EF92FF9251
:105490000F931F93CF93DF936C017B01C0E0D0E0AB
:1054A00000E010E0F601EC0FFD1F4AE050E06281E1
:1054B000C701D7D05C016EE2C70168D08A0D9B1D81
:1054C000080F191F2196C330D10561F74AE050E05B
:1054D000F6016581C701C5D0800F911FDF91CF9183
:1054E0001F910F91FF90EF90DF90CF90BF90AF9002
:1054F000089589E996E09093310A8093300A1092DA
:10550000320A1092330A1092340A1092350A089522
:10551000CF92DF92EF92FF920F931F93CF93DF937F
:105520006C017A01EB01E60EF71E00E010E0CE15EB
:10553000DF0561F06991D601ED91FC910190F08158
:10554000E02DC6011995080F191FF1CFC801DF9191
:10555000CF911F910F91FF90EF90DF90CF90089522
:105560006115710581F0DB010D900020E9F7AD01B7
:1055700041505109461B570BDC01ED91FC91028013
:10558000F381E02D199480E090E00895DC01ED9125
:10559000FC910190F081E02D19948F929F92AF922F
:1055A000BF92CF92DF92EF92FF920F931F93CF9310
:1055B000DF93CDB7DEB7A1970FB6F894DEBF0FBE6D
:1055C000CDBF7C01C42EE52FCB01D22E19A221E044
:1055D0002D1510F02AE0D22E8E010F5D1F4F8D2C5D
:1055E000912CA12CB12C6C2D7E2FA50194010E9431
:1055F0009D368C2DD29E80191124015011098A30BC
:1056000014F4805D01C0895CF801808321153105A7
:105610004105510521F0C22EE32FCA01E4CFB801A4
:10562000C7019EDFA1960FB6F894DEBF0FBECDBFB7
:10563000DF91CF911F910F91FF90EF90DF90CF906E
:10564000BF90AF909F908F9008952115310541F440
:10565000DC01ED91FC910190F081E02D642F199413
:105660009CCF9A01462F50E060E070E0EECF823090
:10567000A9F028F4882349F0813051F0089584304E
:1056800009F1E8F0853009F1089510926E0008954F
:1056900080916F008D7F80936F00089580917000DE
:1056A0008D7F8093700081E08093B0008091B10085
:1056B000887F84608093B1001092B30008951092A7
:1056C0007100089510927200089510927300089569
:1056D000CF93C82F8091B4058C1307C0ECE6F2E09D
:1056E00084919FEF9093B40501C08FEFC0DF60E01D
:1056F0008C2FCF91ADCA1F920F920FB60F9211242B
:105700000BB60F922F933F934F935F936F937F93BB
:105710008F939F93AF93BF93EF93FF938091390A39
:1057200090913A0AA0913B0AB0913C0A892B8A2BAE
:105730008B2B51F19091360AE091370AF091380A9B
:105740008081892780838091390A90913A0AA091BB
:105750003B0AB0913C0A181619061A061B06BCF43F
:105760008091390A90913A0AA0913B0AB0913C0A83
:105770000197A109B1098093390A90933A0AA0933D
:105780003B0AB0933C0A03C08091B405A1DFFF91AE
:10579000EF91BF91AF919F918F917F916F915F91A9
:1057A0004F913F912F910F900BBE0F900FBE0F9016
:1057B0001F90189508951F920F920FB60F92112403
:1057C0000BB60F922F933F934F935F936F937F93FB
:1057D0008F939F93AF93BF93EF93FF938FE89DEFCA
:1057E0009093250180932401EBD7FF91EF91BF9116
:1057F000AF919F918F917F916F915F914F913F9169
:105800002F910F900BBE0F900FBE0F901F90189509
:105810008FE89DEF9093250180932401A3E7B0E0EA
:105820008C918E7F8C93E0E2F1E080818C7F80838D
:10583000E1E2F1E08081877E8083808184608083E3
:1058400080818C7F80838C9181608C930895CF922E
:10585000DF92EF92FF920F931F93CF93DF93FC01A0
:10586000DB01CA01B901C12CD12C76011DE7C0E2D0
:10587000C216D306E406F506C9F00C91033021F0F8
:10588000D3E8D00FD23080F41083DC91DC27D183B1
:1058900032966F5F7F4F8F4F9F4FDFEFCD1ADD0A3C
:1058A000ED0AFD0A1196E4CF0193F7CFDF91CF9176
:1058B0001F910F91FF90EF90DF90CF900895AF92DE
:1058C000BF92CF92DF92EF92FF920F931F93CF93ED
:1058D000DF93CDB7DEB72C970FB6F894DEBF0FBEBF
:1058E000CDBF8C015B01FB018181882309F486C057
:1058F0008EE7F8018083818383E085878687108A1D
:105900001786128A118A138A148A158A168A178AA8
:1059100022E030E040E050E0B801C501CFD2811173
:105920006EC021E030E040E050E0B8016E5F7F4F94
:10593000CE0101968CDF9B01AC01BE016F5F7F4FF2
:10594000C501BCD281115BC0F5012081F8018381C2
:105950009481A581B68189879A87AB87BC872111FD
:1059600008C02B859A8589853C8539872A879B873E
:105970008C8724E030E040E050E0BE01675F7F4F5D
:10598000CE01019664DF9B01AC01BE016F5F7F4FCA
:10599000C50194D2811133C0C12CD12C7601F801FC
:1059A00083819481A581B681C816D906EA06FB06D3
:1059B000D8F4F801678170856C0D7D1D21E030E021
:1059C00040E050E0CE01019642DF9B01AC01BE01F8
:1059D0006F5F7F4FC50172D2811111C0FFEFCF1AE7
:1059E000DF0AEF0AFF0ADBCFB801635F7F4F22E0D7
:1059F00030E040E050E0C50161D201C080E02C966B
:105A00000FB6F894DEBF0FBECDBFDF91CF911F91CF
:105A10000F91FF90EF90DF90CF90BF90AF900895DF
:105A20002F923F924F925F926F927F928F929F92AE
:105A3000AF92BF92CF92DF92EF92FF920F931F939C
:105A4000CF93DF93CDB7DEB727970FB6F894DEBFBD
:105A50000FBECDBF7C016B011D8219821A821B8291
:105A60001C82DB0111968C91882309F4AAC18EE770
:105A7000F7018083818383E085878687108A178674
:105A8000128A118A138A148A158A168A178A3396FB
:105A9000FF83EE8385E0482E512C5701FDE0AF0EC9
:105AA000B11C47018FEF881A980A66246394712C01
:105AB000170192E0290E311C8E010F5F1F4F21E06C
:105AC00030E040E050E0BE016B5F7F4FC6014BD23B
:105AD000811178C189819A81AB81BC810197A1052F
