:100000003BC100000C94301D0C94611D0C94921D9A
:100010000C94C31D0C94F41D0C94251E0C94561EB8
:100020000C94871E5AC1000058C1000056C1000040
:1000300054C100000C94502650C100004EC1000075
:100040004CC100004AC1000048C1000046C1000088
:1000500044C1000042C1000040C100000C94B81E21
:100060003CC100000C948F220C94C52236C10000C4
:1000700034C1000032C1000030C100002EC10000B8
:100080002CC100002AC1000028C1000026C10000C8
:100090000C9431230C94672320C100001EC1000082
:1000A0001CC100001AC1000018C1000016C10000E8
:1000B00014C1000012C1000010C100000EC10000F8
:1000C0000CC100000AC100000C94B0260C94D3238C
:1000D0000C94092402C100000C9475240C94AB24E8
:1000E000FCC00000C00D5C0FBF0FC10FB70EE80EC3
:1000F000810DA10D650D9E0F8D0F9A0FC10FC10FC0
:10010000C10F500DD01FD51FDA1FE41FEE1F67204F
:10011000F81F0020082012201C20262035203F2018
:100120006720492053205D2089208C207B207F2060
:100130008520C320902094209A209E20A220A820D1
:10014000AC20B020C320B620BA20BE2000000A0B8D
:1001500002090C0D0E080703040100000000000056
:10016000000000000000000000000000000000008F
:10017000000000000000000012111000000000004C
:10018000000000000000000000000000000000006F
:10019000000001021020200808102040102040809C
:1001A000020102010804020101020408102040803B
:1001B00080402010080402018004020180402010C9
:1001C0000804020108040201010204081020408012
:1001D00001020408102040800505050507050808F0
:1001E0000808020202020A0A0808040404040101C1
:1001F00001010101010103030303030303030407D6
:1002000007070C0C0C0C0C0C0C0C0202020206066C
:100210000606060606060B0B0B0B0B0B0B0B000062
:1002200020002300260029002C002F0032000001AE
:10023000000003010601090100002200250028003A
:100240002B002E00310034000201000005010801DE
:100250000B0100002100240027002A002D0030009F
:10026000330001010000040107010A010200EE222F
:1002700090233224D4244E2511241FBECFEFD1E287
:10028000DEBFCDBF00E00CBF16E0A0E0B2E0E0E7CB
:10029000F6E600E00BBF02C007900D92A033B10755
:1002A000D9F72BE0A0E3B6E001C01D92A133B2075D
:1002B000E1F712E0C8E7D2E000E006C022970109AA
:1002C000FE010BBF0E94D831CE36D10780E008076F
:1002D000A9F70E940F2F0C94363392CE21E0309173
:1002E000C10A311120E0FC0122830895CF93DF93EE
:1002F000EC0161E088810E94C42061E08C81DF9183
:10030000CF910C94C4204F925F926F927F92AF92E4
:10031000BF92CF92DF92EF92FF920F931F93CF93F2
:10032000DF93CDB7DEB728970FB6F894DEBF0FBEC8
:10033000CDBF6D837E838F83988729833A834B83D8
:100340005C8327013801F50124853585468557856D
:100350000E94493118162CF0F501408451846284C2
:10036000738420E030E040E853E4C301B2010E940E
:10037000FF2F87FF0EC020E030E0A901C301B201CA
:100380000E94493187FD07C0C301B2010E946B3052
:1003900003C06FEF01C060E0F50180810E94FD2085
:1003A000F5014088518862887388F6014082518245
:1003B00062827382F50124893589468957896D8166
:1003C0007E818F8198850E94493120E030E040E8AD
:1003D00053E41816DCF469817A818B819C810E9438
:1003E000FF2F87FF19C020E030E0A90169817A81E1
:1003F0008B819C810E94493187FD05C069817A818A
:100400008B819C8118C0F601148219C0C301B2010E
:100410000E94FF2F87FD04C08FEFF60184830FC079
:1004200020E030E0A901C301B2010E94493187FDFB
:10043000EACFC301B2010E946B30F6016483F6017A
:10044000648170E0F501848128960FB6F894DEBFD0
:100450000FBECDBFDF91CF911F910F91FF90EF9015
:10046000DF90CF90BF90AF907F906F905F904F9054
:100470000C94AC1F9F92AF92BF92CF92DF92EF92FB
:10048000FF920F931F93CF93DF93982ECB01BA0166
:100490005901E801992049F1F6012081213029F123
:1004A000F70124853585468557850E944931181600
:1004B00034F4F701608171818281938104C0688185
:1004C00079818A819B81F701208931894289538909
:1004D0000E949B2FF50160837183828393836883DD
:1004E00079838A839B8384E08C83F6019082DF91F9
:1004F000CF911F910F91FF90EF90DF90CF90BF9021
:10050000AF909F9008952F923F924F925F926F927B
:100510007F928F929F92AF92BF92CF92DF92EF9293
:10052000FF920F931F93CF93DF93CDB7DEB7609702
:100530000FB6F894DEBF0FBECDBF9091C00A809178
:10054000C10A911105C091E0811190E09093C20A17
:100550008F5F893118F48093C10A02C01092C10ADA
:100560008091190A992787FD90950197029710F0BD
:1005700080E001C083E08093190A80916A040E94A0
:10058000322180930F0B80916E040E943221809360
:10059000100B809172040E9432218093110B809184
:1005A00076040E9432218093120B8091C20A882324
:1005B00081F08091E9099091EA09A091EB09B0914D
:1005C000EC098093DD0A9093DE0AA093DF0AB093D2
:1005D000E00A21E0298390910F0B80917A0489171A
:1005E00008F019824091DD0A5091DE0A6091DF0A1D
:1005F0007091E00A81E09091010AA9819A1708F0B0
:1006000080E029EDC22E2AE0D22E3EE7E32E34E030
:10061000F32E06E01AE023E13BE02CDF8091C20AD2
:10062000882381F08091130B9091140BA091150BEE
:10063000B091160B8093E10A9093E20AA093E30A2B
:10064000B093E40AB1E0BA839091100B80917B04DF
:10065000891708F01A824091DD0A5091DE0A6091F4
:10066000DF0A7091E00A81E09091020AEA819E1708
:1006700008F080E00CEDC02E0AE0D02E90ECE92EC0
:1006800094E0F92E05E11AE02FE13BE0F3DE8091E2
:10069000C20A882381F080911F0B9091200BA091BA
:1006A000210BB091220B8093E50A9093E60AA09368
:1006B000E70AB093E80AF1E0FB839091110B809177
:1006C0007C04891708F01B824091DD0A5091DE0AF4
:1006D0006091DF0A7091E00A81E09091030A2B811A
:1006E000921708F080E0BBEDCB2EBAE0DB2E1AEAC1
:1006F000E12E14E0F12E00E11AE02BE13BE0BADE3E
:100700008091C20A882381F080911B0B90911C0B71
:10071000A0911D0BB0911E0B8093E90A9093EA0AF9
:10072000A093EB0AB093EC0A81E08C839091120BBA
:1007300080917D04891708F01C824091DD0A509158
:10074000DE0A6091DF0A7091E00A81E09091040A6C
:10075000AC819A1708F080E0FAEDCF2EFAE0DF2E98
:10076000A4E9EA2EA4E0FA2E0BE01AE027E13BE030
:1007700081DE8091C20A882381F08091170B9091CD
:10078000180BA091190BB0911A0B8093ED0A90935E
:10079000EE0AA093EF0AB093F00A80916204909160
:1007A0006304A0916404B091650489879A87AB873C
:1007B000BC878093F10A9093F20AA093F30AB09356
:1007C000F40A0091F3091091F4096090F109709016
:1007D000F2094090FF095090000AE091CA0AF09196
:1007E000CB0AC080D180E280F380D3012D913D916E
:1007F0004D915C91C701B6010E94FF2F18160CF0B5
:1008000047C0F30124A135A146A157A1C701B601F4
:100810000E94493187FF3FC04201880C991C880C17
:10082000991C860C971CD4012D913D914D915C91A2
:10083000C701B6010E94FF2FA12CB12C87FF14C065
:10084000E4E0AE1AB108F401EA0DFB1D2481358104
:1008500046815781C701B6010E94FF2F87FF1EC046
:10086000B1E04B1A5108ECCF24E0A20EB11CF40108
:10087000EA0DFB1D2081318142815381C701B60100
:100880000E94493187FD0AC0FFEF4F1A5F0AECCF83
:10089000412C512C03C078E0472E512C5092000A75
:1008A0004092FF09440C551C440C551CF301E40D07
:1008B000F51D80809180A280B380120184E0280E13
:1008C000311C620C731CD3018D919D910D90BC91D4
:1008D000A02D8D839E83AF83B8879C01AD01C50198
:1008E000B4010E94FF2F811114C0A5019401C7011A
:1008F000B6010E94FF2F87FF04C0F201E00FF11F35
:1009000003C0F801E20DF31D4080518062807380C6
:1009100051C0F201E00FF11F40805180628073806E
:10092000020D131DD8018D919D910D90BC91A02DAC
:100930008D879E87AF87B88B9C01AD01C301B20143
:100940000E94FF2F8823B1F1A70196016D817E815E
:100950008F8198850E949A2F6B017C01A5019401DB
:100960006D817E818F8198850E949A2F9B01AC01B9
:10097000C701B6010E9403306B017C01A301920103
:100980000E944D314B015C01A701960160E070E0CF
:1009900080E89FE30E949A2F2D853E854F855889D8
:1009A0000E944D319B01AC01C501B4010E949B2FF7
:1009B0002B013C01E0906604F0906704009168040C
:1009C000109169044EEEA42E44E0B42E58E2C52ED8
:1009D0005BE0D52EA301920169857A858B859C8584
:1009E00092DC209112043091130440911404509130
:1009F00015046091F10A7091F20A8091F30A9091C6
:100A0000F40A0E94493118164CF4C0906604D09044
:100A10006704E0906804F090690408C0C0900E0478
:100A2000D0900F04E0901004F090110420E030E02A
:100A300040E853E4C701B6010E94FF2F87FF0EC0B4
:100A400020E030E0A901C701B6010E94493187FDCD
:100A500007C0C701B6010E946B3003C06FEF01C031
:100A600060E08091FA030E94FD20C0901604D090AF
:100A70001704E0901804F0901904C092090BD0926A
:100A80000A0BE0920B0BF0920C0B20911A043091A0
:100A90001B0440911C0450911D046091F10A709157
:100AA000F20A8091F30A9091F40A0E94493120E001
:100AB00030E040E853E41816ACF4C301B2010E94E0
:100AC000FF2F87FF15C020E030E0A901C301B2016C
:100AD0000E94493187FD03C0C301B20118C01092C2
:100AE0000E0B19C0C701B6010E94FF2F87FD04C07D
:100AF0008FEF80930E0B0FC020E030E0A901C701FB
:100B0000B6010E94493187FDEACFC701B6010E94B4
:100B10006B3060930E0B60910E0B70E08091FE03C2
:100B20000E94AC1FE0906604F09067040091680496
:100B3000109169046091F10A7091F20A8091F30AB0
:100B40009091F40A26EDA22E24E0B22E33E2C32EB9
:100B50003BE0D32EA3019201D6DB209122043091F9
:100B6000230440912404509125046091F10A70916E
:100B7000F20A8091F30A9091F40A0E944931181602
:100B80004CF4C0906604D0906704E0906804F09044
:100B9000690408C0C0901E04D0901F04E090200497
:100BA000F090210420E030E040E853E4C701B601B2
:100BB0000E94FF2F87FF0EC020E030E0A901C7018F
:100BC000B6010E94493187FD07C0C701B6010E94E6
:100BD0006B3003C06FEF01C060E0809102040E949F
:100BE000FD20C0902604D0902704E0902804F090C7
:100BF0002904C092050BD092060BE092070BF092ED
:100C0000080B20912A0430912B0440912C04509120
:100C10002D046091F10A7091F20A8091F30A90918B
:100C2000F40A0E94493120E030E040E853E418160D
:100C3000ACF4C301B2010E94FF2F87FF15C020E072
:100C400030E0A901C301B2010E94493187FD03C010
:100C5000C301B20118C010920D0B19C0C701B60133
:100C60000E94FF2F87FD04C08FEF80930D0B0FC0F4
:100C700020E030E0A901C701B6010E94493187FD9B
:100C8000EACFC701B6010E946B3060930D0B6091F3
:100C90000D0B70E0809106040E94AC1FB981B093E7
:100CA000010AEA81E093020AFB81F093030A2C8196
:100CB0002093040A83E090E00E94991CE091CA0A04
:100CC000F091CB0A408151816281738181E090E093
:100CD0000E94951C8090C30A9090C40AA090C50AF7
:100CE000B090C60A20E030E040E85FEBC501B401F7
:100CF0000E94FF2F0091CA0A1091CB0A882319F194
:100D0000D801CD90DD90ED90FC90A7019601C50132
:100D1000B4010E949A2F4B015C0120E030E040E0DA
:100D200054E3C701B6010E944D319B01AC01C501DE
:100D3000B4010E944931181634F08BE095E090938D
:100D40001F0A80931E0A8091C90A882331F08BE024
:100D500095E090931F0A80931E0A6091AF0A7091EC
:100D6000B00A8091B10A9091B20A6F5F7F4F8F4FA6
:100D70009F4F6093AF0A7093B00A8093B10A90932B
:100D8000B20A0E9497302091B30A3091B40A409180
:100D9000B50A5091B60A0E944D31F8016083718303
:100DA000828393838091B70A9091B80AA091B90A7F
:100DB000B091BA0A0196A11DB11D8093B70A909314
:100DC000B80AA093B90AB093BA0A60960FB6F8941D
:100DD000DEBF0FBECDBFDF91CF911F910F91FF906E
:100DE000EF90DF90CF90BF90AF909F908F907F90CB
:100DF0006F905F904F903F902F9008954F925F9229
:100E00006F927F928F929F92AF92BF92CF92DF921A
:100E1000EF92FF928091050A992787FD909501979F
:100E2000029710F080E001C083E08093050A809073
:100E3000FB099090FC09A090FD09B090FE09C50146
:100E4000B4010E9499302B013C0120915A04309149
:100E50005B0440915C0450915D040E94FF2F87FF6A
:100E60000BC0B7FC09C0C0905204D0905304E0906E
:100E70005404F090550403C0C12CD12C760120E01D
:100E800030E040E85FE36091560470915704809130
:100E90005804909159040E949A2F9B01AC01C30100
:100EA000B2010E94493187FD09C01092FB091092DE
:100EB000FC091092FD091092FE090DC08FEF881AEF
:100EC000980AA80AB80A8092FB099092FC09A0929D
:100ED000FD09B092FE09A701960168ED7AE081E074
:100EE00090E005D3892B09F46BC02091E10A309181
:100EF000E20A4091E30A5091E40A60913E04709145
:100F00003F0480914004909141040E944D316093D0
:100F1000F50A7093F60A8093F70A9093F80A2091E5
:100F2000E50A3091E60A4091E70A5091E80A60919B
:100F300042047091430480914404909145040E94BE
:100F40004D316093F90A7093FA0A8093FB0A9093EB
:100F5000FC0A2091E90A3091EA0A4091EB0A50918B
:100F6000EC0A609146047091470480914804909186
:100F700049040E944D316093FD0A7093FE0A8093EC
:100F8000FF0A9093000B2091ED0A3091EE0A4091F8
:100F9000EF0A5091F00A60914A0470914B048091DD
:100FA0004C0490914D040E944D316093010B70935D
:100FB000020B8093030B9093040B84E08093050A4B
:100FC000C092E909D092EA09E092EB09F092EC09AB
:100FD0006091BB0A7091BC0A8091BD0A9091BE0AD3
:100FE0000E94973020E030E040E85EE30E944D31FF
:100FF000AB01BC0182E090E00E94951C8091BB0A8D
:101000009091BC0AA091BD0AB091BE0A0196A11DA3
:10101000B11D8093BB0A9093BC0AA093BD0AB09304
:10102000BE0AFF90EF90DF90CF90BF90AF909F905F
:101030008F907F906F905F904F900895EF92FF9206
:101040000F931F93CF93DF93EEE1FAE08AEBDF017A
:101050001D928A95E9F787EC9AE09093250A809390
:10106000240AAAECBAE0B0935F0AA0935E0AC3EB2D
:10107000DAE0D093330AC093320AF093890AE093FE
:10108000880AF093230AE093220A21E030E0FC0171
:10109000318320838FE195E09093290A8093280A79
:1010A0002CEC3AE02D933C9380E090E0A8ECB2E485
:1010B0008093C30A9093C40AA093C50AB093C60A4A
:1010C0008AE097EDA3E2BCE388839983AA83BB837C
:1010D000EDE9FAE08DE795E9AFE6B0EC8083918326
:1010E000A283B38385E49BE8A9E4B7EC8093A10ACB
:1010F0009093A20AA093A30AB093A40A82E999EB61
:10110000A5E1BCE28093A50A9093A60AA093A70A42
:10111000B093A80A87EE9EEFAFE3B7E78093A90AE2
:101120009093AA0AA093AB0AB093AC0AC6E6D6E0A5
:10113000D093210AC093200AA2E4B6E0B983A88321
:101140008DE995E08D939C9390934506809344069A
:1011500090934706809346069093490680934806ED
:1011600090934B0680934A0690934D0680934C06CD
:1011700090934F0680934E069093510680935006AD
:10118000909353068093520689E19AE09093550616
:1011900080935406909357068093560684E19AE014
:1011A000909359068093580690935B0680935A0655
:1011B0008FE09AE090935D0680935C0690935F06C3
:1011C00080935E068AE09AE09093610680936006C1
:1011D000909363068093620685E09AE0909365069B
:1011E000809364064DEA5AE050936B0640936A067A
:1011F000F0936906E093680630936D0620936C06C1
:101200006DEDE62E6AE0F62E80E5D7011D928A95F7
:10121000E9F7C9EED9E085E3FE0111928A95E9F775
:10122000E0E3F6E082E1DF011D928A95E9F7DA0159
:10123000ED93FC938EE090E0918380838EED93E0BC
:10124000909333068093320682EC93E090933506B8
:101250008093340686EE92E09093370680933606AC
:101260008AE592E0909339068093380660E0809199
:101270006A040E94C42060E080916E040E94C42031
:1012800060E0809172040E94C42060E08091760446
:101290000E94C4200EE414E0F80180819181A281B3
:1012A000B381F70180839183A283B3838091820409
:1012B00090918304A0918404B09185048093130BD2
:1012C0009093140BA093150BB093160B8091C4044C
:1012D0009091C504A091C604B091C70480931F0BE0
:1012E0009093200BA093210BB093220B8091AE041E
:1012F0009091AF04A091B004B091B10480931B0B06
:1013000090931C0BA0931D0BB0931E0B809198041F
:1013100090919904A0919A04B0919B048093170B2B
:101320009093180BA093190BB0931A0B1092FB0912
:101330001092FC091092FD091092FE0980912E0472
:1013400090912F04A0913004B09131048093F50A5C
:101350009093F60AA093F70AB093F80A80913204AA
:1013600090913304A0913404B09135048093F90A2C
:101370009093FA0AA093FB0AB093FC0A809136047A
:1013800090913704A0913804B09139048093FD0AFC
:101390009093FE0AA093FF0AB093000B80913A0449
:1013A00090913B04A0913C04B0913D048093010BCB
:1013B0009093020BA093030BB093040B82E392E093
:1013C0009093F2098093F1098AE092E09093F409F6
:1013D0008093F3091092000A1092FF098EEE94E0B8
:1013E0000E94760161E08091FA030E94C42061E0CE
:1013F0008091FE030E94C42086ED94E00E94760155
:1014000061E0809102040E94C42061E080910604A2
:101410000E94C42083E08093D80A81E08093D90A97
:101420008093DA0A8093DB0A8093DC0AF8018081DA
:101430009181A281B38188839983AA83BB838091A0
:101440000A048093010A8091860490918704A091F8
:101450008804B09189048093060A9093070AA093A8
:10146000080AB093090A80910B048093020A8091C4
:10147000C8049091C904A091CA04B091CB04809390
:10148000150A9093160AA093170AB093180A809130
:101490000C048093030A8091B2049091B304A0914C
:1014A000B404B091B5048093100A9093110AA093EC
:1014B000120AB093130A80910D048093040A80915C
:1014C0009C0490919D04A0919E04B0919F048093F0
:1014D0000B0A90930C0AA0930D0AB0930E0ADF91A9
:1014E000CF911F910F91FF90EF9008950895AF92C3
:1014F000BF92CF92DF92EF92FF920F931F93CF9301
:10150000DF938C01EB0169017A01B8808B2D837028
:10151000A82E20E030E0A901C701B6010E944931A0
:10152000181664F020E030E0A901C701B6010E945E
:10153000FF2F881F8827881F880F01C081E094E053
:10154000A99EF0011124E80FF11DED55FA4F90818D
:1015500098012F5F3F4F2330310528F4F901E05601
:10156000FA4F208101C020E0292349F0B694B694B7
:10157000B1FE02C092FD03C0B4FE02C095FD90E032
:10158000292F220F220F282B2883892F887339F4C3
:10159000292F277081E090E021F480E002C08FEFD6
:1015A0009FEFDF91CF911F910F91FF90EF90DF9010
:1015B000CF90BF90AF900895CF93DF93CDB7DEB7B4
:1015C0002A970FB6F894DEBF0FBECDBFAC01CB019A
:1015D00060E070E049835A836B837C83AA2797FD80
:1015E000A095BA2F8D839E83AF83B8879E01275F16
:1015F0003F4FAE014F5F5F4F68E070E0809177062C
:10160000909178060E94DC2D811108C081E0298527
:101610003A852830310519F480E001C081E02A962E
:101620000FB6F894DEBF0FBECDBFDF91CF91089506
:101630000F931F93CF93DF931F921F92CDB7DEB707
:101640008B019E012F5F3F4FAC01809177069091F7
:1016500078060E94DC2D811108C081E029813A8141
:101660002017310719F480E001C081E00F900F903E
:10167000DF91CF911F910F910895CF93DF93EC01EC
:1016800010927B0610927A06AC0160E070E0CB010C
:101690000E94A916AE0161E070E080E090E00E9437
:1016A000A9168091770690917806DF91CF910C94DE
:1016B0002B2EEF92FF920F931F93CF93DF931F92E6
:1016C0001F92CDB7DEB78C0180917506909176069A
:1016D00080179107B4F58091730690917406009776
:1016E00031F00E948E321092760610927506C80173
:1016F0000E94F6319093740680937306892B19F437
:10170000E12CF12C18C0109376060093750619C0D1
:1017100022E736E0AE014F5F5F4F61E070E08091FD
:101720007706909178060E941D2D811107C089814E
:101730009A81E80EF91EE016F10654F380E090E07D
:101740001FC0E12CF12C2091730630917406E01635
:10175000F106ACF42E0D3F1DAE014F5F5F4FB80197
:101760006E197F0980917706909178060E941D2D51
:101770008111E4CF89819A81E80EF91EE4CFC90175
:101780000F900F90DF91CF911F910F91FF90EF90ED
:1017900008950F931F93CF93DF93EB018A010CDF22
:1017A00081110AC00115110539F0BE01C801DF9190
:1017B000CF911F910F913CCFDF91CF911F910F914E
:1017C0000895CF92DF92EF92FF92CF93DF93CDB740
:1017D000DEB728970FB6F894DEBF0FBECDBF6B0102
:1017E000E12CF12CC982DA82EB82FC822D833E83CC
:1017F0004F835887AE014F5F5F4F68E070E0C9DFED
:1018000028960FB6F894DEBF0FBECDBFDF91CF9103
:10181000FF90EF90DF90CF9008950F931F93CF9399
:10182000DF93EC018B010E94192D90937806809331
:101830007706009741F0A801BE010E949E2CEC01A2
:10184000009719F40CC0C3EBD5E080917706909116
:1018500078060E941C2D1092780610927706CE0111
:10186000DF91CF911F910F9108958091770690910C
:1018700078060C94162D6F927F928F929F92AF9262
:10188000BF92CF92DF92EF92FF920F931F93CF936D
:10189000DF9300D000D0CDB7DEB76B017C014A01E9
:1018A00080917B06882309F441C09401B701A60109
:1018B000CE0101960E94381B89819A81181619065B
:1018C000ACF5A12CB12C00E010E089819A810817B9
:1018D00019075CF76B807C806A0C7B1CF3016081CC
:1018E000718182819381A4DE81111EC0F301648124
:1018F0007581161617062CF48681978199DE811161
:1019000013C0C801880F991FED81FE81E80FF91FF0
:10191000B701A601808191810E94DB160F5F1F4FE6
:10192000F8E0AF0EB11CD1CFC401A7DE26960FB6EA
:10193000F894DEBF0FBECDBFDF91CF911F910F9105
:10194000FF90EF90DF90CF90BF90AF909F908F90DF
:101950007F906F900895CF93DF93EC01AC0160E02E
:1019600070E0CB0188DFAE0161E070E080E090E0E4
:10197000DF91CF9180CFCF938091770690917806B9
:101980000E947A2CC82F811109C060E070E0CB0161
:1019900066D561E070E080E090E061D58C2FCF915A
:1019A00008950F931F9389019A01AB01BC018091A7
:1019B0007706909178060E942A2E1F910F91089524
:1019C0004F925F926F927F928F929F92AF92BF924F
:1019D000CF92DF92EF92FF920F931F93CF93DF93FB
:1019E000CDB7DEB766970FB6F894DEBF0FBECDBF9A
:1019F0004C015B018A0180917B06882369F080910C
:101A00007B06882309F4BDC21A821982E12CF12CCD
:101A100078E0C72ED12C14C06BE776E08091770672
:101A2000909178060E947C2C8111ABC2E8CFE20E27
:101A3000F31EE114F104D9F088E0E816F104BCF4D7
:101A400029E030E02C0F3D1F2E0D3F1DAE014F5FF2
:101A50005F4FB6016E197F098091770690917806E5
:101A60000E941D2D29813A81882309F388C212160C
:101A700013060CF086C280917A06811104C0198683
:101A80001A861B861C8689859A85AB85BC85803124
:101A9000910508F076C2FC01EE58FF4F0C94D2314C
:101AA000D4011696ED91FC91179780819181A281C6
:101AB000B38189839A83AB83BC83AE014F5F5F4F51
:101AC00064E070E085E190E06CC18D859E85F1DD7C
:101AD000009731F42FEF3FEFA90161E070E00EC0F5
:101AE000FC01C080D180E280F380A501C701B6016E
:101AF0000E945E16A701960160E070E08DE190E023
:101B00003CC28D859E85D5DD009721F42FEF3FEFF8
:101B1000A9010FC0DC01CD90DD90ED90FD90AD01ED
:101B200097018601B501C401B0D5A70196018823AC
:101B300019F061E070E002C060E070E08BE190E0DD
:101B40001CC28D859E85B5DD009721F42FEF3FEFF8
:101B5000A9010EC0FC01C190D190E190F190BF01AC
:101B6000A7019601C40186D7A7019601882319F021
:101B700061E070E002C060E070E08CE190E0FDC1E7
:101B8000D4011496ED91FC911597E080F180F70156
:101B900002811381A080B18060E1462E512C612C1E
:101BA000712C49825A826B827C8288E090E0A0E0AE
:101BB000B0E08D839E83AF83B8879E012F5E3F4F39
:101BC000AE014F5F5F4F68E070E0809177069091C3
:101BD00078060E94DC2D882319F0E12CF12CAEC090
:101BE00089899A890897C9F7D701CD90DC90B8E028
:101BF000CB0ED11CCC0CDD1CCC0CDD1CC6010E9414
:101C0000F6317C01009749F349825A826B827C82CB
:101C1000C601AA2797FDA095BA2F8D839E83AF8317
:101C2000B8879E012F5E3F4FAE014F5F5F4F68E068
:101C300070E080917706909178060E94DC2D8111EA
:101C40007DC089899A89089709F078C0D4011296D5
:101C5000ED91FC9113974081518162817381D7018D
:101C60004D935D936D937C93139744815581668169
:101C7000778114964D935D936D937C931797408570
:101C800051856285738518964D935D936D937C9312
:101C90001B9784859585A685B785F70184879587E9
:101CA000A687B787108A118A128A138A84E090E087
:101CB000A0E0B0E0848B958BA68BB78B8091080554
:101CC00090910905A0E0B0E0808F918FA28FB38F33
:101CD000C501AA2797FDA095BA2F848F958FA68F4F
:101CE000B78FB801A701405E5F4F20E030E02A15B2
:101CF0003B057CF4DB018D919D91BD01A0E0B0E03E
:101D0000FA0181939193A193B193AF012F5F3F4F5C
:101D1000EECF9E012F5E3F4FA701B601809177065F
:101D2000909178060E94DC2D811108C089899A89DA
:101D30008C159D0519F481E080937A06C70166969B
:101D40000FB6F894DEBF0FBECDBFDF91CF911F91CC
:101D50000F91FF90EF90DF90CF90BF90AF909F904A
:101D60008F907F906F905F904F900C948E328D8506
:101D70009E85AF85B8890097A105B10529F199DC49
:101D8000009789F481E090E0A0E0B0E089839A8335
:101D9000AB83BC83AE014F5F5F4F64E070E082E1D4
:101DA00090E0F7DCEEC0BC01C401ACD219821A820B
:101DB0001B821C82AE014F5F5F4F64E070E082E1E6
:101DC00090E0E7DC8111DDC081E080937906D9C025
:101DD000D4011496ED91FC9115970190F081E02DBE
:101DE000008511850115110509F460C0D801ED9039
:101DF000FC90C280D38020E030E060E070E080E0C2
:101E000090E08E159F050CF5F801A281B381A20F19
:101E1000B31F1296ED91FC911397EE0FFF1FEC0D7F
:101E2000FD1D0190F081E02D16960D90BC91A02D26
:101E3000EA9FA001EB9F500DFA9F500D1124640FF3
:101E4000751F0196285F3F4FDCCF83E190E0B4DB44
:101E5000811197C0812C912CA12CB12CAE14BF0400
:101E60000CF08FC0D8011296ED91FC911397E80DFC
:101E7000F91DA281B381AA0FBB1FAC0DBD1D2D9111
:101E80003C9186819781289FB001299F700D389FD2
:101E9000700D112480819181CBDBB8E08B0E911CF9
:101EA00081116FC0EFEFAE1ABE0AD8CF60E070E0CC
:101EB00083E190E081DB65C040E050E060E070E0ED
:101EC00081E190E066DC81115CC0C12CD12C7601EF
:101ED000C701B601C1D380910407882321F0A50171
:101EE000C701B601C8DCA501C701B601DCD2FFEF0E
:101EF000CF1ADF0AEF0AFF0A82E0C816D104E10414
:101F0000F10431F710927B0610927A0680917706E1
:101F1000909178060E94872C34C081E090E09093E5
:101F200006078093050740E050E060E070E086E13E
:101F300090E037CF81E0D8018C9323C08D859E85BA
:101F4000B8DB009731F42FEF3FEFA90161E070E0BB
:101F500012C0FC012081318142815381CA01B90143
:101F60002B8B3C8B4D8B5E8BFFD62B893C894D890F
:101F70005E8960E070E08EE190E023DC02C0C50184
:101F80007CDB66960FB6F894DEBF0FBECDBFDF9147
:101F9000CF911F910F91FF90EF90DF90CF90BF9066
:101FA000AF909F908F907F906F905F904F9008952B
:101FB000CF92DF92EF92FF92CF93DF93EC01C12C8F
:101FC000D12C7601C701B60147D3AE01C701B601D6
:101FD00052DCAE01C701B60166D2809173069091C2
:101FE0007406009731F00E948E321092740610929F
:101FF00073068FEFC81AD80AE80AF80A82E0C816F2
:10200000D104E104F104F1F680917A06882359F0B5
:1020100040E050E060E070E084E190E0BADBC82F7F
:1020200010927A0601C0C0E080917B06882341F0BF
:1020300010927B0621E030E03093090520930805DB
:1020400080917706909178060E948A2C809177067D
:10205000909178060E941C2D8C2FDF91CF91FF90DC
:10206000EF90DF90CF900895CF93DF93EC01AC0118
:1020700060E070E0CB010E94AF1AAE0161E070E059
:1020800080E090E0DF91CF910C94AF1A60E070E0B7
:10209000CB010E94141B61E070E080E090E00C94A2
:1020A000141BCF92DF92EF92FF920F931F93CF9367
:1020B000DF93EC016A017B0100E010E09801A4D6F7
:1020C00001E010E020E030E0B701A601CE019CD68F
:1020D000DF91CF911F910F91FF90EF90DF90CF9004
:1020E0000895EF92FF920F931F93CF93DF93DC013C
:1020F000EA01F90114968D919C91159712960D9114
:102100001C911397080F191F2881398118964D913A
:102110005C9119974217530728F04D915C911197E4
:10212000452B59F17801E21AF30A18964D915C910A
:102130001997481B590B4E0D5F1D46175707B4F1F1
:10214000A901460F571F4017510700F1F182E082A5
:10215000338322836E197F097583648316161706ED
:102160001CF030E020E002C0382F292F368327836F
:10217000680F791F7983688317C018968D919C9199
:102180001997821B930B8617970784F071836083DE
:102190003383228315821482178216828881998163
:1021A000860F971F9983888380E001C081E0DF91CB
:1021B000CF911F910F91FF90EF900895CF93DF93F0
:1021C00024E4269FE001279FD00D1124C458D94F45
:1021D0008AA99BA9009721F00E948E321BAA1AAAF5
:1021E0008EA99FA9009711F00E948E321B8A1A8A2D
:1021F0001E8A1F8A188E198E1A8E1B8E1C8E1D8E9B
:102200001E8E1F8E18A219A281E090E09BA38AA3C4
:102210001DA21CA21EA21FA218A619A61BA61AA6C2
:102220001DA61CA61EA61FA618AA19AA1BAA1AAA92
:102230001DAA1CAA1FAA1EAA19AE18AE1AAE1BAE62
:102240001CAE1DAEFE01FE96108211821282138218
:10225000CE5BDF4F19821882DF91CF910895CF9323
:10226000DF93FB01DC01CD91DC91AE81BF818081E8
:10227000918123E0880F991F2A95E1F712960D901E
:10228000BC91A02DA80FB91F6D917C9111978485E9
:102290009585880F991F0A80DB81C02DC80FD91F33
:1022A0000990D881C02D14968D919C911597892BFA
:1022B00019F082E090E002C081E090E08C9F9001F4
:1022C0008D9F300D9C9F300D112480859185289F16
:1022D000D001299FB00D389FB00D11240480F581E5
:1022E000E02D2E9FC0012F9F900D3E9F900D112439
:1022F000860F971FFA0191838083B383A283DF91B6
:10230000CF9108952F923F924F925F926F927F925A
:102310008F929F92AF92BF92CF92DF92EF92FF92F5
:102320000F931F93CF93DF9300D000D0CDB7DEB7CC
:10233000DC011496ED91FC9115970190F081E02D50
:10234000808591859A838983A281B381BC83AB8385
:10235000DB018D909D90AD90BD90C12CD12C76016C
:10236000C814D904EA04FB040CF060C014964D9024
:102370005D906D907C90179718964D915D916D9141
:102380007C911B97FD017096FE83ED838D919C914E
:10239000119763E0880F991F6A95E1F7E981FA8147
:1023A00022813381280F391FF901208031801C964A
:1023B000ED91FC911D97EE0FFF1F8B819C81E80F23
:1023C000F91F0190F081E02DD90114968D919C9117
:1023D0001597892B19F082E090E002C081E090E02F
:1023E0008E9F90018F9F300D9E9F300D1124249F52
:1023F0008001259F100D349F100D1124249DC001D4
:10240000259D900D349D900D1124A8016D817E8134
:10241000820D931D0E941D33AD81BE81A00FB11F9F
:10242000EFEFCE1ADE0AEE0AFE0A9ACF26960FB614
:10243000F894DEBF0FBECDBFDF91CF911F910F91FA
:10244000FF90EF90DF90CF90BF90AF909F908F90D4
:102450007F906F905F904F903F902F900895CF9313
:10246000DF9324E4269FF001279FF00D1124E45808
:10247000F94FDB01AA5FBA4F3C91332329F0EF01FA
:1024800019922A95E9F71C921482158216821782F6
:102490001186108613861286118A108A1786168670
:1024A000DF91CF918BCE2F923F924F925F926F929E
:1024B0007F928F929F92AF92BF92CF92DF92EF92D4
:1024C000FF920F931F93CF93DF9300D01F92CDB74E
:1024D000DEB76B017C011A0184E48C9D90018D9D17
:1024E000300D11242458394F3C832B83F90184810A
:1024F0009581A681B781892B8A2B8B2B09F495C0F6
:10250000A12CB12C412C512C3201AB81BC811496F1
:102510004D915D916D917C91179718968D919C913D
:10252000199744165506660677068CF5FC01EA0DE8
:10253000FB1D32812381032F122F812C912C8214B9
:102540009304C4F4D801ED91FC91309769F0848133
:1025500095812A8339830E948E32F801808191818E
:102560000E948E3239812A81FFEF8F1A9F0A0E5FF7
:102570001F4FE5CF832F922F0E948E322FEF421AEA
:10258000520A620A720A34E0A30EB11CBECF0E9446
:102590008E32EB81FC8182859385892BE1F0A12C21
:1025A000B12C00E010E0AB81BC811A968D919C911A
:1025B0001B97021513056CF4FC01EA0DFB1D8481C9
:1025C00095810E948E320F5F1F4FFEE0AF0EB11C4F
:1025D000EACF0E948E32EB81FC81808991890E9432
:1025E0008E32AB81BC811E968D919C911F970E946B
:1025F0008E32C701B601E2DDC701B6010F900F9020
:102600000F900F90DF91CF911F910F91FF90EF905E
:10261000DF90CF90BF90AF909F908F907F906F9002
:102620005F904F903F902F901ACF0F900F900F9088
:102630000F90DF91CF911F910F91FF90EF90DF905E
:10264000CF90BF90AF909F908F907F906F905F9052
:102650004F903F902F90089524E4269FF001279FEC
:10266000F00D1124E458F94F828993890497029759
:1026700058F485E090E0938B828B8FEF9FEFDC0125
:10268000828F938FA48FB58F08952F923F924F9290
:102690005F926F927F928F929F92AF92BF92CF92F2
:1026A000DF92EF92FF920F931F93CF93DF93CDB7FB
:1026B000DEB7AA970FB6F894DEBF0FBECDBF9AA3C0
:1026C00089A31B016A010B8B1C8B2D8B3E8B84E431
:1026D0002B893C89829F8001839F100D112404580F
:1026E000194F2B893C894D895E89D8012D933D93E3
:1026F0004D935C931397AB016B897C898D899E897F
:10270000D2DEF60141915191619171917F01CA012F
:10271000D80114964D935D936D937C93179764E065
:1027200070E00E94DC31F80191878087892B09F4E1
:102730006DC118A21F8E1B8E1C8E1D8E1E8EF80161
:1027400084819581A681B7812B8D3C8D4D8D5E8DC9
:10275000281739074A075B070CF0D1C0D801189633
:102760000D90BC91A02D2F8D38A1A20FB31FBA8B55
:10277000A98BD7018D919C91880F991FA9A1BAA10E
:10278000ED91FC91E80FF91F80819181E989FA8927
:1027900091838083D70114962D913D914D915C9149
:1027A00017972BA33CA34DA35EA3B8E0EB0EF11C3F
:1027B00062E070E0C1010E94DC31E989FA8993830B
:1027C0008283892B09F422C11F8A188E198E1A8ED2
:1027D0002F89388D498D5A8D8BA19CA1ADA1BEA1A9
:1027E000281739074A075B070CF018C1D701CD90AD
:1027F000DC90CC0CDD1CE989FA89A280B380AC0C9A
:10280000BD1C68E070E081E090E00E94DC31D50101
:102810008D939C93A989BA891296ED91FC91139797
:10282000EC0DFD1D808091808114910409F4EEC0AF
:10283000F7014481558166817781CA01D4014D93A6
:102840005D936D937C931397B8E0EB0EF11C64E0FD
:1028500070E00E94DC31F40195838483892B09F4B4
:10286000D5C0A12CB12C412C512C3201F401808116
:102870009181A281B381481659066A067B0694F5B8
:10288000D4011496CD90DC901597CA0CDB1CF7018F
:10289000DE01119680E101900D928A95E1F7B0E199
:1028A000EB0EF11CA601BE016F5F7F4FE9A1FAA1FB
:1028B00084819581D4DCD40116968D919C911797D3
:1028C000F60122813381820F931F17969C938E937A
:1028D0001697FFEF4F1A5F0A6F0A7F0A24E0A20ED5
:1028E000B11CC4CF2F89388D498D5A8D2F5F3F4F32
:1028F0004F4F5F4F2F8B388F498F5A8F69CF6EE0C4
:1029000070E0C1010E94DC31D8011B969C938E932C
:102910001A97612C712C812C912CA12CB12C442460
:102920004394512C821493040CF050C0F701419150
:102930005191619171917F01CA01D8011A96CD9090
:10294000DC901B97C60CD71C57FD60C0F601518266
:102950004082009791F04FA358A769A77AA70E94D9
:10296000F631D60115969C938E9314974FA158A5D6
:1029700069A57AA5892B21F449C0F6011582148234
:10298000D60113965C934E93129714968D919C9159
:10299000159717969C938E93169719969C938E93E2
:1029A00018971B961C921E921A9781E090E0452B77
:1029B000462B472B11F480E090E0A80EB91EBFEF24
:1029C0008B1A9B0AEEE06E0E711CACCFD8011D96DF
:1029D0001C921E921C97C501F3E0880F991FFA956F
:1029E000E1F70E94F631F801918B808B892B71F011
:1029F000C501880F991F0E94F631D8011F969C933C
:102A00008E931E97892B11F080E01BC0A1016B896A
:102A10007C898D899E8947DD81E013C02B8D3C8D9B
:102A20004D8D5E8D2F5F3F4F4F4F5F4F2B8F3C8FF4
:102A30004D8F5E8F2F8D38A12C5F3F4F38A32F8F86
:102A40007ECEAA960FB6F894DEBF0FBECDBFDF9143
:102A5000CF911F910F91FF90EF90DF90CF90BF909B
:102A6000AF909F908F907F906F905F904F903F902E
:102A70002F9008953F924F925F926F927F928F9224
:102A80009F92AF92BF92CF92DF92EF92FF920F93FD
:102A90001F93CF93DF93CDB7DEB764970FB6F8944B
:102AA000DEBF0FBECDBF4C01FB01298B3A8B4B8B98
:102AB0005C8B84E4829F8001839F100D1124025758
:102AC000194F80819181D80113969C938E93129710
:102AD000448155816681778114964D935D936D9302
:102AE0007C931797408551856285738518964D9321
:102AF0005D936D937C931B9744855585668577859B
:102B00001C964D935D936D937C931F9740895189DB
:102B1000628973895C964D935D936D937C935F9707
:102B20007F01B4E1EB0EF11C141615060CF05DC02C
:102B3000CA01880F991F880F991F0E94F631F8016A
:102B400091A380A3892B09F499C0A12CB12C412C0D
:102B5000512C320130E1332EB301A2012FEF421A82
:102B6000520A620A720AF801848D958DA68DB78D7E
:102B7000481759076A077B0764F5D8019096CD90EE
:102B8000DC909197CA0CDB1CF701DE011196832DB6
:102B900001900D928A95E1F7B0E1EB0EF11CA601D0
:102BA000BE016F5F7F4FF4018481958158DBD801AE
:102BB00092968D919C919397F60122813381820F99
:102BC000931F93969C938E939297F4E0AF0EB11C53
:102BD000C3CF82A193A10E94F631D80195969C9310
:102BE0008E939497892B09F449C0F70180819181D4
:102BF000A281B381AC01BD014D7F21E030E0452BC6
:102C0000462B472B11F020E030E0F801318B208B70
:102C10000197A109B10921E030E00297A105B105B2
:102C200010F020E030E0D80153963C932E93529759
:102C3000F70184819581A681B781F801848B958BFA
:102C4000A68BB78B84859585A685B785B7FF10C001
:102C5000B095A095909581959F4FAF4FBF4F80A79E
:102C600091A7A2A7B3A714861586168617860DC04E
:102C7000F80110A611A612A613A607C069897A89C1
:102C80008B899C899BDA81E001C080E064960FB655
:102C9000F894DEBF0FBECDBFDF91CF911F910F9192
:102CA000FF90EF90DF90CF90BF90AF909F908F906C
:102CB0007F906F905F904F903F900895CF93DF93F8
:102CC00024E4269FF001279FF00D1124E458F94FCA
:102CD0001092040715A614A620E030E080E090E0F2
:102CE000C1E0D0E08417950714F5A285B385A20F43
:102CF000B31F12966D917C911397161617069CF4CC
:102D000014966D917C91159717967C936E931697F8
:102D100019967C936E9318971B961C921E921A9785
:102D20001196DC93CE930196225F3F4FDBCF13A623
:102D300012A611AE10AEDF01DE961D921D921D92FD
:102D40001C92139782E090E0938B828BDF91CF915E
:102D5000089524E4269FF001279FF00D1124E458E4
:102D6000F94F138A128A9FCB24E4269FF001279FF4
:102D7000F00D1124E458F94F82899389813091052F
:102D8000C8F08530910518F0059769F008958FEF28
:102D90009FEFDC01828F938FA48FB58F85E090E049
:102DA000938B828B08958FEF9FEFDC01828F938F3F
:102DB000A48FB58F089524E4249FF001259FF00D82
:102DC0001124E458F94F2EE0AC01249FC001259F47
:102DD000900D11240284F385E02DE80FF91F81E0A6
:102DE00080930407828593859187808740855185EC
:102DF0002681378181E090E04217530711F080E08F
:102E000090E09183808308952F923F924F925F923A
:102E10006F927F928F929F92AF92BF92CF92DF92EA
:102E2000EF92FF920F931F93CF93DF93CDB7DEB74F
:102E3000C454D1090FB6F894DEBF0FBECDBF98AF12
:102E40008FAB4BA75CA76DA77EA723960CAF1DAFDA
:102E50002EAF3FAF239784E421962EAD3FAD21974F
:102E6000829F1001839F300C1124C1018458994F17
:102E70001C01DC011A960D90BC91A02D2596BFAFC8
:102E8000AEAF2597FC0182899389029709F018C19A
:102E900086A597A5A0A9B1A9892B8A2B8B2B29F4EC
:102EA00084E090E0938B828B0BC1D101848995895A
:102EB000EFA9F8ADE817F90709F002C1D6960D9110
:102EC0001C91D7971AAE19AE412C512C3201F10149
:102ED00086A597A5A0A9B1A9481659066A067B063A
:102EE0000CF0D0C0D101D2960D90BC91A02DE9ADCF
:102EF000FAADAE0FBF1FBAABA9AB12962D913C91A4
:102F000013973CAF2BAF36952795369527953EAF57
:102F10002DAFD101D8968D919C91D997892B09F429
:102F200095C09696CD90DD90ED90FC90999718AB5A
:102F30000FA7E9A9FAA90190F081E02DFCABEBAB5A
:102F40001EAA1DAAEDA9FEA92DAD3EADE217F307FD
:102F50000CF07CC0D10192968D919C919397892B16
:102F600079F1EBA9FCA980809180A280B380A701B0
:102F70009601C501B4010E94493187FD0CC0A7012B
:102F80009601AFA5B8A96D917D918D919C910E94FC
:102F9000FF2F87FD7CC0A7019601C501B4010E94E7
:102FA000493118166CF4A7019601EFA5F8A96081C4
:102FB0007181828193810E94FF2F882309F467C069
:102FC000D10194968D919C919597892B71F1EBA9E4
:102FD000FCA980809180A280B380A7019601C501E1
:102FE000B4010E94FF2F87FF0CC0A7019601AFA577
:102FF000B8A96D917D918D919C910E94493187FF77
:1030000046C0A7019601C501B4010E94FF2F81119E
:103010000CC0A7019601EFA5F8A96081718182819A
:1030200093810E944931181694F12DA93EA92F5F72
:103030003F4F3EAB2DAB8FA598A9049698AB8FA7B9
:10304000ABA9BCA91496BCABABAB7CCFA9A9BAA960
:103050006D917C914BAD5CADC8010E941D338DAD6F
:103060009EAD880F991F880F991F080F191FBFEF7A
:103070004B1A5B0A6B0A7B0AE9ADFAAD3496FAAFDC
:10308000E9AF25CF81E090E091AF80AF19C0F101A9
:10309000868D978DA0A1B1A1892B8A2B8B2B09F04E
:1030A0003AC284E090E0D10153969C938E9352975C
:1030B000DE968D919C91DF979B969C938E939A9729
:1030C000D10152968D919C9153978230910589F44C
:1030D000DA968D919D910D90BC91A02D1816190630
:1030E0001A061B060CF021C2E1E0F0E0F8ABEFA7F6
:1030F00005C0049709F019C218AA1FA68EE02FA9CF
:1031000038AD829F5001839FB00C112425968EAD5F
:103110009FAD2597A80EB91ED50112964D915C91D1
:1031200013974115510509F400C216968D919C9193
:1031300017979AA789A7FE01319684E1DF011D92B6
:103140008A95E9F723968CAD9DADAEADBFAD2397C3
:10315000898B9A8BAB8BBC8BAFA5B8A9AB2B09F431
:1031600048C04101BEE38B0E911CF401C080D180A8
:10317000E280F380F10182AD93ADA4ADB5ADC81688
:10318000D906EA06FB06A9F5D50114966D917C9146
:10319000159718960D90BC91A02D14960D911D9128
:1031A0002D913C911797C8010D8B1E8B2F8B388F5B
:1031B00008969E8B8D8BF50120853185280F391F50
:1031C0003187208780859185460F571F841B950B7B
:1031D00097FD04C0680F791F71876087F1E0CF1AEF
:1031E000D108E108F108D401CD92DD92ED92FC9274
:1031F00013979E012B5E3F4FAE01475D5F4F64E129
:1032000070E0C5010E947110082F10E00115110532
:1032100009F06DC18CE090E0A0E0B0E08D839E836A
:10322000AF83B8879E01235E3F4FAE01475D5F4F7E
:1032300064E070E0C5010E947110082F10E00115D4
:10324000110509F054C180E190E0A0E0B0E08D8369
:103250009E83AF83B8874D8D5E8DBE01655D7F4FC8
:103260008F8D98A10E941D338BA19CA1009761F0C6
:103270006D8D7E8DEBE2F0E0EC0FFD1F6E0F7F1F7A
:1032800049A15AA10E941D331DA21EA21FA218A669
:103290002FA938AD220F331F3EAB2DABCDA0DEA042
:1032A000EFA0F8A4F10184819581A681B781C816A9
:1032B000D906EA06FB060CF0CBC0D1011896ED91B9
:1032C000FC911997C601880F991F880F991FE80F65
:1032D000F91FA081B1818C91882309F4AFC083309C
:1032E00009F4ACC00280F381E02D2DA93EA9E20FC4
:1032F000F31F808191819CAB8BAB892B09F49EC01D
:1033000089859A85AB85BC850196A11DB11D8987EC
:103310009A87AB87BC879E01235E3F4FAE01475D16
:103320005F4F64E070E0C5010E94711090E000976B
:1033300009F0DCC08D819E81AF81B8850496A11D06
:10334000B11D8D839E83AF83B8874D8D5E8DBE0189
:103350006B5D7F4F8F8D98A10E941D338BA19CA127
:10336000009761F06D8D7E8DA5E2B0E0AC0FBD1FC2
:103370006A0F7B1F49A15AA10E941D331AAA19AADC
:10338000412C512C3201EBA9FCA980819181A281B1
:10339000B381481659066A067B060CF04FC0EBA9AC
:1033A000FCA98480958029A93AA9820E931ED40194
:1033B00012966D917C9113979E01235E3F4FAE0153
:1033C000475D5F4FC5010E94711090E0009709F0C2
:1033D0008DC0F40142815381662757FD6095762F99
:1033E0008D819E81AF81B885840F951FA61FB71F61
:1033F0008D839E83AF83B887608171814D8D5E8D93
:103400008F8D98A10E941D338BA19CA1009759F02C
:10341000D4016D917C912D8D3E8D620F731F49A15A
:103420005AA10E941D33BFEF4B1A5B0A6B0A7B0A3D
:10343000E9A9FAA93496FAABE9ABA5CFFFEFCF1A09
:10344000DF0AEF0AFF0ACDA2DEA2EFA2F8A626CF7E
:1034500089859A85AB85BC85892B8A2B8B2B09F4B2
:1034600046C08AE190E0A0E0B0E089839A83AB8314
:10347000BC832FA938ADC901AA2797FDA095BA2F03
:103480008D879E87AF87B88B4D895E89BE016F5F40
:103490007F4F8F89988D0E941D338B8D9C8D009757
:1034A00061F06D897E89A1E0B0E0AC0FBD1F6A0FAD
:1034B0007B1F498D5A8D0E941D3389A59AA5F50160
:1034C00097838683118210822FA538A9232B69F157
:1034D000F101FE9680819181A281B3810196A11DA7
:1034E000B11D80839183A283B3831FC08C018FA5FC
:1034F00098A9892BD1F4012BC1F081E090E0D10192
:103500009D969C938E939C9785E090E053969C9318
:103510008E9352970AC083E090E0F101938B828BE7
:1035200081E090E093A782A7CBCDCC5BDF4F0FB6B5
:10353000F894DEBF0FBECDBFDF91CF911F910F91E9
:10354000FF90EF90DF90CF90BF90AF909F908F90C3
:103550007F906F905F904F903F902F900895CF9203
:10356000DF92EF92FF920F931F93CF93DF9324E4A8
:10357000269FE001279FD00D1124C458D94F2A89D6
:103580003B892115310509F446C021303105A9F4E4
:10359000CAA4DBA496012F5F3F4F3BA72AA7EE24C6
:1035A000D7FCE094FE2C0A8D1B8D2C8D3D8DC01612
:1035B000D106E206F30679F581DB8A899B890397B8
:1035C00051F54AA55BA5CA0101969BA78AA7662764
:1035D00057FD6095762F8E8D9F8DA8A1B9A14817B4
:1035E00059076A077B07BCF08EAD9FAD9BA78AA7E2
:1035F00084E090E09B8B8A8B8AAD9BADACADBDAD7A
:10360000181619061A061B0634F4CE5BDF4F81E04C
:1036100090E099838883DF91CF911F910F91FF9064
:10362000EF90DF90CF90089524E4269FF001279F2C
:10363000F00D1124E458F94F828993890497B9F465
:1036400042A553A54F5F5F4F53A742A7662757FD7B
:103650006095762F86899789A08DB18D4817590777
:103660006A077B0721F485E090E0938B828B0895B5
:103670002F923F924F925F926F927F928F929F9282
:10368000AF92BF92CF92DF92EF92FF920F931F9370
:10369000CF93DF9300D01F92CDB7DEB749835A8313
:1036A0006B837C83490124E4249F8001259F100DB6
:1036B00011240458194FD80152966D907C9053975D
:1036C0009301245031092230310508F0BCC01D9609
:1036D0001C921E921C97FC0111821082138212828E
:1036E000A12CB12C20E030E0281539050CF067C082
:1036F000D8011A962D903C901B972A0C3B1CF10187
:1037000040815181452B09F054C06085718542800C
:103710005380468157811C96ED90FC901D97670160
:10372000F3E0CC0CDD1CFA95E1F75096ED91FC919D
:103730005197EC0DFD1D6701CC0CDD1C1E96ED9024
:10374000FC901F97EC0CFD1CD7012D933C93D801E6
:103750001C96ED90FC901D97BFEFEB1AFB0AD80169
:103760001D96FC92EE921C9773836283D1011B9687
:103770005C934E931A976417750748F4461B570BD2
:1037800051834083158214821782168212C0D101A0
:103790001496CD90DC9015977601E40CF51CE61A92
:1037A000F70AF182E0824C195D0955834483D78280
:1037B000C6822F5F3F4FBEE0AB0EB11C95CFF80124
:1037C00024853585DC0111963C932E9340895189DF
:1037D00013965C934E9312974685578515965C9386
:1037E0004E931497232BD1F5B5E06B167104B1F508
:1037F00010920407828D938DA48DB58DAE014F5F1D
:103800005F4F64E070E08F3F9F4FAF4FBF4F59F461
:1038100080E290E00E94C90B69817A818B819C8152
:10382000A40197DA1BC08FE190E00E94C90BD80178
:103830009B961C921E929A9781E090E053969C93DF
:103840008E9352970BC0F80115861486DC011196F1
:103850001C921E9213961C921E9212970F900F901C
:103860000F900F90DF91CF911F910F91FF90EF90EC
:10387000DF90CF90BF90AF909F908F907F906F9090
:103880005F904F903F902F900895EF92FF920F938B
:103890001F93CF93DF937C018B01EA010E94350CCB
:1038A000811121C08091080590910905049711F1BB
:1038B00083E090E090930905809308051BC0888100
:1038C0008111F0CF28ED38EB45E050E060E070E08A
:1038D000CB010E94D10CAE01B801C7010E94E00CDF
:1038E000C8010E94AB0C8091050790910607892BB7
:1038F00031F3D8CFDF91CF911F910F91FF90EF90CF
:103900000895CF93DF93EB012091080530910905CD
:103910002430310539F00E94E00CCE01DF91CF91C7
:103920000C94AB0CDF91CF9108950C9451100C9432
:1039300046100C9434100C94BB0C0C94D80F0895C2
:1039400060E070E080E090E00C940D0C0895AF9280
:10395000BF92CF92DF92EF92FF920F931F93CF937C
:10396000DF931F921F92CDB7DEB75C0169017A0128
:103970008B0180E090E0C114D104E104F104F1F086
:10398000C114D10421E0E206F10410F4A60102C042
:103990004FEF5FEF9E012F5F3F4FB801C5010E94BF
:1039A000362E8F3F2FEF920749F029813A81C21AB4
:1039B000D30AE108F108020F131FDDCF0F900F901B
:1039C000DF91CF911F910F91FF90EF90DF90CF90FB
:1039D000BF90AF900895AF92BF92CF92DF92EF92D7
:1039E000FF920F931F93CF93DF931F921F92CDB738
:1039F000DEB75C0169017A018B0180E090E0C114BF
:103A0000D104E104F104F1F0C114D10421E0E20693
:103A1000F10410F4A60102C04FEF5FEF9E012F5F8B
:103A20003F4FB801C5010E94742E8F3F2FEF9207C0
:103A300049F029813A81C21AD30AE108F108020F3C
:103A4000131FDDCF0F900F90DF91CF911F910F913A
:103A5000FF90EF90DF90CF90BF90AF9008950895C2
:103A60001F920F920FB60F9211240BB60F922F9345
:103A70003F934F935F936F937F938F939F93AF93F6
:103A8000BF93EF93FF9380910B0790910C07892BC5
:103A900029F0E0910B07F0910C071995FF91EF9138
:103AA000BF91AF919F918F917F916F915F914F9156
:103AB0003F912F910F900BBE0F900FBE0F901F9054
:103AC00018951F920F920FB60F9211240BB60F92FA
:103AD0002F933F934F935F936F937F938F939F9316
:103AE000AF93BF93EF93FF9380910D0790910E07D3
:103AF000892B29F0E0910D07F0910E071995FF91A0
:103B0000EF91BF91AF919F918F917F916F915F9155
:103B10004F913F912F910F900BBE0F900FBE0F90C2
:103B20001F9018951F920F920FB60F9211240BB68B
:103B30000F922F933F934F935F936F937F938F9346
:103B40009F93AF93BF93EF93FF9380910F07909153
:103B50001007892B29F0E0910F07F09110071995B4
:103B6000FF91EF91BF91AF919F918F917F916F9155
:103B70005F914F913F912F910F900BBE0F900FBE11
:103B80000F901F9018951F920F920FB60F9211244D
:103B90000BB60F922F933F934F935F936F937F9347
:103BA0008F939F93AF93BF93EF93FF9380911107F0
:103BB00090911207892B29F0E0911107F0911207DB
:103BC0001995FF91EF91BF91AF919F918F917F9147
:103BD0006F915F914F913F912F910F900BBE0F907E
:103BE0000FBE0F901F9018951F920F920FB60F9255
:103BF00011240BB60F922F933F934F935F936F93C4
:103C00007F938F939F93AF93BF93EF93FF93809195
:103C1000070790910807892B29F0E0910707F09199
:103C200008071995FF91EF91BF91AF919F918F91E7
:103C30007F916F915F914F913F912F910F900BBEAC
:103C40000F900FBE0F901F9018951F920F920FB6F6
:103C50000F9211240BB60F922F933F934F935F93C4
:103C60006F937F938F939F93AF93BF93EF93FF9344
:103C70008091090790910A07892B29F0E0910907A3
:103C8000F0910A071995FF91EF91BF91AF919F9124
:103C90008F917F916F915F914F913F912F910F90F5
:103CA0000BBE0F900FBE0F901F9018951F920F9292
:103CB0000FB60F9211240BB60F922F933F934F9391
:103CC0005F936F937F938F939F93AF93BF93EF9384
:103CD000FF938091130790911407892B29F0E091AD
:103CE0001307F09114071995FF91EF91BF91AF91D0
:103CF0009F918F917F916F915F914F913F912F9104
:103D00000F900BBE0F900FBE0F901F9018951F9233
:103D10000F920FB60F9211240BB60F922F933F9371
:103D20004F935F936F937F938F939F93AF93BF93C3
:103D3000EF93FF938091150790911607892B29F037
:103D4000E0911507F09116071995FF91EF91BF913A
:103D5000AF919F918F917F916F915F914F913F9123
:103D60002F910F900BBE0F900FBE0F901F901895C4
:103D70001F920F920FB60F9211242F933F938F93A0
:103D80009F93AF93BF938091180790911907A091CB
:103D90001A07B0911B073091170723E0230F2D3727
:103DA00020F40196A11DB11D05C026E8230F02963F
:103DB000A11DB11D20931707809318079093190731
:103DC000A0931A07B0931B0780911C0790911D07C1
:103DD000A0911E07B0911F070196A11DB11D8093F0
:103DE0001C0790931D07A0931E07B0931F07BF9158
:103DF000AF919F918F913F912F910F900FBE0F9098
:103E00001F9018953FB7F89480911C0790911D075B
:103E1000A0911E07B0911F0726B5A89B05C02F3F94
:103E200019F00196A11DB11D3FBF6627782F892F7C
:103E30009A2F620F711D811D911D42E0660F771F41
:103E4000881F991F4A95D1F70895CF92DF92EF927C
:103E5000FF92CF93DF936B017C01D4DFEB01C114A0
:103E6000D104E104F10479F0FADDCCDF6C1B7D0BA9
:103E7000683E7340A0F381E0C81AD108E108F10858
:103E8000C851DC4FECCFDF91CF91FF90EF90DF90E6
:103E9000CF900895789484B5826084BD84B58160A4
:103EA00084BD85B5826085BD85B5816085BDEEE642
:103EB000F0E0808181608083E1E8F0E01082808121
:103EC00082608083808181608083E0E8F0E080818F
:103ED00081608083E1EBF0E0808184608083E0EBAF
:103EE000F0E0808181608083E1E9F0E080818260A0
:103EF0008083808181608083E0E9F0E0808181605F
:103F00008083E1EAF0E0808182608083808181604B
:103F10008083E0EAF0E0808181608083E1E2F1E08B
:103F2000808182608083808181608083E0E2F1E033
:103F3000808181608083EAE7F0E080818460808313
:103F400080818260808380818160808380818068BD
:103F500080831092C10008951F93CF93DF93182F91
:103F6000EB0161E011D1209711F460E004C0CF3F74
:103F7000D10531F461E0812FDF91CF911F913DC1D7
:103F8000E12FF0E0E45BFE4F449150E0FA013197FD
:103F9000E231F10508F09BC0EE57FF4F0C94D2318F
:103FA00084B5806884BDC7BD97C084B5806284BD78
:103FB000C8BD92C080918000806880938000D093BB
:103FC0008900C093880088C08091800080628093BF
:103FD0008000D0938B00C0938A007EC080918000C7
:103FE000886080938000D0938D00C0938C0074C053
:103FF0008091B00080688093B000C093B3006CC023
:104000008091B00080628093B000C093B40064C01F
:1040100080919000806880939000D0939900C09325
:1040200098005AC080919000806280939000D09355
:104030009B00C0939A0050C080919000886080934C
:104040009000D0939D00C0939C0046C08091A0003A
:1040500080688093A0008091A0008F7B8093A00057
:10406000D093A900C093A80037C08091A0008062BF
:104070008093A000D093AB00C093AA002DC0809184
:10408000A00088608093A000D093AD00C093AC00E6
:1040900023C080912001806880932001D093290162
:1040A000C093280119C08091200180628093200173
:1040B000D0932B01C0932A010FC08091200188600A
:1040C00080932001D0932D01C0932C0105C0C038EE
:1040D000D1050CF04FCF49CFDF91CF911F910895BB
:1040E00090E0FC013197E231F10508F04CC0EC564C
:1040F000FF4F0C94D231809180008F7703C0809164
:1041000080008F7D80938000089580918000877F5C
:10411000F9CF84B58F7702C084B58F7D84BD0895B3
:104120008091B0008F7703C08091B0008F7D809325
:10413000B0000895809190008F7707C08091900023
:104140008F7D03C080919000877F809390000895B9
:104150008091A0008F7707C08091A0008F7D03C061
:104160008091A000877F8093A00008958091200116
:104170008F7707C0809120018F7D03C0809120013F
:10418000877F809320010895CF93DF9390E0FC0117
:10419000EE56FE4F2491FC01E852FE4F8491882395
:1041A00049F190E0880F991FFC01EE5AFD4FA5914F
:1041B000B491885C9D4FFC01C591D4919FB761116A
:1041C00008C0F8948C91209582238C938881822357
:1041D0000AC0623051F4F8948C91322F30958323C9
:1041E0008C938881822B888304C0F8948C91822BD5
:1041F0008C939FBFDF91CF9108950F931F93CF931F
:10420000DF931F92CDB7DEB7282F30E0F901E45BD2
:10421000FE4F8491F901EE56FE4F1491F901E852D8
:10422000FE4F04910023C1F0882319F0698358DF01
:104230006981E02FF0E0EE0FFF1FE85CFD4FA591D4
:10424000B4919FB7F8948C91611103C010958123AC
:1042500001C0812B8C939FBF0F90DF91CF911F9155
:104260000F910895CF93DF93282F30E0F901E45B9D
:10427000FE4F8491F901EE56FE4FD491F901E852B8
:10428000FE4FC491CC2389F081112ADFEC2FF0E09E
:10429000EE0FFF1FE25EFD4FA591B4912C912D23EF
:1042A00081E090E021F480E002C080E090E0DF91C6
:1042B000CF910895FC01818D228D90E0805C9F4F0D
:1042C000821B91098F7399270895FC01918D828D2E
:1042D000981731F0828DE80FF11D858D90E00895DB
:1042E0008FEF9FEF0895FC01918D828D981761F0FB
:1042F000828DDF01A80FB11D5D968C91928D9F5F1D
:104300009F73928F90E008958FEF9FEF0895FC01C7
:10431000848DDF01A80FB11DA35ABF4F2C91848D4E
:1043200090E001968F739927848FA689B7892C9383
:10433000A089B1898C9180648C93938D848D98131E
:1043400006C00288F389E02D80818F7D80830895E7
:10435000CF93DF93EC01888D8823C1F0EA89FB8934
:10436000808185FD05C0A889B9898C9186FD0EC024
:104370000FB607FCF5CF808185FFF2CFA889B989F8
:104380008C9185FFEDCFCE01C2DFE8CFDF91CF91D9
:104390000895CF92DF92FF920F931F93CF93DF93F5
:1043A0001F92CDB7DEB76C01DC015B969C915B97E9
:1043B0005C968C915C97981307C05096ED91FC9198
:1043C0005197808185FD31C0F601038D10E00F5FAC
:1043D0001F4F0F731127F02EF601848DF81210C0B5
:1043E0000FB607FCF9CFD6015096ED91FC9151978D
:1043F000808185FFF1CFC601698389DF6981ECCFB8
:10440000838DE80FF11DE35AFF4F6083D6015B9661
:104410000C935B975296ED91FC915397808180624B
:10442000808381E058968C930DC0D6015696ED910D
:10443000FC91579760835096ED91FC915197808144
:104440008064808381E090E00F90DF91CF911F9195
:104450000F91FF90DF90CF900895BF92CF92DF929F
:10446000EF92FF92CF93DF93EC016A017B01B22EB2
:10447000E889F98982E08083411581EE580761055A
:104480007105A1F060E079E08DE390E0A70196016D
:104490000E94B03121503109410951095695479583
:1044A00037952795211580E1380798F0E889F98933
:1044B000108260E874E88EE190E0A70196010E9406
:1044C000B031215031094109510956954795379529
:1044D0002795EC85FD853083EE85FF852083188E3A
:1044E000EC89FD89B082EA89FB89808180618083C3
:1044F000EA89FB89808188608083EA89FB898081E1
:1045000080688083EA89FB8980818F7D8083DF9149
:10451000CF91FF90EF90DF90CF90BF9008951F92C2
:104520000F920FB60F9211240BB60F922F938F9309
:104530009F93EF93FF93E0913007F09131078081D3
:10454000E0913607F091370782FD12C0908180918B
:1045500039078F5F8F7320913A07821751F0E091EE
:104560003907F0E0E05EF84F958F8093390701C07E
:104570008081FF91EF919F918F912F910F900BBEB2
:104580000F900FBE0F901F9018951F920F920FB6AD
:104590000F9211240BB60F922F933F934F935F937B
:1045A0006F937F938F939F93AF93BF93EF93FF93FB
:1045B00080E297E0ACDEFF91EF91BF91AF919F91C8
:1045C0008F917F916F915F914F913F912F910F90BC
:1045D0000BBE0F900FBE0F901F90189510922307DF
:1045E0001092220788EE93E0A0E0B0E080932407C9
:1045F00090932507A0932607B093270782EF95E0B5
:10460000909321078093200785EC90E090932D07ED
:1046100080932C0784EC90E090932F0780932E07D3
:1046200080EC90E0909331078093300781EC90E02C
:10463000909333078093320782EC90E09093350794
:104640008093340786EC90E0909337078093360789
:104650001092390710923A0710923B0710923C07CC
:1046600008951F920F920FB60F9211240BB60F925E
:104670002F938F939F93EF93FF93E091CD07F0914A
:10468000CE078081E091D307F091D40782FD12C05C
:1046900090818091D6078F5F8F732091D707821703
:1046A00051F0E091D607F0E0E354F84F958F8093F6
:1046B000D60701C08081FF91EF919F918F912F913B
:1046C0000F900BBE0F900FBE0F901F9018951F926A
:1046D0000F920FB60F9211240BB60F922F933F93A8
:1046E0004F935F936F937F938F939F93AF93BF93FA
:1046F000EF93FF938DEB97E00ADEFF91EF91BF916F
:10470000AF919F918F917F916F915F914F913F9169
:104710002F910F900BBE0F900FBE0F901F9018950A
:104720001092C0071092BF0788EE93E0A0E0B0E0BF
:104730008093C1079093C207A093C307B093C407A7
:1047400082EF95E09093BE078093BD078DEC90E0DB
:104750009093CA078093C9078CEC90E09093CC07A4
:104760008093CB0788EC90E09093CE078093CD07A1
:1047700089EC90E09093D0078093CF078AEC90E08B
:104780009093D2078093D1078EEC90E09093D4075A
:104790008093D3071092D6071092D7071092D807AC
:1047A0001092D90708951F920F920FB60F921124FD
:1047B0000BB60F922F938F939F93EF93FF93E091FC
:1047C0006A08F0916B088081E0917008F09171089F
:1047D00082FD12C09081809173088F5F8F7320914A
:1047E0007408821751F0E0917308F0E0E65AF74F31
:1047F000958F8093730801C08081FF91EF919F9105
:104800008F912F910F900BBE0F900FBE0F901F90A6
:1048100018951F920F920FB60F9211240BB60F929C
:104820002F933F934F935F936F937F938F939F93B8
:10483000AF93BF93EF93FF938AE598E068DDFF9114
:10484000EF91BF91AF919F918F917F916F915F9108
:104850004F913F912F910F900BBE0F900FBE0F9075
:104860001F90189510925D0810925C0888EE93E0F6
:10487000A0E0B0E080935E0890935F08A09360088A
:10488000B093610882EF95E090935B0880935A089B
:1048900085ED90E0909367088093660884ED90E042
:1048A000909369088093680880ED90E090936B087E
:1048B00080936A0881ED90E090936D0880936C0876
:1048C00082ED90E090936F0880936E0886ED90E003
:1048D0009093710880937008109273081092740876
:1048E000109275081092760808951F920F920FB6D5
:1048F0000F9211240BB60F922F938F939F93EF93E8
:10490000FF93E0910709F09108098081E0910D097A
:10491000F0910E0982FD12C09081809110098F5F85
:104920008F7320911109821751F0E0911009F0E086
:10493000E950F74F958F8093100901C08081FF9156
:10494000EF919F918F912F910F900BBE0F900FBE03
:104950000F901F9018951F920F920FB60F9211246F
:104960000BB60F922F933F934F935F936F937F9369
:104970008F939F93AF93BF93EF93FF9387EF98E04D
:10498000C6DCFF91EF91BF91AF919F918F917F9185
:104990006F915F914F913F912F910F900BBE0F90B0
:1049A0000FBE0F901F9018951092FA081092F908F8
:1049B00088EE93E0A0E0B0E08093FB089093FC08C1
:1049C000A093FD08B093FE0882EF95E09093F8085D
:1049D0008093F70885E391E090930409809303099D
:1049E00084E391E0909306098093050980E391E0C8
:1049F000909308098093070981E391E090930A0955
:104A00008093090982E391E090930C0980930B094C
:104A100086E391E090930E0980930D09109210099E
:104A20001092110910921209109213090895AF9271
:104A3000BF92CF92DF92EF92FF920F931F93CF938B
:104A4000DF936C017B01C0E0D0E000E010E0F601F4
:104A5000EC0FFD1F4AE050E06281C701D7D05C0136
:104A60006EE2C70168D08A0D9B1D080F191F2196A1
:104A7000C330D10561F74AE050E0F6016581C70116
:104A8000C5D0800F911FDF91CF911F910F91FF90A3
:104A9000EF90DF90CF90BF90AF90089582E096E0C6
:104AA0009093950980939409109296091092970912
:104AB00010929809109299090895CF92DF92EF927F
:104AC000FF920F931F93CF93DF936C017A01EB0159
:104AD000E60EF71E00E010E0CE15DF0561F06991EB
:104AE000D601ED91FC910190F081E02DC601199560
:104AF000080F191FF1CFC801DF91CF911F910F91BE
:104B0000FF90EF90DF90CF9008956115710581F0CF
:104B1000DB010D900020E9F7AD0141505109461B22
:104B2000570BDC01ED91FC910280F381E02D19948B
:104B300080E090E00895DC01ED91FC910190F0811E
:104B4000E02D19948F929F92AF92BF92CF92DF92F5
:104B5000EF92FF920F931F93CF93DF93CDB7DEB702
:104B6000A1970FB6F894DEBF0FBECDBF7C01C42E57
:104B7000E52FCB01D22E19A221E02D1510F02AE04D
:104B8000D22E8E010F5D1F4F8D2C912CA12CB12C9C
:104B90006C2D7E2FA50194010E94B0318C2DD29EE8
:104BA00080191124015011098A3014F4805D01C06C
:104BB000895CF8018083211531054105510521F0FB
:104BC000C22EE32FCA01E4CFB801C7019EDFA19630
:104BD0000FB6F894DEBF0FBECDBFDF91CF911F910E
:104BE0000F91FF90EF90DF90CF90BF90AF909F908C
:104BF0008F9008952115310541F4DC01ED91FC9170
:104C00000190F081E02D642F19949CCF9A01462FDA
:104C100050E060E070E0EECF8230A9F028F4882305
:104C200049F0813051F00895843009F1E8F0853081
:104C300009F1089510926E00089580916F008D7FA4
:104C400080936F000895809170008D7F8093700035
:104C500081E08093B0008091B100887F8460809370
:104C6000B1001092B300089510927100089510924F
:104C700072000895109273000895CF93C82F809109
:104C80000A058C1307C0ECE6F2E084919FEF909345
:104C90000A0501C08FEFC0DF60E08C2FCF91ADCA55
:104CA0001F920F920FB60F9211240BB60F922F93F3
:104CB0003F934F935F936F937F938F939F93AF93A4
:104CC000BF93EF93FF9380919D0990919E09A091CE
:104CD0009F09B091A009892B8A2B8B2B51F19091C0
:104CE0009A09E0919B09F0919C0980818927808332
:104CF00080919D0990919E09A0919F09B091A00972
:104D0000181619061A061B06BCF480919D0990918D
:104D10009E09A0919F09B091A0090197A109B1092D
:104D200080939D0990939E09A0939F09B093A00939
:104D300003C080910A05A1DFFF91EF91BF91AF9170
:104D40009F918F917F916F915F914F913F912F91A3
:104D50000F900BBE0F900FBE0F901F9018950895E7
:104D60001F920F920FB60F9211240BB60F922F9332
:104D70003F934F935F936F937F938F939F93AF93E3
:104D8000BF93EF93FF938FE89DEF9093250180935E
:104D90002401EBD7FF91EF91BF91AF919F918F913C
:104DA0007F916F915F914F913F912F910F900BBE2B
:104DB0000F900FBE0F901F9018958FE89DEF909366
:104DC000250180932401A3E7B0E08C918E7F8C9322
:104DD000E0E2F1E080818C7F8083E1E2F1E080819C
:104DE000877E808380818460808380818C7F8083C4
:104DF0008C9181608C930895CF92DF92EF92FF9215
:104E00000F931F93CF93DF93FC01DB01CA01B9011C
:104E1000C12CD12C76011DE7C0E2C216D306E406F0
:104E2000F506C9F00C91033021F0D3E8D00FD23051
:104E300080F41083DC91DC27D18332966F5F7F4F43
:104E40008F4F9F4FDFEFCD1ADD0AED0AFD0A119655
:104E5000E4CF0193F7CFDF91CF911F910F91FF9096
:104E6000EF90DF90CF900895AF92BF92CF92DF92F4
:104E7000EF92FF920F931F93CF93DF93CDB7DEB7DF
:104E80002C970FB6F894DEBF0FBECDBF8C015B012F
:104E9000FB018181882309F486C08EE7F8018083B5
:104EA000818383E085878687108A1786128A118A14
:104EB000138A148A158A168A178A22E030E040E0A5
:104EC00050E0B801C501CFD281116EC021E030E0C1
:104ED00040E050E0B8016E5F7F4FCE0101968CDF5D
:104EE0009B01AC01BE016F5F7F4FC501BCD2811138
:104EF0005BC0F5012081F80183819481A581B68191
:104F000089879A87AB87BC87211108C02B859A8532
:104F100089853C8539872A879B878C8724E030E008
:104F200040E050E0BE01675F7F4FCE01019664DF35
:104F30009B01AC01BE016F5F7F4FC50194D281110F
:104F400033C0C12CD12C7601F80183819481A581D5
:104F5000B681C816D906EA06FB06D8F4F8016781BF
:104F600070856C0D7D1D21E030E040E050E0CE0109
:104F7000019642DF9B01AC01BE016F5F7F4FC5010F
:104F800072D2811111C0FFEFCF1ADF0AEF0AFF0AB8
:104F9000DBCFB801635F7F4F22E030E040E050E0BC
:104FA000C50161D201C080E02C960FB6F894DEBF37
:104FB0000FBECDBFDF91CF911F910F91FF90EF906A
:104FC000DF90CF90BF90AF9008952F923F924F9275
:104FD0005F926F927F928F929F92AF92BF92CF9289
:104FE000DF92EF92FF920F931F93CF93DF93CDB792
:104FF000DEB727970FB6F894DEBF0FBECDBF7C019A
:105000006B011D8219821A821B821C82DB011196A0
:105010008C91882309F4AAC18EE7F70180838183EC
:1050200083E085878687108A1786128A118A138AF9
:10503000148A158A168A178A3396FF83EE8385E0D1
:10504000482E512C5701FDE0AF0EB11C47018FEFE8
:10505000881A980A66246394712C170192E0290E2D
:10506000311C8E010F5F1F4F21E030E040E050E027
:10507000BE016B5F7F4FC6014BD2811178C1898120
:105080009A81AB81BC810197A105B10551F0D7018F
:1050900050961C921E921F9752961C921E925197E8
:1050A00065C1F7018785908902970397C8F49789AE
:1050B0008D81992329F0178AF0E28F278D8310C004
:1050C0008D3749F08E3739F1833051F4128A118AC5
:1050D000108A178605C0E1E0D7015796EC93C1CF3F
:1050E000F701878590898230910509F43FC02CF43F
:1050F000009769F0019731F1B4CF8430910509F43C
:10510000BEC00CF469C0059709F4F5C0AACF8D8123
:105110008E3709F0A6CFD70152969C928E92519766
:105120008C9353968D919D910D90BC91A02D0196DD
:10513000A11DB11DF701838B948BA58BB68B708A53
:1051400067868FCF8D818E3709F00BC10188F28978
:10515000E02D8083F701138A148A158A168A82E06B
:1051600090E0908B8787328A218A7BCFF7018389F1
:105170009489A589B689892B8A2B8B2B09F0F1C0DC
:105180000188F289E02DCF010196D70152969C93B8
:105190008E9351978D81808353968D919D910D9023
:1051A000BC91A02D0196A11DB11DF701838B948B9D
:1051B000A58BB68B0197A105B10509F052CF83E00D
:1051C00090E0908B8787AE81BF81B28BA18B138AD1
:1051D000148A158A168A45CFF70183899489A5898F
:1051E000B6890497A105B10508F0BBC00188F28912
:1051F000E02DCF010196D70152969C938E93519743
:105200008D81808353968D919D910D90BC91A02DA1
:105210000196A11DB11DF701838B948BA58BB68BD5
:105220000497A105B10509F01CCFD6018C915381DB
:10523000448135812681811103C0C901DA0104C08E
:10524000852F942FA32FB22FF70183839483A583F7
:10525000B683138A148A158A168A892B8A2B8B2B7C
:1052600049F084E090E0908B878787819085928BCE
:10527000818BF7CE508A4786B28AA18AF2CEF70197
:10528000438954896589768983819481A581B68112
:10529000481759076A077B0708F063C00188F2893D
:1052A000E02DCF010196D70152969C938E93519792
:1052B0008D81808353968D919D910D90BC91A02DF1
:1052C0000196A11DB11DF701838B948BA58BB68B25
:1052D000438154816581768184179507A607B707B6
:1052E00009F0BFCE508A4786B28AA18A138A148AEF
:1052F000158A168AB6CEF70183899489A589B6895D
:105300000297A105B10568F52D81233051F501887B
:10531000F289E02DCF010196D70152969C938E938E
:105320005197208353968D919D910D90BC91A02D06
:105330000196A11DB11DF701838B948BA58BB68BB4
:105340000297A105B10509F08CCE86E090E0908B24
:105350008787128A118A138A148A158A168A80E02E
:1053600006C0F701128A118A108A178681E02796F3
:105370000FB6F894DEBF0FBECDBFDF91CF911F9166
:105380000F91FF90EF90DF90CF90BF90AF909F90E4
:105390008F907F906F905F904F903F902F900895E7
:1053A00081E08093A1091092A20981EA99E0089511
:1053B000CF92DF92EF92FF920F931F93CF93DF93E1
:1053C0008C017B016A01FC018181811120C06CE0AC
:1053D00070E081E090E0F0D7EC019093A409809315
:1053E000A3090097A1F01A861B8681E0F80181834A
:1053F000B601C70160D499838883E091A309F09135
:10540000A40980819181019621F4F801118281E043
:1054100001C080E0DF91CF911F910F91FF90EF903D
:10542000DF90CF900895CF93DF93FC012181222359
:10543000B1F01182E091A309F091A40980819181DA
:1054400031D4EC018091A3099091A409009711F047
:105450000E948E3281E0219619F080E001C081E047
:10546000DF91CF910895FC018181882369F0E0915B
:10547000A309F091A409808191810E94A71C21E0D9
:10548000019619F020E001C021E0822F08950F93CA
:105490001F93CF93DF931F921F92CDB7DEB78B017F
:1054A0001A821982DC0111968C91811102C081E06F
:1054B00028C0E091A309F091A4098285882321F0F6
:1054C00081E0FB0180831CC0DB011C92BF016E5F89
:1054D0007F4F9E012F5F3F4F48E050E080819181D8
:1054E00003D4019621F389819A81009749F091E0D4
:1054F000F8019083E091A309F091A40982871386B3
:1055000080E00F900F90DF91CF911F910F91089540
:105510008F929F92AF92BF92CF92DF92EF92FF92C3
:105520000F931F93CF93DF935B0169017A01F80119
:105530001082118212821382FC018181811102C0CA
:1055400081E032C0C091A309D091A4098A85882343
:10555000F1F090E049018217930708F44C016B8544
:1055600070E06E5F7F4F6C0F7D1FA401C5010E942C
:105570001D338A8588198A878B85880D8B87A80CAF
:10558000B91CA70196012819390941095109B5012A
:10559000888199810E94EB1C019691F2F801C082EA
:1055A000D182E282F38280E0DF91CF911F910F914F
:1055B000FF90EF90DF90CF90BF90AF909F908F9033
:1055C0000895CF93DF93FB0120813181DC016D9140
:1055D0007C91DA01A85BBF4F672B19F421153105C7
:1055E00031F0E901C85BDF4F5983488303C0518321
:1055F0004083FC01518340831D921C92DF91CF9127
:105600000895FC01DB018D919C9120813181211550
:10561000310519F4009709F40895D901A85BBF4F2B
:105620008D919C91119791838083892B19F4FB01B3
:10563000118210821D921C92C90108952091AC091B
:105640003091AD098091AE099091AF09892B19F481
:1056500081E0232B09F080E008952091A809309182
:10566000A9098091AA099091AB09892B19F481E0CD
:10567000232B09F080E00895CF93DF93C5E0D0E0BD
:105680006AE470E081E090E097D6009751F0AC01B9
:105690006CEA79E08EEA99E094DF219789F780E05F
:1056A00001C081E0DF91CF9108957F928F929F9208
:1056B000AF92BF92CF92DF92EF92FF920F931F9320
:1056C000CF93DF931F921F92CDB7DEB75C01BC0171
:1056D00089EC99E07ADC782E811141C08091CB0968
:1056E000823019F41092B0093AC0C090CC09D09021
:1056F000CD09E090CE09F090CF098090D00990902C
:10570000D1096CEA79E08EEA99E07BDF8C01A60191
:10571000B40193D7F801E05CFF4FEE24D7FCE0948E
:10572000FE2CC082D182E282F382349610821182F2
:1057300012821382A80168EA79E08AEA99E041DFDF
:105740007DDF81110CC002E010E09E012F5F3F4F12
:1057500040E050E060E070E0C50112D0782E872D67
:105760000F900F90DF91CF911F910F91FF90EF90CD
:10577000DF90CF90BF90AF909F908F907F900895D3
:105780008F929F92AF92BF92CF92DF92EF92FF9251
:105790000F931F93CF93DF9300D0CDB7DEB76C018B
:1057A0004B0158017A014331510518F082E1E82E8E
:1057B000F12CF901F182E08200E010E08091B00963
:1057C000882379F1F2E0AF16B10459F11B82BE01D2
:1057D0006D5F7F4FC6015BDE81113BC08B81811104
:1057E00004C02CDF811106C0E7CFC6015EDF88232D
:1057F000C1F32FC0083C11051CF40F5F1F4FDECF13
:105800003BDF811126C002E010E09E012F5F3F4F79
:1058100040E050E060E070E0C601B2DF882361F252
:1058200018C0C701A0E0B0E08093B4099093B50917
:10583000A093B609B093B709A092B309A701B40128
:105840008091B8099091B909F8D6B60181EB99E039
:105850000BDB0F900F900F90DF91CF911F910F9165
:10586000FF90EF90DF90CF90BF90AF909F908F9080
:105870000895CF93E3DE811107C06CEA79E08EEAE8
:1058800099E0BFDE4BD6F6CFE8DE811107C068EAAB
:1058900079E08AEA99E0B5DE41D6F6CF8091D00969
:1058A0009091D1093BD6C8E1E9ECF9E0DF018C2FFA
:1058B0001D928A95E9F78091B8099091B9092ED681
:1058C000E1EBF9E0DF011D92CA95E9F71092A90911
:1058D0001092A8091092AB091092AA091092AD0972
:1058E0001092AC091092AF091092AE091092B00953
:1058F000CF91089580E0089521E0FC01818192819B
:10590000892B09F420E0FB01208380E008951092A8
:10591000B00908950F931F93CF93DF93EC01098192
:105920001A810115110529F0A4DFC8017CDD1A8256
:105930001982DF91CF911F910F9108958F929F92BD
:10594000AF92BF92CF92DF92EF92FF920F931F938D
:10595000CF93DF938C015B014A01C42FD92DEE2434
:10596000E394F12CEA14FB0484F4FFEFEF1AFF0A2E
:105970008A819B81009739F06CE276E06ED6892BA4
:1059800011F41B821A822296EDCF81E0F801808308
:1059900007DDEC01009799F16CDF80E490E026D5FB
:1059A0009093B9098093B809892B39F190E4C92EF5
:1059B000D12CE12CF12CC092BA09D092BB09E09213
:1059C000BC09F092BD0980E490E010D59093D10914
:1059D0008093D009892B89F0C092D209D092D30943
:1059E000E092D409F092D50947DE811106C0A401E6
:1059F000B501CE01DDDC882311F0C0E0D0E0F80174
:105A0000D283C183CD2B19F080E090E002C084E006
:105A100096E0DF91CF911F910F91FF90EF90DF9073
:105A2000CF90BF90AF909F908F900895FC018081A0
:105A3000089585EA99E0089508956F927F928F9274
:105A40009F92AF92BF92CF92DF92EF92FF920F930D
:105A50001F93CF93DF931F921F92CDB7DEB77C01C8
:105A60005B018A014901FC01C180D280F6DD8823F7
:105A7000C9F01982BE016F5F7F4FC60108DD782E25
:105A8000811188C08981882339F0C6010EDE811119
:105A900007C0E3DD882331F0F801118210827AC05B
:105AA000782E78C0F701C180D2808091AA099091A8
:105AB000AB09009731F4C601F8DD782E8823A9F3ED
:105AC00069C07C01F4E4EF0EF11CF70140815181C3
:105AD000628173813C01F0E46F0E711CF30120813F
