:100000002AC100000C9471160C94A2160C94D316FD
:100010000C9404170C9435170C9466170C949717CE
:100020000C94C81749C1000047C1000045C1000039
:1000300043C100000C94F21E3FC100003DC100000E
:100040003BC1000039C1000037C1000035C10000CC
:1000500033C1000031C100002FC100000C94F9171A
:100060002BC100000C94311B0C94671B25C10000B0
:1000700023C1000021C100001FC100001DC10000FC
:100080001BC1000019C1000017C1000015C100000C
:100090000C94D31B0C94091C0FC100000C940E2966
:1000A0000BC1000009C1000007C1000005C100002C
:1000B00003C1000001C10000FFC00000FDC000003E
:1000C000FBC00000F9C000000C94561F0C94751C76
:1000D0000C94AB1CF1C000000C94171D0C944D1D2A
:1000E000EBC0000001079D0800090209F807290874
:1000F000C206E206A606DF08CE08DB0802090209EE
:10010000020991062B192E191D1921192719651994
:10011000321936193C19401944194A194E19521905
:10012000651958195C19601900000A0B02090C0DB9
:100130000E0807030401000000000000000000009A
:1001400000000000000000000000000000000000AF
:10015000000000001211100000000000000000006C
:10016000000000000000000000000000000001028C
:1001700010202008081020401020408002010201B9
:100180000804020101020408102040808040201071
:1001900008040201800402018040201008040201CA
:1001A0000804020101020408102040800102040832
:1001B000102040800505050507050808080802020B
:1001C00002020A0A080804040404010101010101F1
:1001D00001010303030303030303040707070C0CD4
:1001E0000C0C0C0C0C0C020202020606060606069B
:1001F00006060B0B0B0B0B0B0B0B00002000230058
:10020000260029002C002F0032000001000003010D
:100210000601090100002200250028002B002E0005
:100220003100340002010000050108010B0100004B
:100230002100240027002A002D0030003300010196
:100240000000040107010A010200901B321CD41CAB
:10025000761DF01D2D2811241FBECFEFD1E2DEBF89
:10026000CDBF00E00CBF14E0A0E0B2E0E6E5FCE5A5
:1002700000E00BBF02C007900D92AE30B107D9F776
:1002800029E0AEE0B4E001C01D92AD35B207E1F760
:1002900012E0C6E5D2E000E006C022970109FE01A7
:1002A0000BBF0E94CB2CCA34D10780E00807A9F706
:1002B0000E94962A0C94292EA3CE81EA97E00C94F2
:1002C000FA27CF92DF92EF92FF920F931F93CF9373
:1002D000DF931F92CDB7DEB7F82EE22E662389F0AA
:1002E000682F81EA97E049830E9411284981642F91
:1002F00081EA97E00E94BC2760E081EA97E00E94D3
:100300001B284E2D6F2D81EA97E00E940F2881EA6D
:1003100097E00E946527892B19F4F801F12C16C08B
:100320006801F12C81EA97E00E946527892BB1F0E2
:10033000C601801B910B8E159F0584F481EA97E01E
:100340000E946D27F60181936F01ECCFCF01801BD6
:10035000910B8E159F0514F41192F8CF0F90DF9139
:10036000CF911F910F91FF90EF90DF90CF90089564
:1003700021E030911C09311120E0FC012283089515
:100380008F929F92AF92BF92CF92DF92EF92FF92A5
:100390000F931F93CF93DF93CDB7DEB76C970FB654
:1003A000F894DEBF0FBECDBF80911C098F5F8A30ED
:1003B00018F480931C0902C010921C0980917708E0
:1003C000992787FD90950197029710F080E001C072
:1003D00083E0809377088091B2020E94D4198093C1
:1003E00055098091B6020E94D419809356098091D4
:1003F000BA020E94D419809357098091BE020E94CC
:10040000D41980935809E0912409F091250980813D
:100410009181A281B3818093330990933409A09391
:100420003509B09336098E010F5F1F4F2CE14BE366
:1004300060E088E646DFE9E3F9E080E090E0AC01C7
:10044000440F551FA2E0B0E0AC0FBD1FA40FB51FB5
:100450002C9130E0322F2227A1E0B0E0AC0FBD1F7D
:10046000A40FB51F4C91240F311D21933193019698
:100470008E30910521F783E090E00E94DA15E0913B
:100480002409F0912509408151816281738181E0C5
:1004900090E00E94D61580901D0990901E09A090B2
:1004A0001F09B090200920E030E040E85FEBC50173
:1004B000B4010E94862B00912409109125098823FC
:1004C00019F1F801C080D180E280F380A701960184
:1004D000C501B4010E94212B4B015C0120E030E0FA
:1004E00040E054E3C701B6010E94402C9B01AC01DF
:1004F000C501B4010E943C2C181634F08CEC92E03B
:1005000090937A088093790880912309882331F0A9
:100510008CEC92E090937A088093790860910A09B4
:1005200070910B0980910C0990910D096F5F7F4FBD
:100530008F4F9F4F60930A0970930B0980930C09AA
:1005400090930D090E948A2B20910E0930910F097A
:1005500040911009509111090E94402CF8016083CC
:100560007183828393838091120990911309A091E2
:100570001409B09115090196A11DB11D80931209AE
:1005800090931309A0931409B09315096C960FB6B4
:10059000F894DEBF0FBECDBFDF91CF911F910F91B9
:1005A000FF90EF90DF90CF90BF90AF909F908F9093
:1005B0000895CF93DF938091AE020E94ED1890933F
:1005C000380980933709C6E1D9E0688179818A8149
:1005D0009B810E948A2B2DEC3CEC4CEC5DE30E944D
:1005E000402CAB01BC0182E090E00E94D6158881CE
:1005F0009981AA81BB810196A11DB11D8883998330
:10060000AA83BB83DF91CF910895CF93DF93E9E76E
:10061000F8E089EBDF011D928A95E9F781E299E024
:100620009093800880937F08A4E2B9E0B093BA0861
:10063000A093B908CEE0D9E0D0938E08C0938D087E
:10064000F093E408E093E308F0937E08E0937D08DC
:1006500021E030E0FC013183208380EE92E0909332
:1006600084088093830826E239E02D933C9380E050
:1006700090E0A8ECB2E480931D0990931E09A0932A
:100680001F09B09320098AE097EDA3E2BCE38883B9
:100690009983AA83BB83E8EFF8E08FEA9AECA7EE90
:1006A000B6EC80839183A283B38383E399E6AEEDB6
:1006B000B3E88093FC089093FD08A093FE08B093E4
:1006C000FF088EE898E2A4E1BFE5809300099093CB
:1006D0000109A0930209B09303098DE499E3A3E40F
:1006E000B3E48093040990930509A0930609B0939D
:1006F0000709C6E2D4E0D0937C08C0937B08A0E24F
:10070000B4E0B983A8838EE793E08D939C93909394
:1007100023048093220487E798E090932504809334
:100720002404A8E0B9E0B0932B04A0932A04F0932A
:100730002904E093280430932D0420932C0486E2AE
:10074000E3E3F9E0EF0119928A95E9F780E1E9E640
:10075000F8E0EF0119928A95E9F7EEE0F4E082E122
:10076000EF0119928A95E9F7ED93FC938FE090E001
:100770009183808388E892E0909311048093100421
:100780008AE692E090931304809312048EE292E042
:1007900090931504809314048AE092E090931704D8
:1007A000809316046091AE027091AF028091B00206
:1007B0009091B1020E94531F60E08091B2020E94AA
:1007C000661960E08091B6020E94661960E080912F
:1007D000BA020E94661960E08091BE020E9466190A
:1007E00021E02093780881E090E0A0E0B0E08093E1
:1007F000730890937408A0937508B09376082093BB
:100800003209DF91CF910895809173089091740817
:10081000A0917508B09176080197A105B10561F422
:1008200082E090E0A0E0B0E08093730890937408B9
:10083000A0937508B09376080895CF93DF93CDB752
:10084000DEB72A970FB6F894DEBF0FBECDBFAC015E
:10085000CB0160E070E049835A836B837C83AA27D5
:1008600097FDA095BA2F8D839E83AF83B8879E0195
:10087000275F3F4FAE014F5F5F4F68E070E08091B0
:100880003704909138040E948C26811108C081E0C1
:1008900029853A852830310519F480E001C081E0CE
:1008A0002A960FB6F894DEBF0FBECDBFDF91CF9171
:1008B00008950F931F93CF93DF931F921F92CDB78D
:1008C000DEB78B019E012F5F3F4FAC018091370453
:1008D000909138040E948C26811108C081E0298102
:1008E0003A812017310719F480E001C081E00F90B0
:1008F0000F90DF91CF911F910F910895CF93DF93C8
:10090000EC0110923B0410923A04AC0160E070E0FC
:10091000CB010E94EA0FAE0161E070E080E090E060
:100920000E94EA0F8091370490913804DF91CF91B3
:100930000C94DB26EF92FF920F931F93CF93DF93DC
:100940001F921F92CDB7DEB78C0180913504909134
:10095000360480179107B4F58091330490913404E4
:10096000009731F00E94812D1092360410923504C8
:10097000C8010E94E92C9093340480933304892B9E
:1009800019F4E12CF12C18C01093360400933504AF
:1009900019C022E334E0AE014F5F5F4F61E070E0C9
:1009A00080913704909138040E94CD25811107C0B1
:1009B00089819A81E80EF91EE016F10654F380E071
:1009C00090E01FC0E12CF12C2091330430913404CD
:1009D000E016F106ACF42E0D3F1DAE014F5F5F4FE8
:1009E000B8016E197F0980913704909138040E94F4
:1009F000CD258111E4CF89819A81E80EF91EE4CFDB
:100A0000C9010F900F90DF91CF911F910F91FF902F
:100A1000EF9008950F931F93CF93DF93EB018A011B
:100A20000CDF81110AC00115110539F0BE01C801A2
:100A3000DF91CF911F910F913CCFDF91CF911F910B
:100A40000F910895CF92DF92EF92FF92CF93DF93B1
:100A5000CDB7DEB728970FB6F894DEBF0FBECDBF77
:100A60006B01E12CF12CC982DA82EB82FC822D83AE
:100A70003E834F835887AE014F5F5F4F68E070E061
:100A8000C9DF28960FB6F894DEBF0FBECDBFDF9149
:100A9000CF91FF90EF90DF90CF9008950F931F9329
:100AA000CF93DF93EC018B010E94C925909338040A
:100AB00080933704009741F0A801BE010E944D25A4
:100AC000EC01009719F40CC0C1E8D3E08091370421
:100AD000909138040E94CC2510923804109237046B
:100AE000CE01DF91CF911F910F910895809137042E
:100AF000909138040C94C6256F927F928F929F92AA
:100B0000AF92BF92CF92DF92EF92FF920F931F931B
:100B1000CF93DF9300D000D0CDB7DEB76B017C015F
:100B20004A0180913B04882309F441C09401B70134
:100B3000A601CE0101960E94791489819A81181626
:100B40001906ACF5A12CB12C00E010E089819A8146
:100B5000081719075CF76B807C806A0C7B1CF3011B
:100B60006081718182819381A4DE81111EC0F301B5
:100B700064817581161617062CF48681978199DE9B
:100B8000811113C0C801880F991FED81FE81E80F04
:100B9000F91FB701A601808191810E941C100F5F8F
:100BA0001F4FF8E0AF0EB11CD1CFC401A7DE2696CF
:100BB0000FB6F894DEBF0FBECDBFDF91CF911F916E
:100BC0000F91FF90EF90DF90CF90BF90AF909F90EC
:100BD0008F907F906F900895CF93DF93EC01AC01DD
:100BE00060E070E0CB0188DFAE0161E070E080E0A2
:100BF00090E0DF91CF9180CFCF9380913704909197
:100C000038040E942925C82F811109C060E070E0D6
:100C1000CB0166D561E070E080E090E061D58C2F7B
:100C2000CF9108950F931F9389019A01AB01BC01E5
:100C300080913704909138040E94DA261F910F9119
:100C400008954F925F926F927F928F929F92AF9290
:100C5000BF92CF92DF92EF92FF920F931F93CF93A9
:100C6000DF93CDB7DEB766970FB6F894DEBF0FBE41
:100C7000CDBF4C015B018A0180913B04882369F060
:100C800080913B04882309F4BDC21A821982E12CA9
:100C9000F12C78E0C72ED12C14C06BE374E0809166
:100CA0003704909138040E942B258111ABC2E8CF04
:100CB000E20EF31EE114F104D9F088E0E816F10425
:100CC000BCF429E030E02C0F3D1F2E0D3F1DAE017E
:100CD0004F5F5F4FB6016E197F0980913704909185
:100CE00038040E94CD2529813A81882309F388C2DE
:100CF000121613060CF086C280913A04811104C0CA
:100D000019861A861B861C8689859A85AB85BC85C3
:100D10008031910508F076C2FC01EE58FF4F0C942B
:100D2000C52CD4011696ED91FC9117978081918185
:100D3000A281B38189839A83AB83BC83AE014F5F69
:100D40005F4F64E070E085E190E06CC18D859E8529
:100D5000F1DD009731F42FEF3FEFA90161E070E082
:100D60000EC0FC01C080D180E280F380A501C701E4
:100D7000B6010E949F0FA701960160E070E08DE12F
:100D800090E03CC28D859E85D5DD009721F42FEF44
:100D90003FEFA9010FC0DC01CD90DD90ED90FD90FB
:100DA000AD0197018601B501C401B0D5A701960137
:100DB000882319F061E070E002C060E070E08BE130
:100DC00090E01CC28D859E85B5DD009721F42FEF44
:100DD0003FEFA9010EC0FC01C190D190E190F190CC
:100DE000BF01A7019601C40186D7A70196018823F8
:100DF00019F061E070E002C060E070E08CE190E02A
:100E0000FDC1D4011496ED91FC911597E080F1801D
:100E1000F70102811381A080B18060E1462E512C40
:100E2000612C712C49825A826B827C8288E090E02E
:100E3000A0E0B0E08D839E83AF83B8879E012F5ED4
:100E40003F4FAE014F5F5F4F68E070E08091370425
:100E5000909138040E948C26882319F0E12CF12C03
:100E6000AEC089899A890897C9F7D701CD90DC90DF
:100E7000B8E0CB0ED11CCC0CDD1CCC0CDD1CC601AB
:100E80000E94E92C7C01009749F349825A826B82C7
:100E90007C82C601AA2797FDA095BA2F8D839E83D9
:100EA000AF83B8879E012F5E3F4FAE014F5F5F4F0C
:100EB00068E070E080913704909138040E948C269D
:100EC00081117DC089899A89089709F078C0D40179
:100ED0001296ED91FC91139740815181628173814B
:100EE000D7014D935D936D937C9313974481558106
:100EF0006681778114964D935D936D937C931797DC
:100F0000408551856285738518964D935D936D93E9
:100F10007C931B9784859585A685B785F701848783
:100F20009587A687B787108A118A128A138A84E068
:100F300090E0A0E0B0E0848B958BA68BB78B80917E
:100F4000C8029091C902A0E0B0E0808F918FA28F7B
:100F5000B38FC501AA2797FDA095BA2F848F958FCF
:100F6000A68FB78FB801A701405E5F4F20E030E049
:100F70002A153B057CF4DB018D919D91BD01A0E01C
:100F8000B0E0FA0181939193A193B193AF012F5FE8
:100F90003F4FEECF9E012F5E3F4FA701B6018091DC
:100FA0003704909138040E948C26811108C08989E9
:100FB0009A898C159D0519F481E080933A04C70144
:100FC00066960FB6F894DEBF0FBECDBFDF91CF910E
:100FD0001F910F91FF90EF90DF90CF90BF90AF9057
:100FE0009F908F907F906F905F904F900C94812D89
:100FF0008D859E85AF85B8890097A105B10529F13A
:1010000099DC009789F481E090E0A0E0B0E089836A
:101010009A83AB83BC83AE014F5F5F4F64E070E0A7
:1010200082E190E0F7DCEEC0BC01C401ACD21982D1
:101030001A821B821C82AE014F5F5F4F64E070E03A
:1010400082E190E0E7DC8111DDC081E0809339042A
:10105000D9C0D4011496ED91FC9115970190F081BF
:10106000E02D008511850115110509F460C0D80136
:10107000ED90FC90C280D38020E030E060E070E032
:1010800080E090E08E159F050CF5F801A281B381F8
:10109000A20FB31F1296ED91FC911397EE0FFF1F55
:1010A000EC0DFD1D0190F081E02D16960D90BC9188
:1010B000A02DEA9FA001EB9F500DFA9F500D112427
:1010C000640F751F0196285F3F4FDCCF83E190E0EE
:1010D000B4DB811197C0812C912CA12CB12CAE14C2
:1010E000BF040CF08FC0D8011296ED91FC911397BC
:1010F000E80DF91DA281B381AA0FBB1FAC0DBD1D68
:101100002D913C9186819781289FB001299F700D78
:10111000389F700D112480819181CBDBB8E08B0E5C
:10112000911C81116FC0EFEFAE1ABE0AD8CF60E0FC
:1011300070E083E190E081DB65C040E050E060E07A
:1011400070E081E190E066DC81115CC0C12CD12CA3
:101150007601C701B601C1D38091C404882321F070
:10116000A501C701B601C8DCA501C701B601DCD2E3
:10117000FFEFCF1ADF0AEF0AFF0A82E0C816D10498
:10118000E104F10431F710923B0410923A0480918B
:101190003704909138040E94362534C081E090E0F5
:1011A0009093C6048093C50440E050E060E070E096
:1011B00086E190E037CF81E0D8018C9323C08D8504
:1011C0009E85B8DB009731F42FEF3FEFA90161E076
:1011D00070E012C0FC012081318142815381CA013B
:1011E000B9012B8B3C8B4D8B5E8BFFD62B893C89B9
:1011F0004D895E8960E070E08EE190E023DC02C002
:10120000C5017CDB66960FB6F894DEBF0FBECDBF7E
:10121000DF91CF911F910F91FF90EF90DF90CF90D2
:10122000BF90AF909F908F907F906F905F904F9006
:101230000895CF92DF92EF92FF92CF93DF93EC016C
:10124000C12CD12C7601C701B60147D3AE01C7012D
:10125000B60152DCAE01C701B60166D280913304FB
:1012600090913404009731F00E94812D1092340443
:10127000109233048FEFC81AD80AE80AF80A82E0FD
:10128000C816D104E104F104F1F680913A048823F0
:1012900059F040E050E060E070E084E190E0BADBBB
:1012A000C82F10923A0401C0C0E080913B0488230B
:1012B00041F010923B0421E030E03093C9022093CA
:1012C000C80280913704909138040E94392580919A
:1012D0003704909138040E94CC258C2FDF91CF9158
:1012E000FF90EF90DF90CF900895CF93DF93EC01C4
:1012F000AC0160E070E0CB010E94F013AE0161E050
:1013000070E080E090E0DF91CF910C94F01360E00A
:1013100070E0CB010E94551461E070E080E090E045
:101320000C945514CF92DF92EF92FF920F931F937C
:10133000CF93DF93EC016A017B0100E010E098019C
:10134000A4D601E010E020E030E0B701A601CE0114
:101350009CD6DF91CF911F910F91FF90EF90DF907E
:10136000CF900895EF92FF920F931F93CF93DF9347
:10137000DC01EA01F90114968D919C911597129662
:101380000D911C911397080F191F28813981189608
:101390004D915C9119974217530728F04D915C913C
:1013A0001197452B59F17801E21AF30A18964D91DD
:1013B0005C911997481B590B4E0D5F1D4617570737
:1013C000B4F1A901460F571F4017510700F1F182F0
:1013D000E082338322836E197F0975836483161636
:1013E00017061CF030E020E002C0382F292F36838A
:1013F0002783680F791F7983688317C018968D91AA
:101400009C911997821B930B8617970784F0718321
:101410006083338322831582148217821682888127
:101420009981860F971F9983888380E001C081E0AE
:10143000DF91CF911F910F91FF90EF900895CF937F
:10144000DF9324E4269FE001279FD00D1124C45C84
:10145000DB4F8AA99BA9009721F00E94812D1BAA2E
:101460001AAA8EA99FA9009711F00E94812D1B8AAC
:101470001A8A1E8A1F8A188E198E1A8E1B8E1C8E2F
:101480001D8E1E8E1F8E18A219A281E090E09BA3D4
:101490008AA31DA21CA21EA21FA218A619A61BA6E3
:1014A0001AA61DA61CA61EA61FA618AA19AA1BAA24
:1014B0001AAA1DAA1CAA1FAA1EAA19AE18AE1AAEF5
:1014C0001BAE1CAE1DAEFE01FE9610821182128272
:1014D0001382CE5BDF4F19821882DF91CF9108957E
:1014E000CF93DF93FB01DC01CD91DC91AE81BF8115
:1014F0008081918123E0880F991F2A95E1F7129648
:101500000D90BC91A02DA80FB91F6D917C911197E2
:1015100084859585880F991F0A80DB81C02DC80FAF
:10152000D91F0990D881C02D14968D919C91159743
:10153000892B19F082E090E002C081E090E08C9F5E
:1015400090018D9F300D9C9F300D112480859185D9
:10155000289FD001299FB00D389FB00D1124048021
:10156000F581E02D2E9FC0012F9F900D3E9F900D85
:101570001124860F971FFA0191838083B383A2837E
:10158000DF91CF9108952F923F924F925F926F9289
:101590007F928F929F92AF92BF92CF92DF92EF9203
:1015A000FF920F931F93CF93DF9300D000D0CDB75E
:1015B000DEB7DC011496ED91FC9115970190F08156
:1015C000E02D808591859A838983A281B381BC8334
:1015D000AB83DB018D909D90AD90BD90C12CD12C43
:1015E0007601C814D904EA04FB040CF060C0149618
:1015F0004D905D906D907C90179718964D915D91F0
:101600006D917C911B97FD017096FE83ED838D910A
:101610009C91119763E0880F991F6A95E1F7E98122
:10162000FA8122813381280F391FF901208031800E
:101630001C96ED91FC911D97EE0FFF1F8B819C81F5
:10164000E80FF91F0190F081E02DD90114968D91DA
:101650009C911597892B19F082E090E002C081E0FF
:1016600090E08E9F90018F9F300D9E9F300D112432
:10167000249F8001259F100D349F100D1124249D5F
:10168000C001259D900D349D900D1124A8016D8100
:101690007E81820D931D0E94102EAD81BE81A00F10
:1016A000B11FEFEFCE1ADE0AEE0AFE0A9ACF269697
:1016B0000FB6F894DEBF0FBECDBFDF91CF911F9163
:1016C0000F91FF90EF90DF90CF90BF90AF909F90E1
:1016D0008F907F906F905F904F903F902F900895E4
:1016E000CF93DF9324E4269FF001279FF00D112470
:1016F000E45CFB4FDB01AA53BD4F3C91332329F03F
:10170000EF0119922A95E9F71C921482158216822C
:1017100017821186108613861286118A108A178600
:101720001686DF91CF918BCE2F923F924F925F9290
:101730006F927F928F929F92AF92BF92CF92DF92E1
:10174000EF92FF920F931F93CF93DF9300D01F92DE
:10175000CDB7DEB76B017C011A0184E48C9D90014A
:101760008D9D300D1124245C3B4F3C832B83F9016C
:1017700084819581A681B781892B8A2B8B2B09F4D3
:1017800095C0A12CB12C412C512C3201AB81BC81D4
:1017900014964D915D916D917C91179718968D914E
:1017A0009C91199744165506660677068CF5FC0140
:1017B000EA0DFB1D32812381032F122F812C912CE6
:1017C00082149304C4F4D801ED91FC91309769F030
:1017D000848195812A8339830E94812DF80180813B
:1017E00091810E94812D39812A81FFEF8F1A9F0AF2
:1017F0000E5F1F4FE5CF832F922F0E94812D2FEF79
:10180000421A520A620A720A34E0A30EB11CBECF19
:101810000E94812DEB81FC8182859385892BE1F0EB
:10182000A12CB12C00E010E0AB81BC811A968D9107
:101830009C911B97021513056CF4FC01EA0DFB1D2E
:10184000848195810E94812D0F5F1F4FFEE0AF0EB6
:10185000B11CEACF0E94812DEB81FC8180899189A6
:101860000E94812DAB81BC811E968D919C911F970A
:101870000E94812DC701B601E2DDC701B6010F90BC
:101880000F900F900F90DF91CF911F910F91FF90CC
:10189000EF90DF90CF90BF90AF909F908F907F9010
:1018A0006F905F904F903F902F901ACF0F900F90B6
:1018B0000F900F90DF91CF911F910F91FF90EF90BC
:1018C000DF90CF90BF90AF909F908F907F906F9060
:1018D0005F904F903F902F90089524E4269FF00151
:1018E000279FF00D1124E45CFB4F828993890497B4
:1018F000029758F485E090E0938B828B8FEF9FEFF7
:10190000DC01828F938FA48FB58F08952F923F9221
:101910004F925F926F927F928F929F92AF92BF92FF
:10192000CF92DF92EF92FF920F931F93CF93DF93AB
:10193000CDB7DEB7AA970FB6F894DEBF0FBECDBF06
:101940009AA389A31B016A010B8B1C8B2D8B3E8BE9
:1019500084E42B893C89829F8001839F100D112490
:10196000045C1B4F2B893C894D895E89D8012D93DE
:101970003D934D935C931397AB016B897C898D8963
:101980009E89D2DEF60141915191619171917F0161
:10199000CA01D80114964D935D936D937C9317976C
:1019A00064E070E00E94CF2CF80191878087892B3A
:1019B00009F46DC118A21F8E1B8E1C8E1D8E1E8EEB
:1019C000F80184819581A681B7812B8D3C8D4D8D49
:1019D0005E8D281739074A075B070CF0D1C0D80184
:1019E00018960D90BC91A02D2F8D38A1A20FB31F7A
:1019F000BA8BA98BD7018D919C91880F991FA9A1B2
:101A0000BAA1ED91FC91E80FF91F80819181E989DC
:101A1000FA8991838083D70114962D913D914D9140
:101A20005C9117972BA33CA34DA35EA3B8E0EB0EEC
:101A3000F11C62E070E0C1010E94CF2CE989FA89B3
:101A400093838283892B09F422C11F8A188E198EF1
:101A50001A8E2F89388D498D5A8D8BA19CA1ADA1ED
:101A6000BEA1281739074A075B070CF018C1D70138
:101A7000CD90DC90CC0CDD1CE989FA89A280B38082
:101A8000AC0CBD1C68E070E081E090E00E94CF2CBF
:101A9000D5018D939C93A989BA891296ED91FC91F9
:101AA0001397EC0DFD1D808091808114910409F441
:101AB000EEC0F7014481558166817781CA01D40166
:101AC0004D935D936D937C931397B8E0EB0EF11CEF
:101AD00064E070E00E94CF2CF40195838483892B0D
:101AE00009F4D5C0A12CB12C412C512C3201F401A8
:101AF00080819181A281B381481659066A067B06CE
:101B000094F5D4011496CD90DC901597CA0CDB1C8B
:101B1000F701DE01119680E101900D928A95E1F7BF
:101B2000B0E1EB0EF11CA601BE016F5F7F4FE9A192
:101B3000FAA184819581D4DCD40116968D919C9173
:101B40001797F60122813381820F931F17969C937A
:101B50008E931697FFEF4F1A5F0A6F0A7F0A24E0F1
:101B6000A20EB11CC4CF2F89388D498D5A8D2F5F9D
:101B70003F4F4F4F5F4F2F8B388F498F5A8F69CF11
:101B80006EE070E0C1010E94CF2CD8011B969C939F
:101B90008E931A97612C712C812C912CA12CB12C35
:101BA00044244394512C821493040CF050C0F70148
:101BB00041915191619171917F01CA01D8011A96A9
:101BC000CD90DC901B97C60CD71C57FD60C0F6016A
:101BD00051824082009791F04FA358A769A77AA736
:101BE0000E94E92CD60115969C938E9314974FA1D1
:101BF00058A569A57AA5892B21F449C0F60115825B
:101C00001482D60113965C934E93129714968D917D
:101C10009C91159717969C938E93169719969C9363
:101C20008E9318971B961C921E921A9781E090E053
:101C3000452B462B472B11F480E090E0A80EB91EEF
:101C4000BFEF8B1A9B0AEEE06E0E711CACCFD80171
:101C50001D961C921E921C97C501F3E0880F991FD8
:101C6000FA95E1F70E94E92CF801918B808B892B82
:101C700071F0C501880F991F0E94E92CD8011F96A9
:101C80009C938E931E97892B11F080E01BC0A101BD
:101C90006B897C898D899E8947DD81E013C02B8DFE
:101CA0003C8D4D8D5E8D2F5F3F4F4F4F5F4F2B8F84
:101CB0003C8F4D8F5E8F2F8D38A12C5F3F4F38A307
:101CC0002F8F7ECEAA960FB6F894DEBF0FBECDBF83
:101CD000DF91CF911F910F91FF90EF90DF90CF9008
:101CE000BF90AF909F908F907F906F905F904F903C
:101CF0003F902F9008953F924F925F926F927F9204
:101D00008F929F92AF92BF92CF92DF92EF92FF920B
:101D10000F931F93CF93DF93CDB7DEB764970FB6C2
:101D2000F894DEBF0FBECDBF4C01FB01298B3A8B6F
:101D30004B8B5C8B84E4829F8001839F100D112468
:101D4000025B1B4F80819181D80113969C938E93E7
:101D50001297448155816681778114964D935D93E6
:101D60006D937C931797408551856285738518968E
:101D70004D935D936D937C931B9744855585668544
:101D800077851C964D935D936D937C931F97408947
:101D90005189628973895C964D935D936D937C93B1
:101DA0005F977F01B4E1EB0EF11C141615060CF0E1
:101DB0005DC0CA01880F991F880F991F0E94E92CE6
:101DC000F80191A380A3892B09F499C0A12CB12C0F
:101DD000412C512C320130E1332EB301A2012FEFFF
:101DE000421A520A620A720AF801848D958DA68DF4
:101DF000B78D481759076A077B0764F5D801909695
:101E0000CD90DC909197CA0CDB1CF701DE01119696
:101E1000832D01900D928A95E1F7B0E1EB0EF11C54
:101E2000A601BE016F5F7F4FF4018481958158DB6D
:101E3000D80192968D919C919397F60122813381DE
:101E4000820F931F93969C938E939297F4E0AF0E1C
:101E5000B11CC3CF82A193A10E94E92CD801959611
:101E60009C938E939497892B09F449C0F701808144
:101E70009181A281B381AC01BD014D7F21E030E0B1
:101E8000452B462B472B11F020E030E0F801318B39
:101E9000208B0197A109B10921E030E00297A1054B
:101EA000B10510F020E030E0D80153963C932E931A
:101EB0005297F70184819581A681B781F801848BBF
:101EC000958BA68BB78B84859585A685B785B7FF3F
:101ED00010C0B095A095909581959F4FAF4FBF4F83
:101EE00080A791A7A2A7B3A7148615861686178682
:101EF0000DC0F80110A611A612A613A607C0698985
:101F00007A898B899C899BDA81E001C080E06496A4
:101F10000FB6F894DEBF0FBECDBFDF91CF911F91FA
:101F20000F91FF90EF90DF90CF90BF90AF909F9078
:101F30008F907F906F905F904F903F900895CF93D8
:101F4000DF9324E4269FF001279FF00D1124E45C29
:101F5000FB4F1092C40415A614A620E030E080E0E8
:101F600090E0C1E0D0E08417950714F5A285B38511
:101F7000A20FB31F12966D917C9113971616170638
:101F80009CF414966D917C91159717967C936E93A3
:101F9000169719967C936E9318971B961C921E9217
:101FA0001A971196DC93CE930196225F3F4FDBCFB9
:101FB00013A612A611AE10AEDF01DE961D921D9281
:101FC0001D921C92139782E090E0938B828BDF919D
:101FD000CF91089524E4269FF001279FF00D11244E
:101FE000E45CFB4F138A128A9FCB24E4269FF00106
:101FF000279FF00D1124E45CFB4F82899389813087
:102000009105C8F08530910518F0059769F008959D
:102010008FEF9FEFDC01828F938FA48FB58F85E0C8
:1020200090E0938B828B08958FEF9FEFDC01828F7E
:10203000938FA48FB58F089524E4249FF001259FEA
:10204000F00D1124E45CFB4F2EE0AC01249FC00195
:10205000259F900D11240284F385E02DE80FF91FD0
:1020600081E08093C4048285938591878087408531
:1020700051852681378181E090E04217530711F0A6
:1020800080E090E09183808308952F923F924F9259
:102090005F926F927F928F929F92AF92BF92CF92F8
:1020A000DF92EF92FF920F931F93CF93DF93CDB701
:1020B000DEB7C454D1090FB6F894DEBF0FBECDBF52
:1020C00098AF8FAB4BA75CA76DA77EA723960CAFED
:1020D0001DAF2EAF3FAF239784E421962EAD3FADC9
:1020E0002197829F1001839F300C1124C101845CD1
:1020F0009B4F1C01DC011A960D90BC91A02D2596DA
:10210000BFAFAEAF2597FC0182899389029709F092
:1021100018C186A597A5A0A9B1A9892B8A2B8B2BBD
:1021200029F484E090E0938B828B0BC1D1018489E8
:102130009589EFA9F8ADE817F90709F002C1D6961D
:102140000D911C91D7971AAE19AE412C512C32012A
:10215000F10186A597A5A0A9B1A9481659066A0656
:102160007B060CF0D0C0D101D2960D90BC91A02D71
:10217000E9ADFAADAE0FBF1FBAABA9AB12962D9168
:102180003C9113973CAF2BAF369527953695279505
:102190003EAF2DAFD101D8968D919C91D997892BC7
:1021A00009F495C09696CD90DD90ED90FC909997AE
:1021B00018AB0FA7E9A9FAA90190F081E02DFCABBB
:1021C000EBAB1EAA1DAAEDA9FEA92DAD3EADE217EF
:1021D000F3070CF07CC0D10192968D919C9193975E
:1021E000892B79F1EBA9FCA980809180A280B38032
:1021F000A7019601C501B4010E943C2C87FD0CC0CB
:10220000A7019601AFA5B8A96D917D918D919C9183
:102210000E94862B87FD7CC0A7019601C501B401F1
:102220000E943C2C18166CF4A7019601EFA5F8A9A2
:1022300060817181828193810E94862B882309F4B9
:1022400067C0D10194968D919C919597892B71F1DE
:10225000EBA9FCA980809180A280B380A7019601A0
:10226000C501B4010E94862B87FF0CC0A70196010F
:10227000AFA5B8A96D917D918D919C910E943C2C48
:1022800087FF46C0A7019601C501B4010E94862BB5
:1022900081110CC0A7019601EFA5F8A96081718199
:1022A000828193810E943C2C181694F12DA93EA99D
:1022B0002F5F3F4F3EAB2DAB8FA598A9049698ABEF
:1022C0008FA7ABA9BCA91496BCABABAB7CCFA9A91B
:1022D000BAA96D917C914BAD5CADC8010E94102EE6
:1022E0008DAD9EAD880F991F880F991F080F191F7C
:1022F000BFEF4B1A5B0A6B0A7B0AE9ADFAAD349665
:10230000FAAFE9AF25CF81E090E091AF80AF19C07F
:10231000F101868D978DA0A1B1A1892B8A2B8B2BE2
:1023200009F03AC284E090E0D10153969C938E93D9
:102330005297DE968D919C91DF979B969C938E93FE
:102340009A97D10152968D919C9153978230910525
:1023500089F4DA968D919D910D90BC91A02D18165F
:1023600019061A061B060CF021C2E1E0F0E0F8ABFA
:10237000EFA705C0049709F019C218AA1FA68EE09E
:102380002FA938AD829F5001839FB00C1124259650
:102390008EAD9FAD2597A80EB91ED50112964D9111
:1023A0005C9113974115510509F400C216968D9161
:1023B0009C9117979AA789A7FE01319684E1DF01C6
:1023C0001D928A95E9F723968CAD9DADAEADBFAD5C
:1023D0002397898B9A8BAB8BBC8BAFA5B8A9AB2B02
:1023E00009F448C04101BEE38B0E911CF401C0808A
:1023F000D180E280F380F10182AD93ADA4ADB5ADA3
:10240000C816D906EA06FB06A9F5D50114966D9102
:102410007C91159718960D90BC91A02D14960D9156
:102420001D912D913C911797C8010D8B1E8B2F8B01
:10243000388F08969E8B8D8BF50120853185280F6E
:10244000391F3187208780859185460F571F841B50
:10245000950B97FD04C0680F791F71876087F1E0C5
:10246000CF1AD108E108F108D401CD92DD92ED92A6
:10247000FC9213979E012B5E3F4FAE01475D5F4F6D
:1024800064E170E0C5010E94B209082F10E0011557
:10249000110509F06DC18CE090E0A0E0B0E08D8303
:1024A0009E83AF83B8879E01235E3F4FAE01475D99
:1024B0005F4F64E070E0C5010E94B209082F10E090
:1024C0000115110509F054C180E190E0A0E0B0E0F1
:1024D0008D839E83AF83B8874D8D5E8DBE01655D14
:1024E0007F4F8F8D98A10E94102E8BA19CA10097E9
:1024F00061F06D8D7E8DEBE2F0E0EC0FFD1F6E0F55
:102500007F1F49A15AA10E94102E1DA21EA21FA228
:1025100018A62FA938AD220F331F3EAB2DABCDA08F
:10252000DEA0EFA0F8A4F10184819581A681B78196
:10253000C816D906EA06FB060CF0CBC0D1011896E6
:10254000ED91FC911997C601880F991F880F991F6B
:10255000E80FF91FA081B1818C91882309F4AFC0E5
:10256000833009F4ACC00280F381E02D2DA93EA98F
:10257000E20FF31F808191819CAB8BAB892B09F417
:102580009EC089859A85AB85BC850196A11DB11D2C
:1025900089879A87AB87BC879E01235E3F4FAE0138
:1025A000475D5F4F64E070E0C5010E94B20990E0B2
:1025B000009709F0DCC08D819E81AF81B8850496BB
:1025C000A11DB11D8D839E83AF83B8874D8D5E8D18
:1025D000BE016B5D7F4F8F8D98A10E94102E8BA145
:1025E0009CA1009761F06D8D7E8DA5E2B0E0AC0FEF
:1025F000BD1F6A0F7B1F49A15AA10E94102E1AAA63
:1026000019AA412C512C3201EBA9FCA9808191819E
:10261000A281B381481659066A067B060CF04FC0AA
:10262000EBA9FCA98480958029A93AA9820E931E62
:10263000D40112966D917C9113979E01235E3F4FBA
:10264000AE01475D5F4FC5010E94B20990E000975F
:1026500009F08DC0F40142815381662757FD6095D2
:10266000762F8D819E81AF81B885840F951FA61F1F
:10267000B71F8D839E83AF83B887608171814D8D35
:102680005E8D8F8D98A10E94102E8BA19CA100972A
:1026900059F0D4016D917C912D8D3E8D620F731F89
:1026A00049A15AA10E94102EBFEF4B1A5B0A6B0A78
:1026B0007B0AE9A9FAA93496FAABE9ABA5CFFFEFFB
:1026C000CF1ADF0AEF0AFF0ACDA2DEA2EFA2F8A618
:1026D00026CF89859A85AB85BC85892B8A2B8B2B48
:1026E00009F446C08AE190E0A0E0B0E089839A83D3
:1026F000AB83BC832FA938ADC901AA2797FDA0954C
:10270000BA2F8D879E87AF87B88B4D895E89BE01B2
:102710006F5F7F4F8F89988D0E94102E8B8D9C8DBF
:10272000009761F06D897E89A1E0B0E0AC0FBD1F1C
:102730006A0F7B1F498D5A8D0E94102E89A59AA57C
:10274000F50197838683118210822FA538A9232B48
:1027500069F1F101FE9680819181A281B381019698
:10276000A11DB11D80839183A283B3831FC08C01FF
:102770008FA598A9892BD1F4012BC1F081E090E0BD
:10278000D1019D969C938E939C9785E090E0539603
:102790009C938E9352970AC083E090E0F101938B53
:1027A000828B81E090E093A782A7CBCDCC5BDF4FFB
:1027B0000FB6F894DEBF0FBECDBFDF91CF911F9152
:1027C0000F91FF90EF90DF90CF90BF90AF909F90D0
:1027D0008F907F906F905F904F903F902F900895D3
:1027E000CF92DF92EF92FF920F931F93CF93DF93DD
:1027F00024E4269FE001279FD00D1124C45CDB4F09
:102800002A893B892115310509F446C0213031055B
:10281000A9F4CAA4DBA496012F5F3F4F3BA72AA7C8
:10282000EE24D7FCE094FE2C0A8D1B8D2C8D3D8D63
:10283000C016D106E206F30679F581DB8A899B8909
:10284000039751F54AA55BA5CA0101969BA78AA7E4
:10285000662757FD6095762F8E8D9F8DA8A1B9A113
:10286000481759076A077B07BCF08EAD9FAD9BA741
:102870008AA784E090E09B8B8A8B8AAD9BADACAD40
:10288000BDAD181619061A061B0634F4CE5BDF4FD1
:1028900081E090E099838883DF91CF911F910F9120
:1028A000FF90EF90DF90CF90089524E4269FF001F1
:1028B000279FF00D1124E45CFB4F828993890497D4
:1028C000B9F442A553A54F5F5F4F53A742A76627B0
:1028D00057FD6095762F86899789A08DB18D481711
:1028E00059076A077B0721F485E090E0938B828B80
:1028F00008952F923F924F925F926F927F928F92A4
:102900009F92AF92BF92CF92DF92EF92FF920F937E
:102910001F93CF93DF9300D01F92CDB7DEB74983CB
:102920005A836B837C83490124E4249F8001259F83
:10293000100D1124045C1B4FD80152966D907C90B1
:1029400053979301245031092230310508F0BCC05F
:102950001D961C921E921C97FC01118210821382FC
:102960001282A12CB12C20E030E0281539050CF0A2
:1029700067C0D8011A962D903C901B972A0C3B1CDF
:10298000F10140815181452B09F054C0608571856A
:1029900042805380468157811C96ED90FC901D9794
:1029A0006701F3E0CC0CDD1CFA95E1F75096ED9150
:1029B000FC915197EC0DFD1D6701CC0CDD1C1E96A2
:1029C000ED90FC901F97EC0CFD1CD7012D933C93D0
:1029D000D8011C96ED90FC901D97BFEFEB1AFB0AF7
:1029E000D8011D96FC92EE921C9773836283D101ED
:1029F0001B965C934E931A976417750748F4461B11
:102A0000570B51834083158214821782168212C09D
:102A1000D1011496CD90DC9015977601E40CF51C4D
:102A2000E61AF70AF182E0824C195D095583448366
:102A3000D782C6822F5F3F4FBEE0AB0EB11C95CF51
:102A4000F80124853585DC0111963C932E9340894D
:102A5000518913965C934E93129746855785159628
:102A60005C934E931497232BD1F5B5E06B1671044C
:102A7000B1F51092C404828D938DA48DB58DAE01F5
:102A80004F5F5F4F64E070E08F3F9F4FAF4FBF4F8E
:102A900059F480E290E00E940A0569817A818B8175
:102AA0009C81A40197DA1BC08FE190E00E940A0587
:102AB000D8019B961C921E929A9781E090E05396C3
:102AC0009C938E9352970BC0F80115861486DC01F7
:102AD00011961C921E9213961C921E9212970F90A2
:102AE0000F900F900F90DF91CF911F910F91FF905A
:102AF000EF90DF90CF90BF90AF909F908F907F909E
:102B00006F905F904F903F902F900895EF92FF92BB
:102B10000F931F93CF93DF937C018B01EA010E94F7
:102B20007605811121C08091C8029091C902049755
:102B300011F183E090E09093C9028093C8021BC01A
:102B400088818111F0CF28ED38EB45E050E060E05E
:102B500070E0CB010E941206AE01B801C7010E94CD
:102B60002106C8010E94EC058091C5049091C6041D
:102B7000892B31F3D8CFDF91CF911F910F91FF9027
:102B8000EF900895CF93DF93EB012091C80230912D
:102B9000C9022430310539F00E942106CE01DF91AF
:102BA000CF910C94EC05DF91CF9108950C9492098C
:102BB0000C9487090C9475090C94FC050C94190964
:102BC000089560E070E080E090E00C944E05089578
:102BD000AF92BF92CF92DF92EF92FF920F931F932B
:102BE000CF93DF931F921F92CDB7DEB75C016901CF
:102BF0007A018B0180E090E0C114D104E104F1047A
:102C0000F1F0C114D10421E0E206F10410F4A601B0
:102C100002C04FEF5FEF9E012F5F3F4FB801C5012C
:102C20000E94E6268F3F2FEF920749F029813A81D3
:102C3000C21AD30AE108F108020F131FDDCF0F906B
:102C40000F90DF91CF911F910F91FF90EF90DF9048
:102C5000CF90BF90AF900895AF92BF92CF92DF9286
:102C6000EF92FF920F931F93CF93DF931F921F92C8
:102C7000CDB7DEB75C0169017A018B0180E090E09D
:102C8000C114D104E104F104F1F0C114D10421E034
:102C9000E206F10410F4A60102C04FEF5FEF9E01BF
:102CA0002F5F3F4FB801C5010E9424278F3F2FEFB0
:102CB000920749F029813A81C21AD30AE108F10842
:102CC000020F131FDDCF0F900F90DF91CF911F9157
:102CD0000F91FF90EF90DF90CF90BF90AF9008954D
:102CE00008951F920F920FB60F9211240BB60F92F8
:102CF0002F933F934F935F936F937F938F939F9304
:102D0000AF93BF93EF93FF938091CB049091CC044A
:102D1000892B29F0E091CB04F091CC041995FF9117
:102D2000EF91BF91AF919F918F917F916F915F9143
:102D30004F913F912F910F900BBE0F900FBE0F90B0
:102D40001F9018951F920F920FB60F9211240BB679
:102D50000F922F933F934F935F936F937F938F9334
:102D60009F93AF93BF93EF93FF938091CD04909186
:102D7000CE04892B29F0E091CD04F091CE04199571
:102D8000FF91EF91BF91AF919F918F917F916F9143
:102D90005F914F913F912F910F900BBE0F900FBEFF
:102DA0000F901F9018951F920F920FB60F9211243B
:102DB0000BB60F922F933F934F935F936F937F9335
:102DC0008F939F93AF93BF93EF93FF938091CF0423
:102DD0009091D004892B29F0E091CF04F091D00498
:102DE0001995FF91EF91BF91AF919F918F917F9135
:102DF0006F915F914F913F912F910F900BBE0F906C
:102E00000FBE0F901F9018951F920F920FB60F9242
:102E100011240BB60F922F933F934F935F936F93B1
:102E20007F938F939F93AF93BF93EF93FF93809183
:102E3000D1049091D204892B29F0E091D104F09132
:102E4000D2041995FF91EF91BF91AF919F918F910E
:102E50007F916F915F914F913F912F910F900BBE9A
:102E60000F900FBE0F901F9018951F920F920FB6E4
:102E70000F9211240BB60F922F933F934F935F93B2
:102E80006F937F938F939F93AF93BF93EF93FF9332
:102E90008091C7049091C804892B29F0E091C70460
:102EA000F091C8041995FF91EF91BF91AF919F9157
:102EB0008F917F916F915F914F913F912F910F90E3
:102EC0000BBE0F900FBE0F901F9018951F920F9280
:102ED0000FB60F9211240BB60F922F933F934F937F
:102EE0005F936F937F938F939F93AF93BF93EF9372
:102EF000FF938091C9049091CA04892B29F0E09135
:102F0000C904F091CA041995FF91EF91BF91AF9157
:102F10009F918F917F916F915F914F913F912F91F1
:102F20000F900BBE0F900FBE0F901F9018951F9221
:102F30000F920FB60F9211240BB60F922F933F935F
:102F40004F935F936F937F938F939F93AF93BF93B1
:102F5000EF93FF938091D3049091D404892B29F0AF
:102F6000E091D304F091D4041995FF91EF91BF91B2
:102F7000AF919F918F917F916F915F914F913F9111
:102F80002F910F900BBE0F900FBE0F901F901895B2
:102F90001F920F920FB60F9211240BB60F922F9320
:102FA0003F934F935F936F937F938F939F93AF93D1
:102FB000BF93EF93FF938091D5049091D604892B12
:102FC00029F0E091D504F091D6041995FF91EF9185
:102FD000BF91AF919F918F917F916F915F914F9131
:102FE0003F912F910F900BBE0F900FBE0F901F902F
:102FF00018951F920F920FB60F9211242F933F93A3
:103000008F939F93AF93BF938091D8049091D904ED
:10301000A091DA04B091DB043091D70423E0230FB0
:103020002D3720F40196A11DB11D05C026E8230F00
:103030000296A11DB11D2093D7048093D8049093CC
:10304000D904A093DA04B093DB048091DC0490915E
:10305000DD04A091DE04B091DF040196A11DB11D35
:103060008093DC049093DD04A093DE04B093DF042E
:10307000BF91AF919F918F913F912F910F900FBE74
:103080000F901F9018953FB7F8948091DC049091B1
:10309000DD04A091DE04B091DF0426B5A89B05C035
:1030A0002F3F19F00196A11DB11D3FBF6627782F54
:1030B000892F9A2F620F711D811D911D42E0660FAD
:1030C000771F881F991F4A95D1F70895CF92DF92F5
:1030D000EF92FF92CF93DF936B017C01D4DFEB0182
:1030E000C114D104E104F10479F0FADDCCDF6C1BEA
:1030F0007D0B683E7340A0F381E0C81AD108E10857
:10310000F108C851DC4FECCFDF91CF91FF90EF90E9
:10311000DF90CF900895789484B5826084BD84B5A3
:10312000816084BD85B5826085BD85B5816085BDC2
:10313000EEE6F0E0808181608083E1E8F0E01082DB
:10314000808182608083808181608083E0E8F0E01C
:10315000808181608083E1EBF0E080818460808306
:10316000E0EBF0E0808181608083E1E9F0E0808144
:1031700082608083808181608083E0E9F0E08081EB
:1031800081608083E1EAF0E08081826080838081D9
:1031900081608083E0EAF0E0808181608083E1E209
:1031A000F1E0808182608083808181608083E0E2C1
:1031B000F1E0808181608083EAE7F0E080818460D3
:1031C0008083808182608083808181608083808130
:1031D000806880831092C1000895863308F086537A
:1031E00020917B00982F9870277F922B90937B00E3
:1031F00087702091CA0290E4299F90011124822BAC
:1032000080937C0080917A00806480937A00809122
:103210007A0086FDFCCF809178002091790090E0C3
:10322000922B089590E0FC013197E231F10508F00E
:103230004CC0EE57FF4F0C94C52C809180008F77C7
:1032400003C0809180008F7D8093800008958091DD
:103250008000877FF9CF84B58F7702C084B58F7DDA
:1032600084BD08958091B0008F7703C08091B00035
:103270008F7D8093B0000895809190008F7707C074
:10328000809190008F7D03C080919000877F809314
:10329000900008958091A0008F7707C08091A000D2
:1032A0008F7D03C08091A000877F8093A000089548
:1032B000809120018F7707C0809120018F7D03C00E
:1032C00080912001877F809320010895CF93DF9321
:1032D00090E0FC01E259FE4F2491FC01EC54FE4FBA
:1032E0008491882349F190E0880F991FFC01E25DE9
:1032F000FD4FA591B4918C5E9D4FFC01C591D49179
:103300009FB7611108C0F8948C91209582238C930B
:10331000888182230AC0623051F4F8948C91322F54
:10332000309583238C938881822B888304C0F89402
:103330008C91822B8C939FBFDF91CF9108950F9337
:103340001F93CF93DF931F92CDB7DEB7282F30E0C6
:10335000F901E85DFE4F8491F901E259FE4F1491A5
:10336000F901EC54FE4F04910023C1F0882319F0B9
:10337000698358DF6981E02FF0E0EE0FFF1FEC5EFC
:10338000FD4FA591B4919FB7F8948C91611103C042
:103390001095812301C0812B8C939FBF0F90DF91EB
:1033A000CF911F910F910895CF93DF93282F30E095
:1033B000F901E85DFE4F8491F901E259FE4FD49185
:1033C000F901EC54FE4FC491CC2389F081112ADF1E
:1033D000EC2FF0E0EE0FFF1FE650FE4FA591B491E9
:1033E0002C912D2381E090E021F480E002C080E068
:1033F00090E0DF91CF910895FC01818D228D90E0C6
:10340000805C9F4F821B91098F7399270895FC015F
:10341000918D828D981731F0828DE80FF11D858D89
:1034200090E008958FEF9FEF0895FC01918D828DBC
:10343000981761F0828DDF01A80FB11D5D968C9108
:10344000928D9F5F9F73928F90E008958FEF9FEF13
:103450000895FC01848DDF01A80FB11DA35ABF4F51
:103460002C91848D90E001968F739927848FA68983
:10347000B7892C93A089B1898C9180648C93938DAA
:10348000848D981306C00288F389E02D80818F7D9A
:1034900080830895CF93DF93EC01888D8823C1F05A
:1034A000EA89FB89808185FD05C0A889B9898C914D
:1034B00086FD0EC00FB607FCF5CF808185FFF2CFE9
:1034C000A889B9898C9185FFEDCFCE01C2DFE8CF05
:1034D000DF91CF910895CF92DF92FF920F931F93C8
:1034E000CF93DF931F92CDB7DEB76C01DC015B9603
:1034F0009C915B975C968C915C97981307C0509653
:10350000ED91FC915197808185FD31C0F601038DCD
:1035100010E00F5F1F4F0F731127F02EF601848DFF
:10352000F81210C00FB607FCF9CFD6015096ED91F6
:10353000FC915197808185FFF1CFC601698389DFB6
:103540006981ECCF838DE80FF11DE35AFF4F608353
:10355000D6015B960C935B975296ED91FC91539735
:1035600080818062808381E058968C930DC0D60163
:103570005696ED91FC91579760835096ED91FC9192
:10358000519780818064808381E090E00F90DF918B
:10359000CF911F910F91FF90DF90CF900895BF9230
:1035A000CF92DF92EF92FF92CF93DF93EC016A010B
:1035B0007B01B22EE889F98982E08083411581EE92
:1035C000580761057105A1F060E079E08DE390E0B6
:1035D000A70196010E94A32C2150310941095109EC
:1035E0005695479537952795211580E1380798F02E
:1035F000E889F989108260E874E88EE190E0A7011B
:1036000096010E94A32C2150310941095109569578
:10361000479537952795EC85FD853083EE85FF85A9
:103620002083188EEC89FD89B082EA89FB8980812C
:1036300080618083EA89FB89808188608083EA8950
:10364000FB89808180688083EA89FB8980818F7D06
:103650008083DF91CF91FF90EF90DF90CF90BF906C
:1036600008951F920F920FB60F9211240BB60F926E
:103670002F938F939F93EF93FF93E091F004F0913A
:10368000F1048081E091F604F091F70482FD12C00C
:1036900090818091F9048F5F8F732091FA048217D3
:1036A00051F0E091F904F0E0E052FB4F958F8093E8
:1036B000F90401C08081FF91EF919F918F912F912B
:1036C0000F900BBE0F900FBE0F901F9018951F927A
:1036D0000F920FB60F9211240BB60F922F933F93B8
:1036E0004F935F936F937F938F939F93AF93BF930A
:1036F000EF93FF9380EE94E0ACDEFF91EF91BF91EA
:10370000AF919F918F917F916F915F914F913F9179
:103710002F910F900BBE0F900FBE0F901F9018951A
:103720001092E3041092E20488EE93E0A0E0B0E08F
:103730008093E4049093E504A093E604B093E70437
:1037400080EC93E09093E1048093E00485EC90E0BA
:103750009093ED048093EC0484EC90E09093EF045C
:103760008093EE0480EC90E09093F1048093F00459
:1037700081EC90E09093F3048093F20482EC90E06B
:103780009093F5048093F40486EC90E09093F70412
:103790008093F6041092F9041092FA041092FB043C
:1037A0001092FC0408951F920F920FB60F921124ED
:1037B0000BB60F922F938F939F93EF93FF93E0910C
:1037C0008D05F0918E058081E0919305F09194052F
:1037D00082FD12C09081809196058F5F8F7320913A
:1037E0009705821751F0E0919605F0E0E358FA4F03
:1037F000958F8093960501C08081FF91EF919F91F5
:103800008F912F910F900BBE0F900FBE0F901F90B6
:1038100018951F920F920FB60F9211240BB60F92AC
:103820002F933F934F935F936F937F938F939F93C8
:10383000AF93BF93EF93FF938DE795E00ADEFF917F
:10384000EF91BF91AF919F918F917F916F915F9118
:103850004F913F912F910F900BBE0F900FBE0F9085
:103860001F9018951092800510927F0588EE93E0C6
:10387000A0E0B0E08093810590938205A09383053A
:10388000B093840580EC93E090937E0580937D0552
:103890008DEC90E090938A05809389058CEC90E004
:1038A00090938C0580938B0588EC90E090938E0527
:1038B00080938D0589EC90E09093900580938F051F
:1038C0008AEC90E090939205809391058EEC90E0C5
:1038D0009093940580939305109296051092970506
:1038E000109298051092990508951F920F920FB6A5
:1038F0000F9211240BB60F922F938F939F93EF93F8
:10390000FF93E0912A06F0912B068081E09130062A
:10391000F091310682FD12C09081809133068F5F55
:103920008F7320913406821751F0E0913306F0E056
:10393000E65EF94F958F8093330601C08081FF9139
:10394000EF919F918F912F910F900BBE0F900FBE13
:103950000F901F9018951F920F920FB60F9211247F
:103960000BB60F922F933F934F935F936F937F9379
:103970008F939F93AF93BF93EF93FF938AE196E06A
:1039800068DDFF91EF91BF91AF919F918F917F91F2
:103990006F915F914F913F912F910F900BBE0F90C0
:1039A0000FBE0F901F90189510921D0610921C06C6
:1039B00088EE93E0A0E0B0E080931E0690931F068F
:1039C000A0932006B093210680EC93E090931B0611
:1039D00080931A0685ED90E0909327068093260643
:1039E00084ED90E0909329068093280680ED90E086
:1039F00090932B0680932A0681ED90E090932D06FC
:103A000080932C0682ED90E090932F0680932E06F3
:103A100086ED90E090933106809330061092330645
:103A200010923406109235061092360608951F92B1
:103A30000F920FB60F9211240BB60F922F938F9304
:103A40009F93EF93FF93E091C706F091C8068081A2
:103A5000E091CD06F091CE0682FD12C0908180915A
:103A6000D0068F5F8F732091D106821751F0E091BD
:103A7000D006F0E0E954F94F958F8093D00601C04D
:103A80008081FF91EF919F918F912F910F900BBEAD
:103A90000F900FBE0F901F9018951F920F920FB6A8
:103AA0000F9211240BB60F922F933F934F935F9376
:103AB0006F937F938F939F93AF93BF93EF93FF93F6
:103AC00087EB96E0C6DCFF91EF91BF91AF919F919C
:103AD0008F917F916F915F914F913F912F910F90B7
:103AE0000BBE0F900FBE0F901F9018951092BA0644
:103AF0001092B90688EE93E0A0E0B0E08093BB0698
:103B00009093BC06A093BD06B093BE0680EC93E0F4
:103B10009093B8068093B70685E391E09093C4062E
:103B20008093C30684E391E09093C6068093C50614
:103B300080E391E09093C8068093C70681E391E00B
:103B40009093CA068093C90682E391E09093CC06D5
:103B50008093CB0686E391E09093CE068093CD06CA
:103B60001092D0061092D1061092D2061092D3066F
:103B70000895AF92BF92CF92DF92EF92FF920F9390
:103B80001F93CF93DF936C017B01C0E0D0E000E096
:103B900010E0F601EC0FFD1F4AE050E06281C70122
:103BA000D7D05C016EE2C70168D08A0D9B1D080F5B
:103BB000191F2196C330D10561F74AE050E0F601A4
:103BC0006581C701C5D0800F911FDF91CF911F91F3
:103BD0000F91FF90EF90DF90CF90BF90AF9008953E
:103BE00080ED93E090935507809354071092560709
:103BF0001092570710925807109259070895CF92C4
:103C0000DF92EF92FF920F931F93CF93DF936C019C
:103C10007A01EB01E60EF71E00E010E0CE15DF059D
:103C200061F06991D601ED91FC910190F081E02D58
:103C3000C6011995080F191FF1CFC801DF91CF9167
:103C40001F910F91FF90EF90DF90CF900895611535
:103C5000710581F0DB010D900020E9F7AD014150C5
:103C60005109461B570BDC01ED91FC910280F38159
:103C7000E02D199480E090E00895DC01ED91FC9135
:103C80000190F081E02D19948F929F92AF92BF9294
:103C9000CF92DF92EF92FF920F931F93CF93DF9318
:103CA000CDB7DEB7A1970FB6F894DEBF0FBECDBF7C
:103CB0007C01C42EE52FCB01D22E19A221E02D15B7
:103CC00010F02AE0D22E8E010F5D1F4F8D2C912C0B
:103CD000A12CB12C6C2D7E2FA50194010E94A32C48
:103CE0008C2DD29E80191124015011098A3014F4B0
:103CF000805D01C0895CF801808321153105410593
:103D0000510521F0C22EE32FCA01E4CFB801C7014B
:103D10009EDFA1960FB6F894DEBF0FBECDBFDF9138
:103D2000CF911F910F91FF90EF90DF90CF90BF90B8
:103D3000AF909F908F9008952115310541F4DC01DB
:103D4000ED91FC910190F081E02D642F19949CCFAE
:103D50009A01462F50E060E070E0EECF8230A9F08B
:103D600028F4882349F0813051F00895843009F116
:103D7000E8F0853009F1089510926E000895809161
:103D80006F008D7F80936F000895809170008D7F0C
:103D90008093700081E08093B0008091B100887FB3
:103DA00084608093B1001092B30008951092710066
:103DB0000895109272000895109273000895CF93A1
:103DC000C82F8091CB028C1307C0E8E4F2E0849105
:103DD0009FEF9093CB0201C08FEFC0DF60E08C2F8C
:103DE000CF91ADCA1F920F920FB60F9211240BB64E
:103DF0000F922F933F934F935F936F937F938F9384
:103E00009F93AF93BF93EF93FF9380915D07909142
:103E10005E07A0915F07B0916007892B8A2B8B2BDF
:103E200051F190915A07E0915B07F0915C07808116
:103E30008927808380915D0790915E07A0915F073D
:103E4000B0916007181619061A061B06BCF480917B
:103E50005D0790915E07A0915F07B09160070197A1
:103E6000A109B10980935D0790935E07A0935F0756
:103E7000B093600703C08091CB02A1DFFF91EF9167
:103E8000BF91AF919F918F917F916F915F914F9172
:103E90003F912F910F900BBE0F900FBE0F901F9070
:103EA00018950C945D01862F60E010CA1F920F9246
:103EB0000FB60F9211240BB60F922F933F934F938F
:103EC0005F936F937F938F939F93AF93BF93EF9382
:103ED000FF938FE89DEF90932501809324010E942A
:103EE0003C2AFF91EF91BF91AF919F918F917F916C
:103EF0006F915F914F913F912F910F900BBE0F905B
:103F00000FBE0F901F9018958FE89DEF909325019D
:103F100080932401A3E7B0E08C918E7F8C93E0E244
:103F2000F1E080818C7F8083E1E2F1E08081877E17
:103F3000808380818460808380818C7F80838C916A
:103F400081608C930895CF92DF92EF92FF920F934E
:103F50001F93CF93DF93FC01DB01CA01B901C12C90
:103F6000D12C76011DE7C0E2C216D306E406F506A1
:103F7000C9F00C91033021F0D3E8D00FD23080F497
:103F80001083DC91DC27D18332966F5F7F4F8F4F98
:103F90009F4FDFEFCD1ADD0AED0AFD0A1196E4CF3F
:103FA0000193F7CFDF91CF911F910F91FF90EF9089
:103FB000DF90CF900895AF92BF92CF92DF92EF92B1
:103FC000FF920F931F93CF93DF93CDB7DEB72C975C
:103FD0000FB6F894DEBF0FBECDBF8C015B01FB01B5
:103FE0008181882309F486C08EE7F801808381836C
:103FF00083E085878687108A1786128A118A138A3A
:10400000148A158A168A178A22E030E040E050E0D0
:10401000B801C501D0D281116EC021E030E040E08E
:1040200050E0B8016E5F7F4FCE0101968CDF9B019F
:10403000AC01BE016F5F7F4FC501BDD281115BC076
:10404000F5012081F80183819481A581B68189875A
:104050009A87AB87BC87211108C02B859A858985F3
:104060003C8539872A879B878C8724E030E040E0B5
:1040700050E0BE01675F7F4FCE01019664DF9B0178
:10408000AC01BE016F5F7F4FC50195D2811133C076
:10409000C12CD12C7601F80183819481A581B68150
:1040A000C816D906EA06FB06D8F4F80167817085C0
:1040B0006C0D7D1D21E030E040E050E0CE01019626
:1040C00042DF9B01AC01BE016F5F7F4FC50173D220
:1040D000811111C0FFEFCF1ADF0AEF0AFF0ADBCF11
:1040E000B801635F7F4F22E030E040E050E0C5015F
:1040F00062D201C080E02C960FB6F894DEBF0FBEEE
:10410000CDBFDF91CF911F910F91FF90EF90DF9086
:10411000CF90BF90AF9008952F923F924F925F92B1
:104120006F927F928F929F92AF92BF92CF92DF92C7
:10413000EF92FF920F931F93CF93DF93CDB7DEB72C
:1041400027970FB6F894DEBF0FBECDBF7C016B0181
:104150001D8219821A821B821C82DB0111968C91AE
:10416000882309F4AAC18EE7F7018083818383E065
:1041700085878687108A1786128A118A138A148A7D
:10418000158A168A178A3396FF83EE8385E0482EB8
:10419000512C5701FDE0AF0EB11C47018FEF881A7B
:1041A000980A66246394712C170192E0290E311C41
:1041B0008E010F5F1F4F21E030E040E050E0BE0174
:1041C0006B5F7F4FC6014CD2811178C189819A8182
:1041D000AB81BC810197A105B10551F0D701509683
:1041E0001C921E921F9752961C921E92519765C167
:1041F000F7018785908902970397C8F497898D8185
:10420000992329F0178AF0E28F278D8310C08D370C
:1042100049F08E3739F1833051F4128A118A108AAD
:10422000178605C0E1E0D7015796EC93C1CFF7019F
:10423000878590898230910509F43FC02CF400975E
:1042400069F0019731F1B4CF8430910509F4BEC013
:104250000CF469C0059709F4F5C0AACF8D818E379B
:1042600009F0A6CFD70152969C928E9251978C93CB
:1042700053968D919D910D90BC91A02D0196A11DFD
:10428000B11DF701838B948BA58BB68B708A6786E3
:104290008FCF8D818E3709F00BC10188F289E02D17
:1042A0008083F701138A148A158A168A82E090E0C7
:1042B000908B8787328A218A7BCFF7018389948903
:1042C000A589B689892B8A2B8B2B09F0F1C001882F
:1042D000F289E02DCF010196D70152969C938E93DF
:1042E00051978D81808353968D919D910D90BC91B6
:1042F000A02D0196A11DB11DF701838B948BA58B79
:10430000B68B0197A105B10509F052CF83E090E08B
:10431000908B8787AE81BF81B28BA18B138A148A61
:10432000158A168A45CFF70183899489A589B689AC
:104330000497A105B10508F0BBC00188F289E02D02
:10434000CF010196D70152969C938E9351978D8100
:10435000808353968D919D910D90BC91A02D0196D7
:10436000A11DB11DF701838B948BA58BB68B049790
:10437000A105B10509F01CCFD6018C915381448170
:1043800035812681811103C0C901DA0104C0852F5E
:10439000942FA32FB22FF70183839483A583B68331
:1043A000138A148A158A168A892B8A2B8B2B49F03B
:1043B00084E090E0908B878787819085928B818BBA
:1043C000F7CE508A4786B28AA18AF2CEF701438996
:1043D00054896589768983819481A581B68148173E
:1043E00059076A077B0708F063C00188F289E02D4E
:1043F000CF010196D70152969C938E9351978D8150
:10440000808353968D919D910D90BC91A02D019626
:10441000A11DB11DF701838B948BA58BB68B4381B6
:1044200054816581768184179507A607B70709F03F
:10443000BFCE508A4786B28AA18A138A148A158A07
:10444000168AB6CEF70183899489A589B689029721
:10445000A105B10568F52D81233051F50188F28958
:10446000E02DCF010196D70152969C938E935197E0
:10447000208353968D919D910D90BC91A02D019616
:10448000A11DB11DF701838B948BA58BB68B029771
:10449000A105B10509F08CCE86E090E0908B87876E
:1044A000128A118A138A148A158A168A80E006C035
:1044B000F701128A118A108A178681E027960FB6B3
:1044C000F894DEBF0FBECDBFDF91CF911F910F914A
:1044D000FF90EF90DF90CF90BF90AF909F908F9024
:1044E0007F906F905F904F903F902F90089581E064
:1044F000809361071092620781E697E00895CF925A
:10450000DF92EF92FF920F931F93CF93DF938C0173
:104510007B016A01FC018181811121C06CE070E0A6
:1045200081E090E00E94CF2CEC019093640780938F
:1045300063070097A1F01A861B8681E0F80181834A
:10454000B601C70168D499838883E0916307F0912D
:10455000640780819181019621F4F801118281E044
:1045600001C080E0DF91CF911F910F91FF90EF90FC
:10457000DF90CF900895CF93DF93FC012181222318
:10458000B1F01182E0916307F0916407808191811D
:1045900039D4EC018091630790916407009711F082
:1045A0000E94812D81E0219619F080E001C081E018
:1045B000DF91CF910895FC018181882369F0E0911A
:1045C0006307F0916407808191810E94E81521E0E2
:1045D000019619F020E001C021E0822F08950F9389
:1045E0001F93CF93DF931F921F92CDB7DEB78B013E
:1045F0001A821982DC0111968C91811102C081E02E
:1046000028C0E0916307F09164078285882321F038
:1046100081E0FB0180831CC0DB011C92BF016E5F47
:104620007F4F9E012F5F3F4F48E050E08081918196
:104630000BD4019621F389819A81009749F091E08A
:10464000F8019083E0916307F091640782871386F5
:1046500080E00F900F90DF91CF911F910F910895FF
:104660008F929F92AF92BF92CF92DF92EF92FF9282
:104670000F931F93CF93DF935B0169017A01F801D8
:104680001082118212821382FC018181811102C089
:1046900081E032C0C0916307D09164078A85882386
:1046A000F1F090E049018217930708F44C016B8503
:1046B00070E06E5F7F4F6C0F7D1FA401C5010E94EB
:1046C000102E8A8588198A878B85880D8B87A80C80
:1046D000B91CA70196012819390941095109B501E9
:1046E000888199810E942C16019691F2F801C0826E
:1046F000D182E282F38280E0DF91CF911F910F910E
:10470000FF90EF90DF90CF90BF90AF909F908F90F1
:104710000895CF93DF93FB0120813181DC016D91FE
:104720007C91DA01A85BBF4F672B19F42115310585
:1047300031F0E901C85BDF4F5983488303C05183DF
:104740004083FC01518340831D921C92DF91CF91E5
:104750000895FC01DB018D919C912081318121150F
:10476000310519F4009709F40895D901A85BBF4FEA
:104770008D919C91119791838083892B19F4FB0172
:10478000118210821D921C92C901089520916C071C
:1047900030916D0780916E0790916F07892B19F406
:1047A00081E0232B09F080E0089520916807309183
:1047B000690780916A0790916B07892B19F481E052
:1047C000232B09F080E00895CF93DF93C5E0D0E07C
:1047D0006AE470E081E090E00E94CF2C009751F0F5
:1047E000AC016CE677E08EE697E093DF219781F7E6
:1047F00080E001C081E0DF91CF9108957F928F9298
:104800009F92AF92BF92CF92DF92EF92FF920F935F
:104810001F93CF93DF931F921F92CDB7DEB75C013A
:10482000BC0189E897E078DC782E811142C0809144
:104830008B07823019F4109270073BC0C0908C0730
:10484000D0908D07E0908E07F0908F0780909007B2
:10485000909091076CE677E08EE697E07ADF8C0126
:10486000A601B4010E94102EF801E05CFF4FEE2477
:10487000D7FCE094FE2CC082D182E282F38234968F
:104880001082118212821382A80168E677E08AE61C
:1048900097E03FDF7BDF81110CC002E010E09E015A
:1048A0002F5F3F4F40E050E060E070E0C50112D064
:1048B000782E872D0F900F90DF91CF911F910F9140
:1048C000FF90EF90DF90CF90BF90AF909F908F9030
:1048D0007F9008958F929F92AF92BF92CF92DF9276
:1048E000EF92FF920F931F93CF93DF9300D0CDB73A
:1048F000DEB76C014B0158017A014331510518F0C4
:1049000082E1E82EF12CF901F182E08200E010E072
:1049100080917007882379F1F2E0AF16B10459F164
:104920001B82BE016D5F7F4FC60159DE81113CC005
:104930008B81811104C02ADF811106C0E7CFC60137
:104940005DDF8823C1F330C0083C11051CF40F5F04
:104950001F4FDECF39DF811127C002E010E09E013A
:104960002F5F3F4F40E050E060E070E0C601B2DFF3
:10497000882361F219C0C701A0E0B0E080937407FA
:1049800090937507A0937607B0937707A09273076B
:10499000A701B40180917807909179070E94102EA9
:1049A000B60181E797E007DB0F900F900F90DF9142
:1049B000CF911F910F91FF90EF90DF90CF90BF901C
:1049C000AF909F908F900895CF93E0DE811108C043
:1049D0006CE677E08EE697E0BCDE0E94812DF5CF95
:1049E000E4DE811108C068E677E08AE697E0B1DE90
:1049F0000E94812DF5CF80919007909191070E94A0
:104A0000812DC8E1E9E8F7E0DF018C2F1D928A953E
:104A1000E9F780917807909179070E94812DE1E76D
:104A2000F7E0DF011D92CA95E9F71092690710922D
:104A3000680710926B0710926A0710926D07109228
:104A40006C0710926F0710926E0710927007CF914B
:104A5000089580E0089521E0FC0181819281892BF5
:104A600009F420E0FB01208380E008951092700794
:104A700008950F931F93CF93DF93EC0109811A815F
:104A80000115110529F0A0DFC80175DD1A82198210
:104A9000DF91CF911F910F9108958F929F92AF92C6
:104AA000BF92CF92DF92EF92FF920F931F93CF931B
:104AB000DF938C015B014A01C42FD92DEE24E394CE
:104AC000F12CEA14FB048CF4FFEFEF1AFF0A8A8141
:104AD0009B81009741F06AEF73E00E94202E892BA2
:104AE00011F41B821A822296ECCF81E0F8018083B8
:104AF000FEDCEC01009799F167DF80E490E069D774
:104B00009093790780937807892B39F190E4C92E27
:104B1000D12CE12CF12CC0927A07D0927B07E09245
:104B20007C07F0927D0780E490E053D79093910743
:104B300080939007892B89F0C0929207D0929307B7
:104B4000E0929407F09295073FDE811106C0A40120
:104B5000B501CE01D4DC882311F0C0E0D0E0F8012B
:104B6000D283C183CD2B19F080E090E002C082EDAA
:104B700093E0DF91CF911F910F91FF90EF90DF9025
:104B8000CF90BF90AF909F908F900895FC0180814F
:104B9000089585E697E0089508956F927F928F9229
:104BA0009F92AF92BF92CF92DF92EF92FF920F93BC
:104BB0001F93CF93DF931F921F92CDB7DEB77C0177
:104BC0005B018A014901FC01C180D280EEDD8823AE
:104BD000C9F01982BE016F5F7F4FC60100DD782EDC
:104BE000811188C08981882339F0C60107DE8111CF
:104BF00007C0DBDD882331F0F801118210827AC012
:104C0000782E78C0F701C180D28080916A07909198
:104C10006B07009731F4C601F1DD782E8823A9F3E4
:104C200069C07C01F4E4EF0EF11CF7014081518171
:104C3000628173813C01F0E46F0E711CF3012081ED
:104C40003181241B350BF801A216B3061CF0318309
:104C5000208302C0B182A082BC01640F751FF801DD
:104C600040815181C401DCD7F80180819181AA275C
:104C700097FDA095BA2FF701408151816281738120
:104C8000840F951FA61FB71F80839183A283B383D0
:104C9000F301408151816281738184179507A607D2
:104CA000B70739F573DD182FF301108211821282D4
:104CB0001382F701108211821282138268E677E074
:104CC0008AE697E046DDAC016CE677E08EE697E099
:104CD00020DD112371F002E010E09E012F5F3F4FB5
:104CE00040E050E060E070E0C601F4DD782E811114
:104CF00001C0712C872D0F900F90DF91CF911F91E4
:104D00000F91FF90EF90DF90CF90BF90AF909F906A
:104D10008F907F906F9008955F926F927F928F92A5
:104D20009F92AF92BF92CF92DF92EF92FF920F933A
:104D30001F93CF93DF931F921F92CDB7DEB76B0106
:104D40003A015901FC01818092801A821982E12C7A
:104D5000F12C55245394EC14FD04B4F401E010E05C
:104D60009E012F5F3F4FA6014E195F09B3016E0DE3
:104D70007F1DC401AFDD81110BC089819A81E80ECE
:104D8000F91E50927007E7CF80E0F501D182C08212
:104D90000F900F90DF91CF911F910F91FF90EF90A7
:104DA000DF90CF90BF90AF909F908F907F906F904B
:104DB0005F9008950895CF93DF93EC0189819A81E4
:104DC000DADB1A821982DF91CF9108950F931F9336
:104DD000CF93DF93EA018901F894E091E004F09128
:104DE000E1040280F381E02D80EE94E0199578943F
:104DF000F801D183C08380E090E0DF91CF911F91D3
:104E00000F91089568EE73E080E090E00E946618CC
:104E100080E090E008950E948B1826E040E052EC7C
:104E200061E070E080EE94E00E94CF1A80EE94E0A2
:104E30000E94FC19892B29F080EE94E00E94151A3B
:104E4000F5CF80E090E00895CF92DF92EF92FF924D
:104E50000F931F93CF93DF931F921F92CDB7DEB7AF
:104E60007A016901F9011182108280EE94E0698370
:104E70007A830E94FC1969817A81892BC9F08B01A0
:104E8000F601808191818E159F0590F480EE94E06B
:104E90000E94151A8F3FFFEF9F0791F3F80181934E
:104EA0008F01F60180819181019691838083E8CF03
:104EB00080E090E00F900F90DF91CF911F910F91C4
:104EC000FF90EF90DF90CF9008958091D10790E010
:104ED0002091D207821B910908952091D2078091D9
:104EE000D107281750F4E22FF0E0ED52F84F8081FF
:104EF00090E02F5F2093D20708958FEF9FEF0895E2
:104F0000E091D2078091D107E81730F4F0E0ED523C
:104F1000F84F808190E008958FEF9FEF08950895F6
:104F2000CF92DF92EF92FF920F931F93CF93DF9375
:104F30007C01CB018A012091AD07222389F0EB018E
:104F40006B01C40ED51ECC15DD0561F06991D7014A
:104F5000ED91FC910190F081E02DC7011995F3CFFF
:104F6000642F33D1C801DF91CF911F910F91FF9032
:104F7000EF90DF90CF900895CF93DF931F92CDB73E
:104F8000DEB769832091AD072223D1F02091AE07CF
:104F9000203240F021E030E0FC013383228380E0C6
:104FA00090E014C08091AF07E82FF0E0E055F84F93
:104FB000998190838F5F8093AF078093AE0704C081
:104FC00061E0CE01019601D181E090E00F90DF9188
:104FD000CF910895FC011382128248EE53E060E005
:104FE00070E0448355836683778381E094E0918306
:104FF000808308951092D2071092D1071092AF07C4
:105000001092AE072DC0862F413208F040E263EDCA
:1050100077E044D01092D2078093D107089521E021
:10502000F2CF81E08093AD076093D0071092AF0775
:105030001092AE0708950F93062F21E04091AE071E
:1050400060EB77E08091D0076DD01092AF0710929F
:10505000AE071092AD070F91089581EA97E0BACF9D
:105060001092600881E080935E0810925D0861E014
:1050700084E10E949F1961E085E10E949F19E9EB9C
:10508000F0E080818E7F808380818D7F808388E4C3
:105090008093B80085E48093BC000895413208F005
:1050A0003FC0909160089111FCCF91E0909360080F
:1050B00020935E082FEF2093F30710923808240FF7
:1050C0002093370890935F0890915F08880F892B91
:1050D00080935F0880915D08813041F410925D08F3
:1050E00080915F088093BB0085EC01C085EE8093C2
:1050F000BC00809160088130E1F38091380884170A
:1051000010F44091380829E338E0FB01D9018A2FD7
:10511000821B841718F48D918193F9CF842F089501
:1051200080E008950F93413208F046C090916008E6
:105130009111FCCF92E09093600800935E089FEF7E
:105140009093F3071092380840933708FB0169E306
:1051500078E0DB019A2F961B941718F491919D9398
:10516000F9CF10925F0890915F08880F892B809388
:105170005F0880915D08813041F410925D08809154
:105180005F088093BB0085EC01C085EE8093BC0076
:10519000222321F0809160088230E1F38091F307AF
:1051A0008F3F61F08091F307803251F08091F307D7
:1051B000803341F483E007C081E005C080E003C094
:1051C00082E001C084E00F910895613298F420914B
:1051D0006008243089F460931508FC0187E198E0A9
:1051E000DC012A2F281B261718F421912D93F9CFC3
:1051F00080E0089581E0089582E0089585ED809330
:10520000BC008091BC0084FDFCCF10926008089522
:1052100085EC8093BC001092600808951F920F9255
:105220000FB60F9211240BB60F922F933F934F930B
:105230005F936F937F938F939F93AF93BF93EF93FE
:10524000FF938091B900887F803609F49CC068F58F
:10525000883209F45BC090F4803109F454C038F40A
:10526000882309F4F3C0883009F44DC0F2C08831B6
:1052700009F44CC0803209F45DC0EBC0803409F4FD
:1052800068C048F4803309F455C0883309F0E1C0A0
:105290008093F307A7C0803509F44FC0883509F41F
:1052A0005DC0883409F0D5C0D3C0883909F4C4C0C2
:1052B000A8F4883709F467C038F4883609F463C065
:1052C000803709F460C0C5C0883809F4B5C080399A
:1052D00009F45FC0803809F0BCC05BC0803B09F4B2
:1052E00083C038F4803A09F466C0883A09F47CC077
:1052F000B0C0803C09F4A4C0883C09F4A1C0883B3C
:1053000009F487C0A6C080915F0810C0909138084A
:1053100080913708981770F5E091380881E08E0F7A
:1053200080933808F0E0E75CF74F80818093BB0002
:1053300085EC83C08093F3078BC0E091380881E04F
:105340008E0F809338088091BB00F0E0E75CF74F48
:10535000808390913808809137086BC0E0913808BD
:1053600081E08E0F809338088091BB00F0E0E75C0D
:10537000F74F808380915E0881116AC081E080933D
:105380005D0884EA5EC083E0809360081092F407B1
:10539000CFCF8091F407803208F04EC0E091F4073F
:1053A00081E08E0F8093F4078091BB00F0E0EB501A
:1053B000F84F8083BDCF8091F407803230F4E091C4
:1053C000F407F0E0EB50F84F108218DF6091F4071B
:1053D00070E0E0915908F0915A0885EF97E019952F
:1053E0001092F40715DF35C084E0809360081092B6
:1053F000160810921508E0915B08F0915C08199569
:1054000080911508811105C081E0809315081092E4
:105410001708E091160881E08E0F80931608F0E0DF
:10542000E95EF74F80818093BB00909116088091D0
:105430001508981708F47CCF85E88093BC0009C054
:1054400085EC8093BC001092600803C01092F307B3
:10545000D5DEFF91EF91BF91AF919F918F917F9199
:105460006F915F914F913F912F910F900BBE0F90D5
:105470000FBE0F901F901895CF93DF9300D0CDB73C
:10548000DEB72091640881E0820F809364082223B4
:1054900049F081E090E0909368088093670820933A
:1054A00064083EC0CE0101960E94B80178940E9423
:1054B000C001F894809164088150809364088B81C6
:1054C000882389F02091630881E0820F809363082C
:1054D000222349F081E090E0909368088093670868
:1054E000209363081DC0809163088823B9F08091E0
:1054F0006508811115C0809166088F5F80936608EA
:1055000078940E94D902F894809163088150809326
:105510006308809166088150809366080E94D815C0
:105520000F900F900F90DF91CF910895DF92EF923F
:10553000FF920F931F93CF93DF931F921F92CDB7CC
:10554000DEB781E08A830E948B180E94511FE09190
:105550007F03F09180031182108260E070E080E0B0
:1055600090E00E94E1150E940503789400917F036A
:1055700010918003C8018C559F4F0E94E01583E075
:1055800090E00E94DC151982AE014F5F5F4F63E02F
:1055900070E0F801828193810E94861589818823B9
:1055A00029F081E0F801E655FF4F80830E94E7155E
:1055B000F8940E94841FF80180819181892B29F43D
:1055C00081E0E655FF4F9081911180E08A837894C5
:1055D00078947801FAEAEF0EF11CDD24D3948A81E5
:1055E0008823E1F01982AE014F5F5F4F63E070E006
:1055F000F801828193810E94C2158981882311F06C
:10560000F701D082F80180819181892B21F481E01A
:10561000F7019081911180E08A83E1CF83E090E0EF
:105620000E94DE150E940404F89480E090E00F9040
:105630000F90DF91CF911F910F91FF90EF90DF902E
:1056400008955058BB27AA270ED0DCC0CDD030F02B
:10565000D2D020F031F49F3F11F41EF4C2C00EF4FA
:10566000E095E7FBB8C0E92FDED080F3BA176207F8
:1056700073078407950718F071F49EF5F6C00EF4D1
:10568000E0950B2EBA2FA02D0B01B90190010C0152
:10569000CA01A0011124FF27591B99F0593F50F46A
:1056A000503E68F11A16F040A22F232F342F4427C2
:1056B000585FF3CF469537952795A795F0405395BA
:1056C000C9F77EF41F16BA0B620B730B840BBAF08A
:1056D0009150A1F0FF0FBB1F661F771F881FC2F7F5
:1056E0000EC0BA0F621F731F841F48F48795779509
:1056F0006795B795F7959E3F08F0B3CF9395880FC0
:1057000008F09927EE0F97958795089540D008F4F3
:1057100081E00895E89409C097FB3EF49095809548
:10572000709561957F4F8F4F9F4F9923A9F0F92F67
:1057300096E9BB279395F695879577956795B795E5
:10574000F111F8CFFAF4BB0F11F460FF1BC06F5FCB
:105750007F4F8F4F9F4F16C0882311F096E911C0DD
:10576000772321F09EE8872F762F05C0662371F0FE
:1057700096E8862F70E060E02AF09A95660F771F12
:10578000881FDAF7880F9695879597F90895990FEE
:105790000008550FAA0BE0E8FEEF16161706E807FB
:1057A000F907C0F012161306E407F50798F0621B1C
:1057B000730B840B950B39F40A2661F0232B242BF1
:1057C000252B21F408950A2609F4A140A6958FEF10
:1057D000811D811D089597F99F6780E870E060E062
:1057E00008959FEF80EC089500240A94161617067A
:1057F00018060906089500240A94121613061406C2
:1058000005060895092E0394000C11F4882352F024
:10581000BB0F40F4BF2B11F460FF04C06F5F7F4FDC
:105820008F4F9F4F089557FD9058440F551F59F0C3
:105830005F3F71F04795880F97FB991F61F09F3F7D
:1058400079F087950895121613061406551FF2CFA6
:105850004695F1DF08C0161617061806991FF1CFF6
:1058600086957105610508940895E894BB2766271D
:105870007727CB0197F908958ADF08F48FEF089511
:105880000BD0C0CFB1DF28F0B6DF18F0952309F0B8
:10589000A2CFA7CF1124EACFC6DFA0F3959FD1F303
:1058A000950F50E0551F629FF001729FBB27F00DCE
:1058B000B11D639FAA27F00DB11DAA1F649F662723
:1058C000B00DA11D661F829F2227B00DA11D621F72
:1058D000739FB00DA11D621F839FA00D611D221F2C
:1058E000749F3327A00D611D231F849F600D211D10
:1058F000822F762F6A2F11249F5750408AF0E1F0B3
:1059000088234AF0EE0FFF1FBB1F661F771F881FFB
:1059100091505040A9F79E3F510570F05CCFA6CF43
:105920005F3FECF3983EDCF3869577956795B795E6
:10593000F795E7959F5FC1F7FE2B880F911D969510
:10594000879597F90895A1E21A2EAA1BBB1BFD01AA
:105950000DC0AA1FBB1FEE1FFF1FA217B307E4074E
:10596000F50720F0A21BB30BE40BF50B661F771FA6
:10597000881F991F1A9469F7609570958095909586
:105980009B01AC01BD01CF010895EE0FFF1F0590F3
:10599000F491E02D19940790F691E02D19940F934E
:1059A0001F93CF93DF93869F8001879F100D969F53
:1059B000100D1124C8010DD0EC01009721F0A801B1
:1059C00060E070E036D1CE01DF91CF911F910F9151
:1059D0000895CF93DF938230910510F482E090E038
:1059E000E0915B09F0915C0920E030E0A0E0B0E0DC
:1059F000309739F14081518148175907B8F048175D
:105A0000590771F482819381109729F013969C9322
:105A10008E9312972CC090935C0980935B0927C0EA
:105A20002115310531F04217530718F0A901DB01A8
:105A300001C0EF019A01BD01DF010280F381E02D79
:105A4000D7CF21153105F9F0281B390B243031054A
:105A500080F48A819B816115710521F0FB0193839C
:105A6000828304C090935C0980935B09FE013296A7
:105A700044C0FE01E20FF31F81939193225031093C
:105A8000398328833AC02091590930915A09232B30
:105A900041F4209102023091030230935A0920937D
:105AA000590920910002309101022115310541F47C
:105AB0002DB73EB74091040250910502241B350BCF
:105AC000E0915909F0915A09E217F307A0F42E1B4F
:105AD0003F0B2817390778F0AC014E5F5F4F241752
